00100000         221545238000172                    0000510000002827271 FUNDO DE DESENVOLVIMENTO DE CABANCO DO BRASIL S.A.                    10906202210341300000008000000                                                                     
00100011R0100020 2021545238000172003059740001417019  0000510000002827271 FUNDO DE DESENVOLVIMENTO DE CA                                                                                00000282090620220000000000000000003059740        CBR30000
0010001300001P 010000510000002827271 30597400000017349   111110042018/R      1306202200000000007674800000 02N090620222000000000000000000001000000000000000000000000000000000000000000000000000000000042018/R                00020000900198471441
0010001300002Q 012031319413000167T.G. DA SILVA RIBEIRO                   JOSE EVALDO CARNEIRO DA SILVA 13, LJ16  CENTRO         28025110CMPS GOYTACAZESRJ0000000000000000                                        00030597400000017349   12345678
0010001300003R 01000000000000000000000000000000000000000000000000214062022000000000000200          FUNDECAM - Fundo de Desenvolvimento de C                                        000000000000000000000000000000000000 000000000000  0000000000
0010001300004P 010000510000002827271 30597400000017350   111110042018/R1/01  3006202200000000007675600000 02N090620222000000000000000000001000000000000000000000000000000000000000000000000000000000042018/R1               00020000900198471441
0010001300005Q 012031319413000167T.G. DA SILVA RIBEIRO                   JOSE EVALDO CARNEIRO DA SILVA 13, LJ16  CENTRO         28025110CMPS GOYTACAZESRJ0000000000000000                                        00030597400000017350   12345678
0010001300006R 01000000000000000000000000000000000000000000000000201072022000000000000200          FUNDECAM - Fundo de Desenvolvimento de C                                        000000000000000000000000000000000000 000000000000  0000000000
0010001300007P 010000510000002827271 30597400000017351   111110042018/R1/02  3007202200000000007675600000 02N090620222000000000000000000001000000000000000000000000000000000000000000000000000000000042018/R1               00020000900198471441
0010001300008Q 012031319413000167T.G. DA SILVA RIBEIRO                   JOSE EVALDO CARNEIRO DA SILVA 13, LJ16  CENTRO         28025110CMPS GOYTACAZESRJ0000000000000000                                        00030597400000017351   12345678
0010001300009R 01000000000000000000000000000000000000000000000000231072022000000000000200          FUNDECAM - Fundo de Desenvolvimento de C                                        000000000000000000000000000000000000 000000000000  0000000000
0010001300010P 010000510000002827271 30597400000017352   111110042018/R1/03  3008202200000000007675600000 02N090620222000000000000000000001000000000000000000000000000000000000000000000000000000000042018/R1               00020000900198471441
0010001300011Q 012031319413000167T.G. DA SILVA RIBEIRO                   JOSE EVALDO CARNEIRO DA SILVA 13, LJ16  CENTRO         28025110CMPS GOYTACAZESRJ0000000000000000                                        00030597400000017352   12345678
0010001300012R 01000000000000000000000000000000000000000000000000231082022000000000000200          FUNDECAM - Fundo de Desenvolvimento de C                                        000000000000000000000000000000000000 000000000000  0000000000
0010001300013P 010000510000002827271 30597400000017353   111110042018/R1/04  3009202200000000007675600000 02N090620222000000000000000000001000000000000000000000000000000000000000000000000000000000042018/R1               00020000900198471441
0010001300014Q 012031319413000167T.G. DA SILVA RIBEIRO                   JOSE EVALDO CARNEIRO DA SILVA 13, LJ16  CENTRO         28025110CMPS GOYTACAZESRJ0000000000000000                                        00030597400000017353   12345678
0010001300015R 01000000000000000000000000000000000000000000000000201102022000000000000200          FUNDECAM - Fundo de Desenvolvimento de C                                        000000000000000000000000000000000000 000000000000  0000000000
0010001300016P 010000510000002827271 30597400000017354   111110042018/R1/05  3010202200000000007675600000 02N090620222000000000000000000001000000000000000000000000000000000000000000000000000000000042018/R1               00020000900198471441
0010001300017Q 012031319413000167T.G. DA SILVA RIBEIRO                   JOSE EVALDO CARNEIRO DA SILVA 13, LJ16  CENTRO         28025110CMPS GOYTACAZESRJ0000000000000000                                        00030597400000017354   12345678
0010001300018R 01000000000000000000000000000000000000000000000000231102022000000000000200          FUNDECAM - Fundo de Desenvolvimento de C                                        000000000000000000000000000000000000 000000000000  0000000000
0010001300019P 010000510000002827271 30597400000017355   111110042018/R1/06  3011202200000000007675600000 02N090620222000000000000000000001000000000000000000000000000000000000000000000000000000000042018/R1               00020000900198471441
0010001300020Q 012031319413000167T.G. DA SILVA RIBEIRO                   JOSE EVALDO CARNEIRO DA SILVA 13, LJ16  CENTRO         28025110CMPS GOYTACAZESRJ0000000000000000                                        00030597400000017355   12345678
0010001300021R 01000000000000000000000000000000000000000000000000201122022000000000000200          FUNDECAM - Fundo de Desenvolvimento de C                                        000000000000000000000000000000000000 000000000000  0000000000
0010001300022P 010000510000002827271 30597400000017356   111110042018/R1/07  3012202200000000007675600000 02N090620222000000000000000000001000000000000000000000000000000000000000000000000000000000042018/R1               00020000900198471441
0010001300023Q 012031319413000167T.G. DA SILVA RIBEIRO                   JOSE EVALDO CARNEIRO DA SILVA 13, LJ16  CENTRO         28025110CMPS GOYTACAZESRJ0000000000000000                                        00030597400000017356   12345678
0010001300024R 01000000000000000000000000000000000000000000000000231122022000000000000200          FUNDECAM - Fundo de Desenvolvimento de C                                        000000000000000000000000000000000000 000000000000  0000000000
0010001300025P 010000510000002827271 30597400000017357   111110042018/R1/08  3001202300000000007675600000 02N090620222000000000000000000001000000000000000000000000000000000000000000000000000000000042018/R1               00020000900198471441
0010001300026Q 012031319413000167T.G. DA SILVA RIBEIRO                   JOSE EVALDO CARNEIRO DA SILVA 13, LJ16  CENTRO         28025110CMPS GOYTACAZESRJ0000000000000000                                        00030597400000017357   12345678
0010001300027R 01000000000000000000000000000000000000000000000000231012023000000000000200          FUNDECAM - Fundo de Desenvolvimento de C                                        000000000000000000000000000000000000 000000000000  0000000000
0010001300028P 010000510000002827271 30597400000017358   111110042018/R1/09  2802202300000000007675600000 02N090620222000000000000000000001000000000000000000000000000000000000000000000000000000000042018/R1               00020000900198471441
0010001300029Q 012031319413000167T.G. DA SILVA RIBEIRO                   JOSE EVALDO CARNEIRO DA SILVA 13, LJ16  CENTRO         28025110CMPS GOYTACAZESRJ0000000000000000                                        00030597400000017358   12345678
0010001300030R 01000000000000000000000000000000000000000000000000201032023000000000000200          FUNDECAM - Fundo de Desenvolvimento de C                                        000000000000000000000000000000000000 000000000000  0000000000
0010001300031P 010000510000002827271 30597400000017359   111110042018/R1/10  3003202300000000007675600000 02N090620222000000000000000000001000000000000000000000000000000000000000000000000000000000042018/R1               00020000900198471441
0010001300032Q 012031319413000167T.G. DA SILVA RIBEIRO                   JOSE EVALDO CARNEIRO DA SILVA 13, LJ16  CENTRO         28025110CMPS GOYTACAZESRJ0000000000000000                                        00030597400000017359   12345678
0010001300033R 01000000000000000000000000000000000000000000000000231032023000000000000200          FUNDECAM - Fundo de Desenvolvimento de C                                        000000000000000000000000000000000000 000000000000  0000000000
0010001300034P 010000510000002827271 30597400000017360   111110042018/R1/11  3004202300000000007675600000 02N090620222000000000000000000001000000000000000000000000000000000000000000000000000000000042018/R1               00020000900198471441
0010001300035Q 012031319413000167T.G. DA SILVA RIBEIRO                   JOSE EVALDO CARNEIRO DA SILVA 13, LJ16  CENTRO         28025110CMPS GOYTACAZESRJ0000000000000000                                        00030597400000017360   12345678
0010001300036R 01000000000000000000000000000000000000000000000000201052023000000000000200          FUNDECAM - Fundo de Desenvolvimento de C                                        000000000000000000000000000000000000 000000000000  0000000000
0010001300037P 010000510000002827271 30597400000017361   111110042018/R1/12  3005202300000000007675600000 02N090620222000000000000000000001000000000000000000000000000000000000000000000000000000000042018/R1               00020000900198471441
0010001300038Q 012031319413000167T.G. DA SILVA RIBEIRO                   JOSE EVALDO CARNEIRO DA SILVA 13, LJ16  CENTRO         28025110CMPS GOYTACAZESRJ0000000000000000                                        00030597400000017361   12345678
0010001300039R 01000000000000000000000000000000000000000000000000231052023000000000000200          FUNDECAM - Fundo de Desenvolvimento de C                                        000000000000000000000000000000000000 000000000000  0000000000
0010001300040P 010000510000002827271 30597400000017362   111110042018/R1/13  3006202300000000007675600000 02N090620222000000000000000000001000000000000000000000000000000000000000000000000000000000042018/R1               00020000900198471441
0010001300041Q 012031319413000167T.G. DA SILVA RIBEIRO                   JOSE EVALDO CARNEIRO DA SILVA 13, LJ16  CENTRO         28025110CMPS GOYTACAZESRJ0000000000000000                                        00030597400000017362   12345678
0010001300042R 01000000000000000000000000000000000000000000000000201072023000000000000200          FUNDECAM - Fundo de Desenvolvimento de C                                        000000000000000000000000000000000000 000000000000  0000000000
0010001300043P 010000510000002827271 30597400000017363   111110042018/R1/14  3007202300000000007675600000 02N090620222000000000000000000001000000000000000000000000000000000000000000000000000000000042018/R1               00020000900198471441
0010001300044Q 012031319413000167T.G. DA SILVA RIBEIRO                   JOSE EVALDO CARNEIRO DA SILVA 13, LJ16  CENTRO         28025110CMPS GOYTACAZESRJ0000000000000000                                        00030597400000017363   12345678
0010001300045R 01000000000000000000000000000000000000000000000000231072023000000000000200          FUNDECAM - Fundo de Desenvolvimento de C                                        000000000000000000000000000000000000 000000000000  0000000000
0010001300046P 010000510000002827271 30597400000017364   111110042018/R1/15  3008202300000000007675600000 02N090620222000000000000000000001000000000000000000000000000000000000000000000000000000000042018/R1               00020000900198471441
0010001300047Q 012031319413000167T.G. DA SILVA RIBEIRO                   JOSE EVALDO CARNEIRO DA SILVA 13, LJ16  CENTRO         28025110CMPS GOYTACAZESRJ0000000000000000                                        00030597400000017364   12345678
0010001300048R 01000000000000000000000000000000000000000000000000231082023000000000000200          FUNDECAM - Fundo de Desenvolvimento de C                                        000000000000000000000000000000000000 000000000000  0000000000
0010001300049P 010000510000002827271 30597400000017365   111110042018/R1/16  3009202300000000007675600000 02N090620222000000000000000000001000000000000000000000000000000000000000000000000000000000042018/R1               00020000900198471441
0010001300050Q 012031319413000167T.G. DA SILVA RIBEIRO                   JOSE EVALDO CARNEIRO DA SILVA 13, LJ16  CENTRO         28025110CMPS GOYTACAZESRJ0000000000000000                                        00030597400000017365   12345678
0010001300051R 01000000000000000000000000000000000000000000000000201102023000000000000200          FUNDECAM - Fundo de Desenvolvimento de C                                        000000000000000000000000000000000000 000000000000  0000000000
0010001300052P 010000510000002827271 30597400000017366   111110042018/R1/17  3010202300000000007675600000 02N090620222000000000000000000001000000000000000000000000000000000000000000000000000000000042018/R1               00020000900198471441
0010001300053Q 012031319413000167T.G. DA SILVA RIBEIRO                   JOSE EVALDO CARNEIRO DA SILVA 13, LJ16  CENTRO         28025110CMPS GOYTACAZESRJ0000000000000000                                        00030597400000017366   12345678
0010001300054R 01000000000000000000000000000000000000000000000000231102023000000000000200          FUNDECAM - Fundo de Desenvolvimento de C                                        000000000000000000000000000000000000 000000000000  0000000000
0010001300055P 010000510000002827271 30597400000017367   111110042018/R1/18  3011202300000000007675600000 02N090620222000000000000000000001000000000000000000000000000000000000000000000000000000000042018/R1               00020000900198471441
0010001300056Q 012031319413000167T.G. DA SILVA RIBEIRO                   JOSE EVALDO CARNEIRO DA SILVA 13, LJ16  CENTRO         28025110CMPS GOYTACAZESRJ0000000000000000                                        00030597400000017367   12345678
0010001300057R 01000000000000000000000000000000000000000000000000201122023000000000000200          FUNDECAM - Fundo de Desenvolvimento de C                                        000000000000000000000000000000000000 000000000000  0000000000
0010001300058P 010000510000002827271 30597400000017368   111110042018/R1/19  3012202300000000007675600000 02N090620222000000000000000000001000000000000000000000000000000000000000000000000000000000042018/R1               00020000900198471441
0010001300059Q 012031319413000167T.G. DA SILVA RIBEIRO                   JOSE EVALDO CARNEIRO DA SILVA 13, LJ16  CENTRO         28025110CMPS GOYTACAZESRJ0000000000000000                                        00030597400000017368   12345678
0010001300060R 01000000000000000000000000000000000000000000000000231122023000000000000200          FUNDECAM - Fundo de Desenvolvimento de C                                        000000000000000000000000000000000000 000000000000  0000000000
0010001300061P 010000510000002827271 30597400000017369   111110042018/R1/20  3001202400000000007675600000 02N090620222000000000000000000001000000000000000000000000000000000000000000000000000000000042018/R1               00020000900198471441
0010001300062Q 012031319413000167T.G. DA SILVA RIBEIRO                   JOSE EVALDO CARNEIRO DA SILVA 13, LJ16  CENTRO         28025110CMPS GOYTACAZESRJ0000000000000000                                        00030597400000017369   12345678
0010001300063R 01000000000000000000000000000000000000000000000000231012024000000000000200          FUNDECAM - Fundo de Desenvolvimento de C                                        000000000000000000000000000000000000 000000000000  0000000000
0010001300064P 010000510000002827271 30597400000017370   111110042018/R1/21  2902202400000000007675600000 02N090620222000000000000000000001000000000000000000000000000000000000000000000000000000000042018/R1               00020000900198471441
0010001300065Q 012031319413000167T.G. DA SILVA RIBEIRO                   JOSE EVALDO CARNEIRO DA SILVA 13, LJ16  CENTRO         28025110CMPS GOYTACAZESRJ0000000000000000                                        00030597400000017370   12345678
0010001300066R 01000000000000000000000000000000000000000000000000201032024000000000000200          FUNDECAM - Fundo de Desenvolvimento de C                                        000000000000000000000000000000000000 000000000000  0000000000
0010001300067P 010000510000002827271 30597400000017371   111110042018/R1/22  3003202400000000007675600000 02N090620222000000000000000000001000000000000000000000000000000000000000000000000000000000042018/R1               00020000900198471441
0010001300068Q 012031319413000167T.G. DA SILVA RIBEIRO                   JOSE EVALDO CARNEIRO DA SILVA 13, LJ16  CENTRO         28025110CMPS GOYTACAZESRJ0000000000000000                                        00030597400000017371   12345678
0010001300069R 01000000000000000000000000000000000000000000000000231032024000000000000200          FUNDECAM - Fundo de Desenvolvimento de C                                        000000000000000000000000000000000000 000000000000  0000000000
0010001300070P 010000510000002827271 30597400000017372   111110042018/R1/23  3004202400000000007675600000 02N090620222000000000000000000001000000000000000000000000000000000000000000000000000000000042018/R1               00020000900198471441
0010001300071Q 012031319413000167T.G. DA SILVA RIBEIRO                   JOSE EVALDO CARNEIRO DA SILVA 13, LJ16  CENTRO         28025110CMPS GOYTACAZESRJ0000000000000000                                        00030597400000017372   12345678
0010001300072R 01000000000000000000000000000000000000000000000000201052024000000000000200          FUNDECAM - Fundo de Desenvolvimento de C                                        000000000000000000000000000000000000 000000000000  0000000000
0010001300073P 010000510000002827271 30597400000017373   111110042018/R1/24  3005202400000000007675600000 02N090620222000000000000000000001000000000000000000000000000000000000000000000000000000000042018/R1               00020000900198471441
0010001300074Q 012031319413000167T.G. DA SILVA RIBEIRO                   JOSE EVALDO CARNEIRO DA SILVA 13, LJ16  CENTRO         28025110CMPS GOYTACAZESRJ0000000000000000                                        00030597400000017373   12345678
0010001300075R 01000000000000000000000000000000000000000000000000231052024000000000000200          FUNDECAM - Fundo de Desenvolvimento de C                                        000000000000000000000000000000000000 000000000000  0000000000
0010001300076P 010000510000002827271 30597400000017374   111110042018/R1/25  3006202400000000007675600000 02N090620222000000000000000000001000000000000000000000000000000000000000000000000000000000042018/R1               00020000900198471441
0010001300077Q 012031319413000167T.G. DA SILVA RIBEIRO                   JOSE EVALDO CARNEIRO DA SILVA 13, LJ16  CENTRO         28025110CMPS GOYTACAZESRJ0000000000000000                                        00030597400000017374   12345678
0010001300078R 01000000000000000000000000000000000000000000000000201072024000000000000200          FUNDECAM - Fundo de Desenvolvimento de C                                        000000000000000000000000000000000000 000000000000  0000000000
0010001300079P 010000510000002827271 30597400000017375   111110042018/R1/26  3007202400000000007675600000 02N090620222000000000000000000001000000000000000000000000000000000000000000000000000000000042018/R1               00020000900198471441
0010001300080Q 012031319413000167T.G. DA SILVA RIBEIRO                   JOSE EVALDO CARNEIRO DA SILVA 13, LJ16  CENTRO         28025110CMPS GOYTACAZESRJ0000000000000000                                        00030597400000017375   12345678
0010001300081R 01000000000000000000000000000000000000000000000000231072024000000000000200          FUNDECAM - Fundo de Desenvolvimento de C                                        000000000000000000000000000000000000 000000000000  0000000000
0010001300082P 010000510000002827271 30597400000017376   111110042018/R1/27  3008202400000000007675600000 02N090620222000000000000000000001000000000000000000000000000000000000000000000000000000000042018/R1               00020000900198471441
0010001300083Q 012031319413000167T.G. DA SILVA RIBEIRO                   JOSE EVALDO CARNEIRO DA SILVA 13, LJ16  CENTRO         28025110CMPS GOYTACAZESRJ0000000000000000                                        00030597400000017376   12345678
0010001300084R 01000000000000000000000000000000000000000000000000231082024000000000000200          FUNDECAM - Fundo de Desenvolvimento de C                                        000000000000000000000000000000000000 000000000000  0000000000
0010001300085P 010000510000002827271 30597400000017377   111110042018/R1/28  3009202400000000007675600000 02N090620222000000000000000000001000000000000000000000000000000000000000000000000000000000042018/R1               00020000900198471441
0010001300086Q 012031319413000167T.G. DA SILVA RIBEIRO                   JOSE EVALDO CARNEIRO DA SILVA 13, LJ16  CENTRO         28025110CMPS GOYTACAZESRJ0000000000000000                                        00030597400000017377   12345678
0010001300087R 01000000000000000000000000000000000000000000000000201102024000000000000200          FUNDECAM - Fundo de Desenvolvimento de C                                        000000000000000000000000000000000000 000000000000  0000000000
0010001300088P 010000510000002827271 30597400000017378   111110042018/R1/29  3010202400000000007675600000 02N090620222000000000000000000001000000000000000000000000000000000000000000000000000000000042018/R1               00020000900198471441
0010001300089Q 012031319413000167T.G. DA SILVA RIBEIRO                   JOSE EVALDO CARNEIRO DA SILVA 13, LJ16  CENTRO         28025110CMPS GOYTACAZESRJ0000000000000000                                        00030597400000017378   12345678
0010001300090R 01000000000000000000000000000000000000000000000000231102024000000000000200          FUNDECAM - Fundo de Desenvolvimento de C                                        000000000000000000000000000000000000 000000000000  0000000000
0010001300091P 010000510000002827271 30597400000017379   111110042018/R1/30  3011202400000000007675600000 02N090620222000000000000000000001000000000000000000000000000000000000000000000000000000000042018/R1               00020000900198471441
0010001300092Q 012031319413000167T.G. DA SILVA RIBEIRO                   JOSE EVALDO CARNEIRO DA SILVA 13, LJ16  CENTRO         28025110CMPS GOYTACAZESRJ0000000000000000                                        00030597400000017379   12345678
0010001300093R 01000000000000000000000000000000000000000000000000201122024000000000000200          FUNDECAM - Fundo de Desenvolvimento de C                                        000000000000000000000000000000000000 000000000000  0000000000
0010001300094P 010000510000002827271 30597400000017380   111110042018/R1/31  3012202400000000007675600000 02N090620222000000000000000000001000000000000000000000000000000000000000000000000000000000042018/R1               00020000900198471441
0010001300095Q 012031319413000167T.G. DA SILVA RIBEIRO                   JOSE EVALDO CARNEIRO DA SILVA 13, LJ16  CENTRO         28025110CMPS GOYTACAZESRJ0000000000000000                                        00030597400000017380   12345678
0010001300096R 01000000000000000000000000000000000000000000000000231122024000000000000200          FUNDECAM - Fundo de Desenvolvimento de C                                        000000000000000000000000000000000000 000000000000  0000000000
0010001300097P 010000510000002827271 30597400000017381   111110042018/R1/32  3001202500000000007675600000 02N090620222000000000000000000001000000000000000000000000000000000000000000000000000000000042018/R1               00020000900198471441
0010001300098Q 012031319413000167T.G. DA SILVA RIBEIRO                   JOSE EVALDO CARNEIRO DA SILVA 13, LJ16  CENTRO         28025110CMPS GOYTACAZESRJ0000000000000000                                        00030597400000017381   12345678
0010001300099R 01000000000000000000000000000000000000000000000000231012025000000000000200          FUNDECAM - Fundo de Desenvolvimento de C                                        000000000000000000000000000000000000 000000000000  0000000000
0010001300100P 010000510000002827271 30597400000017382   111110042018/R1/33  2802202500000000007675600000 02N090620222000000000000000000001000000000000000000000000000000000000000000000000000000000042018/R1               00020000900198471441
0010001300101Q 012031319413000167T.G. DA SILVA RIBEIRO                   JOSE EVALDO CARNEIRO DA SILVA 13, LJ16  CENTRO         28025110CMPS GOYTACAZESRJ0000000000000000                                        00030597400000017382   12345678
0010001300102R 01000000000000000000000000000000000000000000000000201032025000000000000200          FUNDECAM - Fundo de Desenvolvimento de C                                        000000000000000000000000000000000000 000000000000  0000000000
0010001300103P 010000510000002827271 30597400000017383   111110042018/R1/34  3003202500000000007675600000 02N090620222000000000000000000001000000000000000000000000000000000000000000000000000000000042018/R1               00020000900198471441
0010001300104Q 012031319413000167T.G. DA SILVA RIBEIRO                   JOSE EVALDO CARNEIRO DA SILVA 13, LJ16  CENTRO         28025110CMPS GOYTACAZESRJ0000000000000000                                        00030597400000017383   12345678
0010001300105R 01000000000000000000000000000000000000000000000000231032025000000000000200          FUNDECAM - Fundo de Desenvolvimento de C                                        000000000000000000000000000000000000 000000000000  0000000000
0010001300106P 010000510000002827271 30597400000017384   111110042018/R1/35  3004202500000000007675600000 02N090620222000000000000000000001000000000000000000000000000000000000000000000000000000000042018/R1               00020000900198471441
0010001300107Q 012031319413000167T.G. DA SILVA RIBEIRO                   JOSE EVALDO CARNEIRO DA SILVA 13, LJ16  CENTRO         28025110CMPS GOYTACAZESRJ0000000000000000                                        00030597400000017384   12345678
0010001300108R 01000000000000000000000000000000000000000000000000201052025000000000000200          FUNDECAM - Fundo de Desenvolvimento de C                                        000000000000000000000000000000000000 000000000000  0000000000
0010001300109P 010000510000002827271 30597400000017256   111110652022/16/01  2706202200000000005921300000 02N060620222000000000000000000001000000000000000000000000000000000000000000000000000000000652022/16               00020000900198471441
0010001300110Q 011000000726511722MARINILZA BARBOSA GONCALVES MANHAES     RUA DAS MARGARIDAS , 25                 BELA VISTA     28022380CAMPOS DOS GOYTRJ0000000000000000                                        00030597400000017256   12345678
0010001300111R 01000000000000000000000000000000000000000000000000228062022000000000000200          FUNDECAM - Fundo de Desenvolvimento de C                                        000000000000000000000000000000000000 000000000000  0000000000
0010001300112P 010000510000002827271 30597400000017257   111110652022/16/02  2707202200000000005921300000 02N060620222000000000000000000001000000000000000000000000000000000000000000000000000000000652022/16               00020000900198471441
0010001300113Q 011000000726511722MARINILZA BARBOSA GONCALVES MANHAES     RUA DAS MARGARIDAS , 25                 BELA VISTA     28022380CAMPOS DOS GOYTRJ0000000000000000                                        00030597400000017257   12345678
0010001300114R 01000000000000000000000000000000000000000000000000228072022000000000000200          FUNDECAM - Fundo de Desenvolvimento de C                                        000000000000000000000000000000000000 000000000000  0000000000
0010001300115P 010000510000002827271 30597400000017258   111110652022/16/03  2708202200000000005921300000 02N060620222000000000000000000001000000000000000000000000000000000000000000000000000000000652022/16               00020000900198471441
0010001300116Q 011000000726511722MARINILZA BARBOSA GONCALVES MANHAES     RUA DAS MARGARIDAS , 25                 BELA VISTA     28022380CAMPOS DOS GOYTRJ0000000000000000                                        00030597400000017258   12345678
0010001300117R 01000000000000000000000000000000000000000000000000228082022000000000000200          FUNDECAM - Fundo de Desenvolvimento de C                                        000000000000000000000000000000000000 000000000000  0000000000
0010001300118P 010000510000002827271 30597400000017259   111110652022/16/04  2709202200000000005921300000 02N060620222000000000000000000001000000000000000000000000000000000000000000000000000000000652022/16               00020000900198471441
0010001300119Q 011000000726511722MARINILZA BARBOSA GONCALVES MANHAES     RUA DAS MARGARIDAS , 25                 BELA VISTA     28022380CAMPOS DOS GOYTRJ0000000000000000                                        00030597400000017259   12345678
0010001300120R 01000000000000000000000000000000000000000000000000228092022000000000000200          FUNDECAM - Fundo de Desenvolvimento de C                                        000000000000000000000000000000000000 000000000000  0000000000
0010001300121P 010000510000002827271 30597400000017260   111110652022/16/05  2710202200000000005921300000 02N060620222000000000000000000001000000000000000000000000000000000000000000000000000000000652022/16               00020000900198471441
0010001300122Q 011000000726511722MARINILZA BARBOSA GONCALVES MANHAES     RUA DAS MARGARIDAS , 25                 BELA VISTA     28022380CAMPOS DOS GOYTRJ0000000000000000                                        00030597400000017260   12345678
0010001300123R 01000000000000000000000000000000000000000000000000228102022000000000000200          FUNDECAM - Fundo de Desenvolvimento de C                                        000000000000000000000000000000000000 000000000000  0000000000
0010001300124P 010000510000002827271 30597400000017261   111110652022/16/06  2711202200000000005921300000 02N060620222000000000000000000001000000000000000000000000000000000000000000000000000000000652022/16               00020000900198471441
0010001300125Q 011000000726511722MARINILZA BARBOSA GONCALVES MANHAES     RUA DAS MARGARIDAS , 25                 BELA VISTA     28022380CAMPOS DOS GOYTRJ0000000000000000                                        00030597400000017261   12345678
0010001300126R 01000000000000000000000000000000000000000000000000228112022000000000000200          FUNDECAM - Fundo de Desenvolvimento de C                                        000000000000000000000000000000000000 000000000000  0000000000
0010001300127P 010000510000002827271 30597400000017262   111110652022/16/07  2712202200000000005921300000 02N060620222000000000000000000001000000000000000000000000000000000000000000000000000000000652022/16               00020000900198471441
0010001300128Q 011000000726511722MARINILZA BARBOSA GONCALVES MANHAES     RUA DAS MARGARIDAS , 25                 BELA VISTA     28022380CAMPOS DOS GOYTRJ0000000000000000                                        00030597400000017262   12345678
0010001300129R 01000000000000000000000000000000000000000000000000228122022000000000000200          FUNDECAM - Fundo de Desenvolvimento de C                                        000000000000000000000000000000000000 000000000000  0000000000
0010001300130P 010000510000002827271 30597400000017263   111110652022/16/08  2701202300000000005921300000 02N060620222000000000000000000001000000000000000000000000000000000000000000000000000000000652022/16               00020000900198471441
0010001300131Q 011000000726511722MARINILZA BARBOSA GONCALVES MANHAES     RUA DAS MARGARIDAS , 25                 BELA VISTA     28022380CAMPOS DOS GOYTRJ0000000000000000                                        00030597400000017263   12345678
0010001300132R 01000000000000000000000000000000000000000000000000228012023000000000000200          FUNDECAM - Fundo de Desenvolvimento de C                                        000000000000000000000000000000000000 000000000000  0000000000
0010001300133P 010000510000002827271 30597400000017264   111110652022/16/09  2702202300000000005921300000 02N060620222000000000000000000001000000000000000000000000000000000000000000000000000000000652022/16               00020000900198471441
0010001300134Q 011000000726511722MARINILZA BARBOSA GONCALVES MANHAES     RUA DAS MARGARIDAS , 25                 BELA VISTA     28022380CAMPOS DOS GOYTRJ0000000000000000                                        00030597400000017264   12345678
0010001300135R 01000000000000000000000000000000000000000000000000228022023000000000000200          FUNDECAM - Fundo de Desenvolvimento de C                                        000000000000000000000000000000000000 000000000000  0000000000
0010001300136P 010000510000002827271 30597400000017265   111110652022/16/10  2703202300000000005921300000 02N060620222000000000000000000001000000000000000000000000000000000000000000000000000000000652022/16               00020000900198471441
0010001300137Q 011000000726511722MARINILZA BARBOSA GONCALVES MANHAES     RUA DAS MARGARIDAS , 25                 BELA VISTA     28022380CAMPOS DOS GOYTRJ0000000000000000                                        00030597400000017265   12345678
0010001300138R 01000000000000000000000000000000000000000000000000228032023000000000000200          FUNDECAM - Fundo de Desenvolvimento de C                                        000000000000000000000000000000000000 000000000000  0000000000
0010001300139P 010000510000002827271 30597400000017266   111110652022/16/11  2704202300000000005921300000 02N060620222000000000000000000001000000000000000000000000000000000000000000000000000000000652022/16               00020000900198471441
0010001300140Q 011000000726511722MARINILZA BARBOSA GONCALVES MANHAES     RUA DAS MARGARIDAS , 25                 BELA VISTA     28022380CAMPOS DOS GOYTRJ0000000000000000                                        00030597400000017266   12345678
0010001300141R 01000000000000000000000000000000000000000000000000228042023000000000000200          FUNDECAM - Fundo de Desenvolvimento de C                                        000000000000000000000000000000000000 000000000000  0000000000
0010001300142P 010000510000002827271 30597400000017267   111110652022/16/12  2705202300000000005921300000 02N060620222000000000000000000001000000000000000000000000000000000000000000000000000000000652022/16               00020000900198471441
0010001300143Q 011000000726511722MARINILZA BARBOSA GONCALVES MANHAES     RUA DAS MARGARIDAS , 25                 BELA VISTA     28022380CAMPOS DOS GOYTRJ0000000000000000                                        00030597400000017267   12345678
0010001300144R 01000000000000000000000000000000000000000000000000228052023000000000000200          FUNDECAM - Fundo de Desenvolvimento de C                                        000000000000000000000000000000000000 000000000000  0000000000
0010001300145P 010000510000002827271 30597400000017268   111110652022/16/13  2706202300000000005921300000 02N060620222000000000000000000001000000000000000000000000000000000000000000000000000000000652022/16               00020000900198471441
0010001300146Q 011000000726511722MARINILZA BARBOSA GONCALVES MANHAES     RUA DAS MARGARIDAS , 25                 BELA VISTA     28022380CAMPOS DOS GOYTRJ0000000000000000                                        00030597400000017268   12345678
0010001300147R 01000000000000000000000000000000000000000000000000228062023000000000000200          FUNDECAM - Fundo de Desenvolvimento de C                                        000000000000000000000000000000000000 000000000000  0000000000
0010001300148P 010000510000002827271 30597400000017269   111110652022/16/14  2707202300000000005921300000 02N060620222000000000000000000001000000000000000000000000000000000000000000000000000000000652022/16               00020000900198471441
0010001300149Q 011000000726511722MARINILZA BARBOSA GONCALVES MANHAES     RUA DAS MARGARIDAS , 25                 BELA VISTA     28022380CAMPOS DOS GOYTRJ0000000000000000                                        00030597400000017269   12345678
0010001300150R 01000000000000000000000000000000000000000000000000228072023000000000000200          FUNDECAM - Fundo de Desenvolvimento de C                                        000000000000000000000000000000000000 000000000000  0000000000
0010001300151P 010000510000002827271 30597400000017270   111110652022/16/15  2708202300000000005921300000 02N060620222000000000000000000001000000000000000000000000000000000000000000000000000000000652022/16               00020000900198471441
0010001300152Q 011000000726511722MARINILZA BARBOSA GONCALVES MANHAES     RUA DAS MARGARIDAS , 25                 BELA VISTA     28022380CAMPOS DOS GOYTRJ0000000000000000                                        00030597400000017270   12345678
0010001300153R 01000000000000000000000000000000000000000000000000228082023000000000000200          FUNDECAM - Fundo de Desenvolvimento de C                                        000000000000000000000000000000000000 000000000000  0000000000
0010001300154P 010000510000002827271 30597400000017271   111110652022/16/16  2709202300000000005921300000 02N060620222000000000000000000001000000000000000000000000000000000000000000000000000000000652022/16               00020000900198471441
0010001300155Q 011000000726511722MARINILZA BARBOSA GONCALVES MANHAES     RUA DAS MARGARIDAS , 25                 BELA VISTA     28022380CAMPOS DOS GOYTRJ0000000000000000                                        00030597400000017271   12345678
0010001300156R 01000000000000000000000000000000000000000000000000228092023000000000000200          FUNDECAM - Fundo de Desenvolvimento de C                                        000000000000000000000000000000000000 000000000000  0000000000
0010001300157P 010000510000002827271 30597400000017272   111110652022/16/17  2710202300000000005921300000 02N060620222000000000000000000001000000000000000000000000000000000000000000000000000000000652022/16               00020000900198471441
0010001300158Q 011000000726511722MARINILZA BARBOSA GONCALVES MANHAES     RUA DAS MARGARIDAS , 25                 BELA VISTA     28022380CAMPOS DOS GOYTRJ0000000000000000                                        00030597400000017272   12345678
0010001300159R 01000000000000000000000000000000000000000000000000228102023000000000000200          FUNDECAM - Fundo de Desenvolvimento de C                                        000000000000000000000000000000000000 000000000000  0000000000
0010001300160P 010000510000002827271 30597400000017273   111110652022/16/18  2711202300000000005921300000 02N060620222000000000000000000001000000000000000000000000000000000000000000000000000000000652022/16               00020000900198471441
0010001300161Q 011000000726511722MARINILZA BARBOSA GONCALVES MANHAES     RUA DAS MARGARIDAS , 25                 BELA VISTA     28022380CAMPOS DOS GOYTRJ0000000000000000                                        00030597400000017273   12345678
0010001300162R 01000000000000000000000000000000000000000000000000228112023000000000000200          FUNDECAM - Fundo de Desenvolvimento de C                                        000000000000000000000000000000000000 000000000000  0000000000
0010001300163P 010000510000002827271 30597400000017331   111110662022/15/01  2706202200000000005625300000 02N060620222000000000000000000001000000000000000000000000000000000000000000000000000000000662022/15               00020000900198471441
0010001300164Q 011000008171902790RENATA HILEL RIBEIRO                    AV. DR. NEWTON GUARANA, 507             PENHA          28021245CAMPOS DOS GOYTRJ0000000000000000                                        00030597400000017331   12345678
0010001300165R 01000000000000000000000000000000000000000000000000228062022000000000000200          FUNDECAM - Fundo de Desenvolvimento de C                                        000000000000000000000000000000000000 000000000000  0000000000
0010001300166P 010000510000002827271 30597400000017332   111110662022/15/02  2707202200000000005625300000 02N060620222000000000000000000001000000000000000000000000000000000000000000000000000000000662022/15               00020000900198471441
0010001300167Q 011000008171902790RENATA HILEL RIBEIRO                    AV. DR. NEWTON GUARANA, 507             PENHA          28021245CAMPOS DOS GOYTRJ0000000000000000                                        00030597400000017332   12345678
0010001300168R 01000000000000000000000000000000000000000000000000228072022000000000000200          FUNDECAM - Fundo de Desenvolvimento de C                                        000000000000000000000000000000000000 000000000000  0000000000
0010001300169P 010000510000002827271 30597400000017333   111110662022/15/03  2708202200000000005625300000 02N060620222000000000000000000001000000000000000000000000000000000000000000000000000000000662022/15               00020000900198471441
0010001300170Q 011000008171902790RENATA HILEL RIBEIRO                    AV. DR. NEWTON GUARANA, 507             PENHA          28021245CAMPOS DOS GOYTRJ0000000000000000                                        00030597400000017333   12345678
0010001300171R 01000000000000000000000000000000000000000000000000228082022000000000000200          FUNDECAM - Fundo de Desenvolvimento de C                                        000000000000000000000000000000000000 000000000000  0000000000
0010001300172P 010000510000002827271 30597400000017334   111110662022/15/04  2709202200000000005625300000 02N060620222000000000000000000001000000000000000000000000000000000000000000000000000000000662022/15               00020000900198471441
0010001300173Q 011000008171902790RENATA HILEL RIBEIRO                    AV. DR. NEWTON GUARANA, 507             PENHA          28021245CAMPOS DOS GOYTRJ0000000000000000                                        00030597400000017334   12345678
0010001300174R 01000000000000000000000000000000000000000000000000228092022000000000000200          FUNDECAM - Fundo de Desenvolvimento de C                                        000000000000000000000000000000000000 000000000000  0000000000
0010001300175P 010000510000002827271 30597400000017335   111110662022/15/05  2710202200000000005625300000 02N060620222000000000000000000001000000000000000000000000000000000000000000000000000000000662022/15               00020000900198471441
0010001300176Q 011000008171902790RENATA HILEL RIBEIRO                    AV. DR. NEWTON GUARANA, 507             PENHA          28021245CAMPOS DOS GOYTRJ0000000000000000                                        00030597400000017335   12345678
0010001300177R 01000000000000000000000000000000000000000000000000228102022000000000000200          FUNDECAM - Fundo de Desenvolvimento de C                                        000000000000000000000000000000000000 000000000000  0000000000
0010001300178P 010000510000002827271 30597400000017336   111110662022/15/06  2711202200000000005625300000 02N060620222000000000000000000001000000000000000000000000000000000000000000000000000000000662022/15               00020000900198471441
0010001300179Q 011000008171902790RENATA HILEL RIBEIRO                    AV. DR. NEWTON GUARANA, 507             PENHA          28021245CAMPOS DOS GOYTRJ0000000000000000                                        00030597400000017336   12345678
0010001300180R 01000000000000000000000000000000000000000000000000228112022000000000000200          FUNDECAM - Fundo de Desenvolvimento de C                                        000000000000000000000000000000000000 000000000000  0000000000
0010001300181P 010000510000002827271 30597400000017337   111110662022/15/07  2712202200000000005625300000 02N060620222000000000000000000001000000000000000000000000000000000000000000000000000000000662022/15               00020000900198471441
0010001300182Q 011000008171902790RENATA HILEL RIBEIRO                    AV. DR. NEWTON GUARANA, 507             PENHA          28021245CAMPOS DOS GOYTRJ0000000000000000                                        00030597400000017337   12345678
0010001300183R 01000000000000000000000000000000000000000000000000228122022000000000000200          FUNDECAM - Fundo de Desenvolvimento de C                                        000000000000000000000000000000000000 000000000000  0000000000
0010001300184P 010000510000002827271 30597400000017338   111110662022/15/08  2701202300000000005625300000 02N060620222000000000000000000001000000000000000000000000000000000000000000000000000000000662022/15               00020000900198471441
0010001300185Q 011000008171902790RENATA HILEL RIBEIRO                    AV. DR. NEWTON GUARANA, 507             PENHA          28021245CAMPOS DOS GOYTRJ0000000000000000                                        00030597400000017338   12345678
0010001300186R 01000000000000000000000000000000000000000000000000228012023000000000000200          FUNDECAM - Fundo de Desenvolvimento de C                                        000000000000000000000000000000000000 000000000000  0000000000
0010001300187P 010000510000002827271 30597400000017339   111110662022/15/09  2702202300000000005625300000 02N060620222000000000000000000001000000000000000000000000000000000000000000000000000000000662022/15               00020000900198471441
0010001300188Q 011000008171902790RENATA HILEL RIBEIRO                    AV. DR. NEWTON GUARANA, 507             PENHA          28021245CAMPOS DOS GOYTRJ0000000000000000                                        00030597400000017339   12345678
0010001300189R 01000000000000000000000000000000000000000000000000228022023000000000000200          FUNDECAM - Fundo de Desenvolvimento de C                                        000000000000000000000000000000000000 000000000000  0000000000
0010001300190P 010000510000002827271 30597400000017340   111110662022/15/10  2703202300000000005625300000 02N060620222000000000000000000001000000000000000000000000000000000000000000000000000000000662022/15               00020000900198471441
0010001300191Q 011000008171902790RENATA HILEL RIBEIRO                    AV. DR. NEWTON GUARANA, 507             PENHA          28021245CAMPOS DOS GOYTRJ0000000000000000                                        00030597400000017340   12345678
0010001300192R 01000000000000000000000000000000000000000000000000228032023000000000000200          FUNDECAM - Fundo de Desenvolvimento de C                                        000000000000000000000000000000000000 000000000000  0000000000
0010001300193P 010000510000002827271 30597400000017341   111110662022/15/11  2704202300000000005625300000 02N060620222000000000000000000001000000000000000000000000000000000000000000000000000000000662022/15               00020000900198471441
0010001300194Q 011000008171902790RENATA HILEL RIBEIRO                    AV. DR. NEWTON GUARANA, 507             PENHA          28021245CAMPOS DOS GOYTRJ0000000000000000                                        00030597400000017341   12345678
0010001300195R 01000000000000000000000000000000000000000000000000228042023000000000000200          FUNDECAM - Fundo de Desenvolvimento de C                                        000000000000000000000000000000000000 000000000000  0000000000
0010001300196P 010000510000002827271 30597400000017342   111110662022/15/12  2705202300000000005625300000 02N060620222000000000000000000001000000000000000000000000000000000000000000000000000000000662022/15               00020000900198471441
0010001300197Q 011000008171902790RENATA HILEL RIBEIRO                    AV. DR. NEWTON GUARANA, 507             PENHA          28021245CAMPOS DOS GOYTRJ0000000000000000                                        00030597400000017342   12345678
0010001300198R 01000000000000000000000000000000000000000000000000228052023000000000000200          FUNDECAM - Fundo de Desenvolvimento de C                                        000000000000000000000000000000000000 000000000000  0000000000
0010001300199P 010000510000002827271 30597400000017343   111110662022/15/13  2706202300000000005625300000 02N060620222000000000000000000001000000000000000000000000000000000000000000000000000000000662022/15               00020000900198471441
0010001300200Q 011000008171902790RENATA HILEL RIBEIRO                    AV. DR. NEWTON GUARANA, 507             PENHA          28021245CAMPOS DOS GOYTRJ0000000000000000                                        00030597400000017343   12345678
0010001300201R 01000000000000000000000000000000000000000000000000228062023000000000000200          FUNDECAM - Fundo de Desenvolvimento de C                                        000000000000000000000000000000000000 000000000000  0000000000
0010001300202P 010000510000002827271 30597400000017344   111110662022/15/14  2707202300000000005625300000 02N060620222000000000000000000001000000000000000000000000000000000000000000000000000000000662022/15               00020000900198471441
0010001300203Q 011000008171902790RENATA HILEL RIBEIRO                    AV. DR. NEWTON GUARANA, 507             PENHA          28021245CAMPOS DOS GOYTRJ0000000000000000                                        00030597400000017344   12345678
0010001300204R 01000000000000000000000000000000000000000000000000228072023000000000000200          FUNDECAM - Fundo de Desenvolvimento de C                                        000000000000000000000000000000000000 000000000000  0000000000
0010001300205P 010000510000002827271 30597400000017345   111110662022/15/15  2708202300000000005625300000 02N060620222000000000000000000001000000000000000000000000000000000000000000000000000000000662022/15               00020000900198471441
0010001300206Q 011000008171902790RENATA HILEL RIBEIRO                    AV. DR. NEWTON GUARANA, 507             PENHA          28021245CAMPOS DOS GOYTRJ0000000000000000                                        00030597400000017345   12345678
0010001300207R 01000000000000000000000000000000000000000000000000228082023000000000000200          FUNDECAM - Fundo de Desenvolvimento de C                                        000000000000000000000000000000000000 000000000000  0000000000
0010001300208P 010000510000002827271 30597400000017346   111110662022/15/16  2709202300000000005625300000 02N060620222000000000000000000001000000000000000000000000000000000000000000000000000000000662022/15               00020000900198471441
0010001300209Q 011000008171902790RENATA HILEL RIBEIRO                    AV. DR. NEWTON GUARANA, 507             PENHA          28021245CAMPOS DOS GOYTRJ0000000000000000                                        00030597400000017346   12345678
0010001300210R 01000000000000000000000000000000000000000000000000228092023000000000000200          FUNDECAM - Fundo de Desenvolvimento de C                                        000000000000000000000000000000000000 000000000000  0000000000
0010001300211P 010000510000002827271 30597400000017347   111110662022/15/17  2710202300000000005625300000 02N060620222000000000000000000001000000000000000000000000000000000000000000000000000000000662022/15               00020000900198471441
0010001300212Q 011000008171902790RENATA HILEL RIBEIRO                    AV. DR. NEWTON GUARANA, 507             PENHA          28021245CAMPOS DOS GOYTRJ0000000000000000                                        00030597400000017347   12345678
0010001300213R 01000000000000000000000000000000000000000000000000228102023000000000000200          FUNDECAM - Fundo de Desenvolvimento de C                                        000000000000000000000000000000000000 000000000000  0000000000
0010001300214P 010000510000002827271 30597400000017348   111110662022/15/18  2711202300000000005625300000 02N060620222000000000000000000001000000000000000000000000000000000000000000000000000000000662022/15               00020000900198471441
0010001300215Q 011000008171902790RENATA HILEL RIBEIRO                    AV. DR. NEWTON GUARANA, 507             PENHA          28021245CAMPOS DOS GOYTRJ0000000000000000                                        00030597400000017348   12345678
0010001300216R 01000000000000000000000000000000000000000000000000228112023000000000000200          FUNDECAM - Fundo de Desenvolvimento de C                                        000000000000000000000000000000000000 000000000000  0000000000
0010001300217P 010000510000002827271 30597400000017241   111110672022/15/01  2706202200000000003517500000 02N060620222000000000000000000001000000000000000000000000000000000000000000000000000000000672022/15               00020000900198471441
0010001300218Q 011000013314362730ANA CAROLINA ALEXANDRE DE SOUZA         RUA G, 29                               URURAI         28040260CAMPOS DOS GOYTRJ0000000000000000                                        00030597400000017241   12345678
0010001300219R 01000000000000000000000000000000000000000000000000228062022000000000000200          FUNDECAM - Fundo de Desenvolvimento de C                                        000000000000000000000000000000000000 000000000000  0000000000
0010001300220P 010000510000002827271 30597400000017242   111110672022/15/02  2707202200000000003517500000 02N060620222000000000000000000001000000000000000000000000000000000000000000000000000000000672022/15               00020000900198471441
0010001300221Q 011000013314362730ANA CAROLINA ALEXANDRE DE SOUZA         RUA G, 29                               URURAI         28040260CAMPOS DOS GOYTRJ0000000000000000                                        00030597400000017242   12345678
0010001300222R 01000000000000000000000000000000000000000000000000228072022000000000000200          FUNDECAM - Fundo de Desenvolvimento de C                                        000000000000000000000000000000000000 000000000000  0000000000
0010001300223P 010000510000002827271 30597400000017243   111110672022/15/03  2708202200000000003517500000 02N060620222000000000000000000001000000000000000000000000000000000000000000000000000000000672022/15               00020000900198471441
0010001300224Q 011000013314362730ANA CAROLINA ALEXANDRE DE SOUZA         RUA G, 29                               URURAI         28040260CAMPOS DOS GOYTRJ0000000000000000                                        00030597400000017243   12345678
0010001300225R 01000000000000000000000000000000000000000000000000228082022000000000000200          FUNDECAM - Fundo de Desenvolvimento de C                                        000000000000000000000000000000000000 000000000000  0000000000
0010001300226P 010000510000002827271 30597400000017244   111110672022/15/04  2709202200000000003517500000 02N060620222000000000000000000001000000000000000000000000000000000000000000000000000000000672022/15               00020000900198471441
0010001300227Q 011000013314362730ANA CAROLINA ALEXANDRE DE SOUZA         RUA G, 29                               URURAI         28040260CAMPOS DOS GOYTRJ0000000000000000                                        00030597400000017244   12345678
0010001300228R 01000000000000000000000000000000000000000000000000228092022000000000000200          FUNDECAM - Fundo de Desenvolvimento de C                                        000000000000000000000000000000000000 000000000000  0000000000
0010001300229P 010000510000002827271 30597400000017245   111110672022/15/05  2710202200000000003517500000 02N060620222000000000000000000001000000000000000000000000000000000000000000000000000000000672022/15               00020000900198471441
0010001300230Q 011000013314362730ANA CAROLINA ALEXANDRE DE SOUZA         RUA G, 29                               URURAI         28040260CAMPOS DOS GOYTRJ0000000000000000                                        00030597400000017245   12345678
0010001300231R 01000000000000000000000000000000000000000000000000228102022000000000000200          FUNDECAM - Fundo de Desenvolvimento de C                                        000000000000000000000000000000000000 000000000000  0000000000
0010001300232P 010000510000002827271 30597400000017246   111110672022/15/06  2711202200000000003517500000 02N060620222000000000000000000001000000000000000000000000000000000000000000000000000000000672022/15               00020000900198471441
0010001300233Q 011000013314362730ANA CAROLINA ALEXANDRE DE SOUZA         RUA G, 29                               URURAI         28040260CAMPOS DOS GOYTRJ0000000000000000                                        00030597400000017246   12345678
0010001300234R 01000000000000000000000000000000000000000000000000228112022000000000000200          FUNDECAM - Fundo de Desenvolvimento de C                                        000000000000000000000000000000000000 000000000000  0000000000
0010001300235P 010000510000002827271 30597400000017247   111110672022/15/07  2712202200000000003517500000 02N060620222000000000000000000001000000000000000000000000000000000000000000000000000000000672022/15               00020000900198471441
0010001300236Q 011000013314362730ANA CAROLINA ALEXANDRE DE SOUZA         RUA G, 29                               URURAI         28040260CAMPOS DOS GOYTRJ0000000000000000                                        00030597400000017247   12345678
0010001300237R 01000000000000000000000000000000000000000000000000228122022000000000000200          FUNDECAM - Fundo de Desenvolvimento de C                                        000000000000000000000000000000000000 000000000000  0000000000
0010001300238P 010000510000002827271 30597400000017248   111110672022/15/08  2701202300000000003517500000 02N060620222000000000000000000001000000000000000000000000000000000000000000000000000000000672022/15               00020000900198471441
0010001300239Q 011000013314362730ANA CAROLINA ALEXANDRE DE SOUZA         RUA G, 29                               URURAI         28040260CAMPOS DOS GOYTRJ0000000000000000                                        00030597400000017248   12345678
0010001300240R 01000000000000000000000000000000000000000000000000228012023000000000000200          FUNDECAM - Fundo de Desenvolvimento de C                                        000000000000000000000000000000000000 000000000000  0000000000
0010001300241P 010000510000002827271 30597400000017249   111110672022/15/09  2702202300000000003517500000 02N060620222000000000000000000001000000000000000000000000000000000000000000000000000000000672022/15               00020000900198471441
0010001300242Q 011000013314362730ANA CAROLINA ALEXANDRE DE SOUZA         RUA G, 29                               URURAI         28040260CAMPOS DOS GOYTRJ0000000000000000                                        00030597400000017249   12345678
0010001300243R 01000000000000000000000000000000000000000000000000228022023000000000000200          FUNDECAM - Fundo de Desenvolvimento de C                                        000000000000000000000000000000000000 000000000000  0000000000
0010001300244P 010000510000002827271 30597400000017250   111110672022/15/10  2703202300000000003517500000 02N060620222000000000000000000001000000000000000000000000000000000000000000000000000000000672022/15               00020000900198471441
0010001300245Q 011000013314362730ANA CAROLINA ALEXANDRE DE SOUZA         RUA G, 29                               URURAI         28040260CAMPOS DOS GOYTRJ0000000000000000                                        00030597400000017250   12345678
0010001300246R 01000000000000000000000000000000000000000000000000228032023000000000000200          FUNDECAM - Fundo de Desenvolvimento de C                                        000000000000000000000000000000000000 000000000000  0000000000
0010001300247P 010000510000002827271 30597400000017251   111110672022/15/11  2704202300000000003517500000 02N060620222000000000000000000001000000000000000000000000000000000000000000000000000000000672022/15               00020000900198471441
0010001300248Q 011000013314362730ANA CAROLINA ALEXANDRE DE SOUZA         RUA G, 29                               URURAI         28040260CAMPOS DOS GOYTRJ0000000000000000                                        00030597400000017251   12345678
0010001300249R 01000000000000000000000000000000000000000000000000228042023000000000000200          FUNDECAM - Fundo de Desenvolvimento de C                                        000000000000000000000000000000000000 000000000000  0000000000
0010001300250P 010000510000002827271 30597400000017252   111110672022/15/12  2705202300000000003517500000 02N060620222000000000000000000001000000000000000000000000000000000000000000000000000000000672022/15               00020000900198471441
0010001300251Q 011000013314362730ANA CAROLINA ALEXANDRE DE SOUZA         RUA G, 29                               URURAI         28040260CAMPOS DOS GOYTRJ0000000000000000                                        00030597400000017252   12345678
0010001300252R 01000000000000000000000000000000000000000000000000228052023000000000000200          FUNDECAM - Fundo de Desenvolvimento de C                                        000000000000000000000000000000000000 000000000000  0000000000
0010001300253P 010000510000002827271 30597400000017253   111110672022/15/13  2706202300000000003517500000 02N060620222000000000000000000001000000000000000000000000000000000000000000000000000000000672022/15               00020000900198471441
0010001300254Q 011000013314362730ANA CAROLINA ALEXANDRE DE SOUZA         RUA G, 29                               URURAI         28040260CAMPOS DOS GOYTRJ0000000000000000                                        00030597400000017253   12345678
0010001300255R 01000000000000000000000000000000000000000000000000228062023000000000000200          FUNDECAM - Fundo de Desenvolvimento de C                                        000000000000000000000000000000000000 000000000000  0000000000
0010001300256P 010000510000002827271 30597400000017254   111110672022/15/14  2707202300000000003517500000 02N060620222000000000000000000001000000000000000000000000000000000000000000000000000000000672022/15               00020000900198471441
0010001300257Q 011000013314362730ANA CAROLINA ALEXANDRE DE SOUZA         RUA G, 29                               URURAI         28040260CAMPOS DOS GOYTRJ0000000000000000                                        00030597400000017254   12345678
0010001300258R 01000000000000000000000000000000000000000000000000228072023000000000000200          FUNDECAM - Fundo de Desenvolvimento de C                                        000000000000000000000000000000000000 000000000000  0000000000
0010001300259P 010000510000002827271 30597400000017255   111110672022/15/15  2708202300000000003517500000 02N060620222000000000000000000001000000000000000000000000000000000000000000000000000000000672022/15               00020000900198471441
0010001300260Q 011000013314362730ANA CAROLINA ALEXANDRE DE SOUZA         RUA G, 29                               URURAI         28040260CAMPOS DOS GOYTRJ0000000000000000                                        00030597400000017255   12345678
0010001300261R 01000000000000000000000000000000000000000000000000228082023000000000000200          FUNDECAM - Fundo de Desenvolvimento de C                                        000000000000000000000000000000000000 000000000000  0000000000
0010001300262P 010000510000002827271 30597400000017274   111110702022/16/01  2706202200000000005921300000 02N060620222000000000000000000001000000000000000000000000000000000000000000000000000000000702022/16               00020000900198471441
0010001300263Q 011000004494248711QUESSILANDE MARIA RIBEIRO PINTO         RUA PROF BLANDINA DE MELO, 284          PQ IMPERIAL    28022310CAMPOS DOS GOYTRJ0000000000000000                                        00030597400000017274   12345678
0010001300264R 01000000000000000000000000000000000000000000000000228062022000000000000200          FUNDECAM - Fundo de Desenvolvimento de C                                        000000000000000000000000000000000000 000000000000  0000000000
0010001300265P 010000510000002827271 30597400000017275   111110702022/16/02  2707202200000000005921300000 02N060620222000000000000000000001000000000000000000000000000000000000000000000000000000000702022/16               00020000900198471441
0010001300266Q 011000004494248711QUESSILANDE MARIA RIBEIRO PINTO         RUA PROF BLANDINA DE MELO, 284          PQ IMPERIAL    28022310CAMPOS DOS GOYTRJ0000000000000000                                        00030597400000017275   12345678
0010001300267R 01000000000000000000000000000000000000000000000000228072022000000000000200          FUNDECAM - Fundo de Desenvolvimento de C                                        000000000000000000000000000000000000 000000000000  0000000000
0010001300268P 010000510000002827271 30597400000017276   111110702022/16/03  2708202200000000005921300000 02N060620222000000000000000000001000000000000000000000000000000000000000000000000000000000702022/16               00020000900198471441
0010001300269Q 011000004494248711QUESSILANDE MARIA RIBEIRO PINTO         RUA PROF BLANDINA DE MELO, 284          PQ IMPERIAL    28022310CAMPOS DOS GOYTRJ0000000000000000                                        00030597400000017276   12345678
0010001300270R 01000000000000000000000000000000000000000000000000228082022000000000000200          FUNDECAM - Fundo de Desenvolvimento de C                                        000000000000000000000000000000000000 000000000000  0000000000
0010001300271P 010000510000002827271 30597400000017277   111110702022/16/04  2709202200000000005921300000 02N060620222000000000000000000001000000000000000000000000000000000000000000000000000000000702022/16               00020000900198471441
0010001300272Q 011000004494248711QUESSILANDE MARIA RIBEIRO PINTO         RUA PROF BLANDINA DE MELO, 284          PQ IMPERIAL    28022310CAMPOS DOS GOYTRJ0000000000000000                                        00030597400000017277   12345678
0010001300273R 01000000000000000000000000000000000000000000000000228092022000000000000200          FUNDECAM - Fundo de Desenvolvimento de C                                        000000000000000000000000000000000000 000000000000  0000000000
0010001300274P 010000510000002827271 30597400000017278   111110702022/16/05  2710202200000000005921300000 02N060620222000000000000000000001000000000000000000000000000000000000000000000000000000000702022/16               00020000900198471441
0010001300275Q 011000004494248711QUESSILANDE MARIA RIBEIRO PINTO         RUA PROF BLANDINA DE MELO, 284          PQ IMPERIAL    28022310CAMPOS DOS GOYTRJ0000000000000000                                        00030597400000017278   12345678
0010001300276R 01000000000000000000000000000000000000000000000000228102022000000000000200          FUNDECAM - Fundo de Desenvolvimento de C                                        000000000000000000000000000000000000 000000000000  0000000000
0010001300277P 010000510000002827271 30597400000017279   111110702022/16/06  2711202200000000005921300000 02N060620222000000000000000000001000000000000000000000000000000000000000000000000000000000702022/16               00020000900198471441
0010001300278Q 011000004494248711QUESSILANDE MARIA RIBEIRO PINTO         RUA PROF BLANDINA DE MELO, 284          PQ IMPERIAL    28022310CAMPOS DOS GOYTRJ0000000000000000                                        00030597400000017279   12345678
0010001300279R 01000000000000000000000000000000000000000000000000228112022000000000000200          FUNDECAM - Fundo de Desenvolvimento de C                                        000000000000000000000000000000000000 000000000000  0000000000
0010001300280P 010000510000002827271 30597400000017280   111110702022/16/07  2712202200000000005921300000 02N060620222000000000000000000001000000000000000000000000000000000000000000000000000000000702022/16               00020000900198471441
0010001300281Q 011000004494248711QUESSILANDE MARIA RIBEIRO PINTO         RUA PROF BLANDINA DE MELO, 284          PQ IMPERIAL    28022310CAMPOS DOS GOYTRJ0000000000000000                                        00030597400000017280   12345678
0010001300282R 01000000000000000000000000000000000000000000000000228122022000000000000200          FUNDECAM - Fundo de Desenvolvimento de C                                        000000000000000000000000000000000000 000000000000  0000000000
0010001300283P 010000510000002827271 30597400000017281   111110702022/16/08  2701202300000000005921300000 02N060620222000000000000000000001000000000000000000000000000000000000000000000000000000000702022/16               00020000900198471441
0010001300284Q 011000004494248711QUESSILANDE MARIA RIBEIRO PINTO         RUA PROF BLANDINA DE MELO, 284          PQ IMPERIAL    28022310CAMPOS DOS GOYTRJ0000000000000000                                        00030597400000017281   12345678
0010001300285R 01000000000000000000000000000000000000000000000000228012023000000000000200          FUNDECAM - Fundo de Desenvolvimento de C                                        000000000000000000000000000000000000 000000000000  0000000000
0010001300286P 010000510000002827271 30597400000017282   111110702022/16/09  2702202300000000005921300000 02N060620222000000000000000000001000000000000000000000000000000000000000000000000000000000702022/16               00020000900198471441
0010001300287Q 011000004494248711QUESSILANDE MARIA RIBEIRO PINTO         RUA PROF BLANDINA DE MELO, 284          PQ IMPERIAL    28022310CAMPOS DOS GOYTRJ0000000000000000                                        00030597400000017282   12345678
0010001300288R 01000000000000000000000000000000000000000000000000228022023000000000000200          FUNDECAM - Fundo de Desenvolvimento de C                                        000000000000000000000000000000000000 000000000000  0000000000
0010001300289P 010000510000002827271 30597400000017283   111110702022/16/10  2703202300000000005921300000 02N060620222000000000000000000001000000000000000000000000000000000000000000000000000000000702022/16               00020000900198471441
0010001300290Q 011000004494248711QUESSILANDE MARIA RIBEIRO PINTO         RUA PROF BLANDINA DE MELO, 284          PQ IMPERIAL    28022310CAMPOS DOS GOYTRJ0000000000000000                                        00030597400000017283   12345678
0010001300291R 01000000000000000000000000000000000000000000000000228032023000000000000200          FUNDECAM - Fundo de Desenvolvimento de C                                        000000000000000000000000000000000000 000000000000  0000000000
0010001300292P 010000510000002827271 30597400000017284   111110702022/16/11  2704202300000000005921300000 02N060620222000000000000000000001000000000000000000000000000000000000000000000000000000000702022/16               00020000900198471441
0010001300293Q 011000004494248711QUESSILANDE MARIA RIBEIRO PINTO         RUA PROF BLANDINA DE MELO, 284          PQ IMPERIAL    28022310CAMPOS DOS GOYTRJ0000000000000000                                        00030597400000017284   12345678
0010001300294R 01000000000000000000000000000000000000000000000000228042023000000000000200          FUNDECAM - Fundo de Desenvolvimento de C                                        000000000000000000000000000000000000 000000000000  0000000000
0010001300295P 010000510000002827271 30597400000017285   111110702022/16/12  2705202300000000005921300000 02N060620222000000000000000000001000000000000000000000000000000000000000000000000000000000702022/16               00020000900198471441
0010001300296Q 011000004494248711QUESSILANDE MARIA RIBEIRO PINTO         RUA PROF BLANDINA DE MELO, 284          PQ IMPERIAL    28022310CAMPOS DOS GOYTRJ0000000000000000                                        00030597400000017285   12345678
0010001300297R 01000000000000000000000000000000000000000000000000228052023000000000000200          FUNDECAM - Fundo de Desenvolvimento de C                                        000000000000000000000000000000000000 000000000000  0000000000
0010001300298P 010000510000002827271 30597400000017286   111110702022/16/13  2706202300000000005921300000 02N060620222000000000000000000001000000000000000000000000000000000000000000000000000000000702022/16               00020000900198471441
0010001300299Q 011000004494248711QUESSILANDE MARIA RIBEIRO PINTO         RUA PROF BLANDINA DE MELO, 284          PQ IMPERIAL    28022310CAMPOS DOS GOYTRJ0000000000000000                                        00030597400000017286   12345678
0010001300300R 01000000000000000000000000000000000000000000000000228062023000000000000200          FUNDECAM - Fundo de Desenvolvimento de C                                        000000000000000000000000000000000000 000000000000  0000000000
0010001300301P 010000510000002827271 30597400000017287   111110702022/16/14  2707202300000000005921300000 02N060620222000000000000000000001000000000000000000000000000000000000000000000000000000000702022/16               00020000900198471441
0010001300302Q 011000004494248711QUESSILANDE MARIA RIBEIRO PINTO         RUA PROF BLANDINA DE MELO, 284          PQ IMPERIAL    28022310CAMPOS DOS GOYTRJ0000000000000000                                        00030597400000017287   12345678
0010001300303R 01000000000000000000000000000000000000000000000000228072023000000000000200          FUNDECAM - Fundo de Desenvolvimento de C                                        000000000000000000000000000000000000 000000000000  0000000000
0010001300304P 010000510000002827271 30597400000017288   111110702022/16/15  2708202300000000005921300000 02N060620222000000000000000000001000000000000000000000000000000000000000000000000000000000702022/16               00020000900198471441
0010001300305Q 011000004494248711QUESSILANDE MARIA RIBEIRO PINTO         RUA PROF BLANDINA DE MELO, 284          PQ IMPERIAL    28022310CAMPOS DOS GOYTRJ0000000000000000                                        00030597400000017288   12345678
0010001300306R 01000000000000000000000000000000000000000000000000228082023000000000000200          FUNDECAM - Fundo de Desenvolvimento de C                                        000000000000000000000000000000000000 000000000000  0000000000
0010001300307P 010000510000002827271 30597400000017289   111110702022/16/16  2709202300000000005921300000 02N060620222000000000000000000001000000000000000000000000000000000000000000000000000000000702022/16               00020000900198471441
0010001300308Q 011000004494248711QUESSILANDE MARIA RIBEIRO PINTO         RUA PROF BLANDINA DE MELO, 284          PQ IMPERIAL    28022310CAMPOS DOS GOYTRJ0000000000000000                                        00030597400000017289   12345678
0010001300309R 01000000000000000000000000000000000000000000000000228092023000000000000200          FUNDECAM - Fundo de Desenvolvimento de C                                        000000000000000000000000000000000000 000000000000  0000000000
0010001300310P 010000510000002827271 30597400000017290   111110702022/16/17  2710202300000000005921300000 02N060620222000000000000000000001000000000000000000000000000000000000000000000000000000000702022/16               00020000900198471441
0010001300311Q 011000004494248711QUESSILANDE MARIA RIBEIRO PINTO         RUA PROF BLANDINA DE MELO, 284          PQ IMPERIAL    28022310CAMPOS DOS GOYTRJ0000000000000000                                        00030597400000017290   12345678
0010001300312R 01000000000000000000000000000000000000000000000000228102023000000000000200          FUNDECAM - Fundo de Desenvolvimento de C                                        000000000000000000000000000000000000 000000000000  0000000000
0010001300313P 010000510000002827271 30597400000017291   111110702022/16/18  2711202300000000005921300000 02N060620222000000000000000000001000000000000000000000000000000000000000000000000000000000702022/16               00020000900198471441
0010001300314Q 011000004494248711QUESSILANDE MARIA RIBEIRO PINTO         RUA PROF BLANDINA DE MELO, 284          PQ IMPERIAL    28022310CAMPOS DOS GOYTRJ0000000000000000                                        00030597400000017291   12345678
0010001300315R 01000000000000000000000000000000000000000000000000228112023000000000000200          FUNDECAM - Fundo de Desenvolvimento de C                                        000000000000000000000000000000000000 000000000000  0000000000
0010001300316P 010000510000002827271 30597400000017292   111110712022/16/01  2706202200000000005921300000 02N060620222000000000000000000001000000000000000000000000000000000000000000000000000000000712022/16               00020000900198471441
0010001300317Q 011000012860741771RAFAEL FRANCA NUNES                     RUA MARICA, 5                           PQ GUARUS      28073010CAMPOS DOS GOYTRJ0000000000000000                                        00030597400000017292   12345678
0010001300318R 01000000000000000000000000000000000000000000000000228062022000000000000200          FUNDECAM - Fundo de Desenvolvimento de C                                        000000000000000000000000000000000000 000000000000  0000000000
0010001300319P 010000510000002827271 30597400000017293   111110712022/16/02  2707202200000000005921300000 02N060620222000000000000000000001000000000000000000000000000000000000000000000000000000000712022/16               00020000900198471441
0010001300320Q 011000012860741771RAFAEL FRANCA NUNES                     RUA MARICA, 5                           PQ GUARUS      28073010CAMPOS DOS GOYTRJ0000000000000000                                        00030597400000017293   12345678
0010001300321R 01000000000000000000000000000000000000000000000000228072022000000000000200          FUNDECAM - Fundo de Desenvolvimento de C                                        000000000000000000000000000000000000 000000000000  0000000000
0010001300322P 010000510000002827271 30597400000017294   111110712022/16/03  2708202200000000005921300000 02N060620222000000000000000000001000000000000000000000000000000000000000000000000000000000712022/16               00020000900198471441
0010001300323Q 011000012860741771RAFAEL FRANCA NUNES                     RUA MARICA, 5                           PQ GUARUS      28073010CAMPOS DOS GOYTRJ0000000000000000                                        00030597400000017294   12345678
0010001300324R 01000000000000000000000000000000000000000000000000228082022000000000000200          FUNDECAM - Fundo de Desenvolvimento de C                                        000000000000000000000000000000000000 000000000000  0000000000
0010001300325P 010000510000002827271 30597400000017295   111110712022/16/04  2709202200000000005921300000 02N060620222000000000000000000001000000000000000000000000000000000000000000000000000000000712022/16               00020000900198471441
0010001300326Q 011000012860741771RAFAEL FRANCA NUNES                     RUA MARICA, 5                           PQ GUARUS      28073010CAMPOS DOS GOYTRJ0000000000000000                                        00030597400000017295   12345678
0010001300327R 01000000000000000000000000000000000000000000000000228092022000000000000200          FUNDECAM - Fundo de Desenvolvimento de C                                        000000000000000000000000000000000000 000000000000  0000000000
0010001300328P 010000510000002827271 30597400000017296   111110712022/16/05  2710202200000000005921300000 02N060620222000000000000000000001000000000000000000000000000000000000000000000000000000000712022/16               00020000900198471441
0010001300329Q 011000012860741771RAFAEL FRANCA NUNES                     RUA MARICA, 5                           PQ GUARUS      28073010CAMPOS DOS GOYTRJ0000000000000000                                        00030597400000017296   12345678
0010001300330R 01000000000000000000000000000000000000000000000000228102022000000000000200          FUNDECAM - Fundo de Desenvolvimento de C                                        000000000000000000000000000000000000 000000000000  0000000000
0010001300331P 010000510000002827271 30597400000017297   111110712022/16/06  2711202200000000005921300000 02N060620222000000000000000000001000000000000000000000000000000000000000000000000000000000712022/16               00020000900198471441
0010001300332Q 011000012860741771RAFAEL FRANCA NUNES                     RUA MARICA, 5                           PQ GUARUS      28073010CAMPOS DOS GOYTRJ0000000000000000                                        00030597400000017297   12345678
0010001300333R 01000000000000000000000000000000000000000000000000228112022000000000000200          FUNDECAM - Fundo de Desenvolvimento de C                                        000000000000000000000000000000000000 000000000000  0000000000
0010001300334P 010000510000002827271 30597400000017298   111110712022/16/07  2712202200000000005921300000 02N060620222000000000000000000001000000000000000000000000000000000000000000000000000000000712022/16               00020000900198471441
0010001300335Q 011000012860741771RAFAEL FRANCA NUNES                     RUA MARICA, 5                           PQ GUARUS      28073010CAMPOS DOS GOYTRJ0000000000000000                                        00030597400000017298   12345678
0010001300336R 01000000000000000000000000000000000000000000000000228122022000000000000200          FUNDECAM - Fundo de Desenvolvimento de C                                        000000000000000000000000000000000000 000000000000  0000000000
0010001300337P 010000510000002827271 30597400000017299   111110712022/16/08  2701202300000000005921300000 02N060620222000000000000000000001000000000000000000000000000000000000000000000000000000000712022/16               00020000900198471441
0010001300338Q 011000012860741771RAFAEL FRANCA NUNES                     RUA MARICA, 5                           PQ GUARUS      28073010CAMPOS DOS GOYTRJ0000000000000000                                        00030597400000017299   12345678
0010001300339R 01000000000000000000000000000000000000000000000000228012023000000000000200          FUNDECAM - Fundo de Desenvolvimento de C                                        000000000000000000000000000000000000 000000000000  0000000000
0010001300340P 010000510000002827271 30597400000017300   111110712022/16/09  2702202300000000005921300000 02N060620222000000000000000000001000000000000000000000000000000000000000000000000000000000712022/16               00020000900198471441
0010001300341Q 011000012860741771RAFAEL FRANCA NUNES                     RUA MARICA, 5                           PQ GUARUS      28073010CAMPOS DOS GOYTRJ0000000000000000                                        00030597400000017300   12345678
0010001300342R 01000000000000000000000000000000000000000000000000228022023000000000000200          FUNDECAM - Fundo de Desenvolvimento de C                                        000000000000000000000000000000000000 000000000000  0000000000
0010001300343P 010000510000002827271 30597400000017301   111110712022/16/10  2703202300000000005921300000 02N060620222000000000000000000001000000000000000000000000000000000000000000000000000000000712022/16               00020000900198471441
0010001300344Q 011000012860741771RAFAEL FRANCA NUNES                     RUA MARICA, 5                           PQ GUARUS      28073010CAMPOS DOS GOYTRJ0000000000000000                                        00030597400000017301   12345678
0010001300345R 01000000000000000000000000000000000000000000000000228032023000000000000200          FUNDECAM - Fundo de Desenvolvimento de C                                        000000000000000000000000000000000000 000000000000  0000000000
0010001300346P 010000510000002827271 30597400000017302   111110712022/16/11  2704202300000000005921300000 02N060620222000000000000000000001000000000000000000000000000000000000000000000000000000000712022/16               00020000900198471441
0010001300347Q 011000012860741771RAFAEL FRANCA NUNES                     RUA MARICA, 5                           PQ GUARUS      28073010CAMPOS DOS GOYTRJ0000000000000000                                        00030597400000017302   12345678
0010001300348R 01000000000000000000000000000000000000000000000000228042023000000000000200          FUNDECAM - Fundo de Desenvolvimento de C                                        000000000000000000000000000000000000 000000000000  0000000000
0010001300349P 010000510000002827271 30597400000017303   111110712022/16/12  2705202300000000005921300000 02N060620222000000000000000000001000000000000000000000000000000000000000000000000000000000712022/16               00020000900198471441
0010001300350Q 011000012860741771RAFAEL FRANCA NUNES                     RUA MARICA, 5                           PQ GUARUS      28073010CAMPOS DOS GOYTRJ0000000000000000                                        00030597400000017303   12345678
0010001300351R 01000000000000000000000000000000000000000000000000228052023000000000000200          FUNDECAM - Fundo de Desenvolvimento de C                                        000000000000000000000000000000000000 000000000000  0000000000
0010001300352P 010000510000002827271 30597400000017304   111110712022/16/13  2706202300000000005921300000 02N060620222000000000000000000001000000000000000000000000000000000000000000000000000000000712022/16               00020000900198471441
0010001300353Q 011000012860741771RAFAEL FRANCA NUNES                     RUA MARICA, 5                           PQ GUARUS      28073010CAMPOS DOS GOYTRJ0000000000000000                                        00030597400000017304   12345678
0010001300354R 01000000000000000000000000000000000000000000000000228062023000000000000200          FUNDECAM - Fundo de Desenvolvimento de C                                        000000000000000000000000000000000000 000000000000  0000000000
0010001300355P 010000510000002827271 30597400000017305   111110712022/16/14  2707202300000000005921300000 02N060620222000000000000000000001000000000000000000000000000000000000000000000000000000000712022/16               00020000900198471441
0010001300356Q 011000012860741771RAFAEL FRANCA NUNES                     RUA MARICA, 5                           PQ GUARUS      28073010CAMPOS DOS GOYTRJ0000000000000000                                        00030597400000017305   12345678
0010001300357R 01000000000000000000000000000000000000000000000000228072023000000000000200          FUNDECAM - Fundo de Desenvolvimento de C                                        000000000000000000000000000000000000 000000000000  0000000000
0010001300358P 010000510000002827271 30597400000017306   111110712022/16/15  2708202300000000005921300000 02N060620222000000000000000000001000000000000000000000000000000000000000000000000000000000712022/16               00020000900198471441
0010001300359Q 011000012860741771RAFAEL FRANCA NUNES                     RUA MARICA, 5                           PQ GUARUS      28073010CAMPOS DOS GOYTRJ0000000000000000                                        00030597400000017306   12345678
0010001300360R 01000000000000000000000000000000000000000000000000228082023000000000000200          FUNDECAM - Fundo de Desenvolvimento de C                                        000000000000000000000000000000000000 000000000000  0000000000
0010001300361P 010000510000002827271 30597400000017307   111110712022/16/16  2709202300000000005921300000 02N060620222000000000000000000001000000000000000000000000000000000000000000000000000000000712022/16               00020000900198471441
0010001300362Q 011000012860741771RAFAEL FRANCA NUNES                     RUA MARICA, 5                           PQ GUARUS      28073010CAMPOS DOS GOYTRJ0000000000000000                                        00030597400000017307   12345678
0010001300363R 01000000000000000000000000000000000000000000000000228092023000000000000200          FUNDECAM - Fundo de Desenvolvimento de C                                        000000000000000000000000000000000000 000000000000  0000000000
0010001300364P 010000510000002827271 30597400000017308   111110712022/16/17  2710202300000000005921300000 02N060620222000000000000000000001000000000000000000000000000000000000000000000000000000000712022/16               00020000900198471441
0010001300365Q 011000012860741771RAFAEL FRANCA NUNES                     RUA MARICA, 5                           PQ GUARUS      28073010CAMPOS DOS GOYTRJ0000000000000000                                        00030597400000017308   12345678
0010001300366R 01000000000000000000000000000000000000000000000000228102023000000000000200          FUNDECAM - Fundo de Desenvolvimento de C                                        000000000000000000000000000000000000 000000000000  0000000000
0010001300367P 010000510000002827271 30597400000017309   111110712022/16/18  2711202300000000005921300000 02N060620222000000000000000000001000000000000000000000000000000000000000000000000000000000712022/16               00020000900198471441
0010001300368Q 011000012860741771RAFAEL FRANCA NUNES                     RUA MARICA, 5                           PQ GUARUS      28073010CAMPOS DOS GOYTRJ0000000000000000                                        00030597400000017309   12345678
0010001300369R 01000000000000000000000000000000000000000000000000228112023000000000000200          FUNDECAM - Fundo de Desenvolvimento de C                                        000000000000000000000000000000000000 000000000000  0000000000
0010001300370P 010000510000002827271 30597400000017310   111110722022/12/01  2706202200000000004613500000 02N060620222000000000000000000001000000000000000000000000000000000000000000000000000000000722022/12               00020000900198471441
0010001300371Q 011000005511630705TATIANE ARAUJO DE MATOS                 RUA ALFREDO CRESPO, 03                  PQ ST. AMARO   28030115CMPS GOYTACAZESRJ0000000000000000                                        00030597400000017310   12345678
0010001300372R 01000000000000000000000000000000000000000000000000228062022000000000000200          FUNDECAM - Fundo de Desenvolvimento de C                                        000000000000000000000000000000000000 000000000000  0000000000
0010001300373P 010000510000002827271 30597400000017311   111110722022/12/02  2707202200000000004613500000 02N060620222000000000000000000001000000000000000000000000000000000000000000000000000000000722022/12               00020000900198471441
0010001300374Q 011000005511630705TATIANE ARAUJO DE MATOS                 RUA ALFREDO CRESPO, 03                  PQ ST. AMARO   28030115CMPS GOYTACAZESRJ0000000000000000                                        00030597400000017311   12345678
0010001300375R 01000000000000000000000000000000000000000000000000228072022000000000000200          FUNDECAM - Fundo de Desenvolvimento de C                                        000000000000000000000000000000000000 000000000000  0000000000
0010001300376P 010000510000002827271 30597400000017312   111110722022/12/03  2708202200000000004613500000 02N060620222000000000000000000001000000000000000000000000000000000000000000000000000000000722022/12               00020000900198471441
0010001300377Q 011000005511630705TATIANE ARAUJO DE MATOS                 RUA ALFREDO CRESPO, 03                  PQ ST. AMARO   28030115CMPS GOYTACAZESRJ0000000000000000                                        00030597400000017312   12345678
0010001300378R 01000000000000000000000000000000000000000000000000228082022000000000000200          FUNDECAM - Fundo de Desenvolvimento de C                                        000000000000000000000000000000000000 000000000000  0000000000
0010001300379P 010000510000002827271 30597400000017313   111110722022/12/04  2709202200000000004613500000 02N060620222000000000000000000001000000000000000000000000000000000000000000000000000000000722022/12               00020000900198471441
0010001300380Q 011000005511630705TATIANE ARAUJO DE MATOS                 RUA ALFREDO CRESPO, 03                  PQ ST. AMARO   28030115CMPS GOYTACAZESRJ0000000000000000                                        00030597400000017313   12345678
0010001300381R 01000000000000000000000000000000000000000000000000228092022000000000000200          FUNDECAM - Fundo de Desenvolvimento de C                                        000000000000000000000000000000000000 000000000000  0000000000
0010001300382P 010000510000002827271 30597400000017314   111110722022/12/05  2710202200000000004613500000 02N060620222000000000000000000001000000000000000000000000000000000000000000000000000000000722022/12               00020000900198471441
0010001300383Q 011000005511630705TATIANE ARAUJO DE MATOS                 RUA ALFREDO CRESPO, 03                  PQ ST. AMARO   28030115CMPS GOYTACAZESRJ0000000000000000                                        00030597400000017314   12345678
0010001300384R 01000000000000000000000000000000000000000000000000228102022000000000000200          FUNDECAM - Fundo de Desenvolvimento de C                                        000000000000000000000000000000000000 000000000000  0000000000
0010001300385P 010000510000002827271 30597400000017315   111110722022/12/06  2711202200000000004613500000 02N060620222000000000000000000001000000000000000000000000000000000000000000000000000000000722022/12               00020000900198471441
0010001300386Q 011000005511630705TATIANE ARAUJO DE MATOS                 RUA ALFREDO CRESPO, 03                  PQ ST. AMARO   28030115CMPS GOYTACAZESRJ0000000000000000                                        00030597400000017315   12345678
0010001300387R 01000000000000000000000000000000000000000000000000228112022000000000000200          FUNDECAM - Fundo de Desenvolvimento de C                                        000000000000000000000000000000000000 000000000000  0000000000
0010001300388P 010000510000002827271 30597400000017316   111110722022/12/07  2712202200000000004613500000 02N060620222000000000000000000001000000000000000000000000000000000000000000000000000000000722022/12               00020000900198471441
0010001300389Q 011000005511630705TATIANE ARAUJO DE MATOS                 RUA ALFREDO CRESPO, 03                  PQ ST. AMARO   28030115CMPS GOYTACAZESRJ0000000000000000                                        00030597400000017316   12345678
0010001300390R 01000000000000000000000000000000000000000000000000228122022000000000000200          FUNDECAM - Fundo de Desenvolvimento de C                                        000000000000000000000000000000000000 000000000000  0000000000
0010001300391P 010000510000002827271 30597400000017317   111110722022/12/08  2701202300000000004613500000 02N060620222000000000000000000001000000000000000000000000000000000000000000000000000000000722022/12               00020000900198471441
0010001300392Q 011000005511630705TATIANE ARAUJO DE MATOS                 RUA ALFREDO CRESPO, 03                  PQ ST. AMARO   28030115CMPS GOYTACAZESRJ0000000000000000                                        00030597400000017317   12345678
0010001300393R 01000000000000000000000000000000000000000000000000228012023000000000000200          FUNDECAM - Fundo de Desenvolvimento de C                                        000000000000000000000000000000000000 000000000000  0000000000
0010001300394P 010000510000002827271 30597400000017318   111110722022/12/09  2702202300000000004613500000 02N060620222000000000000000000001000000000000000000000000000000000000000000000000000000000722022/12               00020000900198471441
0010001300395Q 011000005511630705TATIANE ARAUJO DE MATOS                 RUA ALFREDO CRESPO, 03                  PQ ST. AMARO   28030115CMPS GOYTACAZESRJ0000000000000000                                        00030597400000017318   12345678
0010001300396R 01000000000000000000000000000000000000000000000000228022023000000000000200          FUNDECAM - Fundo de Desenvolvimento de C                                        000000000000000000000000000000000000 000000000000  0000000000
0010001300397P 010000510000002827271 30597400000017319   111110722022/12/10  2703202300000000004613500000 02N060620222000000000000000000001000000000000000000000000000000000000000000000000000000000722022/12               00020000900198471441
0010001300398Q 011000005511630705TATIANE ARAUJO DE MATOS                 RUA ALFREDO CRESPO, 03                  PQ ST. AMARO   28030115CMPS GOYTACAZESRJ0000000000000000                                        00030597400000017319   12345678
0010001300399R 01000000000000000000000000000000000000000000000000228032023000000000000200          FUNDECAM - Fundo de Desenvolvimento de C                                        000000000000000000000000000000000000 000000000000  0000000000
0010001300400P 010000510000002827271 30597400000017320   111110722022/12/11  2704202300000000004613500000 02N060620222000000000000000000001000000000000000000000000000000000000000000000000000000000722022/12               00020000900198471441
0010001300401Q 011000005511630705TATIANE ARAUJO DE MATOS                 RUA ALFREDO CRESPO, 03                  PQ ST. AMARO   28030115CMPS GOYTACAZESRJ0000000000000000                                        00030597400000017320   12345678
0010001300402R 01000000000000000000000000000000000000000000000000228042023000000000000200          FUNDECAM - Fundo de Desenvolvimento de C                                        000000000000000000000000000000000000 000000000000  0000000000
0010001300403P 010000510000002827271 30597400000017321   111110722022/12/12  2705202300000000004613500000 02N060620222000000000000000000001000000000000000000000000000000000000000000000000000000000722022/12               00020000900198471441
0010001300404Q 011000005511630705TATIANE ARAUJO DE MATOS                 RUA ALFREDO CRESPO, 03                  PQ ST. AMARO   28030115CMPS GOYTACAZESRJ0000000000000000                                        00030597400000017321   12345678
0010001300405R 01000000000000000000000000000000000000000000000000228052023000000000000200          FUNDECAM - Fundo de Desenvolvimento de C                                        000000000000000000000000000000000000 000000000000  0000000000
0010001300406P 010000510000002827271 30597400000017322   111110722022/12/13  2706202300000000004613500000 02N060620222000000000000000000001000000000000000000000000000000000000000000000000000000000722022/12               00020000900198471441
0010001300407Q 011000005511630705TATIANE ARAUJO DE MATOS                 RUA ALFREDO CRESPO, 03                  PQ ST. AMARO   28030115CMPS GOYTACAZESRJ0000000000000000                                        00030597400000017322   12345678
0010001300408R 01000000000000000000000000000000000000000000000000228062023000000000000200          FUNDECAM - Fundo de Desenvolvimento de C                                        000000000000000000000000000000000000 000000000000  0000000000
0010001300409P 010000510000002827271 30597400000017323   111110722022/12/14  2707202300000000004613500000 02N060620222000000000000000000001000000000000000000000000000000000000000000000000000000000722022/12               00020000900198471441
0010001300410Q 011000005511630705TATIANE ARAUJO DE MATOS                 RUA ALFREDO CRESPO, 03                  PQ ST. AMARO   28030115CMPS GOYTACAZESRJ0000000000000000                                        00030597400000017323   12345678
0010001300411R 01000000000000000000000000000000000000000000000000228072023000000000000200          FUNDECAM - Fundo de Desenvolvimento de C                                        000000000000000000000000000000000000 000000000000  0000000000
