00100000         221545238000172                    0000510000002827271 FUNDO DE DESENVOLVIMENTO DE CABANCO DO BRASIL S.A.                    11110202214360000000008000000                                                                     
00100011R0100020 2021545238000172003059740001417019  0000510000002827271 FUNDO DE DESENVOLVIMENTO DE CA                                                                                00000307111020220000000000000000003059740        CBR30000
0010001300001P 010000510000002827271 30597400000019406   111111462022/16/01  2110202200000000005921300000 02N051020220000000000000000000000000000000000000000000000000000000000000000000000000000001462022/16               00020000900198471441
0010001300002Q 011000000104705736SANDRO CARVALHO DA SILVA                RUA VICTOR SENCE, 40                    PQ VICENTE D   28080296CAMPOS DOS GOYTRJ0000000000000000                                        00030597400000019406   12345678
0010001300003R 01000000000000000000000000000000000000000000000000000000000000000000000000                                                                                          000000000000000000000000000000000000 000000000000  0000000000
0010001300004P 010000510000002827271 30597400000019407   111111462022/16/02  2111202200000000005921300000 02N051020220000000000000000000000000000000000000000000000000000000000000000000000000000001462022/16               00020000900198471441
0010001300005Q 011000000104705736SANDRO CARVALHO DA SILVA                RUA VICTOR SENCE, 40                    PQ VICENTE D   28080296CAMPOS DOS GOYTRJ0000000000000000                                        00030597400000019407   12345678
0010001300006R 01000000000000000000000000000000000000000000000000000000000000000000000000                                                                                          000000000000000000000000000000000000 000000000000  0000000000
0010001300007P 010000510000002827271 30597400000019408   111111462022/16/03  2112202200000000005921300000 02N051020220000000000000000000000000000000000000000000000000000000000000000000000000000001462022/16               00020000900198471441
0010001300008Q 011000000104705736SANDRO CARVALHO DA SILVA                RUA VICTOR SENCE, 40                    PQ VICENTE D   28080296CAMPOS DOS GOYTRJ0000000000000000                                        00030597400000019408   12345678
0010001300009R 01000000000000000000000000000000000000000000000000000000000000000000000000                                                                                          000000000000000000000000000000000000 000000000000  0000000000
0010001300010P 010000510000002827271 30597400000019409   111111462022/16/04  2101202300000000005921300000 02N051020220000000000000000000000000000000000000000000000000000000000000000000000000000001462022/16               00020000900198471441
0010001300011Q 011000000104705736SANDRO CARVALHO DA SILVA                RUA VICTOR SENCE, 40                    PQ VICENTE D   28080296CAMPOS DOS GOYTRJ0000000000000000                                        00030597400000019409   12345678
0010001300012R 01000000000000000000000000000000000000000000000000000000000000000000000000                                                                                          000000000000000000000000000000000000 000000000000  0000000000
0010001300013P 010000510000002827271 30597400000019410   111111462022/16/05  2102202300000000005921300000 02N051020220000000000000000000000000000000000000000000000000000000000000000000000000000001462022/16               00020000900198471441
0010001300014Q 011000000104705736SANDRO CARVALHO DA SILVA                RUA VICTOR SENCE, 40                    PQ VICENTE D   28080296CAMPOS DOS GOYTRJ0000000000000000                                        00030597400000019410   12345678
0010001300015R 01000000000000000000000000000000000000000000000000000000000000000000000000                                                                                          000000000000000000000000000000000000 000000000000  0000000000
0010001300016P 010000510000002827271 30597400000019411   111111462022/16/06  2103202300000000005921300000 02N051020220000000000000000000000000000000000000000000000000000000000000000000000000000001462022/16               00020000900198471441
0010001300017Q 011000000104705736SANDRO CARVALHO DA SILVA                RUA VICTOR SENCE, 40                    PQ VICENTE D   28080296CAMPOS DOS GOYTRJ0000000000000000                                        00030597400000019411   12345678
0010001300018R 01000000000000000000000000000000000000000000000000000000000000000000000000                                                                                          000000000000000000000000000000000000 000000000000  0000000000
0010001300019P 010000510000002827271 30597400000019412   111111462022/16/07  2104202300000000005921300000 02N051020220000000000000000000000000000000000000000000000000000000000000000000000000000001462022/16               00020000900198471441
0010001300020Q 011000000104705736SANDRO CARVALHO DA SILVA                RUA VICTOR SENCE, 40                    PQ VICENTE D   28080296CAMPOS DOS GOYTRJ0000000000000000                                        00030597400000019412   12345678
0010001300021R 01000000000000000000000000000000000000000000000000000000000000000000000000                                                                                          000000000000000000000000000000000000 000000000000  0000000000
0010001300022P 010000510000002827271 30597400000019413   111111462022/16/08  2105202300000000005921300000 02N051020220000000000000000000000000000000000000000000000000000000000000000000000000000001462022/16               00020000900198471441
0010001300023Q 011000000104705736SANDRO CARVALHO DA SILVA                RUA VICTOR SENCE, 40                    PQ VICENTE D   28080296CAMPOS DOS GOYTRJ0000000000000000                                        00030597400000019413   12345678
0010001300024R 01000000000000000000000000000000000000000000000000000000000000000000000000                                                                                          000000000000000000000000000000000000 000000000000  0000000000
0010001300025P 010000510000002827271 30597400000019414   111111462022/16/09  2106202300000000005921300000 02N051020220000000000000000000000000000000000000000000000000000000000000000000000000000001462022/16               00020000900198471441
0010001300026Q 011000000104705736SANDRO CARVALHO DA SILVA                RUA VICTOR SENCE, 40                    PQ VICENTE D   28080296CAMPOS DOS GOYTRJ0000000000000000                                        00030597400000019414   12345678
0010001300027R 01000000000000000000000000000000000000000000000000000000000000000000000000                                                                                          000000000000000000000000000000000000 000000000000  0000000000
0010001300028P 010000510000002827271 30597400000019415   111111462022/16/10  2107202300000000005921300000 02N051020220000000000000000000000000000000000000000000000000000000000000000000000000000001462022/16               00020000900198471441
0010001300029Q 011000000104705736SANDRO CARVALHO DA SILVA                RUA VICTOR SENCE, 40                    PQ VICENTE D   28080296CAMPOS DOS GOYTRJ0000000000000000                                        00030597400000019415   12345678
0010001300030R 01000000000000000000000000000000000000000000000000000000000000000000000000                                                                                          000000000000000000000000000000000000 000000000000  0000000000
0010001300031P 010000510000002827271 30597400000019416   111111462022/16/11  2108202300000000005921300000 02N051020220000000000000000000000000000000000000000000000000000000000000000000000000000001462022/16               00020000900198471441
0010001300032Q 011000000104705736SANDRO CARVALHO DA SILVA                RUA VICTOR SENCE, 40                    PQ VICENTE D   28080296CAMPOS DOS GOYTRJ0000000000000000                                        00030597400000019416   12345678
0010001300033R 01000000000000000000000000000000000000000000000000000000000000000000000000                                                                                          000000000000000000000000000000000000 000000000000  0000000000
0010001300034P 010000510000002827271 30597400000019417   111111462022/16/12  2109202300000000005921300000 02N051020220000000000000000000000000000000000000000000000000000000000000000000000000000001462022/16               00020000900198471441
0010001300035Q 011000000104705736SANDRO CARVALHO DA SILVA                RUA VICTOR SENCE, 40                    PQ VICENTE D   28080296CAMPOS DOS GOYTRJ0000000000000000                                        00030597400000019417   12345678
0010001300036R 01000000000000000000000000000000000000000000000000000000000000000000000000                                                                                          000000000000000000000000000000000000 000000000000  0000000000
0010001300037P 010000510000002827271 30597400000019418   111111462022/16/13  2110202300000000005921300000 02N051020220000000000000000000000000000000000000000000000000000000000000000000000000000001462022/16               00020000900198471441
0010001300038Q 011000000104705736SANDRO CARVALHO DA SILVA                RUA VICTOR SENCE, 40                    PQ VICENTE D   28080296CAMPOS DOS GOYTRJ0000000000000000                                        00030597400000019418   12345678
0010001300039R 01000000000000000000000000000000000000000000000000000000000000000000000000                                                                                          000000000000000000000000000000000000 000000000000  0000000000
0010001300040P 010000510000002827271 30597400000019419   111111462022/16/14  2111202300000000005921300000 02N051020220000000000000000000000000000000000000000000000000000000000000000000000000000001462022/16               00020000900198471441
0010001300041Q 011000000104705736SANDRO CARVALHO DA SILVA                RUA VICTOR SENCE, 40                    PQ VICENTE D   28080296CAMPOS DOS GOYTRJ0000000000000000                                        00030597400000019419   12345678
0010001300042R 01000000000000000000000000000000000000000000000000000000000000000000000000                                                                                          000000000000000000000000000000000000 000000000000  0000000000
0010001300043P 010000510000002827271 30597400000019420   111111462022/16/15  2112202300000000005921300000 02N051020220000000000000000000000000000000000000000000000000000000000000000000000000000001462022/16               00020000900198471441
0010001300044Q 011000000104705736SANDRO CARVALHO DA SILVA                RUA VICTOR SENCE, 40                    PQ VICENTE D   28080296CAMPOS DOS GOYTRJ0000000000000000                                        00030597400000019420   12345678
0010001300045R 01000000000000000000000000000000000000000000000000000000000000000000000000                                                                                          000000000000000000000000000000000000 000000000000  0000000000
0010001300046P 010000510000002827271 30597400000019421   111111462022/16/16  2101202400000000005921300000 02N051020220000000000000000000000000000000000000000000000000000000000000000000000000000001462022/16               00020000900198471441
0010001300047Q 011000000104705736SANDRO CARVALHO DA SILVA                RUA VICTOR SENCE, 40                    PQ VICENTE D   28080296CAMPOS DOS GOYTRJ0000000000000000                                        00030597400000019421   12345678
0010001300048R 01000000000000000000000000000000000000000000000000000000000000000000000000                                                                                          000000000000000000000000000000000000 000000000000  0000000000
0010001300049P 010000510000002827271 30597400000019422   111111462022/16/17  2102202400000000005921300000 02N051020220000000000000000000000000000000000000000000000000000000000000000000000000000001462022/16               00020000900198471441
0010001300050Q 011000000104705736SANDRO CARVALHO DA SILVA                RUA VICTOR SENCE, 40                    PQ VICENTE D   28080296CAMPOS DOS GOYTRJ0000000000000000                                        00030597400000019422   12345678
0010001300051R 01000000000000000000000000000000000000000000000000000000000000000000000000                                                                                          000000000000000000000000000000000000 000000000000  0000000000
0010001300052P 010000510000002827271 30597400000019423   111111462022/16/18  2103202400000000005921300000 02N051020220000000000000000000000000000000000000000000000000000000000000000000000000000001462022/16               00020000900198471441
0010001300053Q 011000000104705736SANDRO CARVALHO DA SILVA                RUA VICTOR SENCE, 40                    PQ VICENTE D   28080296CAMPOS DOS GOYTRJ0000000000000000                                        00030597400000019423   12345678
0010001300054R 01000000000000000000000000000000000000000000000000000000000000000000000000                                                                                          000000000000000000000000000000000000 000000000000  0000000000
0010001300055P 010000510000002827271 30597400000019592   111111692022/15/01  0111202200000000003552800000 02N051020220000000000000000000000000000000000000000000000000000000000000000000000000000001692022/15               00020000900198471441
0010001300056Q 011000009416186767FABRICIA DOS SANTOS MATA                TRV BARTOLOMEU LIZANDRO, 113            PQ SAO MATEU   28073165CAMPOS DOS GOYTRJ0000000000000000                                        00030597400000019592   12345678
0010001300057R 01000000000000000000000000000000000000000000000000000000000000000000000000                                                                                          000000000000000000000000000000000000 000000000000  0000000000
0010001300058P 010000510000002827271 30597400000019593   111111692022/15/02  0112202200000000003552800000 02N051020220000000000000000000000000000000000000000000000000000000000000000000000000000001692022/15               00020000900198471441
0010001300059Q 011000009416186767FABRICIA DOS SANTOS MATA                TRV BARTOLOMEU LIZANDRO, 113            PQ SAO MATEU   28073165CAMPOS DOS GOYTRJ0000000000000000                                        00030597400000019593   12345678
0010001300060R 01000000000000000000000000000000000000000000000000000000000000000000000000                                                                                          000000000000000000000000000000000000 000000000000  0000000000
0010001300061P 010000510000002827271 30597400000019594   111111692022/15/03  0101202300000000003552800000 02N051020220000000000000000000000000000000000000000000000000000000000000000000000000000001692022/15               00020000900198471441
0010001300062Q 011000009416186767FABRICIA DOS SANTOS MATA                TRV BARTOLOMEU LIZANDRO, 113            PQ SAO MATEU   28073165CAMPOS DOS GOYTRJ0000000000000000                                        00030597400000019594   12345678
0010001300063R 01000000000000000000000000000000000000000000000000000000000000000000000000                                                                                          000000000000000000000000000000000000 000000000000  0000000000
0010001300064P 010000510000002827271 30597400000019595   111111692022/15/04  0102202300000000003552800000 02N051020220000000000000000000000000000000000000000000000000000000000000000000000000000001692022/15               00020000900198471441
0010001300065Q 011000009416186767FABRICIA DOS SANTOS MATA                TRV BARTOLOMEU LIZANDRO, 113            PQ SAO MATEU   28073165CAMPOS DOS GOYTRJ0000000000000000                                        00030597400000019595   12345678
0010001300066R 01000000000000000000000000000000000000000000000000000000000000000000000000                                                                                          000000000000000000000000000000000000 000000000000  0000000000
0010001300067P 010000510000002827271 30597400000019596   111111692022/15/05  0103202300000000003552800000 02N051020220000000000000000000000000000000000000000000000000000000000000000000000000000001692022/15               00020000900198471441
0010001300068Q 011000009416186767FABRICIA DOS SANTOS MATA                TRV BARTOLOMEU LIZANDRO, 113            PQ SAO MATEU   28073165CAMPOS DOS GOYTRJ0000000000000000                                        00030597400000019596   12345678
0010001300069R 01000000000000000000000000000000000000000000000000000000000000000000000000                                                                                          000000000000000000000000000000000000 000000000000  0000000000
0010001300070P 010000510000002827271 30597400000019597   111111692022/15/06  0104202300000000003552800000 02N051020220000000000000000000000000000000000000000000000000000000000000000000000000000001692022/15               00020000900198471441
0010001300071Q 011000009416186767FABRICIA DOS SANTOS MATA                TRV BARTOLOMEU LIZANDRO, 113            PQ SAO MATEU   28073165CAMPOS DOS GOYTRJ0000000000000000                                        00030597400000019597   12345678
0010001300072R 01000000000000000000000000000000000000000000000000000000000000000000000000                                                                                          000000000000000000000000000000000000 000000000000  0000000000
0010001300073P 010000510000002827271 30597400000019598   111111692022/15/07  0105202300000000003552800000 02N051020220000000000000000000000000000000000000000000000000000000000000000000000000000001692022/15               00020000900198471441
0010001300074Q 011000009416186767FABRICIA DOS SANTOS MATA                TRV BARTOLOMEU LIZANDRO, 113            PQ SAO MATEU   28073165CAMPOS DOS GOYTRJ0000000000000000                                        00030597400000019598   12345678
0010001300075R 01000000000000000000000000000000000000000000000000000000000000000000000000                                                                                          000000000000000000000000000000000000 000000000000  0000000000
0010001300076P 010000510000002827271 30597400000019599   111111692022/15/08  0106202300000000003552800000 02N051020220000000000000000000000000000000000000000000000000000000000000000000000000000001692022/15               00020000900198471441
0010001300077Q 011000009416186767FABRICIA DOS SANTOS MATA                TRV BARTOLOMEU LIZANDRO, 113            PQ SAO MATEU   28073165CAMPOS DOS GOYTRJ0000000000000000                                        00030597400000019599   12345678
0010001300078R 01000000000000000000000000000000000000000000000000000000000000000000000000                                                                                          000000000000000000000000000000000000 000000000000  0000000000
0010001300079P 010000510000002827271 30597400000019600   111111692022/15/09  0107202300000000003552800000 02N051020220000000000000000000000000000000000000000000000000000000000000000000000000000001692022/15               00020000900198471441
0010001300080Q 011000009416186767FABRICIA DOS SANTOS MATA                TRV BARTOLOMEU LIZANDRO, 113            PQ SAO MATEU   28073165CAMPOS DOS GOYTRJ0000000000000000                                        00030597400000019600   12345678
0010001300081R 01000000000000000000000000000000000000000000000000000000000000000000000000                                                                                          000000000000000000000000000000000000 000000000000  0000000000
0010001300082P 010000510000002827271 30597400000019601   111111692022/15/10  0108202300000000003552800000 02N051020220000000000000000000000000000000000000000000000000000000000000000000000000000001692022/15               00020000900198471441
0010001300083Q 011000009416186767FABRICIA DOS SANTOS MATA                TRV BARTOLOMEU LIZANDRO, 113            PQ SAO MATEU   28073165CAMPOS DOS GOYTRJ0000000000000000                                        00030597400000019601   12345678
0010001300084R 01000000000000000000000000000000000000000000000000000000000000000000000000                                                                                          000000000000000000000000000000000000 000000000000  0000000000
0010001300085P 010000510000002827271 30597400000019602   111111692022/15/11  0109202300000000003552800000 02N051020220000000000000000000000000000000000000000000000000000000000000000000000000000001692022/15               00020000900198471441
0010001300086Q 011000009416186767FABRICIA DOS SANTOS MATA                TRV BARTOLOMEU LIZANDRO, 113            PQ SAO MATEU   28073165CAMPOS DOS GOYTRJ0000000000000000                                        00030597400000019602   12345678
0010001300087R 01000000000000000000000000000000000000000000000000000000000000000000000000                                                                                          000000000000000000000000000000000000 000000000000  0000000000
0010001300088P 010000510000002827271 30597400000019603   111111692022/15/12  0110202300000000003552800000 02N051020220000000000000000000000000000000000000000000000000000000000000000000000000000001692022/15               00020000900198471441
0010001300089Q 011000009416186767FABRICIA DOS SANTOS MATA                TRV BARTOLOMEU LIZANDRO, 113            PQ SAO MATEU   28073165CAMPOS DOS GOYTRJ0000000000000000                                        00030597400000019603   12345678
0010001300090R 01000000000000000000000000000000000000000000000000000000000000000000000000                                                                                          000000000000000000000000000000000000 000000000000  0000000000
0010001300091P 010000510000002827271 30597400000019604   111111692022/15/13  0111202300000000003552800000 02N051020220000000000000000000000000000000000000000000000000000000000000000000000000000001692022/15               00020000900198471441
0010001300092Q 011000009416186767FABRICIA DOS SANTOS MATA                TRV BARTOLOMEU LIZANDRO, 113            PQ SAO MATEU   28073165CAMPOS DOS GOYTRJ0000000000000000                                        00030597400000019604   12345678
0010001300093R 01000000000000000000000000000000000000000000000000000000000000000000000000                                                                                          000000000000000000000000000000000000 000000000000  0000000000
0010001300094P 010000510000002827271 30597400000019605   111111692022/15/14  0112202300000000003552800000 02N051020220000000000000000000000000000000000000000000000000000000000000000000000000000001692022/15               00020000900198471441
0010001300095Q 011000009416186767FABRICIA DOS SANTOS MATA                TRV BARTOLOMEU LIZANDRO, 113            PQ SAO MATEU   28073165CAMPOS DOS GOYTRJ0000000000000000                                        00030597400000019605   12345678
0010001300096R 01000000000000000000000000000000000000000000000000000000000000000000000000                                                                                          000000000000000000000000000000000000 000000000000  0000000000
0010001300097P 010000510000002827271 30597400000019606   111111692022/15/15  0101202400000000003552800000 02N051020220000000000000000000000000000000000000000000000000000000000000000000000000000001692022/15               00020000900198471441
0010001300098Q 011000009416186767FABRICIA DOS SANTOS MATA                TRV BARTOLOMEU LIZANDRO, 113            PQ SAO MATEU   28073165CAMPOS DOS GOYTRJ0000000000000000                                        00030597400000019606   12345678
0010001300099R 01000000000000000000000000000000000000000000000000000000000000000000000000                                                                                          000000000000000000000000000000000000 000000000000  0000000000
0010001300100P 010000510000002827271 30597400000019607   111111692022/15/16  0102202400000000003552800000 02N051020220000000000000000000000000000000000000000000000000000000000000000000000000000001692022/15               00020000900198471441
0010001300101Q 011000009416186767FABRICIA DOS SANTOS MATA                TRV BARTOLOMEU LIZANDRO, 113            PQ SAO MATEU   28073165CAMPOS DOS GOYTRJ0000000000000000                                        00030597400000019607   12345678
0010001300102R 01000000000000000000000000000000000000000000000000000000000000000000000000                                                                                          000000000000000000000000000000000000 000000000000  0000000000
0010001300103P 010000510000002827271 30597400000019608   111111692022/15/17  0103202400000000003552800000 02N051020220000000000000000000000000000000000000000000000000000000000000000000000000000001692022/15               00020000900198471441
0010001300104Q 011000009416186767FABRICIA DOS SANTOS MATA                TRV BARTOLOMEU LIZANDRO, 113            PQ SAO MATEU   28073165CAMPOS DOS GOYTRJ0000000000000000                                        00030597400000019608   12345678
0010001300105R 01000000000000000000000000000000000000000000000000000000000000000000000000                                                                                          000000000000000000000000000000000000 000000000000  0000000000
0010001300106P 010000510000002827271 30597400000019609   111111692022/15/18  0104202400000000003552800000 02N051020220000000000000000000000000000000000000000000000000000000000000000000000000000001692022/15               00020000900198471441
0010001300107Q 011000009416186767FABRICIA DOS SANTOS MATA                TRV BARTOLOMEU LIZANDRO, 113            PQ SAO MATEU   28073165CAMPOS DOS GOYTRJ0000000000000000                                        00030597400000019609   12345678
0010001300108R 01000000000000000000000000000000000000000000000000000000000000000000000000                                                                                          000000000000000000000000000000000000 000000000000  0000000000
0010001300109P 010000510000002827271 30597400000019574   111111812022/15/01  0111202200000000005921300000 02N051020220000000000000000000000000000000000000000000000000000000000000000000000000000001812022/15               00020000900198471441
0010001300110Q 011000089890582791ANA PAULA AZEVEDO CORDEIRO GUALDA       RUA QUINZE DE NOVEMBRO, 239             PQ CONS TOMA   28051550CAMPOS DOS GOYTRJ0000000000000000                                        00030597400000019574   12345678
0010001300111R 01000000000000000000000000000000000000000000000000000000000000000000000000                                                                                          000000000000000000000000000000000000 000000000000  0000000000
0010001300112P 010000510000002827271 30597400000019575   111111812022/15/02  0112202200000000005921300000 02N051020220000000000000000000000000000000000000000000000000000000000000000000000000000001812022/15               00020000900198471441
0010001300113Q 011000089890582791ANA PAULA AZEVEDO CORDEIRO GUALDA       RUA QUINZE DE NOVEMBRO, 239             PQ CONS TOMA   28051550CAMPOS DOS GOYTRJ0000000000000000                                        00030597400000019575   12345678
0010001300114R 01000000000000000000000000000000000000000000000000000000000000000000000000                                                                                          000000000000000000000000000000000000 000000000000  0000000000
0010001300115P 010000510000002827271 30597400000019576   111111812022/15/03  0101202300000000005921300000 02N051020220000000000000000000000000000000000000000000000000000000000000000000000000000001812022/15               00020000900198471441
0010001300116Q 011000089890582791ANA PAULA AZEVEDO CORDEIRO GUALDA       RUA QUINZE DE NOVEMBRO, 239             PQ CONS TOMA   28051550CAMPOS DOS GOYTRJ0000000000000000                                        00030597400000019576   12345678
0010001300117R 01000000000000000000000000000000000000000000000000000000000000000000000000                                                                                          000000000000000000000000000000000000 000000000000  0000000000
0010001300118P 010000510000002827271 30597400000019577   111111812022/15/04  0102202300000000005921300000 02N051020220000000000000000000000000000000000000000000000000000000000000000000000000000001812022/15               00020000900198471441
0010001300119Q 011000089890582791ANA PAULA AZEVEDO CORDEIRO GUALDA       RUA QUINZE DE NOVEMBRO, 239             PQ CONS TOMA   28051550CAMPOS DOS GOYTRJ0000000000000000                                        00030597400000019577   12345678
0010001300120R 01000000000000000000000000000000000000000000000000000000000000000000000000                                                                                          000000000000000000000000000000000000 000000000000  0000000000
0010001300121P 010000510000002827271 30597400000019578   111111812022/15/05  0103202300000000005921300000 02N051020220000000000000000000000000000000000000000000000000000000000000000000000000000001812022/15               00020000900198471441
0010001300122Q 011000089890582791ANA PAULA AZEVEDO CORDEIRO GUALDA       RUA QUINZE DE NOVEMBRO, 239             PQ CONS TOMA   28051550CAMPOS DOS GOYTRJ0000000000000000                                        00030597400000019578   12345678
0010001300123R 01000000000000000000000000000000000000000000000000000000000000000000000000                                                                                          000000000000000000000000000000000000 000000000000  0000000000
0010001300124P 010000510000002827271 30597400000019579   111111812022/15/06  0104202300000000005921300000 02N051020220000000000000000000000000000000000000000000000000000000000000000000000000000001812022/15               00020000900198471441
0010001300125Q 011000089890582791ANA PAULA AZEVEDO CORDEIRO GUALDA       RUA QUINZE DE NOVEMBRO, 239             PQ CONS TOMA   28051550CAMPOS DOS GOYTRJ0000000000000000                                        00030597400000019579   12345678
0010001300126R 01000000000000000000000000000000000000000000000000000000000000000000000000                                                                                          000000000000000000000000000000000000 000000000000  0000000000
0010001300127P 010000510000002827271 30597400000019580   111111812022/15/07  0105202300000000005921300000 02N051020220000000000000000000000000000000000000000000000000000000000000000000000000000001812022/15               00020000900198471441
0010001300128Q 011000089890582791ANA PAULA AZEVEDO CORDEIRO GUALDA       RUA QUINZE DE NOVEMBRO, 239             PQ CONS TOMA   28051550CAMPOS DOS GOYTRJ0000000000000000                                        00030597400000019580   12345678
0010001300129R 01000000000000000000000000000000000000000000000000000000000000000000000000                                                                                          000000000000000000000000000000000000 000000000000  0000000000
0010001300130P 010000510000002827271 30597400000019581   111111812022/15/08  0106202300000000005921300000 02N051020220000000000000000000000000000000000000000000000000000000000000000000000000000001812022/15               00020000900198471441
0010001300131Q 011000089890582791ANA PAULA AZEVEDO CORDEIRO GUALDA       RUA QUINZE DE NOVEMBRO, 239             PQ CONS TOMA   28051550CAMPOS DOS GOYTRJ0000000000000000                                        00030597400000019581   12345678
0010001300132R 01000000000000000000000000000000000000000000000000000000000000000000000000                                                                                          000000000000000000000000000000000000 000000000000  0000000000
0010001300133P 010000510000002827271 30597400000019582   111111812022/15/09  0107202300000000005921300000 02N051020220000000000000000000000000000000000000000000000000000000000000000000000000000001812022/15               00020000900198471441
0010001300134Q 011000089890582791ANA PAULA AZEVEDO CORDEIRO GUALDA       RUA QUINZE DE NOVEMBRO, 239             PQ CONS TOMA   28051550CAMPOS DOS GOYTRJ0000000000000000                                        00030597400000019582   12345678
0010001300135R 01000000000000000000000000000000000000000000000000000000000000000000000000                                                                                          000000000000000000000000000000000000 000000000000  0000000000
0010001300136P 010000510000002827271 30597400000019583   111111812022/15/10  0108202300000000005921300000 02N051020220000000000000000000000000000000000000000000000000000000000000000000000000000001812022/15               00020000900198471441
0010001300137Q 011000089890582791ANA PAULA AZEVEDO CORDEIRO GUALDA       RUA QUINZE DE NOVEMBRO, 239             PQ CONS TOMA   28051550CAMPOS DOS GOYTRJ0000000000000000                                        00030597400000019583   12345678
0010001300138R 01000000000000000000000000000000000000000000000000000000000000000000000000                                                                                          000000000000000000000000000000000000 000000000000  0000000000
0010001300139P 010000510000002827271 30597400000019584   111111812022/15/11  0109202300000000005921300000 02N051020220000000000000000000000000000000000000000000000000000000000000000000000000000001812022/15               00020000900198471441
0010001300140Q 011000089890582791ANA PAULA AZEVEDO CORDEIRO GUALDA       RUA QUINZE DE NOVEMBRO, 239             PQ CONS TOMA   28051550CAMPOS DOS GOYTRJ0000000000000000                                        00030597400000019584   12345678
0010001300141R 01000000000000000000000000000000000000000000000000000000000000000000000000                                                                                          000000000000000000000000000000000000 000000000000  0000000000
0010001300142P 010000510000002827271 30597400000019585   111111812022/15/12  0110202300000000005921300000 02N051020220000000000000000000000000000000000000000000000000000000000000000000000000000001812022/15               00020000900198471441
0010001300143Q 011000089890582791ANA PAULA AZEVEDO CORDEIRO GUALDA       RUA QUINZE DE NOVEMBRO, 239             PQ CONS TOMA   28051550CAMPOS DOS GOYTRJ0000000000000000                                        00030597400000019585   12345678
0010001300144R 01000000000000000000000000000000000000000000000000000000000000000000000000                                                                                          000000000000000000000000000000000000 000000000000  0000000000
0010001300145P 010000510000002827271 30597400000019586   111111812022/15/13  0111202300000000005921300000 02N051020220000000000000000000000000000000000000000000000000000000000000000000000000000001812022/15               00020000900198471441
0010001300146Q 011000089890582791ANA PAULA AZEVEDO CORDEIRO GUALDA       RUA QUINZE DE NOVEMBRO, 239             PQ CONS TOMA   28051550CAMPOS DOS GOYTRJ0000000000000000                                        00030597400000019586   12345678
0010001300147R 01000000000000000000000000000000000000000000000000000000000000000000000000                                                                                          000000000000000000000000000000000000 000000000000  0000000000
0010001300148P 010000510000002827271 30597400000019587   111111812022/15/14  0112202300000000005921300000 02N051020220000000000000000000000000000000000000000000000000000000000000000000000000000001812022/15               00020000900198471441
0010001300149Q 011000089890582791ANA PAULA AZEVEDO CORDEIRO GUALDA       RUA QUINZE DE NOVEMBRO, 239             PQ CONS TOMA   28051550CAMPOS DOS GOYTRJ0000000000000000                                        00030597400000019587   12345678
0010001300150R 01000000000000000000000000000000000000000000000000000000000000000000000000                                                                                          000000000000000000000000000000000000 000000000000  0000000000
0010001300151P 010000510000002827271 30597400000019588   111111812022/15/15  0101202400000000005921300000 02N051020220000000000000000000000000000000000000000000000000000000000000000000000000000001812022/15               00020000900198471441
0010001300152Q 011000089890582791ANA PAULA AZEVEDO CORDEIRO GUALDA       RUA QUINZE DE NOVEMBRO, 239             PQ CONS TOMA   28051550CAMPOS DOS GOYTRJ0000000000000000                                        00030597400000019588   12345678
0010001300153R 01000000000000000000000000000000000000000000000000000000000000000000000000                                                                                          000000000000000000000000000000000000 000000000000  0000000000
0010001300154P 010000510000002827271 30597400000019589   111111812022/15/16  0102202400000000005921300000 02N051020220000000000000000000000000000000000000000000000000000000000000000000000000000001812022/15               00020000900198471441
0010001300155Q 011000089890582791ANA PAULA AZEVEDO CORDEIRO GUALDA       RUA QUINZE DE NOVEMBRO, 239             PQ CONS TOMA   28051550CAMPOS DOS GOYTRJ0000000000000000                                        00030597400000019589   12345678
0010001300156R 01000000000000000000000000000000000000000000000000000000000000000000000000                                                                                          000000000000000000000000000000000000 000000000000  0000000000
0010001300157P 010000510000002827271 30597400000019590   111111812022/15/17  0103202400000000005921300000 02N051020220000000000000000000000000000000000000000000000000000000000000000000000000000001812022/15               00020000900198471441
0010001300158Q 011000089890582791ANA PAULA AZEVEDO CORDEIRO GUALDA       RUA QUINZE DE NOVEMBRO, 239             PQ CONS TOMA   28051550CAMPOS DOS GOYTRJ0000000000000000                                        00030597400000019590   12345678
0010001300159R 01000000000000000000000000000000000000000000000000000000000000000000000000                                                                                          000000000000000000000000000000000000 000000000000  0000000000
0010001300160P 010000510000002827271 30597400000019591   111111812022/15/18  0104202400000000005921300000 02N051020220000000000000000000000000000000000000000000000000000000000000000000000000000001812022/15               00020000900198471441
0010001300161Q 011000089890582791ANA PAULA AZEVEDO CORDEIRO GUALDA       RUA QUINZE DE NOVEMBRO, 239             PQ CONS TOMA   28051550CAMPOS DOS GOYTRJ0000000000000000                                        00030597400000019591   12345678
0010001300162R 01000000000000000000000000000000000000000000000000000000000000000000000000                                                                                          000000000000000000000000000000000000 000000000000  0000000000
0010001300163P 010000510000002827271 30597400000019388   111111822022/16/01  2110202200000000005921300000 02N051020220000000000000000000000000000000000000000000000000000000000000000000000000000001822022/16               00020000900198471441
0010001300164Q 011000011760106704ANA PRISCILA RANGEL MARTINS             RUA DR. JUVENAL M. FILHO, 14            TURF CLUB      28015155CAMPOS DOS GOYTRJ0000000000000000                                        00030597400000019388   12345678
0010001300165R 01000000000000000000000000000000000000000000000000000000000000000000000000                                                                                          000000000000000000000000000000000000 000000000000  0000000000
0010001300166P 010000510000002827271 30597400000019389   111111822022/16/02  2111202200000000005921300000 02N051020220000000000000000000000000000000000000000000000000000000000000000000000000000001822022/16               00020000900198471441
0010001300167Q 011000011760106704ANA PRISCILA RANGEL MARTINS             RUA DR. JUVENAL M. FILHO, 14            TURF CLUB      28015155CAMPOS DOS GOYTRJ0000000000000000                                        00030597400000019389   12345678
0010001300168R 01000000000000000000000000000000000000000000000000000000000000000000000000                                                                                          000000000000000000000000000000000000 000000000000  0000000000
0010001300169P 010000510000002827271 30597400000019390   111111822022/16/03  2112202200000000005921300000 02N051020220000000000000000000000000000000000000000000000000000000000000000000000000000001822022/16               00020000900198471441
0010001300170Q 011000011760106704ANA PRISCILA RANGEL MARTINS             RUA DR. JUVENAL M. FILHO, 14            TURF CLUB      28015155CAMPOS DOS GOYTRJ0000000000000000                                        00030597400000019390   12345678
0010001300171R 01000000000000000000000000000000000000000000000000000000000000000000000000                                                                                          000000000000000000000000000000000000 000000000000  0000000000
0010001300172P 010000510000002827271 30597400000019391   111111822022/16/04  2101202300000000005921300000 02N051020220000000000000000000000000000000000000000000000000000000000000000000000000000001822022/16               00020000900198471441
0010001300173Q 011000011760106704ANA PRISCILA RANGEL MARTINS             RUA DR. JUVENAL M. FILHO, 14            TURF CLUB      28015155CAMPOS DOS GOYTRJ0000000000000000                                        00030597400000019391   12345678
0010001300174R 01000000000000000000000000000000000000000000000000000000000000000000000000                                                                                          000000000000000000000000000000000000 000000000000  0000000000
0010001300175P 010000510000002827271 30597400000019392   111111822022/16/05  2102202300000000005921300000 02N051020220000000000000000000000000000000000000000000000000000000000000000000000000000001822022/16               00020000900198471441
0010001300176Q 011000011760106704ANA PRISCILA RANGEL MARTINS             RUA DR. JUVENAL M. FILHO, 14            TURF CLUB      28015155CAMPOS DOS GOYTRJ0000000000000000                                        00030597400000019392   12345678
0010001300177R 01000000000000000000000000000000000000000000000000000000000000000000000000                                                                                          000000000000000000000000000000000000 000000000000  0000000000
0010001300178P 010000510000002827271 30597400000019393   111111822022/16/06  2103202300000000005921300000 02N051020220000000000000000000000000000000000000000000000000000000000000000000000000000001822022/16               00020000900198471441
0010001300179Q 011000011760106704ANA PRISCILA RANGEL MARTINS             RUA DR. JUVENAL M. FILHO, 14            TURF CLUB      28015155CAMPOS DOS GOYTRJ0000000000000000                                        00030597400000019393   12345678
0010001300180R 01000000000000000000000000000000000000000000000000000000000000000000000000                                                                                          000000000000000000000000000000000000 000000000000  0000000000
0010001300181P 010000510000002827271 30597400000019394   111111822022/16/07  2104202300000000005921300000 02N051020220000000000000000000000000000000000000000000000000000000000000000000000000000001822022/16               00020000900198471441
0010001300182Q 011000011760106704ANA PRISCILA RANGEL MARTINS             RUA DR. JUVENAL M. FILHO, 14            TURF CLUB      28015155CAMPOS DOS GOYTRJ0000000000000000                                        00030597400000019394   12345678
0010001300183R 01000000000000000000000000000000000000000000000000000000000000000000000000                                                                                          000000000000000000000000000000000000 000000000000  0000000000
0010001300184P 010000510000002827271 30597400000019395   111111822022/16/08  2105202300000000005921300000 02N051020220000000000000000000000000000000000000000000000000000000000000000000000000000001822022/16               00020000900198471441
0010001300185Q 011000011760106704ANA PRISCILA RANGEL MARTINS             RUA DR. JUVENAL M. FILHO, 14            TURF CLUB      28015155CAMPOS DOS GOYTRJ0000000000000000                                        00030597400000019395   12345678
0010001300186R 01000000000000000000000000000000000000000000000000000000000000000000000000                                                                                          000000000000000000000000000000000000 000000000000  0000000000
0010001300187P 010000510000002827271 30597400000019396   111111822022/16/09  2106202300000000005921300000 02N051020220000000000000000000000000000000000000000000000000000000000000000000000000000001822022/16               00020000900198471441
0010001300188Q 011000011760106704ANA PRISCILA RANGEL MARTINS             RUA DR. JUVENAL M. FILHO, 14            TURF CLUB      28015155CAMPOS DOS GOYTRJ0000000000000000                                        00030597400000019396   12345678
0010001300189R 01000000000000000000000000000000000000000000000000000000000000000000000000                                                                                          000000000000000000000000000000000000 000000000000  0000000000
0010001300190P 010000510000002827271 30597400000019397   111111822022/16/10  2107202300000000005921300000 02N051020220000000000000000000000000000000000000000000000000000000000000000000000000000001822022/16               00020000900198471441
0010001300191Q 011000011760106704ANA PRISCILA RANGEL MARTINS             RUA DR. JUVENAL M. FILHO, 14            TURF CLUB      28015155CAMPOS DOS GOYTRJ0000000000000000                                        00030597400000019397   12345678
0010001300192R 01000000000000000000000000000000000000000000000000000000000000000000000000                                                                                          000000000000000000000000000000000000 000000000000  0000000000
0010001300193P 010000510000002827271 30597400000019398   111111822022/16/11  2108202300000000005921300000 02N051020220000000000000000000000000000000000000000000000000000000000000000000000000000001822022/16               00020000900198471441
0010001300194Q 011000011760106704ANA PRISCILA RANGEL MARTINS             RUA DR. JUVENAL M. FILHO, 14            TURF CLUB      28015155CAMPOS DOS GOYTRJ0000000000000000                                        00030597400000019398   12345678
0010001300195R 01000000000000000000000000000000000000000000000000000000000000000000000000                                                                                          000000000000000000000000000000000000 000000000000  0000000000
0010001300196P 010000510000002827271 30597400000019399   111111822022/16/12  2109202300000000005921300000 02N051020220000000000000000000000000000000000000000000000000000000000000000000000000000001822022/16               00020000900198471441
0010001300197Q 011000011760106704ANA PRISCILA RANGEL MARTINS             RUA DR. JUVENAL M. FILHO, 14            TURF CLUB      28015155CAMPOS DOS GOYTRJ0000000000000000                                        00030597400000019399   12345678
0010001300198R 01000000000000000000000000000000000000000000000000000000000000000000000000                                                                                          000000000000000000000000000000000000 000000000000  0000000000
0010001300199P 010000510000002827271 30597400000019400   111111822022/16/13  2110202300000000005921300000 02N051020220000000000000000000000000000000000000000000000000000000000000000000000000000001822022/16               00020000900198471441
0010001300200Q 011000011760106704ANA PRISCILA RANGEL MARTINS             RUA DR. JUVENAL M. FILHO, 14            TURF CLUB      28015155CAMPOS DOS GOYTRJ0000000000000000                                        00030597400000019400   12345678
0010001300201R 01000000000000000000000000000000000000000000000000000000000000000000000000                                                                                          000000000000000000000000000000000000 000000000000  0000000000
0010001300202P 010000510000002827271 30597400000019401   111111822022/16/14  2111202300000000005921300000 02N051020220000000000000000000000000000000000000000000000000000000000000000000000000000001822022/16               00020000900198471441
0010001300203Q 011000011760106704ANA PRISCILA RANGEL MARTINS             RUA DR. JUVENAL M. FILHO, 14            TURF CLUB      28015155CAMPOS DOS GOYTRJ0000000000000000                                        00030597400000019401   12345678
0010001300204R 01000000000000000000000000000000000000000000000000000000000000000000000000                                                                                          000000000000000000000000000000000000 000000000000  0000000000
0010001300205P 010000510000002827271 30597400000019402   111111822022/16/15  2112202300000000005921300000 02N051020220000000000000000000000000000000000000000000000000000000000000000000000000000001822022/16               00020000900198471441
0010001300206Q 011000011760106704ANA PRISCILA RANGEL MARTINS             RUA DR. JUVENAL M. FILHO, 14            TURF CLUB      28015155CAMPOS DOS GOYTRJ0000000000000000                                        00030597400000019402   12345678
0010001300207R 01000000000000000000000000000000000000000000000000000000000000000000000000                                                                                          000000000000000000000000000000000000 000000000000  0000000000
0010001300208P 010000510000002827271 30597400000019403   111111822022/16/16  2101202400000000005921300000 02N051020220000000000000000000000000000000000000000000000000000000000000000000000000000001822022/16               00020000900198471441
0010001300209Q 011000011760106704ANA PRISCILA RANGEL MARTINS             RUA DR. JUVENAL M. FILHO, 14            TURF CLUB      28015155CAMPOS DOS GOYTRJ0000000000000000                                        00030597400000019403   12345678
0010001300210R 01000000000000000000000000000000000000000000000000000000000000000000000000                                                                                          000000000000000000000000000000000000 000000000000  0000000000
0010001300211P 010000510000002827271 30597400000019404   111111822022/16/17  2102202400000000005921300000 02N051020220000000000000000000000000000000000000000000000000000000000000000000000000000001822022/16               00020000900198471441
0010001300212Q 011000011760106704ANA PRISCILA RANGEL MARTINS             RUA DR. JUVENAL M. FILHO, 14            TURF CLUB      28015155CAMPOS DOS GOYTRJ0000000000000000                                        00030597400000019404   12345678
0010001300213R 01000000000000000000000000000000000000000000000000000000000000000000000000                                                                                          000000000000000000000000000000000000 000000000000  0000000000
0010001300214P 010000510000002827271 30597400000019405   111111822022/16/18  2103202400000000005921300000 02N051020220000000000000000000000000000000000000000000000000000000000000000000000000000001822022/16               00020000900198471441
0010001300215Q 011000011760106704ANA PRISCILA RANGEL MARTINS             RUA DR. JUVENAL M. FILHO, 14            TURF CLUB      28015155CAMPOS DOS GOYTRJ0000000000000000                                        00030597400000019405   12345678
0010001300216R 01000000000000000000000000000000000000000000000000000000000000000000000000                                                                                          000000000000000000000000000000000000 000000000000  0000000000
0010001300217P 010000510000002827271 30597400000019460   111111832022/16/01  2110202200000000007701100000 02N051020220000000000000000000000000000000000000000000000000000000000000000000000000000001832022/16               00020000900198471441
0010001300218Q 011000093991274787RISOMAR VANICIO PEREIRA DOS SANTOS      RUA CALDAS VIANA, 107                   PQ CALIFORNI   28015300CMPS GOYTACAZESRJ0000000000000000                                        00030597400000019460   12345678
0010001300219R 01000000000000000000000000000000000000000000000000000000000000000000000000                                                                                          000000000000000000000000000000000000 000000000000  0000000000
0010001300220P 010000510000002827271 30597400000019461   111111832022/16/02  2111202200000000007701100000 02N051020220000000000000000000000000000000000000000000000000000000000000000000000000000001832022/16               00020000900198471441
0010001300221Q 011000093991274787RISOMAR VANICIO PEREIRA DOS SANTOS      RUA CALDAS VIANA, 107                   PQ CALIFORNI   28015300CMPS GOYTACAZESRJ0000000000000000                                        00030597400000019461   12345678
0010001300222R 01000000000000000000000000000000000000000000000000000000000000000000000000                                                                                          000000000000000000000000000000000000 000000000000  0000000000
0010001300223P 010000510000002827271 30597400000019462   111111832022/16/03  2112202200000000007701100000 02N051020220000000000000000000000000000000000000000000000000000000000000000000000000000001832022/16               00020000900198471441
0010001300224Q 011000093991274787RISOMAR VANICIO PEREIRA DOS SANTOS      RUA CALDAS VIANA, 107                   PQ CALIFORNI   28015300CMPS GOYTACAZESRJ0000000000000000                                        00030597400000019462   12345678
0010001300225R 01000000000000000000000000000000000000000000000000000000000000000000000000                                                                                          000000000000000000000000000000000000 000000000000  0000000000
0010001300226P 010000510000002827271 30597400000019463   111111832022/16/04  2101202300000000007701100000 02N051020220000000000000000000000000000000000000000000000000000000000000000000000000000001832022/16               00020000900198471441
0010001300227Q 011000093991274787RISOMAR VANICIO PEREIRA DOS SANTOS      RUA CALDAS VIANA, 107                   PQ CALIFORNI   28015300CMPS GOYTACAZESRJ0000000000000000                                        00030597400000019463   12345678
0010001300228R 01000000000000000000000000000000000000000000000000000000000000000000000000                                                                                          000000000000000000000000000000000000 000000000000  0000000000
0010001300229P 010000510000002827271 30597400000019464   111111832022/16/05  2102202300000000007701100000 02N051020220000000000000000000000000000000000000000000000000000000000000000000000000000001832022/16               00020000900198471441
0010001300230Q 011000093991274787RISOMAR VANICIO PEREIRA DOS SANTOS      RUA CALDAS VIANA, 107                   PQ CALIFORNI   28015300CMPS GOYTACAZESRJ0000000000000000                                        00030597400000019464   12345678
0010001300231R 01000000000000000000000000000000000000000000000000000000000000000000000000                                                                                          000000000000000000000000000000000000 000000000000  0000000000
0010001300232P 010000510000002827271 30597400000019465   111111832022/16/06  2103202300000000007701100000 02N051020220000000000000000000000000000000000000000000000000000000000000000000000000000001832022/16               00020000900198471441
0010001300233Q 011000093991274787RISOMAR VANICIO PEREIRA DOS SANTOS      RUA CALDAS VIANA, 107                   PQ CALIFORNI   28015300CMPS GOYTACAZESRJ0000000000000000                                        00030597400000019465   12345678
0010001300234R 01000000000000000000000000000000000000000000000000000000000000000000000000                                                                                          000000000000000000000000000000000000 000000000000  0000000000
0010001300235P 010000510000002827271 30597400000019466   111111832022/16/07  2104202300000000007701100000 02N051020220000000000000000000000000000000000000000000000000000000000000000000000000000001832022/16               00020000900198471441
0010001300236Q 011000093991274787RISOMAR VANICIO PEREIRA DOS SANTOS      RUA CALDAS VIANA, 107                   PQ CALIFORNI   28015300CMPS GOYTACAZESRJ0000000000000000                                        00030597400000019466   12345678
0010001300237R 01000000000000000000000000000000000000000000000000000000000000000000000000                                                                                          000000000000000000000000000000000000 000000000000  0000000000
0010001300238P 010000510000002827271 30597400000019467   111111832022/16/08  2105202300000000007701100000 02N051020220000000000000000000000000000000000000000000000000000000000000000000000000000001832022/16               00020000900198471441
0010001300239Q 011000093991274787RISOMAR VANICIO PEREIRA DOS SANTOS      RUA CALDAS VIANA, 107                   PQ CALIFORNI   28015300CMPS GOYTACAZESRJ0000000000000000                                        00030597400000019467   12345678
0010001300240R 01000000000000000000000000000000000000000000000000000000000000000000000000                                                                                          000000000000000000000000000000000000 000000000000  0000000000
0010001300241P 010000510000002827271 30597400000019468   111111832022/16/09  2106202300000000007701100000 02N051020220000000000000000000000000000000000000000000000000000000000000000000000000000001832022/16               00020000900198471441
0010001300242Q 011000093991274787RISOMAR VANICIO PEREIRA DOS SANTOS      RUA CALDAS VIANA, 107                   PQ CALIFORNI   28015300CMPS GOYTACAZESRJ0000000000000000                                        00030597400000019468   12345678
0010001300243R 01000000000000000000000000000000000000000000000000000000000000000000000000                                                                                          000000000000000000000000000000000000 000000000000  0000000000
0010001300244P 010000510000002827271 30597400000019469   111111832022/16/10  2107202300000000007701100000 02N051020220000000000000000000000000000000000000000000000000000000000000000000000000000001832022/16               00020000900198471441
0010001300245Q 011000093991274787RISOMAR VANICIO PEREIRA DOS SANTOS      RUA CALDAS VIANA, 107                   PQ CALIFORNI   28015300CMPS GOYTACAZESRJ0000000000000000                                        00030597400000019469   12345678
0010001300246R 01000000000000000000000000000000000000000000000000000000000000000000000000                                                                                          000000000000000000000000000000000000 000000000000  0000000000
0010001300247P 010000510000002827271 30597400000019470   111111832022/16/11  2108202300000000007701100000 02N051020220000000000000000000000000000000000000000000000000000000000000000000000000000001832022/16               00020000900198471441
0010001300248Q 011000093991274787RISOMAR VANICIO PEREIRA DOS SANTOS      RUA CALDAS VIANA, 107                   PQ CALIFORNI   28015300CMPS GOYTACAZESRJ0000000000000000                                        00030597400000019470   12345678
0010001300249R 01000000000000000000000000000000000000000000000000000000000000000000000000                                                                                          000000000000000000000000000000000000 000000000000  0000000000
0010001300250P 010000510000002827271 30597400000019471   111111832022/16/12  2109202300000000007701100000 02N051020220000000000000000000000000000000000000000000000000000000000000000000000000000001832022/16               00020000900198471441
0010001300251Q 011000093991274787RISOMAR VANICIO PEREIRA DOS SANTOS      RUA CALDAS VIANA, 107                   PQ CALIFORNI   28015300CMPS GOYTACAZESRJ0000000000000000                                        00030597400000019471   12345678
0010001300252R 01000000000000000000000000000000000000000000000000000000000000000000000000                                                                                          000000000000000000000000000000000000 000000000000  0000000000
0010001300253P 010000510000002827271 30597400000019472   111111832022/16/13  2110202300000000007701100000 02N051020220000000000000000000000000000000000000000000000000000000000000000000000000000001832022/16               00020000900198471441
0010001300254Q 011000093991274787RISOMAR VANICIO PEREIRA DOS SANTOS      RUA CALDAS VIANA, 107                   PQ CALIFORNI   28015300CMPS GOYTACAZESRJ0000000000000000                                        00030597400000019472   12345678
0010001300255R 01000000000000000000000000000000000000000000000000000000000000000000000000                                                                                          000000000000000000000000000000000000 000000000000  0000000000
0010001300256P 010000510000002827271 30597400000019473   111111832022/16/14  2111202300000000007701100000 02N051020220000000000000000000000000000000000000000000000000000000000000000000000000000001832022/16               00020000900198471441
0010001300257Q 011000093991274787RISOMAR VANICIO PEREIRA DOS SANTOS      RUA CALDAS VIANA, 107                   PQ CALIFORNI   28015300CMPS GOYTACAZESRJ0000000000000000                                        00030597400000019473   12345678
0010001300258R 01000000000000000000000000000000000000000000000000000000000000000000000000                                                                                          000000000000000000000000000000000000 000000000000  0000000000
0010001300259P 010000510000002827271 30597400000019474   111111832022/16/15  2112202300000000007701100000 02N051020220000000000000000000000000000000000000000000000000000000000000000000000000000001832022/16               00020000900198471441
0010001300260Q 011000093991274787RISOMAR VANICIO PEREIRA DOS SANTOS      RUA CALDAS VIANA, 107                   PQ CALIFORNI   28015300CMPS GOYTACAZESRJ0000000000000000                                        00030597400000019474   12345678
0010001300261R 01000000000000000000000000000000000000000000000000000000000000000000000000                                                                                          000000000000000000000000000000000000 000000000000  0000000000
0010001300262P 010000510000002827271 30597400000019475   111111832022/16/16  2101202400000000007701100000 02N051020220000000000000000000000000000000000000000000000000000000000000000000000000000001832022/16               00020000900198471441
0010001300263Q 011000093991274787RISOMAR VANICIO PEREIRA DOS SANTOS      RUA CALDAS VIANA, 107                   PQ CALIFORNI   28015300CMPS GOYTACAZESRJ0000000000000000                                        00030597400000019475   12345678
0010001300264R 01000000000000000000000000000000000000000000000000000000000000000000000000                                                                                          000000000000000000000000000000000000 000000000000  0000000000
0010001300265P 010000510000002827271 30597400000019476   111111832022/16/17  2102202400000000007701100000 02N051020220000000000000000000000000000000000000000000000000000000000000000000000000000001832022/16               00020000900198471441
0010001300266Q 011000093991274787RISOMAR VANICIO PEREIRA DOS SANTOS      RUA CALDAS VIANA, 107                   PQ CALIFORNI   28015300CMPS GOYTACAZESRJ0000000000000000                                        00030597400000019476   12345678
0010001300267R 01000000000000000000000000000000000000000000000000000000000000000000000000                                                                                          000000000000000000000000000000000000 000000000000  0000000000
0010001300268P 010000510000002827271 30597400000019477   111111832022/16/18  2103202400000000007701100000 02N051020220000000000000000000000000000000000000000000000000000000000000000000000000000001832022/16               00020000900198471441
0010001300269Q 011000093991274787RISOMAR VANICIO PEREIRA DOS SANTOS      RUA CALDAS VIANA, 107                   PQ CALIFORNI   28015300CMPS GOYTACAZESRJ0000000000000000                                        00030597400000019477   12345678
0010001300270R 01000000000000000000000000000000000000000000000000000000000000000000000000                                                                                          000000000000000000000000000000000000 000000000000  0000000000
0010001300271P 010000510000002827271 30597400000019478   111111832022/16/19  2104202400000000007701100000 02N051020220000000000000000000000000000000000000000000000000000000000000000000000000000001832022/16               00020000900198471441
0010001300272Q 011000093991274787RISOMAR VANICIO PEREIRA DOS SANTOS      RUA CALDAS VIANA, 107                   PQ CALIFORNI   28015300CMPS GOYTACAZESRJ0000000000000000                                        00030597400000019478   12345678
0010001300273R 01000000000000000000000000000000000000000000000000000000000000000000000000                                                                                          000000000000000000000000000000000000 000000000000  0000000000
0010001300274P 010000510000002827271 30597400000019479   111111832022/16/20  2105202400000000007701100000 02N051020220000000000000000000000000000000000000000000000000000000000000000000000000000001832022/16               00020000900198471441
0010001300275Q 011000093991274787RISOMAR VANICIO PEREIRA DOS SANTOS      RUA CALDAS VIANA, 107                   PQ CALIFORNI   28015300CMPS GOYTACAZESRJ0000000000000000                                        00030597400000019479   12345678
0010001300276R 01000000000000000000000000000000000000000000000000000000000000000000000000                                                                                          000000000000000000000000000000000000 000000000000  0000000000
0010001300277P 010000510000002827271 30597400000019480   111111832022/16/21  2106202400000000007701100000 02N051020220000000000000000000000000000000000000000000000000000000000000000000000000000001832022/16               00020000900198471441
0010001300278Q 011000093991274787RISOMAR VANICIO PEREIRA DOS SANTOS      RUA CALDAS VIANA, 107                   PQ CALIFORNI   28015300CMPS GOYTACAZESRJ0000000000000000                                        00030597400000019480   12345678
0010001300279R 01000000000000000000000000000000000000000000000000000000000000000000000000                                                                                          000000000000000000000000000000000000 000000000000  0000000000
0010001300280P 010000510000002827271 30597400000019481   111111832022/16/22  2107202400000000007701100000 02N051020220000000000000000000000000000000000000000000000000000000000000000000000000000001832022/16               00020000900198471441
0010001300281Q 011000093991274787RISOMAR VANICIO PEREIRA DOS SANTOS      RUA CALDAS VIANA, 107                   PQ CALIFORNI   28015300CMPS GOYTACAZESRJ0000000000000000                                        00030597400000019481   12345678
0010001300282R 01000000000000000000000000000000000000000000000000000000000000000000000000                                                                                          000000000000000000000000000000000000 000000000000  0000000000
0010001300283P 010000510000002827271 30597400000019482   111111832022/16/23  2108202400000000007701100000 02N051020220000000000000000000000000000000000000000000000000000000000000000000000000000001832022/16               00020000900198471441
0010001300284Q 011000093991274787RISOMAR VANICIO PEREIRA DOS SANTOS      RUA CALDAS VIANA, 107                   PQ CALIFORNI   28015300CMPS GOYTACAZESRJ0000000000000000                                        00030597400000019482   12345678
0010001300285R 01000000000000000000000000000000000000000000000000000000000000000000000000                                                                                          000000000000000000000000000000000000 000000000000  0000000000
0010001300286P 010000510000002827271 30597400000019483   111111832022/16/24  2109202400000000007701100000 02N051020220000000000000000000000000000000000000000000000000000000000000000000000000000001832022/16               00020000900198471441
0010001300287Q 011000093991274787RISOMAR VANICIO PEREIRA DOS SANTOS      RUA CALDAS VIANA, 107                   PQ CALIFORNI   28015300CMPS GOYTACAZESRJ0000000000000000                                        00030597400000019483   12345678
0010001300288R 01000000000000000000000000000000000000000000000000000000000000000000000000                                                                                          000000000000000000000000000000000000 000000000000  0000000000
0010001300289P 010000510000002827271 30597400000019424   111111842022/15/01  2110202200000000005921300000 02N051020220000000000000000000000000000000000000000000000000000000000000000000000000000001842022/15               00020000900198471441
0010001300290Q 011000004197711743ANGELICA DE SOUSA GENARO                RUA NAZARIO PEREIRA GOMES, 644          PQ VERA CRUZ   28060204CAMPOS DOS GOYTRJ0000000000000000                                        00030597400000019424   12345678
0010001300291R 01000000000000000000000000000000000000000000000000000000000000000000000000                                                                                          000000000000000000000000000000000000 000000000000  0000000000
0010001300292P 010000510000002827271 30597400000019425   111111842022/15/02  2111202200000000005921300000 02N051020220000000000000000000000000000000000000000000000000000000000000000000000000000001842022/15               00020000900198471441
0010001300293Q 011000004197711743ANGELICA DE SOUSA GENARO                RUA NAZARIO PEREIRA GOMES, 644          PQ VERA CRUZ   28060204CAMPOS DOS GOYTRJ0000000000000000                                        00030597400000019425   12345678
0010001300294R 01000000000000000000000000000000000000000000000000000000000000000000000000                                                                                          000000000000000000000000000000000000 000000000000  0000000000
0010001300295P 010000510000002827271 30597400000019426   111111842022/15/03  2112202200000000005921300000 02N051020220000000000000000000000000000000000000000000000000000000000000000000000000000001842022/15               00020000900198471441
0010001300296Q 011000004197711743ANGELICA DE SOUSA GENARO                RUA NAZARIO PEREIRA GOMES, 644          PQ VERA CRUZ   28060204CAMPOS DOS GOYTRJ0000000000000000                                        00030597400000019426   12345678
0010001300297R 01000000000000000000000000000000000000000000000000000000000000000000000000                                                                                          000000000000000000000000000000000000 000000000000  0000000000
0010001300298P 010000510000002827271 30597400000019427   111111842022/15/04  2101202300000000005921300000 02N051020220000000000000000000000000000000000000000000000000000000000000000000000000000001842022/15               00020000900198471441
0010001300299Q 011000004197711743ANGELICA DE SOUSA GENARO                RUA NAZARIO PEREIRA GOMES, 644          PQ VERA CRUZ   28060204CAMPOS DOS GOYTRJ0000000000000000                                        00030597400000019427   12345678
0010001300300R 01000000000000000000000000000000000000000000000000000000000000000000000000                                                                                          000000000000000000000000000000000000 000000000000  0000000000
0010001300301P 010000510000002827271 30597400000019428   111111842022/15/05  2102202300000000005921300000 02N051020220000000000000000000000000000000000000000000000000000000000000000000000000000001842022/15               00020000900198471441
0010001300302Q 011000004197711743ANGELICA DE SOUSA GENARO                RUA NAZARIO PEREIRA GOMES, 644          PQ VERA CRUZ   28060204CAMPOS DOS GOYTRJ0000000000000000                                        00030597400000019428   12345678
0010001300303R 01000000000000000000000000000000000000000000000000000000000000000000000000                                                                                          000000000000000000000000000000000000 000000000000  0000000000
0010001300304P 010000510000002827271 30597400000019429   111111842022/15/06  2103202300000000005921300000 02N051020220000000000000000000000000000000000000000000000000000000000000000000000000000001842022/15               00020000900198471441
0010001300305Q 011000004197711743ANGELICA DE SOUSA GENARO                RUA NAZARIO PEREIRA GOMES, 644          PQ VERA CRUZ   28060204CAMPOS DOS GOYTRJ0000000000000000                                        00030597400000019429   12345678
0010001300306R 01000000000000000000000000000000000000000000000000000000000000000000000000                                                                                          000000000000000000000000000000000000 000000000000  0000000000
0010001300307P 010000510000002827271 30597400000019430   111111842022/15/07  2104202300000000005921300000 02N051020220000000000000000000000000000000000000000000000000000000000000000000000000000001842022/15               00020000900198471441
0010001300308Q 011000004197711743ANGELICA DE SOUSA GENARO                RUA NAZARIO PEREIRA GOMES, 644          PQ VERA CRUZ   28060204CAMPOS DOS GOYTRJ0000000000000000                                        00030597400000019430   12345678
0010001300309R 01000000000000000000000000000000000000000000000000000000000000000000000000                                                                                          000000000000000000000000000000000000 000000000000  0000000000
0010001300310P 010000510000002827271 30597400000019431   111111842022/15/08  2105202300000000005921300000 02N051020220000000000000000000000000000000000000000000000000000000000000000000000000000001842022/15               00020000900198471441
0010001300311Q 011000004197711743ANGELICA DE SOUSA GENARO                RUA NAZARIO PEREIRA GOMES, 644          PQ VERA CRUZ   28060204CAMPOS DOS GOYTRJ0000000000000000                                        00030597400000019431   12345678
0010001300312R 01000000000000000000000000000000000000000000000000000000000000000000000000                                                                                          000000000000000000000000000000000000 000000000000  0000000000
0010001300313P 010000510000002827271 30597400000019432   111111842022/15/09  2106202300000000005921300000 02N051020220000000000000000000000000000000000000000000000000000000000000000000000000000001842022/15               00020000900198471441
0010001300314Q 011000004197711743ANGELICA DE SOUSA GENARO                RUA NAZARIO PEREIRA GOMES, 644          PQ VERA CRUZ   28060204CAMPOS DOS GOYTRJ0000000000000000                                        00030597400000019432   12345678
0010001300315R 01000000000000000000000000000000000000000000000000000000000000000000000000                                                                                          000000000000000000000000000000000000 000000000000  0000000000
0010001300316P 010000510000002827271 30597400000019433   111111842022/15/10  2107202300000000005921300000 02N051020220000000000000000000000000000000000000000000000000000000000000000000000000000001842022/15               00020000900198471441
0010001300317Q 011000004197711743ANGELICA DE SOUSA GENARO                RUA NAZARIO PEREIRA GOMES, 644          PQ VERA CRUZ   28060204CAMPOS DOS GOYTRJ0000000000000000                                        00030597400000019433   12345678
0010001300318R 01000000000000000000000000000000000000000000000000000000000000000000000000                                                                                          000000000000000000000000000000000000 000000000000  0000000000
0010001300319P 010000510000002827271 30597400000019434   111111842022/15/11  2108202300000000005921300000 02N051020220000000000000000000000000000000000000000000000000000000000000000000000000000001842022/15               00020000900198471441
0010001300320Q 011000004197711743ANGELICA DE SOUSA GENARO                RUA NAZARIO PEREIRA GOMES, 644          PQ VERA CRUZ   28060204CAMPOS DOS GOYTRJ0000000000000000                                        00030597400000019434   12345678
0010001300321R 01000000000000000000000000000000000000000000000000000000000000000000000000                                                                                          000000000000000000000000000000000000 000000000000  0000000000
0010001300322P 010000510000002827271 30597400000019435   111111842022/15/12  2109202300000000005921300000 02N051020220000000000000000000000000000000000000000000000000000000000000000000000000000001842022/15               00020000900198471441
0010001300323Q 011000004197711743ANGELICA DE SOUSA GENARO                RUA NAZARIO PEREIRA GOMES, 644          PQ VERA CRUZ   28060204CAMPOS DOS GOYTRJ0000000000000000                                        00030597400000019435   12345678
0010001300324R 01000000000000000000000000000000000000000000000000000000000000000000000000                                                                                          000000000000000000000000000000000000 000000000000  0000000000
0010001300325P 010000510000002827271 30597400000019436   111111842022/15/13  2110202300000000005921300000 02N051020220000000000000000000000000000000000000000000000000000000000000000000000000000001842022/15               00020000900198471441
0010001300326Q 011000004197711743ANGELICA DE SOUSA GENARO                RUA NAZARIO PEREIRA GOMES, 644          PQ VERA CRUZ   28060204CAMPOS DOS GOYTRJ0000000000000000                                        00030597400000019436   12345678
0010001300327R 01000000000000000000000000000000000000000000000000000000000000000000000000                                                                                          000000000000000000000000000000000000 000000000000  0000000000
0010001300328P 010000510000002827271 30597400000019437   111111842022/15/14  2111202300000000005921300000 02N051020220000000000000000000000000000000000000000000000000000000000000000000000000000001842022/15               00020000900198471441
0010001300329Q 011000004197711743ANGELICA DE SOUSA GENARO                RUA NAZARIO PEREIRA GOMES, 644          PQ VERA CRUZ   28060204CAMPOS DOS GOYTRJ0000000000000000                                        00030597400000019437   12345678
0010001300330R 01000000000000000000000000000000000000000000000000000000000000000000000000                                                                                          000000000000000000000000000000000000 000000000000  0000000000
0010001300331P 010000510000002827271 30597400000019438   111111842022/15/15  2112202300000000005921300000 02N051020220000000000000000000000000000000000000000000000000000000000000000000000000000001842022/15               00020000900198471441
0010001300332Q 011000004197711743ANGELICA DE SOUSA GENARO                RUA NAZARIO PEREIRA GOMES, 644          PQ VERA CRUZ   28060204CAMPOS DOS GOYTRJ0000000000000000                                        00030597400000019438   12345678
0010001300333R 01000000000000000000000000000000000000000000000000000000000000000000000000                                                                                          000000000000000000000000000000000000 000000000000  0000000000
0010001300334P 010000510000002827271 30597400000019439   111111842022/15/16  2101202400000000005921300000 02N051020220000000000000000000000000000000000000000000000000000000000000000000000000000001842022/15               00020000900198471441
0010001300335Q 011000004197711743ANGELICA DE SOUSA GENARO                RUA NAZARIO PEREIRA GOMES, 644          PQ VERA CRUZ   28060204CAMPOS DOS GOYTRJ0000000000000000                                        00030597400000019439   12345678
0010001300336R 01000000000000000000000000000000000000000000000000000000000000000000000000                                                                                          000000000000000000000000000000000000 000000000000  0000000000
0010001300337P 010000510000002827271 30597400000019440   111111842022/15/17  2102202400000000005921300000 02N051020220000000000000000000000000000000000000000000000000000000000000000000000000000001842022/15               00020000900198471441
0010001300338Q 011000004197711743ANGELICA DE SOUSA GENARO                RUA NAZARIO PEREIRA GOMES, 644          PQ VERA CRUZ   28060204CAMPOS DOS GOYTRJ0000000000000000                                        00030597400000019440   12345678
0010001300339R 01000000000000000000000000000000000000000000000000000000000000000000000000                                                                                          000000000000000000000000000000000000 000000000000  0000000000
0010001300340P 010000510000002827271 30597400000019441   111111842022/15/18  2103202400000000005921300000 02N051020220000000000000000000000000000000000000000000000000000000000000000000000000000001842022/15               00020000900198471441
0010001300341Q 011000004197711743ANGELICA DE SOUSA GENARO                RUA NAZARIO PEREIRA GOMES, 644          PQ VERA CRUZ   28060204CAMPOS DOS GOYTRJ0000000000000000                                        00030597400000019441   12345678
0010001300342R 01000000000000000000000000000000000000000000000000000000000000000000000000                                                                                          000000000000000000000000000000000000 000000000000  0000000000
0010001300343P 010000510000002827271 30597400000019442   111111852022/16/01  2110202200000000003552800000 02N051020220000000000000000000000000000000000000000000000000000000000000000000000000000001852022/16               00020000900198471441
0010001300344Q 011000017808407720LEDRIANE EMILIO BARRETO FLAUSINO        TRAVESSA 3 DE MAIO  N.10                DONANA         28110000CAMPOS         RJ0000000000000000                                        00030597400000019442   12345678
0010001300345R 01000000000000000000000000000000000000000000000000000000000000000000000000                                                                                          000000000000000000000000000000000000 000000000000  0000000000
0010001300346P 010000510000002827271 30597400000019443   111111852022/16/02  2111202200000000003552800000 02N051020220000000000000000000000000000000000000000000000000000000000000000000000000000001852022/16               00020000900198471441
0010001300347Q 011000017808407720LEDRIANE EMILIO BARRETO FLAUSINO        TRAVESSA 3 DE MAIO  N.10                DONANA         28110000CAMPOS         RJ0000000000000000                                        00030597400000019443   12345678
0010001300348R 01000000000000000000000000000000000000000000000000000000000000000000000000                                                                                          000000000000000000000000000000000000 000000000000  0000000000
0010001300349P 010000510000002827271 30597400000019444   111111852022/16/03  2112202200000000003552800000 02N051020220000000000000000000000000000000000000000000000000000000000000000000000000000001852022/16               00020000900198471441
0010001300350Q 011000017808407720LEDRIANE EMILIO BARRETO FLAUSINO        TRAVESSA 3 DE MAIO  N.10                DONANA         28110000CAMPOS         RJ0000000000000000                                        00030597400000019444   12345678
0010001300351R 01000000000000000000000000000000000000000000000000000000000000000000000000                                                                                          000000000000000000000000000000000000 000000000000  0000000000
0010001300352P 010000510000002827271 30597400000019445   111111852022/16/04  2101202300000000003552800000 02N051020220000000000000000000000000000000000000000000000000000000000000000000000000000001852022/16               00020000900198471441
0010001300353Q 011000017808407720LEDRIANE EMILIO BARRETO FLAUSINO        TRAVESSA 3 DE MAIO  N.10                DONANA         28110000CAMPOS         RJ0000000000000000                                        00030597400000019445   12345678
0010001300354R 01000000000000000000000000000000000000000000000000000000000000000000000000                                                                                          000000000000000000000000000000000000 000000000000  0000000000
0010001300355P 010000510000002827271 30597400000019446   111111852022/16/05  2102202300000000003552800000 02N051020220000000000000000000000000000000000000000000000000000000000000000000000000000001852022/16               00020000900198471441
0010001300356Q 011000017808407720LEDRIANE EMILIO BARRETO FLAUSINO        TRAVESSA 3 DE MAIO  N.10                DONANA         28110000CAMPOS         RJ0000000000000000                                        00030597400000019446   12345678
0010001300357R 01000000000000000000000000000000000000000000000000000000000000000000000000                                                                                          000000000000000000000000000000000000 000000000000  0000000000
0010001300358P 010000510000002827271 30597400000019447   111111852022/16/06  2103202300000000003552800000 02N051020220000000000000000000000000000000000000000000000000000000000000000000000000000001852022/16               00020000900198471441
0010001300359Q 011000017808407720LEDRIANE EMILIO BARRETO FLAUSINO        TRAVESSA 3 DE MAIO  N.10                DONANA         28110000CAMPOS         RJ0000000000000000                                        00030597400000019447   12345678
0010001300360R 01000000000000000000000000000000000000000000000000000000000000000000000000                                                                                          000000000000000000000000000000000000 000000000000  0000000000
0010001300361P 010000510000002827271 30597400000019448   111111852022/16/07  2104202300000000003552800000 02N051020220000000000000000000000000000000000000000000000000000000000000000000000000000001852022/16               00020000900198471441
0010001300362Q 011000017808407720LEDRIANE EMILIO BARRETO FLAUSINO        TRAVESSA 3 DE MAIO  N.10                DONANA         28110000CAMPOS         RJ0000000000000000                                        00030597400000019448   12345678
0010001300363R 01000000000000000000000000000000000000000000000000000000000000000000000000                                                                                          000000000000000000000000000000000000 000000000000  0000000000
0010001300364P 010000510000002827271 30597400000019449   111111852022/16/08  2105202300000000003552800000 02N051020220000000000000000000000000000000000000000000000000000000000000000000000000000001852022/16               00020000900198471441
0010001300365Q 011000017808407720LEDRIANE EMILIO BARRETO FLAUSINO        TRAVESSA 3 DE MAIO  N.10                DONANA         28110000CAMPOS         RJ0000000000000000                                        00030597400000019449   12345678
0010001300366R 01000000000000000000000000000000000000000000000000000000000000000000000000                                                                                          000000000000000000000000000000000000 000000000000  0000000000
0010001300367P 010000510000002827271 30597400000019450   111111852022/16/09  2106202300000000003552800000 02N051020220000000000000000000000000000000000000000000000000000000000000000000000000000001852022/16               00020000900198471441
0010001300368Q 011000017808407720LEDRIANE EMILIO BARRETO FLAUSINO        TRAVESSA 3 DE MAIO  N.10                DONANA         28110000CAMPOS         RJ0000000000000000                                        00030597400000019450   12345678
0010001300369R 01000000000000000000000000000000000000000000000000000000000000000000000000                                                                                          000000000000000000000000000000000000 000000000000  0000000000
0010001300370P 010000510000002827271 30597400000019451   111111852022/16/10  2107202300000000003552800000 02N051020220000000000000000000000000000000000000000000000000000000000000000000000000000001852022/16               00020000900198471441
0010001300371Q 011000017808407720LEDRIANE EMILIO BARRETO FLAUSINO        TRAVESSA 3 DE MAIO  N.10                DONANA         28110000CAMPOS         RJ0000000000000000                                        00030597400000019451   12345678
0010001300372R 01000000000000000000000000000000000000000000000000000000000000000000000000                                                                                          000000000000000000000000000000000000 000000000000  0000000000
0010001300373P 010000510000002827271 30597400000019452   111111852022/16/11  2108202300000000003552800000 02N051020220000000000000000000000000000000000000000000000000000000000000000000000000000001852022/16               00020000900198471441
0010001300374Q 011000017808407720LEDRIANE EMILIO BARRETO FLAUSINO        TRAVESSA 3 DE MAIO  N.10                DONANA         28110000CAMPOS         RJ0000000000000000                                        00030597400000019452   12345678
0010001300375R 01000000000000000000000000000000000000000000000000000000000000000000000000                                                                                          000000000000000000000000000000000000 000000000000  0000000000
0010001300376P 010000510000002827271 30597400000019453   111111852022/16/12  2109202300000000003552800000 02N051020220000000000000000000000000000000000000000000000000000000000000000000000000000001852022/16               00020000900198471441
0010001300377Q 011000017808407720LEDRIANE EMILIO BARRETO FLAUSINO        TRAVESSA 3 DE MAIO  N.10                DONANA         28110000CAMPOS         RJ0000000000000000                                        00030597400000019453   12345678
0010001300378R 01000000000000000000000000000000000000000000000000000000000000000000000000                                                                                          000000000000000000000000000000000000 000000000000  0000000000
0010001300379P 010000510000002827271 30597400000019454   111111852022/16/13  2110202300000000003552800000 02N051020220000000000000000000000000000000000000000000000000000000000000000000000000000001852022/16               00020000900198471441
0010001300380Q 011000017808407720LEDRIANE EMILIO BARRETO FLAUSINO        TRAVESSA 3 DE MAIO  N.10                DONANA         28110000CAMPOS         RJ0000000000000000                                        00030597400000019454   12345678
0010001300381R 01000000000000000000000000000000000000000000000000000000000000000000000000                                                                                          000000000000000000000000000000000000 000000000000  0000000000
0010001300382P 010000510000002827271 30597400000019455   111111852022/16/14  2111202300000000003552800000 02N051020220000000000000000000000000000000000000000000000000000000000000000000000000000001852022/16               00020000900198471441
0010001300383Q 011000017808407720LEDRIANE EMILIO BARRETO FLAUSINO        TRAVESSA 3 DE MAIO  N.10                DONANA         28110000CAMPOS         RJ0000000000000000                                        00030597400000019455   12345678
0010001300384R 01000000000000000000000000000000000000000000000000000000000000000000000000                                                                                          000000000000000000000000000000000000 000000000000  0000000000
0010001300385P 010000510000002827271 30597400000019456   111111852022/16/15  2112202300000000003552800000 02N051020220000000000000000000000000000000000000000000000000000000000000000000000000000001852022/16               00020000900198471441
0010001300386Q 011000017808407720LEDRIANE EMILIO BARRETO FLAUSINO        TRAVESSA 3 DE MAIO  N.10                DONANA         28110000CAMPOS         RJ0000000000000000                                        00030597400000019456   12345678
0010001300387R 01000000000000000000000000000000000000000000000000000000000000000000000000                                                                                          000000000000000000000000000000000000 000000000000  0000000000
0010001300388P 010000510000002827271 30597400000019457   111111852022/16/16  2101202400000000003552800000 02N051020220000000000000000000000000000000000000000000000000000000000000000000000000000001852022/16               00020000900198471441
0010001300389Q 011000017808407720LEDRIANE EMILIO BARRETO FLAUSINO        TRAVESSA 3 DE MAIO  N.10                DONANA         28110000CAMPOS         RJ0000000000000000                                        00030597400000019457   12345678
0010001300390R 01000000000000000000000000000000000000000000000000000000000000000000000000                                                                                          000000000000000000000000000000000000 000000000000  0000000000
0010001300391P 010000510000002827271 30597400000019458   111111852022/16/17  2102202400000000003552800000 02N051020220000000000000000000000000000000000000000000000000000000000000000000000000000001852022/16               00020000900198471441
0010001300392Q 011000017808407720LEDRIANE EMILIO BARRETO FLAUSINO        TRAVESSA 3 DE MAIO  N.10                DONANA         28110000CAMPOS         RJ0000000000000000                                        00030597400000019458   12345678
0010001300393R 01000000000000000000000000000000000000000000000000000000000000000000000000                                                                                          000000000000000000000000000000000000 000000000000  0000000000
0010001300394P 010000510000002827271 30597400000019459   111111852022/16/18  2103202400000000003552800000 02N051020220000000000000000000000000000000000000000000000000000000000000000000000000000001852022/16               00020000900198471441
0010001300395Q 011000017808407720LEDRIANE EMILIO BARRETO FLAUSINO        TRAVESSA 3 DE MAIO  N.10                DONANA         28110000CAMPOS         RJ0000000000000000                                        00030597400000019459   12345678
0010001300396R 01000000000000000000000000000000000000000000000000000000000000000000000000                                                                                          000000000000000000000000000000000000 000000000000  0000000000
0010001300397P 010000510000002827271 30597400000019538   111111862022/16/01  0111202200000000004144900000 02N051020220000000000000000000000000000000000000000000000000000000000000000000000000000001862022/16               00020000900198471441
0010001300398Q 011000013353746714LEANDRO EMILIO BARRETO                  ESTRADA DA TOCAIA, 53                   DONANA         28110000CAMPOS DOS GOYTRJ0000000000000000                                        00030597400000019538   12345678
0010001300399R 01000000000000000000000000000000000000000000000000000000000000000000000000                                                                                          000000000000000000000000000000000000 000000000000  0000000000
0010001300400P 010000510000002827271 30597400000019539   111111862022/16/02  0112202200000000004144900000 02N051020220000000000000000000000000000000000000000000000000000000000000000000000000000001862022/16               00020000900198471441
0010001300401Q 011000013353746714LEANDRO EMILIO BARRETO                  ESTRADA DA TOCAIA, 53                   DONANA         28110000CAMPOS DOS GOYTRJ0000000000000000                                        00030597400000019539   12345678
0010001300402R 01000000000000000000000000000000000000000000000000000000000000000000000000                                                                                          000000000000000000000000000000000000 000000000000  0000000000
0010001300403P 010000510000002827271 30597400000019540   111111862022/16/03  0101202300000000004144900000 02N051020220000000000000000000000000000000000000000000000000000000000000000000000000000001862022/16               00020000900198471441
0010001300404Q 011000013353746714LEANDRO EMILIO BARRETO                  ESTRADA DA TOCAIA, 53                   DONANA         28110000CAMPOS DOS GOYTRJ0000000000000000                                        00030597400000019540   12345678
0010001300405R 01000000000000000000000000000000000000000000000000000000000000000000000000                                                                                          000000000000000000000000000000000000 000000000000  0000000000
0010001300406P 010000510000002827271 30597400000019541   111111862022/16/04  0102202300000000004144900000 02N051020220000000000000000000000000000000000000000000000000000000000000000000000000000001862022/16               00020000900198471441
0010001300407Q 011000013353746714LEANDRO EMILIO BARRETO                  ESTRADA DA TOCAIA, 53                   DONANA         28110000CAMPOS DOS GOYTRJ0000000000000000                                        00030597400000019541   12345678
0010001300408R 01000000000000000000000000000000000000000000000000000000000000000000000000                                                                                          000000000000000000000000000000000000 000000000000  0000000000
0010001300409P 010000510000002827271 30597400000019542   111111862022/16/05  0103202300000000004144900000 02N051020220000000000000000000000000000000000000000000000000000000000000000000000000000001862022/16               00020000900198471441
0010001300410Q 011000013353746714LEANDRO EMILIO BARRETO                  ESTRADA DA TOCAIA, 53                   DONANA         28110000CAMPOS DOS GOYTRJ0000000000000000                                        00030597400000019542   12345678
0010001300411R 01000000000000000000000000000000000000000000000000000000000000000000000000                                                                                          000000000000000000000000000000000000 000000000000  0000000000
