00100000         221545238000172                    0000510000002827271 FUNDO DE DESENVOLVIMENTO DE CABANCO DO BRASIL S.A.                    12410202216533100000008000000                                                                     
00100011R0100020 2021545238000172003059740001417019  0000510000002827271 FUNDO DE DESENVOLVIMENTO DE CA                                                                                00000313241020220000000000000000003059740        CBR30000
0010001300001P 010000510000002827271 30597400000019835   111110182018/REFI/012810202200000000008613600000 02N241020220000000000000000000000000000000000000000000000000000000000000000000000000000000182018/REFI             00020000900198471441
0010001300002Q 012018286927000103M.R.GONCALVES SERVICOS E COMUNICACAO    TRAVESSA DR. BEDA, 23                   SAO BENEDITO   28025110CMPS GOYTACAZESRJ0000000000000000                                        00030597400000019835   12345678
0010001300003R 01000000000000000000000000000000000000000000000000000000000000000000000000                                                                                          000000000000000000000000000000000000 000000000000  0000000000
0010001300004P 010000510000002827271 30597400000019836   111110182018/REFI/022811202200000000008613600000 02N241020220000000000000000000000000000000000000000000000000000000000000000000000000000000182018/REFI             00020000900198471441
0010001300005Q 012018286927000103M.R.GONCALVES SERVICOS E COMUNICACAO    TRAVESSA DR. BEDA, 23                   SAO BENEDITO   28025110CMPS GOYTACAZESRJ0000000000000000                                        00030597400000019836   12345678
0010001300006R 01000000000000000000000000000000000000000000000000000000000000000000000000                                                                                          000000000000000000000000000000000000 000000000000  0000000000
0010001300007P 010000510000002827271 30597400000019837   111110182018/REFI/032812202200000000008613600000 02N241020220000000000000000000000000000000000000000000000000000000000000000000000000000000182018/REFI             00020000900198471441
0010001300008Q 012018286927000103M.R.GONCALVES SERVICOS E COMUNICACAO    TRAVESSA DR. BEDA, 23                   SAO BENEDITO   28025110CMPS GOYTACAZESRJ0000000000000000                                        00030597400000019837   12345678
0010001300009R 01000000000000000000000000000000000000000000000000000000000000000000000000                                                                                          000000000000000000000000000000000000 000000000000  0000000000
0010001300010P 010000510000002827271 30597400000019838   111110182018/REFI/042801202300000000008613600000 02N241020220000000000000000000000000000000000000000000000000000000000000000000000000000000182018/REFI             00020000900198471441
0010001300011Q 012018286927000103M.R.GONCALVES SERVICOS E COMUNICACAO    TRAVESSA DR. BEDA, 23                   SAO BENEDITO   28025110CMPS GOYTACAZESRJ0000000000000000                                        00030597400000019838   12345678
0010001300012R 01000000000000000000000000000000000000000000000000000000000000000000000000                                                                                          000000000000000000000000000000000000 000000000000  0000000000
0010001300013P 010000510000002827271 30597400000019839   111110182018/REFI/052802202300000000008613600000 02N241020220000000000000000000000000000000000000000000000000000000000000000000000000000000182018/REFI             00020000900198471441
0010001300014Q 012018286927000103M.R.GONCALVES SERVICOS E COMUNICACAO    TRAVESSA DR. BEDA, 23                   SAO BENEDITO   28025110CMPS GOYTACAZESRJ0000000000000000                                        00030597400000019839   12345678
0010001300015R 01000000000000000000000000000000000000000000000000000000000000000000000000                                                                                          000000000000000000000000000000000000 000000000000  0000000000
0010001300016P 010000510000002827271 30597400000019840   111110182018/REFI/062803202300000000008613600000 02N241020220000000000000000000000000000000000000000000000000000000000000000000000000000000182018/REFI             00020000900198471441
0010001300017Q 012018286927000103M.R.GONCALVES SERVICOS E COMUNICACAO    TRAVESSA DR. BEDA, 23                   SAO BENEDITO   28025110CMPS GOYTACAZESRJ0000000000000000                                        00030597400000019840   12345678
0010001300018R 01000000000000000000000000000000000000000000000000000000000000000000000000                                                                                          000000000000000000000000000000000000 000000000000  0000000000
0010001300019P 010000510000002827271 30597400000019841   111110182018/REFI/072804202300000000008613600000 02N241020220000000000000000000000000000000000000000000000000000000000000000000000000000000182018/REFI             00020000900198471441
0010001300020Q 012018286927000103M.R.GONCALVES SERVICOS E COMUNICACAO    TRAVESSA DR. BEDA, 23                   SAO BENEDITO   28025110CMPS GOYTACAZESRJ0000000000000000                                        00030597400000019841   12345678
0010001300021R 01000000000000000000000000000000000000000000000000000000000000000000000000                                                                                          000000000000000000000000000000000000 000000000000  0000000000
0010001300022P 010000510000002827271 30597400000019842   111110182018/REFI/082805202300000000008613600000 02N241020220000000000000000000000000000000000000000000000000000000000000000000000000000000182018/REFI             00020000900198471441
0010001300023Q 012018286927000103M.R.GONCALVES SERVICOS E COMUNICACAO    TRAVESSA DR. BEDA, 23                   SAO BENEDITO   28025110CMPS GOYTACAZESRJ0000000000000000                                        00030597400000019842   12345678
0010001300024R 01000000000000000000000000000000000000000000000000000000000000000000000000                                                                                          000000000000000000000000000000000000 000000000000  0000000000
0010001300025P 010000510000002827271 30597400000019843   111110182018/REFI/092806202300000000008613600000 02N241020220000000000000000000000000000000000000000000000000000000000000000000000000000000182018/REFI             00020000900198471441
0010001300026Q 012018286927000103M.R.GONCALVES SERVICOS E COMUNICACAO    TRAVESSA DR. BEDA, 23                   SAO BENEDITO   28025110CMPS GOYTACAZESRJ0000000000000000                                        00030597400000019843   12345678
0010001300027R 01000000000000000000000000000000000000000000000000000000000000000000000000                                                                                          000000000000000000000000000000000000 000000000000  0000000000
0010001300028P 010000510000002827271 30597400000019844   111110182018/REFI/102807202300000000008613600000 02N241020220000000000000000000000000000000000000000000000000000000000000000000000000000000182018/REFI             00020000900198471441
0010001300029Q 012018286927000103M.R.GONCALVES SERVICOS E COMUNICACAO    TRAVESSA DR. BEDA, 23                   SAO BENEDITO   28025110CMPS GOYTACAZESRJ0000000000000000                                        00030597400000019844   12345678
0010001300030R 01000000000000000000000000000000000000000000000000000000000000000000000000                                                                                          000000000000000000000000000000000000 000000000000  0000000000
0010001300031P 010000510000002827271 30597400000019845   111110182018/REFI/112808202300000000008613600000 02N241020220000000000000000000000000000000000000000000000000000000000000000000000000000000182018/REFI             00020000900198471441
0010001300032Q 012018286927000103M.R.GONCALVES SERVICOS E COMUNICACAO    TRAVESSA DR. BEDA, 23                   SAO BENEDITO   28025110CMPS GOYTACAZESRJ0000000000000000                                        00030597400000019845   12345678
0010001300033R 01000000000000000000000000000000000000000000000000000000000000000000000000                                                                                          000000000000000000000000000000000000 000000000000  0000000000
0010001300034P 010000510000002827271 30597400000019846   111110182018/REFI/122809202300000000008613600000 02N241020220000000000000000000000000000000000000000000000000000000000000000000000000000000182018/REFI             00020000900198471441
0010001300035Q 012018286927000103M.R.GONCALVES SERVICOS E COMUNICACAO    TRAVESSA DR. BEDA, 23                   SAO BENEDITO   28025110CMPS GOYTACAZESRJ0000000000000000                                        00030597400000019846   12345678
0010001300036R 01000000000000000000000000000000000000000000000000000000000000000000000000                                                                                          000000000000000000000000000000000000 000000000000  0000000000
0010001300037P 010000510000002827271 30597400000019847   111110182018/REFI/132810202300000000008613600000 02N241020220000000000000000000000000000000000000000000000000000000000000000000000000000000182018/REFI             00020000900198471441
0010001300038Q 012018286927000103M.R.GONCALVES SERVICOS E COMUNICACAO    TRAVESSA DR. BEDA, 23                   SAO BENEDITO   28025110CMPS GOYTACAZESRJ0000000000000000                                        00030597400000019847   12345678
0010001300039R 01000000000000000000000000000000000000000000000000000000000000000000000000                                                                                          000000000000000000000000000000000000 000000000000  0000000000
0010001300040P 010000510000002827271 30597400000019848   111110182018/REFI/142811202300000000008613600000 02N241020220000000000000000000000000000000000000000000000000000000000000000000000000000000182018/REFI             00020000900198471441
0010001300041Q 012018286927000103M.R.GONCALVES SERVICOS E COMUNICACAO    TRAVESSA DR. BEDA, 23                   SAO BENEDITO   28025110CMPS GOYTACAZESRJ0000000000000000                                        00030597400000019848   12345678
0010001300042R 01000000000000000000000000000000000000000000000000000000000000000000000000                                                                                          000000000000000000000000000000000000 000000000000  0000000000
0010001300043P 010000510000002827271 30597400000019849   111110182018/REFI/152812202300000000008613600000 02N241020220000000000000000000000000000000000000000000000000000000000000000000000000000000182018/REFI             00020000900198471441
0010001300044Q 012018286927000103M.R.GONCALVES SERVICOS E COMUNICACAO    TRAVESSA DR. BEDA, 23                   SAO BENEDITO   28025110CMPS GOYTACAZESRJ0000000000000000                                        00030597400000019849   12345678
0010001300045R 01000000000000000000000000000000000000000000000000000000000000000000000000                                                                                          000000000000000000000000000000000000 000000000000  0000000000
0010001300046P 010000510000002827271 30597400000019850   111110182018/REFI/162801202400000000008613600000 02N241020220000000000000000000000000000000000000000000000000000000000000000000000000000000182018/REFI             00020000900198471441
0010001300047Q 012018286927000103M.R.GONCALVES SERVICOS E COMUNICACAO    TRAVESSA DR. BEDA, 23                   SAO BENEDITO   28025110CMPS GOYTACAZESRJ0000000000000000                                        00030597400000019850   12345678
0010001300048R 01000000000000000000000000000000000000000000000000000000000000000000000000                                                                                          000000000000000000000000000000000000 000000000000  0000000000
0010001300049P 010000510000002827271 30597400000019851   111110182018/REFI/172802202400000000008613600000 02N241020220000000000000000000000000000000000000000000000000000000000000000000000000000000182018/REFI             00020000900198471441
0010001300050Q 012018286927000103M.R.GONCALVES SERVICOS E COMUNICACAO    TRAVESSA DR. BEDA, 23                   SAO BENEDITO   28025110CMPS GOYTACAZESRJ0000000000000000                                        00030597400000019851   12345678
0010001300051R 01000000000000000000000000000000000000000000000000000000000000000000000000                                                                                          000000000000000000000000000000000000 000000000000  0000000000
0010001300052P 010000510000002827271 30597400000019852   111110182018/REFI/182803202400000000008613600000 02N241020220000000000000000000000000000000000000000000000000000000000000000000000000000000182018/REFI             00020000900198471441
0010001300053Q 012018286927000103M.R.GONCALVES SERVICOS E COMUNICACAO    TRAVESSA DR. BEDA, 23                   SAO BENEDITO   28025110CMPS GOYTACAZESRJ0000000000000000                                        00030597400000019852   12345678
0010001300054R 01000000000000000000000000000000000000000000000000000000000000000000000000                                                                                          000000000000000000000000000000000000 000000000000  0000000000
0010001300055P 010000510000002827271 30597400000019853   111110182018/REFI/192804202400000000008613600000 02N241020220000000000000000000000000000000000000000000000000000000000000000000000000000000182018/REFI             00020000900198471441
0010001300056Q 012018286927000103M.R.GONCALVES SERVICOS E COMUNICACAO    TRAVESSA DR. BEDA, 23                   SAO BENEDITO   28025110CMPS GOYTACAZESRJ0000000000000000                                        00030597400000019853   12345678
0010001300057R 01000000000000000000000000000000000000000000000000000000000000000000000000                                                                                          000000000000000000000000000000000000 000000000000  0000000000
0010001300058P 010000510000002827271 30597400000019854   111110182018/REFI/202805202400000000008613600000 02N241020220000000000000000000000000000000000000000000000000000000000000000000000000000000182018/REFI             00020000900198471441
0010001300059Q 012018286927000103M.R.GONCALVES SERVICOS E COMUNICACAO    TRAVESSA DR. BEDA, 23                   SAO BENEDITO   28025110CMPS GOYTACAZESRJ0000000000000000                                        00030597400000019854   12345678
0010001300060R 01000000000000000000000000000000000000000000000000000000000000000000000000                                                                                          000000000000000000000000000000000000 000000000000  0000000000
0010001300061P 010000510000002827271 30597400000019855   111110182018/REFI/212806202400000000008613600000 02N241020220000000000000000000000000000000000000000000000000000000000000000000000000000000182018/REFI             00020000900198471441
0010001300062Q 012018286927000103M.R.GONCALVES SERVICOS E COMUNICACAO    TRAVESSA DR. BEDA, 23                   SAO BENEDITO   28025110CMPS GOYTACAZESRJ0000000000000000                                        00030597400000019855   12345678
0010001300063R 01000000000000000000000000000000000000000000000000000000000000000000000000                                                                                          000000000000000000000000000000000000 000000000000  0000000000
0010001300064P 010000510000002827271 30597400000019856   111110182018/REFI/222807202400000000008613600000 02N241020220000000000000000000000000000000000000000000000000000000000000000000000000000000182018/REFI             00020000900198471441
0010001300065Q 012018286927000103M.R.GONCALVES SERVICOS E COMUNICACAO    TRAVESSA DR. BEDA, 23                   SAO BENEDITO   28025110CMPS GOYTACAZESRJ0000000000000000                                        00030597400000019856   12345678
0010001300066R 01000000000000000000000000000000000000000000000000000000000000000000000000                                                                                          000000000000000000000000000000000000 000000000000  0000000000
0010001300067P 010000510000002827271 30597400000019857   111110182018/REFI/232808202400000000008613600000 02N241020220000000000000000000000000000000000000000000000000000000000000000000000000000000182018/REFI             00020000900198471441
0010001300068Q 012018286927000103M.R.GONCALVES SERVICOS E COMUNICACAO    TRAVESSA DR. BEDA, 23                   SAO BENEDITO   28025110CMPS GOYTACAZESRJ0000000000000000                                        00030597400000019857   12345678
0010001300069R 01000000000000000000000000000000000000000000000000000000000000000000000000                                                                                          000000000000000000000000000000000000 000000000000  0000000000
0010001300070P 010000510000002827271 30597400000019858   111110182018/REFI/242809202400000000008613600000 02N241020220000000000000000000000000000000000000000000000000000000000000000000000000000000182018/REFI             00020000900198471441
0010001300071Q 012018286927000103M.R.GONCALVES SERVICOS E COMUNICACAO    TRAVESSA DR. BEDA, 23                   SAO BENEDITO   28025110CMPS GOYTACAZESRJ0000000000000000                                        00030597400000019858   12345678
0010001300072R 01000000000000000000000000000000000000000000000000000000000000000000000000                                                                                          000000000000000000000000000000000000 000000000000  0000000000
0010001300073P 010000510000002827271 30597400000019859   111110182018/REFI/252810202400000000008613600000 02N241020220000000000000000000000000000000000000000000000000000000000000000000000000000000182018/REFI             00020000900198471441
0010001300074Q 012018286927000103M.R.GONCALVES SERVICOS E COMUNICACAO    TRAVESSA DR. BEDA, 23                   SAO BENEDITO   28025110CMPS GOYTACAZESRJ0000000000000000                                        00030597400000019859   12345678
0010001300075R 01000000000000000000000000000000000000000000000000000000000000000000000000                                                                                          000000000000000000000000000000000000 000000000000  0000000000
0010001300076P 010000510000002827271 30597400000019860   111110182018/REFI/262811202400000000008613600000 02N241020220000000000000000000000000000000000000000000000000000000000000000000000000000000182018/REFI             00020000900198471441
0010001300077Q 012018286927000103M.R.GONCALVES SERVICOS E COMUNICACAO    TRAVESSA DR. BEDA, 23                   SAO BENEDITO   28025110CMPS GOYTACAZESRJ0000000000000000                                        00030597400000019860   12345678
0010001300078R 01000000000000000000000000000000000000000000000000000000000000000000000000                                                                                          000000000000000000000000000000000000 000000000000  0000000000
0010001300079P 010000510000002827271 30597400000019861   111110182018/REFI/272812202400000000008613600000 02N241020220000000000000000000000000000000000000000000000000000000000000000000000000000000182018/REFI             00020000900198471441
0010001300080Q 012018286927000103M.R.GONCALVES SERVICOS E COMUNICACAO    TRAVESSA DR. BEDA, 23                   SAO BENEDITO   28025110CMPS GOYTACAZESRJ0000000000000000                                        00030597400000019861   12345678
0010001300081R 01000000000000000000000000000000000000000000000000000000000000000000000000                                                                                          000000000000000000000000000000000000 000000000000  0000000000
0010001300082P 010000510000002827271 30597400000019862   111110182018/REFI/282801202500000000008613600000 02N241020220000000000000000000000000000000000000000000000000000000000000000000000000000000182018/REFI             00020000900198471441
0010001300083Q 012018286927000103M.R.GONCALVES SERVICOS E COMUNICACAO    TRAVESSA DR. BEDA, 23                   SAO BENEDITO   28025110CMPS GOYTACAZESRJ0000000000000000                                        00030597400000019862   12345678
0010001300084R 01000000000000000000000000000000000000000000000000000000000000000000000000                                                                                          000000000000000000000000000000000000 000000000000  0000000000
0010001300085P 010000510000002827271 30597400000019863   111110182018/REFI/292802202500000000008613600000 02N241020220000000000000000000000000000000000000000000000000000000000000000000000000000000182018/REFI             00020000900198471441
0010001300086Q 012018286927000103M.R.GONCALVES SERVICOS E COMUNICACAO    TRAVESSA DR. BEDA, 23                   SAO BENEDITO   28025110CMPS GOYTACAZESRJ0000000000000000                                        00030597400000019863   12345678
0010001300087R 01000000000000000000000000000000000000000000000000000000000000000000000000                                                                                          000000000000000000000000000000000000 000000000000  0000000000
0010001300088P 010000510000002827271 30597400000019864   111110182018/REFI/302803202500000000008613600000 02N241020220000000000000000000000000000000000000000000000000000000000000000000000000000000182018/REFI             00020000900198471441
0010001300089Q 012018286927000103M.R.GONCALVES SERVICOS E COMUNICACAO    TRAVESSA DR. BEDA, 23                   SAO BENEDITO   28025110CMPS GOYTACAZESRJ0000000000000000                                        00030597400000019864   12345678
0010001300090R 01000000000000000000000000000000000000000000000000000000000000000000000000                                                                                          000000000000000000000000000000000000 000000000000  0000000000
0010001300091P 010000510000002827271 30597400000019865   111110182018/REFI/312804202500000000008613600000 02N241020220000000000000000000000000000000000000000000000000000000000000000000000000000000182018/REFI             00020000900198471441
0010001300092Q 012018286927000103M.R.GONCALVES SERVICOS E COMUNICACAO    TRAVESSA DR. BEDA, 23                   SAO BENEDITO   28025110CMPS GOYTACAZESRJ0000000000000000                                        00030597400000019865   12345678
0010001300093R 01000000000000000000000000000000000000000000000000000000000000000000000000                                                                                          000000000000000000000000000000000000 000000000000  0000000000
0010001300094P 010000510000002827271 30597400000019866   111110182018/REFI/322805202500000000008613600000 02N241020220000000000000000000000000000000000000000000000000000000000000000000000000000000182018/REFI             00020000900198471441
0010001300095Q 012018286927000103M.R.GONCALVES SERVICOS E COMUNICACAO    TRAVESSA DR. BEDA, 23                   SAO BENEDITO   28025110CMPS GOYTACAZESRJ0000000000000000                                        00030597400000019866   12345678
0010001300096R 01000000000000000000000000000000000000000000000000000000000000000000000000                                                                                          000000000000000000000000000000000000 000000000000  0000000000
0010001300097P 010000510000002827271 30597400000019867   111110182018/REFI/332806202500000000008613600000 02N241020220000000000000000000000000000000000000000000000000000000000000000000000000000000182018/REFI             00020000900198471441
0010001300098Q 012018286927000103M.R.GONCALVES SERVICOS E COMUNICACAO    TRAVESSA DR. BEDA, 23                   SAO BENEDITO   28025110CMPS GOYTACAZESRJ0000000000000000                                        00030597400000019867   12345678
0010001300099R 01000000000000000000000000000000000000000000000000000000000000000000000000                                                                                          000000000000000000000000000000000000 000000000000  0000000000
0010001300100P 010000510000002827271 30597400000019868   111110182018/REFI/342807202500000000008613600000 02N241020220000000000000000000000000000000000000000000000000000000000000000000000000000000182018/REFI             00020000900198471441
0010001300101Q 012018286927000103M.R.GONCALVES SERVICOS E COMUNICACAO    TRAVESSA DR. BEDA, 23                   SAO BENEDITO   28025110CMPS GOYTACAZESRJ0000000000000000                                        00030597400000019868   12345678
0010001300102R 01000000000000000000000000000000000000000000000000000000000000000000000000                                                                                          000000000000000000000000000000000000 000000000000  0000000000
0010001300103P 010000510000002827271 30597400000019869   111110182018/REFI/352808202500000000008613600000 02N241020220000000000000000000000000000000000000000000000000000000000000000000000000000000182018/REFI             00020000900198471441
0010001300104Q 012018286927000103M.R.GONCALVES SERVICOS E COMUNICACAO    TRAVESSA DR. BEDA, 23                   SAO BENEDITO   28025110CMPS GOYTACAZESRJ0000000000000000                                        00030597400000019869   12345678
0010001300105R 01000000000000000000000000000000000000000000000000000000000000000000000000                                                                                          000000000000000000000000000000000000 000000000000  0000000000
0010001300106P 010000510000002827271 30597400000019870   111110182018/REFI/362809202500000000008613600000 02N241020220000000000000000000000000000000000000000000000000000000000000000000000000000000182018/REFI             00020000900198471441
0010001300107Q 012018286927000103M.R.GONCALVES SERVICOS E COMUNICACAO    TRAVESSA DR. BEDA, 23                   SAO BENEDITO   28025110CMPS GOYTACAZESRJ0000000000000000                                        00030597400000019870   12345678
0010001300108R 01000000000000000000000000000000000000000000000000000000000000000000000000                                                                                          000000000000000000000000000000000000 000000000000  0000000000
0010001300109P 010000510000002827271 30597400000019871   111110182018/REFI/372810202500000000008613600000 02N241020220000000000000000000000000000000000000000000000000000000000000000000000000000000182018/REFI             00020000900198471441
0010001300110Q 012018286927000103M.R.GONCALVES SERVICOS E COMUNICACAO    TRAVESSA DR. BEDA, 23                   SAO BENEDITO   28025110CMPS GOYTACAZESRJ0000000000000000                                        00030597400000019871   12345678
0010001300111R 01000000000000000000000000000000000000000000000000000000000000000000000000                                                                                          000000000000000000000000000000000000 000000000000  0000000000
0010001300112P 010000510000002827271 30597400000019872   111110182018/REFI/382811202500000000008613600000 02N241020220000000000000000000000000000000000000000000000000000000000000000000000000000000182018/REFI             00020000900198471441
0010001300113Q 012018286927000103M.R.GONCALVES SERVICOS E COMUNICACAO    TRAVESSA DR. BEDA, 23                   SAO BENEDITO   28025110CMPS GOYTACAZESRJ0000000000000000                                        00030597400000019872   12345678
0010001300114R 01000000000000000000000000000000000000000000000000000000000000000000000000                                                                                          000000000000000000000000000000000000 000000000000  0000000000
0010001300115P 010000510000002827271 30597400000019873   111110182018/REFI/392812202500000000008613600000 02N241020220000000000000000000000000000000000000000000000000000000000000000000000000000000182018/REFI             00020000900198471441
0010001300116Q 012018286927000103M.R.GONCALVES SERVICOS E COMUNICACAO    TRAVESSA DR. BEDA, 23                   SAO BENEDITO   28025110CMPS GOYTACAZESRJ0000000000000000                                        00030597400000019873   12345678
0010001300117R 01000000000000000000000000000000000000000000000000000000000000000000000000                                                                                          000000000000000000000000000000000000 000000000000  0000000000
0010001300118P 010000510000002827271 30597400000019874   111110182018/REFI/402801202600000000008613600000 02N241020220000000000000000000000000000000000000000000000000000000000000000000000000000000182018/REFI             00020000900198471441
0010001300119Q 012018286927000103M.R.GONCALVES SERVICOS E COMUNICACAO    TRAVESSA DR. BEDA, 23                   SAO BENEDITO   28025110CMPS GOYTACAZESRJ0000000000000000                                        00030597400000019874   12345678
0010001300120R 01000000000000000000000000000000000000000000000000000000000000000000000000                                                                                          000000000000000000000000000000000000 000000000000  0000000000
0010001300121P 010000510000002827271 30597400000019875   111110182018/REFI/412802202600000000008613600000 02N241020220000000000000000000000000000000000000000000000000000000000000000000000000000000182018/REFI             00020000900198471441
0010001300122Q 012018286927000103M.R.GONCALVES SERVICOS E COMUNICACAO    TRAVESSA DR. BEDA, 23                   SAO BENEDITO   28025110CMPS GOYTACAZESRJ0000000000000000                                        00030597400000019875   12345678
0010001300123R 01000000000000000000000000000000000000000000000000000000000000000000000000                                                                                          000000000000000000000000000000000000 000000000000  0000000000
0010001300124P 010000510000002827271 30597400000019876   111110182018/REFI/422803202600000000008613600000 02N241020220000000000000000000000000000000000000000000000000000000000000000000000000000000182018/REFI             00020000900198471441
0010001300125Q 012018286927000103M.R.GONCALVES SERVICOS E COMUNICACAO    TRAVESSA DR. BEDA, 23                   SAO BENEDITO   28025110CMPS GOYTACAZESRJ0000000000000000                                        00030597400000019876   12345678
0010001300126R 01000000000000000000000000000000000000000000000000000000000000000000000000                                                                                          000000000000000000000000000000000000 000000000000  0000000000
0010001300127P 010000510000002827271 30597400000019877   111110182018/REFI/432804202600000000008613600000 02N241020220000000000000000000000000000000000000000000000000000000000000000000000000000000182018/REFI             00020000900198471441
0010001300128Q 012018286927000103M.R.GONCALVES SERVICOS E COMUNICACAO    TRAVESSA DR. BEDA, 23                   SAO BENEDITO   28025110CMPS GOYTACAZESRJ0000000000000000                                        00030597400000019877   12345678
0010001300129R 01000000000000000000000000000000000000000000000000000000000000000000000000                                                                                          000000000000000000000000000000000000 000000000000  0000000000
0010001300130P 010000510000002827271 30597400000019878   111110182018/REFI/442805202600000000008613600000 02N241020220000000000000000000000000000000000000000000000000000000000000000000000000000000182018/REFI             00020000900198471441
0010001300131Q 012018286927000103M.R.GONCALVES SERVICOS E COMUNICACAO    TRAVESSA DR. BEDA, 23                   SAO BENEDITO   28025110CMPS GOYTACAZESRJ0000000000000000                                        00030597400000019878   12345678
0010001300132R 01000000000000000000000000000000000000000000000000000000000000000000000000                                                                                          000000000000000000000000000000000000 000000000000  0000000000
0010001300133P 010000510000002827271 30597400000019879   111110182018/REFI/452806202600000000008613600000 02N241020220000000000000000000000000000000000000000000000000000000000000000000000000000000182018/REFI             00020000900198471441
0010001300134Q 012018286927000103M.R.GONCALVES SERVICOS E COMUNICACAO    TRAVESSA DR. BEDA, 23                   SAO BENEDITO   28025110CMPS GOYTACAZESRJ0000000000000000                                        00030597400000019879   12345678
0010001300135R 01000000000000000000000000000000000000000000000000000000000000000000000000                                                                                          000000000000000000000000000000000000 000000000000  0000000000
0010001300136P 010000510000002827271 30597400000019880   111110182018/REFI/462807202600000000008613600000 02N241020220000000000000000000000000000000000000000000000000000000000000000000000000000000182018/REFI             00020000900198471441
0010001300137Q 012018286927000103M.R.GONCALVES SERVICOS E COMUNICACAO    TRAVESSA DR. BEDA, 23                   SAO BENEDITO   28025110CMPS GOYTACAZESRJ0000000000000000                                        00030597400000019880   12345678
0010001300138R 01000000000000000000000000000000000000000000000000000000000000000000000000                                                                                          000000000000000000000000000000000000 000000000000  0000000000
0010001300139P 010000510000002827271 30597400000019881   111110182018/REFI/472808202600000000008613600000 02N241020220000000000000000000000000000000000000000000000000000000000000000000000000000000182018/REFI             00020000900198471441
0010001300140Q 012018286927000103M.R.GONCALVES SERVICOS E COMUNICACAO    TRAVESSA DR. BEDA, 23                   SAO BENEDITO   28025110CMPS GOYTACAZESRJ0000000000000000                                        00030597400000019881   12345678
0010001300141R 01000000000000000000000000000000000000000000000000000000000000000000000000                                                                                          000000000000000000000000000000000000 000000000000  0000000000
0010001300142P 010000510000002827271 30597400000019882   111110182018/REFI/482809202600000000008613600000 02N241020220000000000000000000000000000000000000000000000000000000000000000000000000000000182018/REFI             00020000900198471441
0010001300143Q 012018286927000103M.R.GONCALVES SERVICOS E COMUNICACAO    TRAVESSA DR. BEDA, 23                   SAO BENEDITO   28025110CMPS GOYTACAZESRJ0000000000000000                                        00030597400000019882   12345678
0010001300144R 01000000000000000000000000000000000000000000000000000000000000000000000000                                                                                          000000000000000000000000000000000000 000000000000  0000000000
0010001300145P 010000510000002827271 30597400000019781   111111892022/16/01  1511202200000000005921300000 02N241020220000000000000000000000000000000000000000000000000000000000000000000000000000001892022/16               00020000900198471441
0010001300146Q 011000009803900790FABRICIO SOUZA DA SILVA                 RUA JARBAS PESSANHA, 23                 PENHA          28021230CAMPOS DOS GOYTRJ0000000000000000                                        00030597400000019781   12345678
0010001300147R 01000000000000000000000000000000000000000000000000000000000000000000000000                                                                                          000000000000000000000000000000000000 000000000000  0000000000
0010001300148P 010000510000002827271 30597400000019782   111111892022/16/02  1512202200000000005921300000 02N241020220000000000000000000000000000000000000000000000000000000000000000000000000000001892022/16               00020000900198471441
0010001300149Q 011000009803900790FABRICIO SOUZA DA SILVA                 RUA JARBAS PESSANHA, 23                 PENHA          28021230CAMPOS DOS GOYTRJ0000000000000000                                        00030597400000019782   12345678
0010001300150R 01000000000000000000000000000000000000000000000000000000000000000000000000                                                                                          000000000000000000000000000000000000 000000000000  0000000000
0010001300151P 010000510000002827271 30597400000019783   111111892022/16/03  1501202300000000005921300000 02N241020220000000000000000000000000000000000000000000000000000000000000000000000000000001892022/16               00020000900198471441
0010001300152Q 011000009803900790FABRICIO SOUZA DA SILVA                 RUA JARBAS PESSANHA, 23                 PENHA          28021230CAMPOS DOS GOYTRJ0000000000000000                                        00030597400000019783   12345678
0010001300153R 01000000000000000000000000000000000000000000000000000000000000000000000000                                                                                          000000000000000000000000000000000000 000000000000  0000000000
0010001300154P 010000510000002827271 30597400000019784   111111892022/16/04  1502202300000000005921300000 02N241020220000000000000000000000000000000000000000000000000000000000000000000000000000001892022/16               00020000900198471441
0010001300155Q 011000009803900790FABRICIO SOUZA DA SILVA                 RUA JARBAS PESSANHA, 23                 PENHA          28021230CAMPOS DOS GOYTRJ0000000000000000                                        00030597400000019784   12345678
0010001300156R 01000000000000000000000000000000000000000000000000000000000000000000000000                                                                                          000000000000000000000000000000000000 000000000000  0000000000
0010001300157P 010000510000002827271 30597400000019785   111111892022/16/05  1503202300000000005921300000 02N241020220000000000000000000000000000000000000000000000000000000000000000000000000000001892022/16               00020000900198471441
0010001300158Q 011000009803900790FABRICIO SOUZA DA SILVA                 RUA JARBAS PESSANHA, 23                 PENHA          28021230CAMPOS DOS GOYTRJ0000000000000000                                        00030597400000019785   12345678
0010001300159R 01000000000000000000000000000000000000000000000000000000000000000000000000                                                                                          000000000000000000000000000000000000 000000000000  0000000000
0010001300160P 010000510000002827271 30597400000019786   111111892022/16/06  1504202300000000005921300000 02N241020220000000000000000000000000000000000000000000000000000000000000000000000000000001892022/16               00020000900198471441
0010001300161Q 011000009803900790FABRICIO SOUZA DA SILVA                 RUA JARBAS PESSANHA, 23                 PENHA          28021230CAMPOS DOS GOYTRJ0000000000000000                                        00030597400000019786   12345678
0010001300162R 01000000000000000000000000000000000000000000000000000000000000000000000000                                                                                          000000000000000000000000000000000000 000000000000  0000000000
0010001300163P 010000510000002827271 30597400000019787   111111892022/16/07  1505202300000000005921300000 02N241020220000000000000000000000000000000000000000000000000000000000000000000000000000001892022/16               00020000900198471441
0010001300164Q 011000009803900790FABRICIO SOUZA DA SILVA                 RUA JARBAS PESSANHA, 23                 PENHA          28021230CAMPOS DOS GOYTRJ0000000000000000                                        00030597400000019787   12345678
0010001300165R 01000000000000000000000000000000000000000000000000000000000000000000000000                                                                                          000000000000000000000000000000000000 000000000000  0000000000
0010001300166P 010000510000002827271 30597400000019788   111111892022/16/08  1506202300000000005921300000 02N241020220000000000000000000000000000000000000000000000000000000000000000000000000000001892022/16               00020000900198471441
0010001300167Q 011000009803900790FABRICIO SOUZA DA SILVA                 RUA JARBAS PESSANHA, 23                 PENHA          28021230CAMPOS DOS GOYTRJ0000000000000000                                        00030597400000019788   12345678
0010001300168R 01000000000000000000000000000000000000000000000000000000000000000000000000                                                                                          000000000000000000000000000000000000 000000000000  0000000000
0010001300169P 010000510000002827271 30597400000019789   111111892022/16/09  1507202300000000005921300000 02N241020220000000000000000000000000000000000000000000000000000000000000000000000000000001892022/16               00020000900198471441
0010001300170Q 011000009803900790FABRICIO SOUZA DA SILVA                 RUA JARBAS PESSANHA, 23                 PENHA          28021230CAMPOS DOS GOYTRJ0000000000000000                                        00030597400000019789   12345678
0010001300171R 01000000000000000000000000000000000000000000000000000000000000000000000000                                                                                          000000000000000000000000000000000000 000000000000  0000000000
0010001300172P 010000510000002827271 30597400000019790   111111892022/16/10  1508202300000000005921300000 02N241020220000000000000000000000000000000000000000000000000000000000000000000000000000001892022/16               00020000900198471441
0010001300173Q 011000009803900790FABRICIO SOUZA DA SILVA                 RUA JARBAS PESSANHA, 23                 PENHA          28021230CAMPOS DOS GOYTRJ0000000000000000                                        00030597400000019790   12345678
0010001300174R 01000000000000000000000000000000000000000000000000000000000000000000000000                                                                                          000000000000000000000000000000000000 000000000000  0000000000
0010001300175P 010000510000002827271 30597400000019791   111111892022/16/11  1509202300000000005921300000 02N241020220000000000000000000000000000000000000000000000000000000000000000000000000000001892022/16               00020000900198471441
0010001300176Q 011000009803900790FABRICIO SOUZA DA SILVA                 RUA JARBAS PESSANHA, 23                 PENHA          28021230CAMPOS DOS GOYTRJ0000000000000000                                        00030597400000019791   12345678
0010001300177R 01000000000000000000000000000000000000000000000000000000000000000000000000                                                                                          000000000000000000000000000000000000 000000000000  0000000000
0010001300178P 010000510000002827271 30597400000019792   111111892022/16/12  1510202300000000005921300000 02N241020220000000000000000000000000000000000000000000000000000000000000000000000000000001892022/16               00020000900198471441
0010001300179Q 011000009803900790FABRICIO SOUZA DA SILVA                 RUA JARBAS PESSANHA, 23                 PENHA          28021230CAMPOS DOS GOYTRJ0000000000000000                                        00030597400000019792   12345678
0010001300180R 01000000000000000000000000000000000000000000000000000000000000000000000000                                                                                          000000000000000000000000000000000000 000000000000  0000000000
0010001300181P 010000510000002827271 30597400000019793   111111892022/16/13  1511202300000000005921300000 02N241020220000000000000000000000000000000000000000000000000000000000000000000000000000001892022/16               00020000900198471441
0010001300182Q 011000009803900790FABRICIO SOUZA DA SILVA                 RUA JARBAS PESSANHA, 23                 PENHA          28021230CAMPOS DOS GOYTRJ0000000000000000                                        00030597400000019793   12345678
0010001300183R 01000000000000000000000000000000000000000000000000000000000000000000000000                                                                                          000000000000000000000000000000000000 000000000000  0000000000
0010001300184P 010000510000002827271 30597400000019794   111111892022/16/14  1512202300000000005921300000 02N241020220000000000000000000000000000000000000000000000000000000000000000000000000000001892022/16               00020000900198471441
0010001300185Q 011000009803900790FABRICIO SOUZA DA SILVA                 RUA JARBAS PESSANHA, 23                 PENHA          28021230CAMPOS DOS GOYTRJ0000000000000000                                        00030597400000019794   12345678
0010001300186R 01000000000000000000000000000000000000000000000000000000000000000000000000                                                                                          000000000000000000000000000000000000 000000000000  0000000000
0010001300187P 010000510000002827271 30597400000019795   111111892022/16/15  1501202400000000005921300000 02N241020220000000000000000000000000000000000000000000000000000000000000000000000000000001892022/16               00020000900198471441
0010001300188Q 011000009803900790FABRICIO SOUZA DA SILVA                 RUA JARBAS PESSANHA, 23                 PENHA          28021230CAMPOS DOS GOYTRJ0000000000000000                                        00030597400000019795   12345678
0010001300189R 01000000000000000000000000000000000000000000000000000000000000000000000000                                                                                          000000000000000000000000000000000000 000000000000  0000000000
0010001300190P 010000510000002827271 30597400000019796   111111892022/16/16  1502202400000000005921300000 02N241020220000000000000000000000000000000000000000000000000000000000000000000000000000001892022/16               00020000900198471441
0010001300191Q 011000009803900790FABRICIO SOUZA DA SILVA                 RUA JARBAS PESSANHA, 23                 PENHA          28021230CAMPOS DOS GOYTRJ0000000000000000                                        00030597400000019796   12345678
0010001300192R 01000000000000000000000000000000000000000000000000000000000000000000000000                                                                                          000000000000000000000000000000000000 000000000000  0000000000
0010001300193P 010000510000002827271 30597400000019797   111111892022/16/17  1503202400000000005921300000 02N241020220000000000000000000000000000000000000000000000000000000000000000000000000000001892022/16               00020000900198471441
0010001300194Q 011000009803900790FABRICIO SOUZA DA SILVA                 RUA JARBAS PESSANHA, 23                 PENHA          28021230CAMPOS DOS GOYTRJ0000000000000000                                        00030597400000019797   12345678
0010001300195R 01000000000000000000000000000000000000000000000000000000000000000000000000                                                                                          000000000000000000000000000000000000 000000000000  0000000000
0010001300196P 010000510000002827271 30597400000019798   111111892022/16/18  1504202400000000005921300000 02N241020220000000000000000000000000000000000000000000000000000000000000000000000000000001892022/16               00020000900198471441
0010001300197Q 011000009803900790FABRICIO SOUZA DA SILVA                 RUA JARBAS PESSANHA, 23                 PENHA          28021230CAMPOS DOS GOYTRJ0000000000000000                                        00030597400000019798   12345678
0010001300198R 01000000000000000000000000000000000000000000000000000000000000000000000000                                                                                          000000000000000000000000000000000000 000000000000  0000000000
0010001300199P 010000510000002827271 30597400000019745   111111952022/15/01  1511202200000000005921300000 02N241020220000000000000000000000000000000000000000000000000000000000000000000000000000001952022/15               00020000900198471441
0010001300200Q 011000005987386730MARCELLO TAVARES DEVEZA                 RUA DR. MARIO DE M GOULART, 61          PQ SAO CAETA   28000001CAMPOS DOS GOYTRJ0000000000000000                                        00030597400000019745   12345678
0010001300201R 01000000000000000000000000000000000000000000000000000000000000000000000000                                                                                          000000000000000000000000000000000000 000000000000  0000000000
0010001300202P 010000510000002827271 30597400000019746   111111952022/15/02  1512202200000000005921300000 02N241020220000000000000000000000000000000000000000000000000000000000000000000000000000001952022/15               00020000900198471441
0010001300203Q 011000005987386730MARCELLO TAVARES DEVEZA                 RUA DR. MARIO DE M GOULART, 61          PQ SAO CAETA   28000001CAMPOS DOS GOYTRJ0000000000000000                                        00030597400000019746   12345678
0010001300204R 01000000000000000000000000000000000000000000000000000000000000000000000000                                                                                          000000000000000000000000000000000000 000000000000  0000000000
0010001300205P 010000510000002827271 30597400000019747   111111952022/15/03  1501202300000000005921300000 02N241020220000000000000000000000000000000000000000000000000000000000000000000000000000001952022/15               00020000900198471441
0010001300206Q 011000005987386730MARCELLO TAVARES DEVEZA                 RUA DR. MARIO DE M GOULART, 61          PQ SAO CAETA   28000001CAMPOS DOS GOYTRJ0000000000000000                                        00030597400000019747   12345678
0010001300207R 01000000000000000000000000000000000000000000000000000000000000000000000000                                                                                          000000000000000000000000000000000000 000000000000  0000000000
0010001300208P 010000510000002827271 30597400000019748   111111952022/15/04  1502202300000000005921300000 02N241020220000000000000000000000000000000000000000000000000000000000000000000000000000001952022/15               00020000900198471441
0010001300209Q 011000005987386730MARCELLO TAVARES DEVEZA                 RUA DR. MARIO DE M GOULART, 61          PQ SAO CAETA   28000001CAMPOS DOS GOYTRJ0000000000000000                                        00030597400000019748   12345678
0010001300210R 01000000000000000000000000000000000000000000000000000000000000000000000000                                                                                          000000000000000000000000000000000000 000000000000  0000000000
0010001300211P 010000510000002827271 30597400000019749   111111952022/15/05  1503202300000000005921300000 02N241020220000000000000000000000000000000000000000000000000000000000000000000000000000001952022/15               00020000900198471441
0010001300212Q 011000005987386730MARCELLO TAVARES DEVEZA                 RUA DR. MARIO DE M GOULART, 61          PQ SAO CAETA   28000001CAMPOS DOS GOYTRJ0000000000000000                                        00030597400000019749   12345678
0010001300213R 01000000000000000000000000000000000000000000000000000000000000000000000000                                                                                          000000000000000000000000000000000000 000000000000  0000000000
0010001300214P 010000510000002827271 30597400000019750   111111952022/15/06  1504202300000000005921300000 02N241020220000000000000000000000000000000000000000000000000000000000000000000000000000001952022/15               00020000900198471441
0010001300215Q 011000005987386730MARCELLO TAVARES DEVEZA                 RUA DR. MARIO DE M GOULART, 61          PQ SAO CAETA   28000001CAMPOS DOS GOYTRJ0000000000000000                                        00030597400000019750   12345678
0010001300216R 01000000000000000000000000000000000000000000000000000000000000000000000000                                                                                          000000000000000000000000000000000000 000000000000  0000000000
0010001300217P 010000510000002827271 30597400000019751   111111952022/15/07  1505202300000000005921300000 02N241020220000000000000000000000000000000000000000000000000000000000000000000000000000001952022/15               00020000900198471441
0010001300218Q 011000005987386730MARCELLO TAVARES DEVEZA                 RUA DR. MARIO DE M GOULART, 61          PQ SAO CAETA   28000001CAMPOS DOS GOYTRJ0000000000000000                                        00030597400000019751   12345678
0010001300219R 01000000000000000000000000000000000000000000000000000000000000000000000000                                                                                          000000000000000000000000000000000000 000000000000  0000000000
0010001300220P 010000510000002827271 30597400000019752   111111952022/15/08  1506202300000000005921300000 02N241020220000000000000000000000000000000000000000000000000000000000000000000000000000001952022/15               00020000900198471441
0010001300221Q 011000005987386730MARCELLO TAVARES DEVEZA                 RUA DR. MARIO DE M GOULART, 61          PQ SAO CAETA   28000001CAMPOS DOS GOYTRJ0000000000000000                                        00030597400000019752   12345678
0010001300222R 01000000000000000000000000000000000000000000000000000000000000000000000000                                                                                          000000000000000000000000000000000000 000000000000  0000000000
0010001300223P 010000510000002827271 30597400000019753   111111952022/15/09  1507202300000000005921300000 02N241020220000000000000000000000000000000000000000000000000000000000000000000000000000001952022/15               00020000900198471441
0010001300224Q 011000005987386730MARCELLO TAVARES DEVEZA                 RUA DR. MARIO DE M GOULART, 61          PQ SAO CAETA   28000001CAMPOS DOS GOYTRJ0000000000000000                                        00030597400000019753   12345678
0010001300225R 01000000000000000000000000000000000000000000000000000000000000000000000000                                                                                          000000000000000000000000000000000000 000000000000  0000000000
0010001300226P 010000510000002827271 30597400000019754   111111952022/15/10  1508202300000000005921300000 02N241020220000000000000000000000000000000000000000000000000000000000000000000000000000001952022/15               00020000900198471441
0010001300227Q 011000005987386730MARCELLO TAVARES DEVEZA                 RUA DR. MARIO DE M GOULART, 61          PQ SAO CAETA   28000001CAMPOS DOS GOYTRJ0000000000000000                                        00030597400000019754   12345678
0010001300228R 01000000000000000000000000000000000000000000000000000000000000000000000000                                                                                          000000000000000000000000000000000000 000000000000  0000000000
0010001300229P 010000510000002827271 30597400000019755   111111952022/15/11  1509202300000000005921300000 02N241020220000000000000000000000000000000000000000000000000000000000000000000000000000001952022/15               00020000900198471441
0010001300230Q 011000005987386730MARCELLO TAVARES DEVEZA                 RUA DR. MARIO DE M GOULART, 61          PQ SAO CAETA   28000001CAMPOS DOS GOYTRJ0000000000000000                                        00030597400000019755   12345678
0010001300231R 01000000000000000000000000000000000000000000000000000000000000000000000000                                                                                          000000000000000000000000000000000000 000000000000  0000000000
0010001300232P 010000510000002827271 30597400000019756   111111952022/15/12  1510202300000000005921300000 02N241020220000000000000000000000000000000000000000000000000000000000000000000000000000001952022/15               00020000900198471441
0010001300233Q 011000005987386730MARCELLO TAVARES DEVEZA                 RUA DR. MARIO DE M GOULART, 61          PQ SAO CAETA   28000001CAMPOS DOS GOYTRJ0000000000000000                                        00030597400000019756   12345678
0010001300234R 01000000000000000000000000000000000000000000000000000000000000000000000000                                                                                          000000000000000000000000000000000000 000000000000  0000000000
0010001300235P 010000510000002827271 30597400000019757   111111952022/15/13  1511202300000000005921300000 02N241020220000000000000000000000000000000000000000000000000000000000000000000000000000001952022/15               00020000900198471441
0010001300236Q 011000005987386730MARCELLO TAVARES DEVEZA                 RUA DR. MARIO DE M GOULART, 61          PQ SAO CAETA   28000001CAMPOS DOS GOYTRJ0000000000000000                                        00030597400000019757   12345678
0010001300237R 01000000000000000000000000000000000000000000000000000000000000000000000000                                                                                          000000000000000000000000000000000000 000000000000  0000000000
0010001300238P 010000510000002827271 30597400000019758   111111952022/15/14  1512202300000000005921300000 02N241020220000000000000000000000000000000000000000000000000000000000000000000000000000001952022/15               00020000900198471441
0010001300239Q 011000005987386730MARCELLO TAVARES DEVEZA                 RUA DR. MARIO DE M GOULART, 61          PQ SAO CAETA   28000001CAMPOS DOS GOYTRJ0000000000000000                                        00030597400000019758   12345678
0010001300240R 01000000000000000000000000000000000000000000000000000000000000000000000000                                                                                          000000000000000000000000000000000000 000000000000  0000000000
0010001300241P 010000510000002827271 30597400000019759   111111952022/15/15  1501202400000000005921300000 02N241020220000000000000000000000000000000000000000000000000000000000000000000000000000001952022/15               00020000900198471441
0010001300242Q 011000005987386730MARCELLO TAVARES DEVEZA                 RUA DR. MARIO DE M GOULART, 61          PQ SAO CAETA   28000001CAMPOS DOS GOYTRJ0000000000000000                                        00030597400000019759   12345678
0010001300243R 01000000000000000000000000000000000000000000000000000000000000000000000000                                                                                          000000000000000000000000000000000000 000000000000  0000000000
0010001300244P 010000510000002827271 30597400000019760   111111952022/15/16  1502202400000000005921300000 02N241020220000000000000000000000000000000000000000000000000000000000000000000000000000001952022/15               00020000900198471441
0010001300245Q 011000005987386730MARCELLO TAVARES DEVEZA                 RUA DR. MARIO DE M GOULART, 61          PQ SAO CAETA   28000001CAMPOS DOS GOYTRJ0000000000000000                                        00030597400000019760   12345678
0010001300246R 01000000000000000000000000000000000000000000000000000000000000000000000000                                                                                          000000000000000000000000000000000000 000000000000  0000000000
0010001300247P 010000510000002827271 30597400000019761   111111952022/15/17  1503202400000000005921300000 02N241020220000000000000000000000000000000000000000000000000000000000000000000000000000001952022/15               00020000900198471441
0010001300248Q 011000005987386730MARCELLO TAVARES DEVEZA                 RUA DR. MARIO DE M GOULART, 61          PQ SAO CAETA   28000001CAMPOS DOS GOYTRJ0000000000000000                                        00030597400000019761   12345678
0010001300249R 01000000000000000000000000000000000000000000000000000000000000000000000000                                                                                          000000000000000000000000000000000000 000000000000  0000000000
0010001300250P 010000510000002827271 30597400000019762   111111952022/15/18  1504202400000000005921300000 02N241020220000000000000000000000000000000000000000000000000000000000000000000000000000001952022/15               00020000900198471441
0010001300251Q 011000005987386730MARCELLO TAVARES DEVEZA                 RUA DR. MARIO DE M GOULART, 61          PQ SAO CAETA   28000001CAMPOS DOS GOYTRJ0000000000000000                                        00030597400000019762   12345678
0010001300252R 01000000000000000000000000000000000000000000000000000000000000000000000000                                                                                          000000000000000000000000000000000000 000000000000  0000000000
0010001300253P 010000510000002827271 30597400000019817   111111992022/12/01  1511202200000000005921300000 02N241020220000000000000000000000000000000000000000000000000000000000000000000000000000001992022/12               00020000900198471441
0010001300254Q 011000004541870410LEANDRO BRITO ALVES BATISTA RODRIGUES   RUA NOVA AURORA, 383                    JARDIM CEASA   28090000CAMPOS DOS GOYTRJ0000000000000000                                        00030597400000019817   12345678
0010001300255R 01000000000000000000000000000000000000000000000000000000000000000000000000                                                                                          000000000000000000000000000000000000 000000000000  0000000000
0010001300256P 010000510000002827271 30597400000019818   111111992022/12/02  1512202200000000005921300000 02N241020220000000000000000000000000000000000000000000000000000000000000000000000000000001992022/12               00020000900198471441
0010001300257Q 011000004541870410LEANDRO BRITO ALVES BATISTA RODRIGUES   RUA NOVA AURORA, 383                    JARDIM CEASA   28090000CAMPOS DOS GOYTRJ0000000000000000                                        00030597400000019818   12345678
0010001300258R 01000000000000000000000000000000000000000000000000000000000000000000000000                                                                                          000000000000000000000000000000000000 000000000000  0000000000
0010001300259P 010000510000002827271 30597400000019819   111111992022/12/03  1501202300000000005921300000 02N241020220000000000000000000000000000000000000000000000000000000000000000000000000000001992022/12               00020000900198471441
0010001300260Q 011000004541870410LEANDRO BRITO ALVES BATISTA RODRIGUES   RUA NOVA AURORA, 383                    JARDIM CEASA   28090000CAMPOS DOS GOYTRJ0000000000000000                                        00030597400000019819   12345678
0010001300261R 01000000000000000000000000000000000000000000000000000000000000000000000000                                                                                          000000000000000000000000000000000000 000000000000  0000000000
0010001300262P 010000510000002827271 30597400000019820   111111992022/12/04  1502202300000000005921300000 02N241020220000000000000000000000000000000000000000000000000000000000000000000000000000001992022/12               00020000900198471441
0010001300263Q 011000004541870410LEANDRO BRITO ALVES BATISTA RODRIGUES   RUA NOVA AURORA, 383                    JARDIM CEASA   28090000CAMPOS DOS GOYTRJ0000000000000000                                        00030597400000019820   12345678
0010001300264R 01000000000000000000000000000000000000000000000000000000000000000000000000                                                                                          000000000000000000000000000000000000 000000000000  0000000000
0010001300265P 010000510000002827271 30597400000019821   111111992022/12/05  1503202300000000005921300000 02N241020220000000000000000000000000000000000000000000000000000000000000000000000000000001992022/12               00020000900198471441
0010001300266Q 011000004541870410LEANDRO BRITO ALVES BATISTA RODRIGUES   RUA NOVA AURORA, 383                    JARDIM CEASA   28090000CAMPOS DOS GOYTRJ0000000000000000                                        00030597400000019821   12345678
0010001300267R 01000000000000000000000000000000000000000000000000000000000000000000000000                                                                                          000000000000000000000000000000000000 000000000000  0000000000
0010001300268P 010000510000002827271 30597400000019822   111111992022/12/06  1504202300000000005921300000 02N241020220000000000000000000000000000000000000000000000000000000000000000000000000000001992022/12               00020000900198471441
0010001300269Q 011000004541870410LEANDRO BRITO ALVES BATISTA RODRIGUES   RUA NOVA AURORA, 383                    JARDIM CEASA   28090000CAMPOS DOS GOYTRJ0000000000000000                                        00030597400000019822   12345678
0010001300270R 01000000000000000000000000000000000000000000000000000000000000000000000000                                                                                          000000000000000000000000000000000000 000000000000  0000000000
0010001300271P 010000510000002827271 30597400000019823   111111992022/12/07  1505202300000000005921300000 02N241020220000000000000000000000000000000000000000000000000000000000000000000000000000001992022/12               00020000900198471441
0010001300272Q 011000004541870410LEANDRO BRITO ALVES BATISTA RODRIGUES   RUA NOVA AURORA, 383                    JARDIM CEASA   28090000CAMPOS DOS GOYTRJ0000000000000000                                        00030597400000019823   12345678
0010001300273R 01000000000000000000000000000000000000000000000000000000000000000000000000                                                                                          000000000000000000000000000000000000 000000000000  0000000000
0010001300274P 010000510000002827271 30597400000019824   111111992022/12/08  1506202300000000005921300000 02N241020220000000000000000000000000000000000000000000000000000000000000000000000000000001992022/12               00020000900198471441
0010001300275Q 011000004541870410LEANDRO BRITO ALVES BATISTA RODRIGUES   RUA NOVA AURORA, 383                    JARDIM CEASA   28090000CAMPOS DOS GOYTRJ0000000000000000                                        00030597400000019824   12345678
0010001300276R 01000000000000000000000000000000000000000000000000000000000000000000000000                                                                                          000000000000000000000000000000000000 000000000000  0000000000
0010001300277P 010000510000002827271 30597400000019825   111111992022/12/09  1507202300000000005921300000 02N241020220000000000000000000000000000000000000000000000000000000000000000000000000000001992022/12               00020000900198471441
0010001300278Q 011000004541870410LEANDRO BRITO ALVES BATISTA RODRIGUES   RUA NOVA AURORA, 383                    JARDIM CEASA   28090000CAMPOS DOS GOYTRJ0000000000000000                                        00030597400000019825   12345678
0010001300279R 01000000000000000000000000000000000000000000000000000000000000000000000000                                                                                          000000000000000000000000000000000000 000000000000  0000000000
0010001300280P 010000510000002827271 30597400000019826   111111992022/12/10  1508202300000000005921300000 02N241020220000000000000000000000000000000000000000000000000000000000000000000000000000001992022/12               00020000900198471441
0010001300281Q 011000004541870410LEANDRO BRITO ALVES BATISTA RODRIGUES   RUA NOVA AURORA, 383                    JARDIM CEASA   28090000CAMPOS DOS GOYTRJ0000000000000000                                        00030597400000019826   12345678
0010001300282R 01000000000000000000000000000000000000000000000000000000000000000000000000                                                                                          000000000000000000000000000000000000 000000000000  0000000000
0010001300283P 010000510000002827271 30597400000019827   111111992022/12/11  1509202300000000005921300000 02N241020220000000000000000000000000000000000000000000000000000000000000000000000000000001992022/12               00020000900198471441
0010001300284Q 011000004541870410LEANDRO BRITO ALVES BATISTA RODRIGUES   RUA NOVA AURORA, 383                    JARDIM CEASA   28090000CAMPOS DOS GOYTRJ0000000000000000                                        00030597400000019827   12345678
0010001300285R 01000000000000000000000000000000000000000000000000000000000000000000000000                                                                                          000000000000000000000000000000000000 000000000000  0000000000
0010001300286P 010000510000002827271 30597400000019828   111111992022/12/12  1510202300000000005921300000 02N241020220000000000000000000000000000000000000000000000000000000000000000000000000000001992022/12               00020000900198471441
0010001300287Q 011000004541870410LEANDRO BRITO ALVES BATISTA RODRIGUES   RUA NOVA AURORA, 383                    JARDIM CEASA   28090000CAMPOS DOS GOYTRJ0000000000000000                                        00030597400000019828   12345678
0010001300288R 01000000000000000000000000000000000000000000000000000000000000000000000000                                                                                          000000000000000000000000000000000000 000000000000  0000000000
0010001300289P 010000510000002827271 30597400000019829   111111992022/12/13  1511202300000000005921300000 02N241020220000000000000000000000000000000000000000000000000000000000000000000000000000001992022/12               00020000900198471441
0010001300290Q 011000004541870410LEANDRO BRITO ALVES BATISTA RODRIGUES   RUA NOVA AURORA, 383                    JARDIM CEASA   28090000CAMPOS DOS GOYTRJ0000000000000000                                        00030597400000019829   12345678
0010001300291R 01000000000000000000000000000000000000000000000000000000000000000000000000                                                                                          000000000000000000000000000000000000 000000000000  0000000000
0010001300292P 010000510000002827271 30597400000019830   111111992022/12/14  1512202300000000005921300000 02N241020220000000000000000000000000000000000000000000000000000000000000000000000000000001992022/12               00020000900198471441
0010001300293Q 011000004541870410LEANDRO BRITO ALVES BATISTA RODRIGUES   RUA NOVA AURORA, 383                    JARDIM CEASA   28090000CAMPOS DOS GOYTRJ0000000000000000                                        00030597400000019830   12345678
0010001300294R 01000000000000000000000000000000000000000000000000000000000000000000000000                                                                                          000000000000000000000000000000000000 000000000000  0000000000
0010001300295P 010000510000002827271 30597400000019831   111111992022/12/15  1501202400000000005921300000 02N241020220000000000000000000000000000000000000000000000000000000000000000000000000000001992022/12               00020000900198471441
0010001300296Q 011000004541870410LEANDRO BRITO ALVES BATISTA RODRIGUES   RUA NOVA AURORA, 383                    JARDIM CEASA   28090000CAMPOS DOS GOYTRJ0000000000000000                                        00030597400000019831   12345678
0010001300297R 01000000000000000000000000000000000000000000000000000000000000000000000000                                                                                          000000000000000000000000000000000000 000000000000  0000000000
0010001300298P 010000510000002827271 30597400000019832   111111992022/12/16  1502202400000000005921300000 02N241020220000000000000000000000000000000000000000000000000000000000000000000000000000001992022/12               00020000900198471441
0010001300299Q 011000004541870410LEANDRO BRITO ALVES BATISTA RODRIGUES   RUA NOVA AURORA, 383                    JARDIM CEASA   28090000CAMPOS DOS GOYTRJ0000000000000000                                        00030597400000019832   12345678
0010001300300R 01000000000000000000000000000000000000000000000000000000000000000000000000                                                                                          000000000000000000000000000000000000 000000000000  0000000000
0010001300301P 010000510000002827271 30597400000019833   111111992022/12/17  1503202400000000005921300000 02N241020220000000000000000000000000000000000000000000000000000000000000000000000000000001992022/12               00020000900198471441
0010001300302Q 011000004541870410LEANDRO BRITO ALVES BATISTA RODRIGUES   RUA NOVA AURORA, 383                    JARDIM CEASA   28090000CAMPOS DOS GOYTRJ0000000000000000                                        00030597400000019833   12345678
0010001300303R 01000000000000000000000000000000000000000000000000000000000000000000000000                                                                                          000000000000000000000000000000000000 000000000000  0000000000
0010001300304P 010000510000002827271 30597400000019834   111111992022/12/18  1504202400000000005921300000 02N241020220000000000000000000000000000000000000000000000000000000000000000000000000000001992022/12               00020000900198471441
0010001300305Q 011000004541870410LEANDRO BRITO ALVES BATISTA RODRIGUES   RUA NOVA AURORA, 383                    JARDIM CEASA   28090000CAMPOS DOS GOYTRJ0000000000000000                                        00030597400000019834   12345678
0010001300306R 01000000000000000000000000000000000000000000000000000000000000000000000000                                                                                          000000000000000000000000000000000000 000000000000  0000000000
0010001300307P 010000510000002827271 30597400000019763   111112062022/12/01  1511202200000000005921300000 02N241020220000000000000000000000000000000000000000000000000000000000000000000000000000002062022/12               00020000900198471441
0010001300308Q 011000011200667786KARLA CAMPOS CONCEICAO                  RUA 2 KM 15                             TRAVESSAO      28000001CAMPOS DOS GOYTRJ0000000000000000                                        00030597400000019763   12345678
0010001300309R 01000000000000000000000000000000000000000000000000000000000000000000000000                                                                                          000000000000000000000000000000000000 000000000000  0000000000
0010001300310P 010000510000002827271 30597400000019764   111112062022/12/02  1512202200000000005921300000 02N241020220000000000000000000000000000000000000000000000000000000000000000000000000000002062022/12               00020000900198471441
0010001300311Q 011000011200667786KARLA CAMPOS CONCEICAO                  RUA 2 KM 15                             TRAVESSAO      28000001CAMPOS DOS GOYTRJ0000000000000000                                        00030597400000019764   12345678
0010001300312R 01000000000000000000000000000000000000000000000000000000000000000000000000                                                                                          000000000000000000000000000000000000 000000000000  0000000000
0010001300313P 010000510000002827271 30597400000019765   111112062022/12/03  1501202300000000005921300000 02N241020220000000000000000000000000000000000000000000000000000000000000000000000000000002062022/12               00020000900198471441
0010001300314Q 011000011200667786KARLA CAMPOS CONCEICAO                  RUA 2 KM 15                             TRAVESSAO      28000001CAMPOS DOS GOYTRJ0000000000000000                                        00030597400000019765   12345678
0010001300315R 01000000000000000000000000000000000000000000000000000000000000000000000000                                                                                          000000000000000000000000000000000000 000000000000  0000000000
0010001300316P 010000510000002827271 30597400000019766   111112062022/12/04  1502202300000000005921300000 02N241020220000000000000000000000000000000000000000000000000000000000000000000000000000002062022/12               00020000900198471441
0010001300317Q 011000011200667786KARLA CAMPOS CONCEICAO                  RUA 2 KM 15                             TRAVESSAO      28000001CAMPOS DOS GOYTRJ0000000000000000                                        00030597400000019766   12345678
0010001300318R 01000000000000000000000000000000000000000000000000000000000000000000000000                                                                                          000000000000000000000000000000000000 000000000000  0000000000
0010001300319P 010000510000002827271 30597400000019767   111112062022/12/05  1503202300000000005921300000 02N241020220000000000000000000000000000000000000000000000000000000000000000000000000000002062022/12               00020000900198471441
0010001300320Q 011000011200667786KARLA CAMPOS CONCEICAO                  RUA 2 KM 15                             TRAVESSAO      28000001CAMPOS DOS GOYTRJ0000000000000000                                        00030597400000019767   12345678
0010001300321R 01000000000000000000000000000000000000000000000000000000000000000000000000                                                                                          000000000000000000000000000000000000 000000000000  0000000000
0010001300322P 010000510000002827271 30597400000019768   111112062022/12/06  1504202300000000005921300000 02N241020220000000000000000000000000000000000000000000000000000000000000000000000000000002062022/12               00020000900198471441
0010001300323Q 011000011200667786KARLA CAMPOS CONCEICAO                  RUA 2 KM 15                             TRAVESSAO      28000001CAMPOS DOS GOYTRJ0000000000000000                                        00030597400000019768   12345678
0010001300324R 01000000000000000000000000000000000000000000000000000000000000000000000000                                                                                          000000000000000000000000000000000000 000000000000  0000000000
0010001300325P 010000510000002827271 30597400000019769   111112062022/12/07  1505202300000000005921300000 02N241020220000000000000000000000000000000000000000000000000000000000000000000000000000002062022/12               00020000900198471441
0010001300326Q 011000011200667786KARLA CAMPOS CONCEICAO                  RUA 2 KM 15                             TRAVESSAO      28000001CAMPOS DOS GOYTRJ0000000000000000                                        00030597400000019769   12345678
0010001300327R 01000000000000000000000000000000000000000000000000000000000000000000000000                                                                                          000000000000000000000000000000000000 000000000000  0000000000
0010001300328P 010000510000002827271 30597400000019770   111112062022/12/08  1506202300000000005921300000 02N241020220000000000000000000000000000000000000000000000000000000000000000000000000000002062022/12               00020000900198471441
0010001300329Q 011000011200667786KARLA CAMPOS CONCEICAO                  RUA 2 KM 15                             TRAVESSAO      28000001CAMPOS DOS GOYTRJ0000000000000000                                        00030597400000019770   12345678
0010001300330R 01000000000000000000000000000000000000000000000000000000000000000000000000                                                                                          000000000000000000000000000000000000 000000000000  0000000000
0010001300331P 010000510000002827271 30597400000019771   111112062022/12/09  1507202300000000005921300000 02N241020220000000000000000000000000000000000000000000000000000000000000000000000000000002062022/12               00020000900198471441
0010001300332Q 011000011200667786KARLA CAMPOS CONCEICAO                  RUA 2 KM 15                             TRAVESSAO      28000001CAMPOS DOS GOYTRJ0000000000000000                                        00030597400000019771   12345678
0010001300333R 01000000000000000000000000000000000000000000000000000000000000000000000000                                                                                          000000000000000000000000000000000000 000000000000  0000000000
0010001300334P 010000510000002827271 30597400000019772   111112062022/12/10  1508202300000000005921300000 02N241020220000000000000000000000000000000000000000000000000000000000000000000000000000002062022/12               00020000900198471441
0010001300335Q 011000011200667786KARLA CAMPOS CONCEICAO                  RUA 2 KM 15                             TRAVESSAO      28000001CAMPOS DOS GOYTRJ0000000000000000                                        00030597400000019772   12345678
0010001300336R 01000000000000000000000000000000000000000000000000000000000000000000000000                                                                                          000000000000000000000000000000000000 000000000000  0000000000
0010001300337P 010000510000002827271 30597400000019773   111112062022/12/11  1509202300000000005921300000 02N241020220000000000000000000000000000000000000000000000000000000000000000000000000000002062022/12               00020000900198471441
0010001300338Q 011000011200667786KARLA CAMPOS CONCEICAO                  RUA 2 KM 15                             TRAVESSAO      28000001CAMPOS DOS GOYTRJ0000000000000000                                        00030597400000019773   12345678
0010001300339R 01000000000000000000000000000000000000000000000000000000000000000000000000                                                                                          000000000000000000000000000000000000 000000000000  0000000000
0010001300340P 010000510000002827271 30597400000019774   111112062022/12/12  1510202300000000005921300000 02N241020220000000000000000000000000000000000000000000000000000000000000000000000000000002062022/12               00020000900198471441
0010001300341Q 011000011200667786KARLA CAMPOS CONCEICAO                  RUA 2 KM 15                             TRAVESSAO      28000001CAMPOS DOS GOYTRJ0000000000000000                                        00030597400000019774   12345678
0010001300342R 01000000000000000000000000000000000000000000000000000000000000000000000000                                                                                          000000000000000000000000000000000000 000000000000  0000000000
0010001300343P 010000510000002827271 30597400000019775   111112062022/12/13  1511202300000000005921300000 02N241020220000000000000000000000000000000000000000000000000000000000000000000000000000002062022/12               00020000900198471441
0010001300344Q 011000011200667786KARLA CAMPOS CONCEICAO                  RUA 2 KM 15                             TRAVESSAO      28000001CAMPOS DOS GOYTRJ0000000000000000                                        00030597400000019775   12345678
0010001300345R 01000000000000000000000000000000000000000000000000000000000000000000000000                                                                                          000000000000000000000000000000000000 000000000000  0000000000
0010001300346P 010000510000002827271 30597400000019776   111112062022/12/14  1512202300000000005921300000 02N241020220000000000000000000000000000000000000000000000000000000000000000000000000000002062022/12               00020000900198471441
0010001300347Q 011000011200667786KARLA CAMPOS CONCEICAO                  RUA 2 KM 15                             TRAVESSAO      28000001CAMPOS DOS GOYTRJ0000000000000000                                        00030597400000019776   12345678
0010001300348R 01000000000000000000000000000000000000000000000000000000000000000000000000                                                                                          000000000000000000000000000000000000 000000000000  0000000000
0010001300349P 010000510000002827271 30597400000019777   111112062022/12/15  1501202400000000005921300000 02N241020220000000000000000000000000000000000000000000000000000000000000000000000000000002062022/12               00020000900198471441
0010001300350Q 011000011200667786KARLA CAMPOS CONCEICAO                  RUA 2 KM 15                             TRAVESSAO      28000001CAMPOS DOS GOYTRJ0000000000000000                                        00030597400000019777   12345678
0010001300351R 01000000000000000000000000000000000000000000000000000000000000000000000000                                                                                          000000000000000000000000000000000000 000000000000  0000000000
0010001300352P 010000510000002827271 30597400000019778   111112062022/12/16  1502202400000000005921300000 02N241020220000000000000000000000000000000000000000000000000000000000000000000000000000002062022/12               00020000900198471441
0010001300353Q 011000011200667786KARLA CAMPOS CONCEICAO                  RUA 2 KM 15                             TRAVESSAO      28000001CAMPOS DOS GOYTRJ0000000000000000                                        00030597400000019778   12345678
0010001300354R 01000000000000000000000000000000000000000000000000000000000000000000000000                                                                                          000000000000000000000000000000000000 000000000000  0000000000
0010001300355P 010000510000002827271 30597400000019779   111112062022/12/17  1503202400000000005921300000 02N241020220000000000000000000000000000000000000000000000000000000000000000000000000000002062022/12               00020000900198471441
0010001300356Q 011000011200667786KARLA CAMPOS CONCEICAO                  RUA 2 KM 15                             TRAVESSAO      28000001CAMPOS DOS GOYTRJ0000000000000000                                        00030597400000019779   12345678
0010001300357R 01000000000000000000000000000000000000000000000000000000000000000000000000                                                                                          000000000000000000000000000000000000 000000000000  0000000000
0010001300358P 010000510000002827271 30597400000019780   111112062022/12/18  1504202400000000005921300000 02N241020220000000000000000000000000000000000000000000000000000000000000000000000000000002062022/12               00020000900198471441
0010001300359Q 011000011200667786KARLA CAMPOS CONCEICAO                  RUA 2 KM 15                             TRAVESSAO      28000001CAMPOS DOS GOYTRJ0000000000000000                                        00030597400000019780   12345678
0010001300360R 01000000000000000000000000000000000000000000000000000000000000000000000000                                                                                          000000000000000000000000000000000000 000000000000  0000000000
0010001300361P 010000510000002827271 30597400000019799   111112072022/12/01  1511202200000000005921300000 02N241020220000000000000000000000000000000000000000000000000000000000000000000000000000002072022/12               00020000900198471441
0010001300362Q 011000020102054720EVANILDO FRANCA                         RUA JOAQUIM DA TAVOLA, 19               CENTRO         28010060CAMPOS DOS GOYTRJ0000000000000000                                        00030597400000019799   12345678
0010001300363R 01000000000000000000000000000000000000000000000000000000000000000000000000                                                                                          000000000000000000000000000000000000 000000000000  0000000000
0010001300364P 010000510000002827271 30597400000019800   111112072022/12/02  1512202200000000005921300000 02N241020220000000000000000000000000000000000000000000000000000000000000000000000000000002072022/12               00020000900198471441
0010001300365Q 011000020102054720EVANILDO FRANCA                         RUA JOAQUIM DA TAVOLA, 19               CENTRO         28010060CAMPOS DOS GOYTRJ0000000000000000                                        00030597400000019800   12345678
0010001300366R 01000000000000000000000000000000000000000000000000000000000000000000000000                                                                                          000000000000000000000000000000000000 000000000000  0000000000
0010001300367P 010000510000002827271 30597400000019801   111112072022/12/03  1501202300000000005921300000 02N241020220000000000000000000000000000000000000000000000000000000000000000000000000000002072022/12               00020000900198471441
0010001300368Q 011000020102054720EVANILDO FRANCA                         RUA JOAQUIM DA TAVOLA, 19               CENTRO         28010060CAMPOS DOS GOYTRJ0000000000000000                                        00030597400000019801   12345678
0010001300369R 01000000000000000000000000000000000000000000000000000000000000000000000000                                                                                          000000000000000000000000000000000000 000000000000  0000000000
0010001300370P 010000510000002827271 30597400000019802   111112072022/12/04  1502202300000000005921300000 02N241020220000000000000000000000000000000000000000000000000000000000000000000000000000002072022/12               00020000900198471441
0010001300371Q 011000020102054720EVANILDO FRANCA                         RUA JOAQUIM DA TAVOLA, 19               CENTRO         28010060CAMPOS DOS GOYTRJ0000000000000000                                        00030597400000019802   12345678
0010001300372R 01000000000000000000000000000000000000000000000000000000000000000000000000                                                                                          000000000000000000000000000000000000 000000000000  0000000000
0010001300373P 010000510000002827271 30597400000019803   111112072022/12/05  1503202300000000005921300000 02N241020220000000000000000000000000000000000000000000000000000000000000000000000000000002072022/12               00020000900198471441
0010001300374Q 011000020102054720EVANILDO FRANCA                         RUA JOAQUIM DA TAVOLA, 19               CENTRO         28010060CAMPOS DOS GOYTRJ0000000000000000                                        00030597400000019803   12345678
0010001300375R 01000000000000000000000000000000000000000000000000000000000000000000000000                                                                                          000000000000000000000000000000000000 000000000000  0000000000
0010001300376P 010000510000002827271 30597400000019804   111112072022/12/06  1504202300000000005921300000 02N241020220000000000000000000000000000000000000000000000000000000000000000000000000000002072022/12               00020000900198471441
0010001300377Q 011000020102054720EVANILDO FRANCA                         RUA JOAQUIM DA TAVOLA, 19               CENTRO         28010060CAMPOS DOS GOYTRJ0000000000000000                                        00030597400000019804   12345678
0010001300378R 01000000000000000000000000000000000000000000000000000000000000000000000000                                                                                          000000000000000000000000000000000000 000000000000  0000000000
0010001300379P 010000510000002827271 30597400000019805   111112072022/12/07  1505202300000000005921300000 02N241020220000000000000000000000000000000000000000000000000000000000000000000000000000002072022/12               00020000900198471441
0010001300380Q 011000020102054720EVANILDO FRANCA                         RUA JOAQUIM DA TAVOLA, 19               CENTRO         28010060CAMPOS DOS GOYTRJ0000000000000000                                        00030597400000019805   12345678
0010001300381R 01000000000000000000000000000000000000000000000000000000000000000000000000                                                                                          000000000000000000000000000000000000 000000000000  0000000000
0010001300382P 010000510000002827271 30597400000019806   111112072022/12/08  1506202300000000005921300000 02N241020220000000000000000000000000000000000000000000000000000000000000000000000000000002072022/12               00020000900198471441
0010001300383Q 011000020102054720EVANILDO FRANCA                         RUA JOAQUIM DA TAVOLA, 19               CENTRO         28010060CAMPOS DOS GOYTRJ0000000000000000                                        00030597400000019806   12345678
0010001300384R 01000000000000000000000000000000000000000000000000000000000000000000000000                                                                                          000000000000000000000000000000000000 000000000000  0000000000
0010001300385P 010000510000002827271 30597400000019807   111112072022/12/09  1507202300000000005921300000 02N241020220000000000000000000000000000000000000000000000000000000000000000000000000000002072022/12               00020000900198471441
0010001300386Q 011000020102054720EVANILDO FRANCA                         RUA JOAQUIM DA TAVOLA, 19               CENTRO         28010060CAMPOS DOS GOYTRJ0000000000000000                                        00030597400000019807   12345678
0010001300387R 01000000000000000000000000000000000000000000000000000000000000000000000000                                                                                          000000000000000000000000000000000000 000000000000  0000000000
0010001300388P 010000510000002827271 30597400000019808   111112072022/12/10  1508202300000000005921300000 02N241020220000000000000000000000000000000000000000000000000000000000000000000000000000002072022/12               00020000900198471441
0010001300389Q 011000020102054720EVANILDO FRANCA                         RUA JOAQUIM DA TAVOLA, 19               CENTRO         28010060CAMPOS DOS GOYTRJ0000000000000000                                        00030597400000019808   12345678
0010001300390R 01000000000000000000000000000000000000000000000000000000000000000000000000                                                                                          000000000000000000000000000000000000 000000000000  0000000000
0010001300391P 010000510000002827271 30597400000019809   111112072022/12/11  1509202300000000005921300000 02N241020220000000000000000000000000000000000000000000000000000000000000000000000000000002072022/12               00020000900198471441
0010001300392Q 011000020102054720EVANILDO FRANCA                         RUA JOAQUIM DA TAVOLA, 19               CENTRO         28010060CAMPOS DOS GOYTRJ0000000000000000                                        00030597400000019809   12345678
0010001300393R 01000000000000000000000000000000000000000000000000000000000000000000000000                                                                                          000000000000000000000000000000000000 000000000000  0000000000
0010001300394P 010000510000002827271 30597400000019810   111112072022/12/12  1510202300000000005921300000 02N241020220000000000000000000000000000000000000000000000000000000000000000000000000000002072022/12               00020000900198471441
0010001300395Q 011000020102054720EVANILDO FRANCA                         RUA JOAQUIM DA TAVOLA, 19               CENTRO         28010060CAMPOS DOS GOYTRJ0000000000000000                                        00030597400000019810   12345678
0010001300396R 01000000000000000000000000000000000000000000000000000000000000000000000000                                                                                          000000000000000000000000000000000000 000000000000  0000000000
0010001300397P 010000510000002827271 30597400000019811   111112072022/12/13  1511202300000000005921300000 02N241020220000000000000000000000000000000000000000000000000000000000000000000000000000002072022/12               00020000900198471441
0010001300398Q 011000020102054720EVANILDO FRANCA                         RUA JOAQUIM DA TAVOLA, 19               CENTRO         28010060CAMPOS DOS GOYTRJ0000000000000000                                        00030597400000019811   12345678
0010001300399R 01000000000000000000000000000000000000000000000000000000000000000000000000                                                                                          000000000000000000000000000000000000 000000000000  0000000000
0010001300400P 010000510000002827271 30597400000019812   111112072022/12/14  1512202300000000005921300000 02N241020220000000000000000000000000000000000000000000000000000000000000000000000000000002072022/12               00020000900198471441
0010001300401Q 011000020102054720EVANILDO FRANCA                         RUA JOAQUIM DA TAVOLA, 19               CENTRO         28010060CAMPOS DOS GOYTRJ0000000000000000                                        00030597400000019812   12345678
0010001300402R 01000000000000000000000000000000000000000000000000000000000000000000000000                                                                                          000000000000000000000000000000000000 000000000000  0000000000
0010001300403P 010000510000002827271 30597400000019813   111112072022/12/15  1501202400000000005921300000 02N241020220000000000000000000000000000000000000000000000000000000000000000000000000000002072022/12               00020000900198471441
0010001300404Q 011000020102054720EVANILDO FRANCA                         RUA JOAQUIM DA TAVOLA, 19               CENTRO         28010060CAMPOS DOS GOYTRJ0000000000000000                                        00030597400000019813   12345678
0010001300405R 01000000000000000000000000000000000000000000000000000000000000000000000000                                                                                          000000000000000000000000000000000000 000000000000  0000000000
0010001300406P 010000510000002827271 30597400000019814   111112072022/12/16  1502202400000000005921300000 02N241020220000000000000000000000000000000000000000000000000000000000000000000000000000002072022/12               00020000900198471441
0010001300407Q 011000020102054720EVANILDO FRANCA                         RUA JOAQUIM DA TAVOLA, 19               CENTRO         28010060CAMPOS DOS GOYTRJ0000000000000000                                        00030597400000019814   12345678
0010001300408R 01000000000000000000000000000000000000000000000000000000000000000000000000                                                                                          000000000000000000000000000000000000 000000000000  0000000000
0010001300409P 010000510000002827271 30597400000019815   111112072022/12/17  1503202400000000005921300000 02N241020220000000000000000000000000000000000000000000000000000000000000000000000000000002072022/12               00020000900198471441
0010001300410Q 011000020102054720EVANILDO FRANCA                         RUA JOAQUIM DA TAVOLA, 19               CENTRO         28010060CAMPOS DOS GOYTRJ0000000000000000                                        00030597400000019815   12345678
0010001300411R 01000000000000000000000000000000000000000000000000000000000000000000000000                                                                                          000000000000000000000000000000000000 000000000000  0000000000
