00100000         221545238000172                    0000510000002827271 FUNDO DE DESENVOLVIMENTO DE CABANCO DO BRASIL S.A.                    13005202209390100000008000000                                                                     
00100000         221545238000172                    0000510000002827271 FUNDO DE DESENVOLVIMENTO DE CABANCO DO BRASIL S.A.                    1

00100011R0100020 2021545238000172003059740001417019  0000510000002827271 FUNDO DE DESENVOLVIMENTO DE CA                                                                                00000281300520220000000000000000003059740        CBR30000
0010001300001P 010000510000002827271 30597400000017052   111110352022/12/01  1806202200000000004613500000 02N260520222000000000000000000001000000000000000000000000000000000000000000000000000000000352022/12               00020000900198471441
0010001300002Q 011000017988811797JHONATAN DA SILVA BARRETO               SITIO PIMENTA, LOTE 127                 RIO PRETO      28125000CMPS GOYTACAZESRJ0000000000000000                                        00030597400000017052   12345678
0010001300003R 01000000000000000000000000000000000000000000000000219062022000000000000200          FUNDECAM - Fundo de Desenvolvimento de C                                        000000000000000000000000000000000000 000000000000  0000000000
0010001300004P 010000510000002827271 30597400000017053   111110352022/12/02  1807202200000000004613500000 02N260520222000000000000000000001000000000000000000000000000000000000000000000000000000000352022/12               00020000900198471441
0010001300005Q 011000017988811797JHONATAN DA SILVA BARRETO               SITIO PIMENTA, LOTE 127                 RIO PRETO      28125000CMPS GOYTACAZESRJ0000000000000000                                        00030597400000017053   12345678
0010001300006R 01000000000000000000000000000000000000000000000000219072022000000000000200          FUNDECAM - Fundo de Desenvolvimento de C                                        000000000000000000000000000000000000 000000000000  0000000000
0010001300007P 010000510000002827271 30597400000017054   111110352022/12/03  1808202200000000004613500000 02N260520222000000000000000000001000000000000000000000000000000000000000000000000000000000352022/12               00020000900198471441
0010001300008Q 011000017988811797JHONATAN DA SILVA BARRETO               SITIO PIMENTA, LOTE 127                 RIO PRETO      28125000CMPS GOYTACAZESRJ0000000000000000                                        00030597400000017054   12345678
0010001300009R 01000000000000000000000000000000000000000000000000219082022000000000000200          FUNDECAM - Fundo de Desenvolvimento de C                                        000000000000000000000000000000000000 000000000000  0000000000
0010001300010P 010000510000002827271 30597400000017055   111110352022/12/04  1809202200000000004613500000 02N260520222000000000000000000001000000000000000000000000000000000000000000000000000000000352022/12               00020000900198471441
0010001300011Q 011000017988811797JHONATAN DA SILVA BARRETO               SITIO PIMENTA, LOTE 127                 RIO PRETO      28125000CMPS GOYTACAZESRJ0000000000000000                                        00030597400000017055   12345678
0010001300012R 01000000000000000000000000000000000000000000000000219092022000000000000200          FUNDECAM - Fundo de Desenvolvimento de C                                        000000000000000000000000000000000000 000000000000  0000000000
0010001300013P 010000510000002827271 30597400000017056   111110352022/12/05  1810202200000000004613500000 02N260520222000000000000000000001000000000000000000000000000000000000000000000000000000000352022/12               00020000900198471441
0010001300014Q 011000017988811797JHONATAN DA SILVA BARRETO               SITIO PIMENTA, LOTE 127                 RIO PRETO      28125000CMPS GOYTACAZESRJ0000000000000000                                        00030597400000017056   12345678
0010001300015R 01000000000000000000000000000000000000000000000000219102022000000000000200          FUNDECAM - Fundo de Desenvolvimento de C                                        000000000000000000000000000000000000 000000000000  0000000000
0010001300016P 010000510000002827271 30597400000017057   111110352022/12/06  1811202200000000004613500000 02N260520222000000000000000000001000000000000000000000000000000000000000000000000000000000352022/12               00020000900198471441
0010001300017Q 011000017988811797JHONATAN DA SILVA BARRETO               SITIO PIMENTA, LOTE 127                 RIO PRETO      28125000CMPS GOYTACAZESRJ0000000000000000                                        00030597400000017057   12345678
0010001300018R 01000000000000000000000000000000000000000000000000219112022000000000000200          FUNDECAM - Fundo de Desenvolvimento de C                                        000000000000000000000000000000000000 000000000000  0000000000
0010001300019P 010000510000002827271 30597400000017058   111110352022/12/07  1812202200000000004613500000 02N260520222000000000000000000001000000000000000000000000000000000000000000000000000000000352022/12               00020000900198471441
0010001300020Q 011000017988811797JHONATAN DA SILVA BARRETO               SITIO PIMENTA, LOTE 127                 RIO PRETO      28125000CMPS GOYTACAZESRJ0000000000000000                                        00030597400000017058   12345678
0010001300021R 01000000000000000000000000000000000000000000000000219122022000000000000200          FUNDECAM - Fundo de Desenvolvimento de C                                        000000000000000000000000000000000000 000000000000  0000000000
0010001300022P 010000510000002827271 30597400000017059   111110352022/12/08  1801202300000000004613500000 02N260520222000000000000000000001000000000000000000000000000000000000000000000000000000000352022/12               00020000900198471441
0010001300023Q 011000017988811797JHONATAN DA SILVA BARRETO               SITIO PIMENTA, LOTE 127                 RIO PRETO      28125000CMPS GOYTACAZESRJ0000000000000000                                        00030597400000017059   12345678
0010001300024R 01000000000000000000000000000000000000000000000000219012023000000000000200          FUNDECAM - Fundo de Desenvolvimento de C                                        000000000000000000000000000000000000 000000000000  0000000000
0010001300025P 010000510000002827271 30597400000017060   111110352022/12/09  1802202300000000004613500000 02N260520222000000000000000000001000000000000000000000000000000000000000000000000000000000352022/12               00020000900198471441
0010001300026Q 011000017988811797JHONATAN DA SILVA BARRETO               SITIO PIMENTA, LOTE 127                 RIO PRETO      28125000CMPS GOYTACAZESRJ0000000000000000                                        00030597400000017060   12345678
0010001300027R 01000000000000000000000000000000000000000000000000219022023000000000000200          FUNDECAM - Fundo de Desenvolvimento de C                                        000000000000000000000000000000000000 000000000000  0000000000
0010001300028P 010000510000002827271 30597400000017061   111110352022/12/10  1803202300000000004613500000 02N260520222000000000000000000001000000000000000000000000000000000000000000000000000000000352022/12               00020000900198471441
0010001300029Q 011000017988811797JHONATAN DA SILVA BARRETO               SITIO PIMENTA, LOTE 127                 RIO PRETO      28125000CMPS GOYTACAZESRJ0000000000000000                                        00030597400000017061   12345678
0010001300030R 01000000000000000000000000000000000000000000000000219032023000000000000200          FUNDECAM - Fundo de Desenvolvimento de C                                        000000000000000000000000000000000000 000000000000  0000000000
0010001300031P 010000510000002827271 30597400000017062   111110352022/12/11  1804202300000000004613500000 02N260520222000000000000000000001000000000000000000000000000000000000000000000000000000000352022/12               00020000900198471441
0010001300032Q 011000017988811797JHONATAN DA SILVA BARRETO               SITIO PIMENTA, LOTE 127                 RIO PRETO      28125000CMPS GOYTACAZESRJ0000000000000000                                        00030597400000017062   12345678
0010001300033R 01000000000000000000000000000000000000000000000000219042023000000000000200          FUNDECAM - Fundo de Desenvolvimento de C                                        000000000000000000000000000000000000 000000000000  0000000000
0010001300034P 010000510000002827271 30597400000017063   111110352022/12/12  1805202300000000004613500000 02N260520222000000000000000000001000000000000000000000000000000000000000000000000000000000352022/12               00020000900198471441
0010001300035Q 011000017988811797JHONATAN DA SILVA BARRETO               SITIO PIMENTA, LOTE 127                 RIO PRETO      28125000CMPS GOYTACAZESRJ0000000000000000                                        00030597400000017063   12345678
0010001300036R 01000000000000000000000000000000000000000000000000219052023000000000000200          FUNDECAM - Fundo de Desenvolvimento de C                                        000000000000000000000000000000000000 000000000000  0000000000
0010001300037P 010000510000002827271 30597400000017064   111110352022/12/13  1806202300000000004613500000 02N260520222000000000000000000001000000000000000000000000000000000000000000000000000000000352022/12               00020000900198471441
0010001300038Q 011000017988811797JHONATAN DA SILVA BARRETO               SITIO PIMENTA, LOTE 127                 RIO PRETO      28125000CMPS GOYTACAZESRJ0000000000000000                                        00030597400000017064   12345678
0010001300039R 01000000000000000000000000000000000000000000000000219062023000000000000200          FUNDECAM - Fundo de Desenvolvimento de C                                        000000000000000000000000000000000000 000000000000  0000000000
0010001300040P 010000510000002827271 30597400000017065   111110352022/12/14  1807202300000000004613500000 02N260520222000000000000000000001000000000000000000000000000000000000000000000000000000000352022/12               00020000900198471441
0010001300041Q 011000017988811797JHONATAN DA SILVA BARRETO               SITIO PIMENTA, LOTE 127                 RIO PRETO      28125000CMPS GOYTACAZESRJ0000000000000000                                        00030597400000017065   12345678
0010001300042R 01000000000000000000000000000000000000000000000000219072023000000000000200          FUNDECAM - Fundo de Desenvolvimento de C                                        000000000000000000000000000000000000 000000000000  0000000000
0010001300043P 010000510000002827271 30597400000017066   111110352022/12/15  1808202300000000004613500000 02N260520222000000000000000000001000000000000000000000000000000000000000000000000000000000352022/12               00020000900198471441
0010001300044Q 011000017988811797JHONATAN DA SILVA BARRETO               SITIO PIMENTA, LOTE 127                 RIO PRETO      28125000CMPS GOYTACAZESRJ0000000000000000                                        00030597400000017066   12345678
0010001300045R 01000000000000000000000000000000000000000000000000219082023000000000000200          FUNDECAM - Fundo de Desenvolvimento de C                                        000000000000000000000000000000000000 000000000000  0000000000
0010001300046P 010000510000002827271 30597400000017067   111110352022/12/16  1809202300000000004613500000 02N260520222000000000000000000001000000000000000000000000000000000000000000000000000000000352022/12               00020000900198471441
0010001300047Q 011000017988811797JHONATAN DA SILVA BARRETO               SITIO PIMENTA, LOTE 127                 RIO PRETO      28125000CMPS GOYTACAZESRJ0000000000000000                                        00030597400000017067   12345678
0010001300048R 01000000000000000000000000000000000000000000000000219092023000000000000200          FUNDECAM - Fundo de Desenvolvimento de C                                        000000000000000000000000000000000000 000000000000  0000000000
0010001300049P 010000510000002827271 30597400000017068   111110352022/12/17  1810202300000000004613500000 02N260520222000000000000000000001000000000000000000000000000000000000000000000000000000000352022/12               00020000900198471441
0010001300050Q 011000017988811797JHONATAN DA SILVA BARRETO               SITIO PIMENTA, LOTE 127                 RIO PRETO      28125000CMPS GOYTACAZESRJ0000000000000000                                        00030597400000017068   12345678
0010001300051R 01000000000000000000000000000000000000000000000000219102023000000000000200          FUNDECAM - Fundo de Desenvolvimento de C                                        000000000000000000000000000000000000 000000000000  0000000000
0010001300052P 010000510000002827271 30597400000017069   111110352022/12/18  1811202300000000004613500000 02N260520222000000000000000000001000000000000000000000000000000000000000000000000000000000352022/12               00020000900198471441
0010001300053Q 011000017988811797JHONATAN DA SILVA BARRETO               SITIO PIMENTA, LOTE 127                 RIO PRETO      28125000CMPS GOYTACAZESRJ0000000000000000                                        00030597400000017069   12345678
0010001300054R 01000000000000000000000000000000000000000000000000219112023000000000000200          FUNDECAM - Fundo de Desenvolvimento de C                                        000000000000000000000000000000000000 000000000000  0000000000
0010001300055P 010000510000002827271 30597400000017070   111110352022/12/19  1812202300000000004613500000 02N260520222000000000000000000001000000000000000000000000000000000000000000000000000000000352022/12               00020000900198471441
0010001300056Q 011000017988811797JHONATAN DA SILVA BARRETO               SITIO PIMENTA, LOTE 127                 RIO PRETO      28125000CMPS GOYTACAZESRJ0000000000000000                                        00030597400000017070   12345678
0010001300057R 01000000000000000000000000000000000000000000000000219122023000000000000200          FUNDECAM - Fundo de Desenvolvimento de C                                        000000000000000000000000000000000000 000000000000  0000000000
0010001300058P 010000510000002827271 30597400000017071   111110352022/12/20  1801202400000000004613500000 02N260520222000000000000000000001000000000000000000000000000000000000000000000000000000000352022/12               00020000900198471441
0010001300059Q 011000017988811797JHONATAN DA SILVA BARRETO               SITIO PIMENTA, LOTE 127                 RIO PRETO      28125000CMPS GOYTACAZESRJ0000000000000000                                        00030597400000017071   12345678
0010001300060R 01000000000000000000000000000000000000000000000000219012024000000000000200          FUNDECAM - Fundo de Desenvolvimento de C                                        000000000000000000000000000000000000 000000000000  0000000000
0010001300061P 010000510000002827271 30597400000017072   111110352022/12/21  1802202400000000004613500000 02N260520222000000000000000000001000000000000000000000000000000000000000000000000000000000352022/12               00020000900198471441
0010001300062Q 011000017988811797JHONATAN DA SILVA BARRETO               SITIO PIMENTA, LOTE 127                 RIO PRETO      28125000CMPS GOYTACAZESRJ0000000000000000                                        00030597400000017072   12345678
0010001300063R 01000000000000000000000000000000000000000000000000219022024000000000000200          FUNDECAM - Fundo de Desenvolvimento de C                                        000000000000000000000000000000000000 000000000000  0000000000
0010001300064P 010000510000002827271 30597400000017073   111110512022/15/01  1806202200000000003552800000 02N260520222000000000000000000001000000000000000000000000000000000000000000000000000000000512022/15               00020000900198471441
0010001300065Q 011000016322058746MARIA EDUARDA DOS SANTOS MENDONCA       RUA GERALDO MIRANDA, 367                JOCKEY CLUB    28020290CAMPOS DOS GOYTRJ0000000000000000                                        00030597400000017073   12345678
0010001300066R 01000000000000000000000000000000000000000000000000219062022000000000000200          FUNDECAM - Fundo de Desenvolvimento de C                                        000000000000000000000000000000000000 000000000000  0000000000
0010001300067P 010000510000002827271 30597400000017074   111110512022/15/02  1807202200000000003552800000 02N260520222000000000000000000001000000000000000000000000000000000000000000000000000000000512022/15               00020000900198471441
0010001300068Q 011000016322058746MARIA EDUARDA DOS SANTOS MENDONCA       RUA GERALDO MIRANDA, 367                JOCKEY CLUB    28020290CAMPOS DOS GOYTRJ0000000000000000                                        00030597400000017074   12345678
0010001300069R 01000000000000000000000000000000000000000000000000219072022000000000000200          FUNDECAM - Fundo de Desenvolvimento de C                                        000000000000000000000000000000000000 000000000000  0000000000
0010001300070P 010000510000002827271 30597400000017075   111110512022/15/03  1808202200000000003552800000 02N260520222000000000000000000001000000000000000000000000000000000000000000000000000000000512022/15               00020000900198471441
0010001300071Q 011000016322058746MARIA EDUARDA DOS SANTOS MENDONCA       RUA GERALDO MIRANDA, 367                JOCKEY CLUB    28020290CAMPOS DOS GOYTRJ0000000000000000                                        00030597400000017075   12345678
0010001300072R 01000000000000000000000000000000000000000000000000219082022000000000000200          FUNDECAM - Fundo de Desenvolvimento de C                                        000000000000000000000000000000000000 000000000000  0000000000
0010001300073P 010000510000002827271 30597400000017076   111110512022/15/04  1809202200000000003552800000 02N260520222000000000000000000001000000000000000000000000000000000000000000000000000000000512022/15               00020000900198471441
0010001300074Q 011000016322058746MARIA EDUARDA DOS SANTOS MENDONCA       RUA GERALDO MIRANDA, 367                JOCKEY CLUB    28020290CAMPOS DOS GOYTRJ0000000000000000                                        00030597400000017076   12345678
0010001300075R 01000000000000000000000000000000000000000000000000219092022000000000000200          FUNDECAM - Fundo de Desenvolvimento de C                                        000000000000000000000000000000000000 000000000000  0000000000
0010001300076P 010000510000002827271 30597400000017077   111110512022/15/05  1810202200000000003552800000 02N260520222000000000000000000001000000000000000000000000000000000000000000000000000000000512022/15               00020000900198471441
0010001300077Q 011000016322058746MARIA EDUARDA DOS SANTOS MENDONCA       RUA GERALDO MIRANDA, 367                JOCKEY CLUB    28020290CAMPOS DOS GOYTRJ0000000000000000                                        00030597400000017077   12345678
0010001300078R 01000000000000000000000000000000000000000000000000219102022000000000000200          FUNDECAM - Fundo de Desenvolvimento de C                                        000000000000000000000000000000000000 000000000000  0000000000
0010001300079P 010000510000002827271 30597400000017078   111110512022/15/06  1811202200000000003552800000 02N260520222000000000000000000001000000000000000000000000000000000000000000000000000000000512022/15               00020000900198471441
0010001300080Q 011000016322058746MARIA EDUARDA DOS SANTOS MENDONCA       RUA GERALDO MIRANDA, 367                JOCKEY CLUB    28020290CAMPOS DOS GOYTRJ0000000000000000                                        00030597400000017078   12345678
0010001300081R 01000000000000000000000000000000000000000000000000219112022000000000000200          FUNDECAM - Fundo de Desenvolvimento de C                                        000000000000000000000000000000000000 000000000000  0000000000
0010001300082P 010000510000002827271 30597400000017079   111110512022/15/07  1812202200000000003552800000 02N260520222000000000000000000001000000000000000000000000000000000000000000000000000000000512022/15               00020000900198471441
0010001300083Q 011000016322058746MARIA EDUARDA DOS SANTOS MENDONCA       RUA GERALDO MIRANDA, 367                JOCKEY CLUB    28020290CAMPOS DOS GOYTRJ0000000000000000                                        00030597400000017079   12345678
0010001300084R 01000000000000000000000000000000000000000000000000219122022000000000000200          FUNDECAM - Fundo de Desenvolvimento de C                                        000000000000000000000000000000000000 000000000000  0000000000
0010001300085P 010000510000002827271 30597400000017080   111110512022/15/08  1801202300000000003552800000 02N260520222000000000000000000001000000000000000000000000000000000000000000000000000000000512022/15               00020000900198471441
0010001300086Q 011000016322058746MARIA EDUARDA DOS SANTOS MENDONCA       RUA GERALDO MIRANDA, 367                JOCKEY CLUB    28020290CAMPOS DOS GOYTRJ0000000000000000                                        00030597400000017080   12345678
0010001300087R 01000000000000000000000000000000000000000000000000219012023000000000000200          FUNDECAM - Fundo de Desenvolvimento de C                                        000000000000000000000000000000000000 000000000000  0000000000
0010001300088P 010000510000002827271 30597400000017081   111110512022/15/09  1802202300000000003552800000 02N260520222000000000000000000001000000000000000000000000000000000000000000000000000000000512022/15               00020000900198471441
0010001300089Q 011000016322058746MARIA EDUARDA DOS SANTOS MENDONCA       RUA GERALDO MIRANDA, 367                JOCKEY CLUB    28020290CAMPOS DOS GOYTRJ0000000000000000                                        00030597400000017081   12345678
0010001300090R 01000000000000000000000000000000000000000000000000219022023000000000000200          FUNDECAM - Fundo de Desenvolvimento de C                                        000000000000000000000000000000000000 000000000000  0000000000
0010001300091P 010000510000002827271 30597400000017082   111110512022/15/10  1803202300000000003552800000 02N260520222000000000000000000001000000000000000000000000000000000000000000000000000000000512022/15               00020000900198471441
0010001300092Q 011000016322058746MARIA EDUARDA DOS SANTOS MENDONCA       RUA GERALDO MIRANDA, 367                JOCKEY CLUB    28020290CAMPOS DOS GOYTRJ0000000000000000                                        00030597400000017082   12345678
0010001300093R 01000000000000000000000000000000000000000000000000219032023000000000000200          FUNDECAM - Fundo de Desenvolvimento de C                                        000000000000000000000000000000000000 000000000000  0000000000
0010001300094P 010000510000002827271 30597400000017083   111110512022/15/11  1804202300000000003552800000 02N260520222000000000000000000001000000000000000000000000000000000000000000000000000000000512022/15               00020000900198471441
0010001300095Q 011000016322058746MARIA EDUARDA DOS SANTOS MENDONCA       RUA GERALDO MIRANDA, 367                JOCKEY CLUB    28020290CAMPOS DOS GOYTRJ0000000000000000                                        00030597400000017083   12345678
0010001300096R 01000000000000000000000000000000000000000000000000219042023000000000000200          FUNDECAM - Fundo de Desenvolvimento de C                                        000000000000000000000000000000000000 000000000000  0000000000
0010001300097P 010000510000002827271 30597400000017084   111110512022/15/12  1805202300000000003552800000 02N260520222000000000000000000001000000000000000000000000000000000000000000000000000000000512022/15               00020000900198471441
0010001300098Q 011000016322058746MARIA EDUARDA DOS SANTOS MENDONCA       RUA GERALDO MIRANDA, 367                JOCKEY CLUB    28020290CAMPOS DOS GOYTRJ0000000000000000                                        00030597400000017084   12345678
0010001300099R 01000000000000000000000000000000000000000000000000219052023000000000000200          FUNDECAM - Fundo de Desenvolvimento de C                                        000000000000000000000000000000000000 000000000000  0000000000
0010001300100P 010000510000002827271 30597400000017085   111110512022/15/13  1806202300000000003552800000 02N260520222000000000000000000001000000000000000000000000000000000000000000000000000000000512022/15               00020000900198471441
0010001300101Q 011000016322058746MARIA EDUARDA DOS SANTOS MENDONCA       RUA GERALDO MIRANDA, 367                JOCKEY CLUB    28020290CAMPOS DOS GOYTRJ0000000000000000                                        00030597400000017085   12345678
0010001300102R 01000000000000000000000000000000000000000000000000219062023000000000000200          FUNDECAM - Fundo de Desenvolvimento de C                                        000000000000000000000000000000000000 000000000000  0000000000
0010001300103P 010000510000002827271 30597400000017086   111110512022/15/14  1807202300000000003552800000 02N260520222000000000000000000001000000000000000000000000000000000000000000000000000000000512022/15               00020000900198471441
0010001300104Q 011000016322058746MARIA EDUARDA DOS SANTOS MENDONCA       RUA GERALDO MIRANDA, 367                JOCKEY CLUB    28020290CAMPOS DOS GOYTRJ0000000000000000                                        00030597400000017086   12345678
0010001300105R 01000000000000000000000000000000000000000000000000219072023000000000000200          FUNDECAM - Fundo de Desenvolvimento de C                                        000000000000000000000000000000000000 000000000000  0000000000
0010001300106P 010000510000002827271 30597400000017087   111110512022/15/15  1808202300000000003552800000 02N260520222000000000000000000001000000000000000000000000000000000000000000000000000000000512022/15               00020000900198471441
0010001300107Q 011000016322058746MARIA EDUARDA DOS SANTOS MENDONCA       RUA GERALDO MIRANDA, 367                JOCKEY CLUB    28020290CAMPOS DOS GOYTRJ0000000000000000                                        00030597400000017087   12345678
0010001300108R 01000000000000000000000000000000000000000000000000219082023000000000000200          FUNDECAM - Fundo de Desenvolvimento de C                                        000000000000000000000000000000000000 000000000000  0000000000
0010001300109P 010000510000002827271 30597400000017088   111110512022/15/16  1809202300000000003552800000 02N260520222000000000000000000001000000000000000000000000000000000000000000000000000000000512022/15               00020000900198471441
0010001300110Q 011000016322058746MARIA EDUARDA DOS SANTOS MENDONCA       RUA GERALDO MIRANDA, 367                JOCKEY CLUB    28020290CAMPOS DOS GOYTRJ0000000000000000                                        00030597400000017088   12345678
0010001300111R 01000000000000000000000000000000000000000000000000219092023000000000000200          FUNDECAM - Fundo de Desenvolvimento de C                                        000000000000000000000000000000000000 000000000000  0000000000
0010001300112P 010000510000002827271 30597400000017089   111110512022/15/17  1810202300000000003552800000 02N260520222000000000000000000001000000000000000000000000000000000000000000000000000000000512022/15               00020000900198471441
0010001300113Q 011000016322058746MARIA EDUARDA DOS SANTOS MENDONCA       RUA GERALDO MIRANDA, 367                JOCKEY CLUB    28020290CAMPOS DOS GOYTRJ0000000000000000                                        00030597400000017089   12345678
0010001300114R 01000000000000000000000000000000000000000000000000219102023000000000000200          FUNDECAM - Fundo de Desenvolvimento de C                                        000000000000000000000000000000000000 000000000000  0000000000
0010001300115P 010000510000002827271 30597400000017090   111110512022/15/18  1811202300000000003552800000 02N260520222000000000000000000001000000000000000000000000000000000000000000000000000000000512022/15               00020000900198471441
0010001300116Q 011000016322058746MARIA EDUARDA DOS SANTOS MENDONCA       RUA GERALDO MIRANDA, 367                JOCKEY CLUB    28020290CAMPOS DOS GOYTRJ0000000000000000                                        00030597400000017090   12345678
0010001300117R 01000000000000000000000000000000000000000000000000219112023000000000000200          FUNDECAM - Fundo de Desenvolvimento de C                                        000000000000000000000000000000000000 000000000000  0000000000
0010001300118P 010000510000002827271 30597400000017130   111110522022/16/01  1806202200000000005921300000 02N260520222000000000000000000001000000000000000000000000000000000000000000000000000000000522022/16               00020000900198471441
0010001300119Q 011000011910071706LUCAS SOARES DE CARVALHO                RUA RAIMUNDO DE FARIAS BRITO, 177       P RODOVIARIO   28030350CMPS GOYTACAZESRJ0000000000000000                                        00030597400000017130   12345678
0010001300120R 01000000000000000000000000000000000000000000000000219062022000000000000200          FUNDECAM - Fundo de Desenvolvimento de C                                        000000000000000000000000000000000000 000000000000  0000000000
0010001300121P 010000510000002827271 30597400000017131   111110522022/16/02  1807202200000000005921300000 02N260520222000000000000000000001000000000000000000000000000000000000000000000000000000000522022/16               00020000900198471441
0010001300122Q 011000011910071706LUCAS SOARES DE CARVALHO                RUA RAIMUNDO DE FARIAS BRITO, 177       P RODOVIARIO   28030350CMPS GOYTACAZESRJ0000000000000000                                        00030597400000017131   12345678
0010001300123R 01000000000000000000000000000000000000000000000000219072022000000000000200          FUNDECAM - Fundo de Desenvolvimento de C                                        000000000000000000000000000000000000 000000000000  0000000000
0010001300124P 010000510000002827271 30597400000017132   111110522022/16/03  1808202200000000005921300000 02N260520222000000000000000000001000000000000000000000000000000000000000000000000000000000522022/16               00020000900198471441
0010001300125Q 011000011910071706LUCAS SOARES DE CARVALHO                RUA RAIMUNDO DE FARIAS BRITO, 177       P RODOVIARIO   28030350CMPS GOYTACAZESRJ0000000000000000                                        00030597400000017132   12345678
0010001300126R 01000000000000000000000000000000000000000000000000219082022000000000000200          FUNDECAM - Fundo de Desenvolvimento de C                                        000000000000000000000000000000000000 000000000000  0000000000
0010001300127P 010000510000002827271 30597400000017133   111110522022/16/04  1809202200000000005921300000 02N260520222000000000000000000001000000000000000000000000000000000000000000000000000000000522022/16               00020000900198471441
0010001300128Q 011000011910071706LUCAS SOARES DE CARVALHO                RUA RAIMUNDO DE FARIAS BRITO, 177       P RODOVIARIO   28030350CMPS GOYTACAZESRJ0000000000000000                                        00030597400000017133   12345678
0010001300129R 01000000000000000000000000000000000000000000000000219092022000000000000200          FUNDECAM - Fundo de Desenvolvimento de C                                        000000000000000000000000000000000000 000000000000  0000000000
0010001300130P 010000510000002827271 30597400000017134   111110522022/16/05  1810202200000000005921300000 02N260520222000000000000000000001000000000000000000000000000000000000000000000000000000000522022/16               00020000900198471441
0010001300131Q 011000011910071706LUCAS SOARES DE CARVALHO                RUA RAIMUNDO DE FARIAS BRITO, 177       P RODOVIARIO   28030350CMPS GOYTACAZESRJ0000000000000000                                        00030597400000017134   12345678
0010001300132R 01000000000000000000000000000000000000000000000000219102022000000000000200          FUNDECAM - Fundo de Desenvolvimento de C                                        000000000000000000000000000000000000 000000000000  0000000000
0010001300133P 010000510000002827271 30597400000017135   111110522022/16/06  1811202200000000005921300000 02N260520222000000000000000000001000000000000000000000000000000000000000000000000000000000522022/16               00020000900198471441
0010001300134Q 011000011910071706LUCAS SOARES DE CARVALHO                RUA RAIMUNDO DE FARIAS BRITO, 177       P RODOVIARIO   28030350CMPS GOYTACAZESRJ0000000000000000                                        00030597400000017135   12345678
0010001300135R 01000000000000000000000000000000000000000000000000219112022000000000000200          FUNDECAM - Fundo de Desenvolvimento de C                                        000000000000000000000000000000000000 000000000000  0000000000
0010001300136P 010000510000002827271 30597400000017136   111110522022/16/07  1812202200000000005921300000 02N260520222000000000000000000001000000000000000000000000000000000000000000000000000000000522022/16               00020000900198471441
0010001300137Q 011000011910071706LUCAS SOARES DE CARVALHO                RUA RAIMUNDO DE FARIAS BRITO, 177       P RODOVIARIO   28030350CMPS GOYTACAZESRJ0000000000000000                                        00030597400000017136   12345678
0010001300138R 01000000000000000000000000000000000000000000000000219122022000000000000200          FUNDECAM - Fundo de Desenvolvimento de C                                        000000000000000000000000000000000000 000000000000  0000000000
0010001300139P 010000510000002827271 30597400000017137   111110522022/16/08  1801202300000000005921300000 02N260520222000000000000000000001000000000000000000000000000000000000000000000000000000000522022/16               00020000900198471441
0010001300140Q 011000011910071706LUCAS SOARES DE CARVALHO                RUA RAIMUNDO DE FARIAS BRITO, 177       P RODOVIARIO   28030350CMPS GOYTACAZESRJ0000000000000000                                        00030597400000017137   12345678
0010001300141R 01000000000000000000000000000000000000000000000000219012023000000000000200          FUNDECAM - Fundo de Desenvolvimento de C                                        000000000000000000000000000000000000 000000000000  0000000000
0010001300142P 010000510000002827271 30597400000017138   111110522022/16/09  1802202300000000005921300000 02N260520222000000000000000000001000000000000000000000000000000000000000000000000000000000522022/16               00020000900198471441
0010001300143Q 011000011910071706LUCAS SOARES DE CARVALHO                RUA RAIMUNDO DE FARIAS BRITO, 177       P RODOVIARIO   28030350CMPS GOYTACAZESRJ0000000000000000                                        00030597400000017138   12345678
0010001300144R 01000000000000000000000000000000000000000000000000219022023000000000000200          FUNDECAM - Fundo de Desenvolvimento de C                                        000000000000000000000000000000000000 000000000000  0000000000
0010001300145P 010000510000002827271 30597400000017139   111110522022/16/10  1803202300000000005921300000 02N260520222000000000000000000001000000000000000000000000000000000000000000000000000000000522022/16               00020000900198471441
0010001300146Q 011000011910071706LUCAS SOARES DE CARVALHO                RUA RAIMUNDO DE FARIAS BRITO, 177       P RODOVIARIO   28030350CMPS GOYTACAZESRJ0000000000000000                                        00030597400000017139   12345678
0010001300147R 01000000000000000000000000000000000000000000000000219032023000000000000200          FUNDECAM - Fundo de Desenvolvimento de C                                        000000000000000000000000000000000000 000000000000  0000000000
0010001300148P 010000510000002827271 30597400000017140   111110522022/16/11  1804202300000000005921300000 02N260520222000000000000000000001000000000000000000000000000000000000000000000000000000000522022/16               00020000900198471441
0010001300149Q 011000011910071706LUCAS SOARES DE CARVALHO                RUA RAIMUNDO DE FARIAS BRITO, 177       P RODOVIARIO   28030350CMPS GOYTACAZESRJ0000000000000000                                        00030597400000017140   12345678
0010001300150R 01000000000000000000000000000000000000000000000000219042023000000000000200          FUNDECAM - Fundo de Desenvolvimento de C                                        000000000000000000000000000000000000 000000000000  0000000000
0010001300151P 010000510000002827271 30597400000017141   111110522022/16/12  1805202300000000005921300000 02N260520222000000000000000000001000000000000000000000000000000000000000000000000000000000522022/16               00020000900198471441
0010001300152Q 011000011910071706LUCAS SOARES DE CARVALHO                RUA RAIMUNDO DE FARIAS BRITO, 177       P RODOVIARIO   28030350CMPS GOYTACAZESRJ0000000000000000                                        00030597400000017141   12345678
0010001300153R 01000000000000000000000000000000000000000000000000219052023000000000000200          FUNDECAM - Fundo de Desenvolvimento de C                                        000000000000000000000000000000000000 000000000000  0000000000
0010001300154P 010000510000002827271 30597400000017142   111110522022/16/13  1806202300000000005921300000 02N260520222000000000000000000001000000000000000000000000000000000000000000000000000000000522022/16               00020000900198471441
0010001300155Q 011000011910071706LUCAS SOARES DE CARVALHO                RUA RAIMUNDO DE FARIAS BRITO, 177       P RODOVIARIO   28030350CMPS GOYTACAZESRJ0000000000000000                                        00030597400000017142   12345678
0010001300156R 01000000000000000000000000000000000000000000000000219062023000000000000200          FUNDECAM - Fundo de Desenvolvimento de C                                        000000000000000000000000000000000000 000000000000  0000000000
0010001300157P 010000510000002827271 30597400000017143   111110522022/16/14  1807202300000000005921300000 02N260520222000000000000000000001000000000000000000000000000000000000000000000000000000000522022/16               00020000900198471441
0010001300158Q 011000011910071706LUCAS SOARES DE CARVALHO                RUA RAIMUNDO DE FARIAS BRITO, 177       P RODOVIARIO   28030350CMPS GOYTACAZESRJ0000000000000000                                        00030597400000017143   12345678
0010001300159R 01000000000000000000000000000000000000000000000000219072023000000000000200          FUNDECAM - Fundo de Desenvolvimento de C                                        000000000000000000000000000000000000 000000000000  0000000000
0010001300160P 010000510000002827271 30597400000017144   111110522022/16/15  1808202300000000005921300000 02N260520222000000000000000000001000000000000000000000000000000000000000000000000000000000522022/16               00020000900198471441
0010001300161Q 011000011910071706LUCAS SOARES DE CARVALHO                RUA RAIMUNDO DE FARIAS BRITO, 177       P RODOVIARIO   28030350CMPS GOYTACAZESRJ0000000000000000                                        00030597400000017144   12345678
0010001300162R 01000000000000000000000000000000000000000000000000219082023000000000000200          FUNDECAM - Fundo de Desenvolvimento de C                                        000000000000000000000000000000000000 000000000000  0000000000
0010001300163P 010000510000002827271 30597400000017145   111110522022/16/16  1809202300000000005921300000 02N260520222000000000000000000001000000000000000000000000000000000000000000000000000000000522022/16               00020000900198471441
0010001300164Q 011000011910071706LUCAS SOARES DE CARVALHO                RUA RAIMUNDO DE FARIAS BRITO, 177       P RODOVIARIO   28030350CMPS GOYTACAZESRJ0000000000000000                                        00030597400000017145   12345678
0010001300165R 01000000000000000000000000000000000000000000000000219092023000000000000200          FUNDECAM - Fundo de Desenvolvimento de C                                        000000000000000000000000000000000000 000000000000  0000000000
0010001300166P 010000510000002827271 30597400000017146   111110522022/16/17  1810202300000000005921300000 02N260520222000000000000000000001000000000000000000000000000000000000000000000000000000000522022/16               00020000900198471441
0010001300167Q 011000011910071706LUCAS SOARES DE CARVALHO                RUA RAIMUNDO DE FARIAS BRITO, 177       P RODOVIARIO   28030350CMPS GOYTACAZESRJ0000000000000000                                        00030597400000017146   12345678
0010001300168R 01000000000000000000000000000000000000000000000000219102023000000000000200          FUNDECAM - Fundo de Desenvolvimento de C                                        000000000000000000000000000000000000 000000000000  0000000000
0010001300169P 010000510000002827271 30597400000017147   111110522022/16/18  1811202300000000005921300000 02N260520222000000000000000000001000000000000000000000000000000000000000000000000000000000522022/16               00020000900198471441
0010001300170Q 011000011910071706LUCAS SOARES DE CARVALHO                RUA RAIMUNDO DE FARIAS BRITO, 177       P RODOVIARIO   28030350CMPS GOYTACAZESRJ0000000000000000                                        00030597400000017147   12345678
0010001300171R 01000000000000000000000000000000000000000000000000219112023000000000000200          FUNDECAM - Fundo de Desenvolvimento de C                                        000000000000000000000000000000000000 000000000000  0000000000
0010001300172P 010000510000002827271 30597400000016998   111110532022/16/01  1806202200000000005921300000 02N260520222000000000000000000001000000000000000000000000000000000000000000000000000000000532022/16               00020000900198471441
0010001300173Q 011000003075787710CLAUDIA MENDONCA RODRIGUES              RUA LUIZ GONZAGA DE ANDRADE, 192        PQ IMPERIAL    28022670CAMPOS DOS GOYTRJ0000000000000000                                        00030597400000016998   12345678
0010001300174R 01000000000000000000000000000000000000000000000000219062022000000000000200          FUNDECAM - Fundo de Desenvolvimento de C                                        000000000000000000000000000000000000 000000000000  0000000000
0010001300175P 010000510000002827271 30597400000016999   111110532022/16/02  1807202200000000005921300000 02N260520222000000000000000000001000000000000000000000000000000000000000000000000000000000532022/16               00020000900198471441
0010001300176Q 011000003075787710CLAUDIA MENDONCA RODRIGUES              RUA LUIZ GONZAGA DE ANDRADE, 192        PQ IMPERIAL    28022670CAMPOS DOS GOYTRJ0000000000000000                                        00030597400000016999   12345678
0010001300177R 01000000000000000000000000000000000000000000000000219072022000000000000200          FUNDECAM - Fundo de Desenvolvimento de C                                        000000000000000000000000000000000000 000000000000  0000000000
0010001300178P 010000510000002827271 30597400000017000   111110532022/16/03  1808202200000000005921300000 02N260520222000000000000000000001000000000000000000000000000000000000000000000000000000000532022/16               00020000900198471441
0010001300179Q 011000003075787710CLAUDIA MENDONCA RODRIGUES              RUA LUIZ GONZAGA DE ANDRADE, 192        PQ IMPERIAL    28022670CAMPOS DOS GOYTRJ0000000000000000                                        00030597400000017000   12345678
0010001300180R 01000000000000000000000000000000000000000000000000219082022000000000000200          FUNDECAM - Fundo de Desenvolvimento de C                                        000000000000000000000000000000000000 000000000000  0000000000
0010001300181P 010000510000002827271 30597400000017001   111110532022/16/04  1809202200000000005921300000 02N260520222000000000000000000001000000000000000000000000000000000000000000000000000000000532022/16               00020000900198471441
0010001300182Q 011000003075787710CLAUDIA MENDONCA RODRIGUES              RUA LUIZ GONZAGA DE ANDRADE, 192        PQ IMPERIAL    28022670CAMPOS DOS GOYTRJ0000000000000000                                        00030597400000017001   12345678
0010001300183R 01000000000000000000000000000000000000000000000000219092022000000000000200          FUNDECAM - Fundo de Desenvolvimento de C                                        000000000000000000000000000000000000 000000000000  0000000000
0010001300184P 010000510000002827271 30597400000017002   111110532022/16/05  1810202200000000005921300000 02N260520222000000000000000000001000000000000000000000000000000000000000000000000000000000532022/16               00020000900198471441
0010001300185Q 011000003075787710CLAUDIA MENDONCA RODRIGUES              RUA LUIZ GONZAGA DE ANDRADE, 192        PQ IMPERIAL    28022670CAMPOS DOS GOYTRJ0000000000000000                                        00030597400000017002   12345678
0010001300186R 01000000000000000000000000000000000000000000000000219102022000000000000200          FUNDECAM - Fundo de Desenvolvimento de C                                        000000000000000000000000000000000000 000000000000  0000000000
0010001300187P 010000510000002827271 30597400000017003   111110532022/16/06  1811202200000000005921300000 02N260520222000000000000000000001000000000000000000000000000000000000000000000000000000000532022/16               00020000900198471441
0010001300188Q 011000003075787710CLAUDIA MENDONCA RODRIGUES              RUA LUIZ GONZAGA DE ANDRADE, 192        PQ IMPERIAL    28022670CAMPOS DOS GOYTRJ0000000000000000                                        00030597400000017003   12345678
0010001300189R 01000000000000000000000000000000000000000000000000219112022000000000000200          FUNDECAM - Fundo de Desenvolvimento de C                                        000000000000000000000000000000000000 000000000000  0000000000
0010001300190P 010000510000002827271 30597400000017004   111110532022/16/07  1812202200000000005921300000 02N260520222000000000000000000001000000000000000000000000000000000000000000000000000000000532022/16               00020000900198471441
0010001300191Q 011000003075787710CLAUDIA MENDONCA RODRIGUES              RUA LUIZ GONZAGA DE ANDRADE, 192        PQ IMPERIAL    28022670CAMPOS DOS GOYTRJ0000000000000000                                        00030597400000017004   12345678
0010001300192R 01000000000000000000000000000000000000000000000000219122022000000000000200          FUNDECAM - Fundo de Desenvolvimento de C                                        000000000000000000000000000000000000 000000000000  0000000000
0010001300193P 010000510000002827271 30597400000017005   111110532022/16/08  1801202300000000005921300000 02N260520222000000000000000000001000000000000000000000000000000000000000000000000000000000532022/16               00020000900198471441
0010001300194Q 011000003075787710CLAUDIA MENDONCA RODRIGUES              RUA LUIZ GONZAGA DE ANDRADE, 192        PQ IMPERIAL    28022670CAMPOS DOS GOYTRJ0000000000000000                                        00030597400000017005   12345678
0010001300195R 01000000000000000000000000000000000000000000000000219012023000000000000200          FUNDECAM - Fundo de Desenvolvimento de C                                        000000000000000000000000000000000000 000000000000  0000000000
0010001300196P 010000510000002827271 30597400000017006   111110532022/16/09  1802202300000000005921300000 02N260520222000000000000000000001000000000000000000000000000000000000000000000000000000000532022/16               00020000900198471441
0010001300197Q 011000003075787710CLAUDIA MENDONCA RODRIGUES              RUA LUIZ GONZAGA DE ANDRADE, 192        PQ IMPERIAL    28022670CAMPOS DOS GOYTRJ0000000000000000                                        00030597400000017006   12345678
0010001300198R 01000000000000000000000000000000000000000000000000219022023000000000000200          FUNDECAM - Fundo de Desenvolvimento de C                                        000000000000000000000000000000000000 000000000000  0000000000
0010001300199P 010000510000002827271 30597400000017007   111110532022/16/10  1803202300000000005921300000 02N260520222000000000000000000001000000000000000000000000000000000000000000000000000000000532022/16               00020000900198471441
0010001300200Q 011000003075787710CLAUDIA MENDONCA RODRIGUES              RUA LUIZ GONZAGA DE ANDRADE, 192        PQ IMPERIAL    28022670CAMPOS DOS GOYTRJ0000000000000000                                        00030597400000017007   12345678
0010001300201R 01000000000000000000000000000000000000000000000000219032023000000000000200          FUNDECAM - Fundo de Desenvolvimento de C                                        000000000000000000000000000000000000 000000000000  0000000000
0010001300202P 010000510000002827271 30597400000017008   111110532022/16/11  1804202300000000005921300000 02N260520222000000000000000000001000000000000000000000000000000000000000000000000000000000532022/16               00020000900198471441
0010001300203Q 011000003075787710CLAUDIA MENDONCA RODRIGUES              RUA LUIZ GONZAGA DE ANDRADE, 192        PQ IMPERIAL    28022670CAMPOS DOS GOYTRJ0000000000000000                                        00030597400000017008   12345678
0010001300204R 01000000000000000000000000000000000000000000000000219042023000000000000200          FUNDECAM - Fundo de Desenvolvimento de C                                        000000000000000000000000000000000000 000000000000  0000000000
0010001300205P 010000510000002827271 30597400000017009   111110532022/16/12  1805202300000000005921300000 02N260520222000000000000000000001000000000000000000000000000000000000000000000000000000000532022/16               00020000900198471441
0010001300206Q 011000003075787710CLAUDIA MENDONCA RODRIGUES              RUA LUIZ GONZAGA DE ANDRADE, 192        PQ IMPERIAL    28022670CAMPOS DOS GOYTRJ0000000000000000                                        00030597400000017009   12345678
0010001300207R 01000000000000000000000000000000000000000000000000219052023000000000000200          FUNDECAM - Fundo de Desenvolvimento de C                                        000000000000000000000000000000000000 000000000000  0000000000
0010001300208P 010000510000002827271 30597400000017010   111110532022/16/13  1806202300000000005921300000 02N260520222000000000000000000001000000000000000000000000000000000000000000000000000000000532022/16               00020000900198471441
0010001300209Q 011000003075787710CLAUDIA MENDONCA RODRIGUES              RUA LUIZ GONZAGA DE ANDRADE, 192        PQ IMPERIAL    28022670CAMPOS DOS GOYTRJ0000000000000000                                        00030597400000017010   12345678
0010001300210R 01000000000000000000000000000000000000000000000000219062023000000000000200          FUNDECAM - Fundo de Desenvolvimento de C                                        000000000000000000000000000000000000 000000000000  0000000000
0010001300211P 010000510000002827271 30597400000017011   111110532022/16/14  1807202300000000005921300000 02N260520222000000000000000000001000000000000000000000000000000000000000000000000000000000532022/16               00020000900198471441
0010001300212Q 011000003075787710CLAUDIA MENDONCA RODRIGUES              RUA LUIZ GONZAGA DE ANDRADE, 192        PQ IMPERIAL    28022670CAMPOS DOS GOYTRJ0000000000000000                                        00030597400000017011   12345678
0010001300213R 01000000000000000000000000000000000000000000000000219072023000000000000200          FUNDECAM - Fundo de Desenvolvimento de C                                        000000000000000000000000000000000000 000000000000  0000000000
0010001300214P 010000510000002827271 30597400000017012   111110532022/16/15  1808202300000000005921300000 02N260520222000000000000000000001000000000000000000000000000000000000000000000000000000000532022/16               00020000900198471441
0010001300215Q 011000003075787710CLAUDIA MENDONCA RODRIGUES              RUA LUIZ GONZAGA DE ANDRADE, 192        PQ IMPERIAL    28022670CAMPOS DOS GOYTRJ0000000000000000                                        00030597400000017012   12345678
0010001300216R 01000000000000000000000000000000000000000000000000219082023000000000000200          FUNDECAM - Fundo de Desenvolvimento de C                                        000000000000000000000000000000000000 000000000000  0000000000
0010001300217P 010000510000002827271 30597400000017013   111110532022/16/16  1809202300000000005921300000 02N260520222000000000000000000001000000000000000000000000000000000000000000000000000000000532022/16               00020000900198471441
0010001300218Q 011000003075787710CLAUDIA MENDONCA RODRIGUES              RUA LUIZ GONZAGA DE ANDRADE, 192        PQ IMPERIAL    28022670CAMPOS DOS GOYTRJ0000000000000000                                        00030597400000017013   12345678
0010001300219R 01000000000000000000000000000000000000000000000000219092023000000000000200          FUNDECAM - Fundo de Desenvolvimento de C                                        000000000000000000000000000000000000 000000000000  0000000000
0010001300220P 010000510000002827271 30597400000017014   111110532022/16/17  1810202300000000005921300000 02N260520222000000000000000000001000000000000000000000000000000000000000000000000000000000532022/16               00020000900198471441
0010001300221Q 011000003075787710CLAUDIA MENDONCA RODRIGUES              RUA LUIZ GONZAGA DE ANDRADE, 192        PQ IMPERIAL    28022670CAMPOS DOS GOYTRJ0000000000000000                                        00030597400000017014   12345678
0010001300222R 01000000000000000000000000000000000000000000000000219102023000000000000200          FUNDECAM - Fundo de Desenvolvimento de C                                        000000000000000000000000000000000000 000000000000  0000000000
0010001300223P 010000510000002827271 30597400000017015   111110532022/16/18  1811202300000000005921300000 02N260520222000000000000000000001000000000000000000000000000000000000000000000000000000000532022/16               00020000900198471441
0010001300224Q 011000003075787710CLAUDIA MENDONCA RODRIGUES              RUA LUIZ GONZAGA DE ANDRADE, 192        PQ IMPERIAL    28022670CAMPOS DOS GOYTRJ0000000000000000                                        00030597400000017015   12345678
0010001300225R 01000000000000000000000000000000000000000000000000219112023000000000000200          FUNDECAM - Fundo de Desenvolvimento de C                                        000000000000000000000000000000000000 000000000000  0000000000
0010001300226P 010000510000002827271 30597400000017166   111110542022/15/01  1806202200000000005921300000 02N260520222000000000000000000001000000000000000000000000000000000000000000000000000000000542022/15               00020000900198471441
0010001300227Q 011000008044977708ADRIANA AZEREDO PESSANHA                TRAV. SAO MARCOS, 50                    PQ GUARUS      28060207CAMPOS DOS GOYTRJ0000000000000000                                        00030597400000017166   12345678
0010001300228R 01000000000000000000000000000000000000000000000000219062022000000000000200          FUNDECAM - Fundo de Desenvolvimento de C                                        000000000000000000000000000000000000 000000000000  0000000000
0010001300229P 010000510000002827271 30597400000017167   111110542022/15/02  1807202200000000005921300000 02N260520222000000000000000000001000000000000000000000000000000000000000000000000000000000542022/15               00020000900198471441
0010001300230Q 011000008044977708ADRIANA AZEREDO PESSANHA                TRAV. SAO MARCOS, 50                    PQ GUARUS      28060207CAMPOS DOS GOYTRJ0000000000000000                                        00030597400000017167   12345678
0010001300231R 01000000000000000000000000000000000000000000000000219072022000000000000200          FUNDECAM - Fundo de Desenvolvimento de C                                        000000000000000000000000000000000000 000000000000  0000000000
0010001300232P 010000510000002827271 30597400000017168   111110542022/15/03  1808202200000000005921300000 02N260520222000000000000000000001000000000000000000000000000000000000000000000000000000000542022/15               00020000900198471441
0010001300233Q 011000008044977708ADRIANA AZEREDO PESSANHA                TRAV. SAO MARCOS, 50                    PQ GUARUS      28060207CAMPOS DOS GOYTRJ0000000000000000                                        00030597400000017168   12345678
0010001300234R 01000000000000000000000000000000000000000000000000219082022000000000000200          FUNDECAM - Fundo de Desenvolvimento de C                                        000000000000000000000000000000000000 000000000000  0000000000
0010001300235P 010000510000002827271 30597400000017169   111110542022/15/04  1809202200000000005921300000 02N260520222000000000000000000001000000000000000000000000000000000000000000000000000000000542022/15               00020000900198471441
0010001300236Q 011000008044977708ADRIANA AZEREDO PESSANHA                TRAV. SAO MARCOS, 50                    PQ GUARUS      28060207CAMPOS DOS GOYTRJ0000000000000000                                        00030597400000017169   12345678
0010001300237R 01000000000000000000000000000000000000000000000000219092022000000000000200          FUNDECAM - Fundo de Desenvolvimento de C                                        000000000000000000000000000000000000 000000000000  0000000000
0010001300238P 010000510000002827271 30597400000017170   111110542022/15/05  1810202200000000005921300000 02N260520222000000000000000000001000000000000000000000000000000000000000000000000000000000542022/15               00020000900198471441
0010001300239Q 011000008044977708ADRIANA AZEREDO PESSANHA                TRAV. SAO MARCOS, 50                    PQ GUARUS      28060207CAMPOS DOS GOYTRJ0000000000000000                                        00030597400000017170   12345678
0010001300240R 01000000000000000000000000000000000000000000000000219102022000000000000200          FUNDECAM - Fundo de Desenvolvimento de C                                        000000000000000000000000000000000000 000000000000  0000000000
0010001300241P 010000510000002827271 30597400000017171   111110542022/15/06  1811202200000000005921300000 02N260520222000000000000000000001000000000000000000000000000000000000000000000000000000000542022/15               00020000900198471441
0010001300242Q 011000008044977708ADRIANA AZEREDO PESSANHA                TRAV. SAO MARCOS, 50                    PQ GUARUS      28060207CAMPOS DOS GOYTRJ0000000000000000                                        00030597400000017171   12345678
0010001300243R 01000000000000000000000000000000000000000000000000219112022000000000000200          FUNDECAM - Fundo de Desenvolvimento de C                                        000000000000000000000000000000000000 000000000000  0000000000
0010001300244P 010000510000002827271 30597400000017172   111110542022/15/07  1812202200000000005921300000 02N260520222000000000000000000001000000000000000000000000000000000000000000000000000000000542022/15               00020000900198471441
0010001300245Q 011000008044977708ADRIANA AZEREDO PESSANHA                TRAV. SAO MARCOS, 50                    PQ GUARUS      28060207CAMPOS DOS GOYTRJ0000000000000000                                        00030597400000017172   12345678
0010001300246R 01000000000000000000000000000000000000000000000000219122022000000000000200          FUNDECAM - Fundo de Desenvolvimento de C                                        000000000000000000000000000000000000 000000000000  0000000000
0010001300247P 010000510000002827271 30597400000017173   111110542022/15/08  1801202300000000005921300000 02N260520222000000000000000000001000000000000000000000000000000000000000000000000000000000542022/15               00020000900198471441
0010001300248Q 011000008044977708ADRIANA AZEREDO PESSANHA                TRAV. SAO MARCOS, 50                    PQ GUARUS      28060207CAMPOS DOS GOYTRJ0000000000000000                                        00030597400000017173   12345678
0010001300249R 01000000000000000000000000000000000000000000000000219012023000000000000200          FUNDECAM - Fundo de Desenvolvimento de C                                        000000000000000000000000000000000000 000000000000  0000000000
0010001300250P 010000510000002827271 30597400000017174   111110542022/15/09  1802202300000000005921300000 02N260520222000000000000000000001000000000000000000000000000000000000000000000000000000000542022/15               00020000900198471441
0010001300251Q 011000008044977708ADRIANA AZEREDO PESSANHA                TRAV. SAO MARCOS, 50                    PQ GUARUS      28060207CAMPOS DOS GOYTRJ0000000000000000                                        00030597400000017174   12345678
0010001300252R 01000000000000000000000000000000000000000000000000219022023000000000000200          FUNDECAM - Fundo de Desenvolvimento de C                                        000000000000000000000000000000000000 000000000000  0000000000
0010001300253P 010000510000002827271 30597400000017175   111110542022/15/10  1803202300000000005921300000 02N260520222000000000000000000001000000000000000000000000000000000000000000000000000000000542022/15               00020000900198471441
0010001300254Q 011000008044977708ADRIANA AZEREDO PESSANHA                TRAV. SAO MARCOS, 50                    PQ GUARUS      28060207CAMPOS DOS GOYTRJ0000000000000000                                        00030597400000017175   12345678
0010001300255R 01000000000000000000000000000000000000000000000000219032023000000000000200          FUNDECAM - Fundo de Desenvolvimento de C                                        000000000000000000000000000000000000 000000000000  0000000000
0010001300256P 010000510000002827271 30597400000017176   111110542022/15/11  1804202300000000005921300000 02N260520222000000000000000000001000000000000000000000000000000000000000000000000000000000542022/15               00020000900198471441
0010001300257Q 011000008044977708ADRIANA AZEREDO PESSANHA                TRAV. SAO MARCOS, 50                    PQ GUARUS      28060207CAMPOS DOS GOYTRJ0000000000000000                                        00030597400000017176   12345678
0010001300258R 01000000000000000000000000000000000000000000000000219042023000000000000200          FUNDECAM - Fundo de Desenvolvimento de C                                        000000000000000000000000000000000000 000000000000  0000000000
0010001300259P 010000510000002827271 30597400000017177   111110542022/15/12  1805202300000000005921300000 02N260520222000000000000000000001000000000000000000000000000000000000000000000000000000000542022/15               00020000900198471441
0010001300260Q 011000008044977708ADRIANA AZEREDO PESSANHA                TRAV. SAO MARCOS, 50                    PQ GUARUS      28060207CAMPOS DOS GOYTRJ0000000000000000                                        00030597400000017177   12345678
0010001300261R 01000000000000000000000000000000000000000000000000219052023000000000000200          FUNDECAM - Fundo de Desenvolvimento de C                                        000000000000000000000000000000000000 000000000000  0000000000
0010001300262P 010000510000002827271 30597400000017178   111110542022/15/13  1806202300000000005921300000 02N260520222000000000000000000001000000000000000000000000000000000000000000000000000000000542022/15               00020000900198471441
0010001300263Q 011000008044977708ADRIANA AZEREDO PESSANHA                TRAV. SAO MARCOS, 50                    PQ GUARUS      28060207CAMPOS DOS GOYTRJ0000000000000000                                        00030597400000017178   12345678
0010001300264R 01000000000000000000000000000000000000000000000000219062023000000000000200          FUNDECAM - Fundo de Desenvolvimento de C                                        000000000000000000000000000000000000 000000000000  0000000000
0010001300265P 010000510000002827271 30597400000017179   111110542022/15/14  1807202300000000005921300000 02N260520222000000000000000000001000000000000000000000000000000000000000000000000000000000542022/15               00020000900198471441
0010001300266Q 011000008044977708ADRIANA AZEREDO PESSANHA                TRAV. SAO MARCOS, 50                    PQ GUARUS      28060207CAMPOS DOS GOYTRJ0000000000000000                                        00030597400000017179   12345678
0010001300267R 01000000000000000000000000000000000000000000000000219072023000000000000200          FUNDECAM - Fundo de Desenvolvimento de C                                        000000000000000000000000000000000000 000000000000  0000000000
0010001300268P 010000510000002827271 30597400000017180   111110542022/15/15  1808202300000000005921300000 02N260520222000000000000000000001000000000000000000000000000000000000000000000000000000000542022/15               00020000900198471441
0010001300269Q 011000008044977708ADRIANA AZEREDO PESSANHA                TRAV. SAO MARCOS, 50                    PQ GUARUS      28060207CAMPOS DOS GOYTRJ0000000000000000                                        00030597400000017180   12345678
0010001300270R 01000000000000000000000000000000000000000000000000219082023000000000000200          FUNDECAM - Fundo de Desenvolvimento de C                                        000000000000000000000000000000000000 000000000000  0000000000
0010001300271P 010000510000002827271 30597400000017181   111110542022/15/16  1809202300000000005921300000 02N260520222000000000000000000001000000000000000000000000000000000000000000000000000000000542022/15               00020000900198471441
0010001300272Q 011000008044977708ADRIANA AZEREDO PESSANHA                TRAV. SAO MARCOS, 50                    PQ GUARUS      28060207CAMPOS DOS GOYTRJ0000000000000000                                        00030597400000017181   12345678
0010001300273R 01000000000000000000000000000000000000000000000000219092023000000000000200          FUNDECAM - Fundo de Desenvolvimento de C                                        000000000000000000000000000000000000 000000000000  0000000000
0010001300274P 010000510000002827271 30597400000017182   111110542022/15/17  1810202300000000005921300000 02N260520222000000000000000000001000000000000000000000000000000000000000000000000000000000542022/15               00020000900198471441
0010001300275Q 011000008044977708ADRIANA AZEREDO PESSANHA                TRAV. SAO MARCOS, 50                    PQ GUARUS      28060207CAMPOS DOS GOYTRJ0000000000000000                                        00030597400000017182   12345678
0010001300276R 01000000000000000000000000000000000000000000000000219102023000000000000200          FUNDECAM - Fundo de Desenvolvimento de C                                        000000000000000000000000000000000000 000000000000  0000000000
0010001300277P 010000510000002827271 30597400000017183   111110542022/15/18  1811202300000000005921300000 02N260520222000000000000000000001000000000000000000000000000000000000000000000000000000000542022/15               00020000900198471441
0010001300278Q 011000008044977708ADRIANA AZEREDO PESSANHA                TRAV. SAO MARCOS, 50                    PQ GUARUS      28060207CAMPOS DOS GOYTRJ0000000000000000                                        00030597400000017183   12345678
0010001300279R 01000000000000000000000000000000000000000000000000219112023000000000000200          FUNDECAM - Fundo de Desenvolvimento de C                                        000000000000000000000000000000000000 000000000000  0000000000
0010001300280P 010000510000002827271 30597400000017148   111110552022/16/01  1806202200000000004737100000 02N260520222000000000000000000001000000000000000000000000000000000000000000000000000000000552022/16               00020000900198471441
0010001300281Q 011000008651800754MARCUS VINICIUS FERREIRA MARTINS FILHO  RUA RENATO VASCONCELOS,66               PQ VARANDA D   28022810CAMPOS DOS GOYTRJ0000000000000000                                        00030597400000017148   12345678
0010001300282R 01000000000000000000000000000000000000000000000000219062022000000000000200          FUNDECAM - Fundo de Desenvolvimento de C                                        000000000000000000000000000000000000 000000000000  0000000000
0010001300283P 010000510000002827271 30597400000017149   111110552022/16/02  1807202200000000004737100000 02N260520222000000000000000000001000000000000000000000000000000000000000000000000000000000552022/16               00020000900198471441
0010001300284Q 011000008651800754MARCUS VINICIUS FERREIRA MARTINS FILHO  RUA RENATO VASCONCELOS,66               PQ VARANDA D   28022810CAMPOS DOS GOYTRJ0000000000000000                                        00030597400000017149   12345678
0010001300285R 01000000000000000000000000000000000000000000000000219072022000000000000200          FUNDECAM - Fundo de Desenvolvimento de C                                        000000000000000000000000000000000000 000000000000  0000000000
0010001300286P 010000510000002827271 30597400000017150   111110552022/16/03  1808202200000000004737100000 02N260520222000000000000000000001000000000000000000000000000000000000000000000000000000000552022/16               00020000900198471441
0010001300287Q 011000008651800754MARCUS VINICIUS FERREIRA MARTINS FILHO  RUA RENATO VASCONCELOS,66               PQ VARANDA D   28022810CAMPOS DOS GOYTRJ0000000000000000                                        00030597400000017150   12345678
0010001300288R 01000000000000000000000000000000000000000000000000219082022000000000000200          FUNDECAM - Fundo de Desenvolvimento de C                                        000000000000000000000000000000000000 000000000000  0000000000
0010001300289P 010000510000002827271 30597400000017151   111110552022/16/04  1809202200000000004737100000 02N260520222000000000000000000001000000000000000000000000000000000000000000000000000000000552022/16               00020000900198471441
0010001300290Q 011000008651800754MARCUS VINICIUS FERREIRA MARTINS FILHO  RUA RENATO VASCONCELOS,66               PQ VARANDA D   28022810CAMPOS DOS GOYTRJ0000000000000000                                        00030597400000017151   12345678
0010001300291R 01000000000000000000000000000000000000000000000000219092022000000000000200          FUNDECAM - Fundo de Desenvolvimento de C                                        000000000000000000000000000000000000 000000000000  0000000000
0010001300292P 010000510000002827271 30597400000017152   111110552022/16/05  1810202200000000004737100000 02N260520222000000000000000000001000000000000000000000000000000000000000000000000000000000552022/16               00020000900198471441
0010001300293Q 011000008651800754MARCUS VINICIUS FERREIRA MARTINS FILHO  RUA RENATO VASCONCELOS,66               PQ VARANDA D   28022810CAMPOS DOS GOYTRJ0000000000000000                                        00030597400000017152   12345678
0010001300294R 01000000000000000000000000000000000000000000000000219102022000000000000200          FUNDECAM - Fundo de Desenvolvimento de C                                        000000000000000000000000000000000000 000000000000  0000000000
0010001300295P 010000510000002827271 30597400000017153   111110552022/16/06  1811202200000000004737100000 02N260520222000000000000000000001000000000000000000000000000000000000000000000000000000000552022/16               00020000900198471441
0010001300296Q 011000008651800754MARCUS VINICIUS FERREIRA MARTINS FILHO  RUA RENATO VASCONCELOS,66               PQ VARANDA D   28022810CAMPOS DOS GOYTRJ0000000000000000                                        00030597400000017153   12345678
0010001300297R 01000000000000000000000000000000000000000000000000219112022000000000000200          FUNDECAM - Fundo de Desenvolvimento de C                                        000000000000000000000000000000000000 000000000000  0000000000
0010001300298P 010000510000002827271 30597400000017154   111110552022/16/07  1812202200000000004737100000 02N260520222000000000000000000001000000000000000000000000000000000000000000000000000000000552022/16               00020000900198471441
0010001300299Q 011000008651800754MARCUS VINICIUS FERREIRA MARTINS FILHO  RUA RENATO VASCONCELOS,66               PQ VARANDA D   28022810CAMPOS DOS GOYTRJ0000000000000000                                        00030597400000017154   12345678
0010001300300R 01000000000000000000000000000000000000000000000000219122022000000000000200          FUNDECAM - Fundo de Desenvolvimento de C                                        000000000000000000000000000000000000 000000000000  0000000000
0010001300301P 010000510000002827271 30597400000017155   111110552022/16/08  1801202300000000004737100000 02N260520222000000000000000000001000000000000000000000000000000000000000000000000000000000552022/16               00020000900198471441
0010001300302Q 011000008651800754MARCUS VINICIUS FERREIRA MARTINS FILHO  RUA RENATO VASCONCELOS,66               PQ VARANDA D   28022810CAMPOS DOS GOYTRJ0000000000000000                                        00030597400000017155   12345678
0010001300303R 01000000000000000000000000000000000000000000000000219012023000000000000200          FUNDECAM - Fundo de Desenvolvimento de C                                        000000000000000000000000000000000000 000000000000  0000000000
0010001300304P 010000510000002827271 30597400000017156   111110552022/16/09  1802202300000000004737100000 02N260520222000000000000000000001000000000000000000000000000000000000000000000000000000000552022/16               00020000900198471441
0010001300305Q 011000008651800754MARCUS VINICIUS FERREIRA MARTINS FILHO  RUA RENATO VASCONCELOS,66               PQ VARANDA D   28022810CAMPOS DOS GOYTRJ0000000000000000                                        00030597400000017156   12345678
0010001300306R 01000000000000000000000000000000000000000000000000219022023000000000000200          FUNDECAM - Fundo de Desenvolvimento de C                                        000000000000000000000000000000000000 000000000000  0000000000
0010001300307P 010000510000002827271 30597400000017157   111110552022/16/10  1803202300000000004737100000 02N260520222000000000000000000001000000000000000000000000000000000000000000000000000000000552022/16               00020000900198471441
0010001300308Q 011000008651800754MARCUS VINICIUS FERREIRA MARTINS FILHO  RUA RENATO VASCONCELOS,66               PQ VARANDA D   28022810CAMPOS DOS GOYTRJ0000000000000000                                        00030597400000017157   12345678
0010001300309R 01000000000000000000000000000000000000000000000000219032023000000000000200          FUNDECAM - Fundo de Desenvolvimento de C                                        000000000000000000000000000000000000 000000000000  0000000000
0010001300310P 010000510000002827271 30597400000017158   111110552022/16/11  1804202300000000004737100000 02N260520222000000000000000000001000000000000000000000000000000000000000000000000000000000552022/16               00020000900198471441
0010001300311Q 011000008651800754MARCUS VINICIUS FERREIRA MARTINS FILHO  RUA RENATO VASCONCELOS,66               PQ VARANDA D   28022810CAMPOS DOS GOYTRJ0000000000000000                                        00030597400000017158   12345678
0010001300312R 01000000000000000000000000000000000000000000000000219042023000000000000200          FUNDECAM - Fundo de Desenvolvimento de C                                        000000000000000000000000000000000000 000000000000  0000000000
0010001300313P 010000510000002827271 30597400000017159   111110552022/16/12  1805202300000000004737100000 02N260520222000000000000000000001000000000000000000000000000000000000000000000000000000000552022/16               00020000900198471441
0010001300314Q 011000008651800754MARCUS VINICIUS FERREIRA MARTINS FILHO  RUA RENATO VASCONCELOS,66               PQ VARANDA D   28022810CAMPOS DOS GOYTRJ0000000000000000                                        00030597400000017159   12345678
0010001300315R 01000000000000000000000000000000000000000000000000219052023000000000000200          FUNDECAM - Fundo de Desenvolvimento de C                                        000000000000000000000000000000000000 000000000000  0000000000
0010001300316P 010000510000002827271 30597400000017160   111110552022/16/13  1806202300000000004737100000 02N260520222000000000000000000001000000000000000000000000000000000000000000000000000000000552022/16               00020000900198471441
0010001300317Q 011000008651800754MARCUS VINICIUS FERREIRA MARTINS FILHO  RUA RENATO VASCONCELOS,66               PQ VARANDA D   28022810CAMPOS DOS GOYTRJ0000000000000000                                        00030597400000017160   12345678
0010001300318R 01000000000000000000000000000000000000000000000000219062023000000000000200          FUNDECAM - Fundo de Desenvolvimento de C                                        000000000000000000000000000000000000 000000000000  0000000000
0010001300319P 010000510000002827271 30597400000017161   111110552022/16/14  1807202300000000004737100000 02N260520222000000000000000000001000000000000000000000000000000000000000000000000000000000552022/16               00020000900198471441
0010001300320Q 011000008651800754MARCUS VINICIUS FERREIRA MARTINS FILHO  RUA RENATO VASCONCELOS,66               PQ VARANDA D   28022810CAMPOS DOS GOYTRJ0000000000000000                                        00030597400000017161   12345678
0010001300321R 01000000000000000000000000000000000000000000000000219072023000000000000200          FUNDECAM - Fundo de Desenvolvimento de C                                        000000000000000000000000000000000000 000000000000  0000000000
0010001300322P 010000510000002827271 30597400000017162   111110552022/16/15  1808202300000000004737100000 02N260520222000000000000000000001000000000000000000000000000000000000000000000000000000000552022/16               00020000900198471441
0010001300323Q 011000008651800754MARCUS VINICIUS FERREIRA MARTINS FILHO  RUA RENATO VASCONCELOS,66               PQ VARANDA D   28022810CAMPOS DOS GOYTRJ0000000000000000                                        00030597400000017162   12345678
0010001300324R 01000000000000000000000000000000000000000000000000219082023000000000000200          FUNDECAM - Fundo de Desenvolvimento de C                                        000000000000000000000000000000000000 000000000000  0000000000
0010001300325P 010000510000002827271 30597400000017163   111110552022/16/16  1809202300000000004737100000 02N260520222000000000000000000001000000000000000000000000000000000000000000000000000000000552022/16               00020000900198471441
0010001300326Q 011000008651800754MARCUS VINICIUS FERREIRA MARTINS FILHO  RUA RENATO VASCONCELOS,66               PQ VARANDA D   28022810CAMPOS DOS GOYTRJ0000000000000000                                        00030597400000017163   12345678
0010001300327R 01000000000000000000000000000000000000000000000000219092023000000000000200          FUNDECAM - Fundo de Desenvolvimento de C                                        000000000000000000000000000000000000 000000000000  0000000000
0010001300328P 010000510000002827271 30597400000017164   111110552022/16/17  1810202300000000004737100000 02N260520222000000000000000000001000000000000000000000000000000000000000000000000000000000552022/16               00020000900198471441
0010001300329Q 011000008651800754MARCUS VINICIUS FERREIRA MARTINS FILHO  RUA RENATO VASCONCELOS,66               PQ VARANDA D   28022810CAMPOS DOS GOYTRJ0000000000000000                                        00030597400000017164   12345678
0010001300330R 01000000000000000000000000000000000000000000000000219102023000000000000200          FUNDECAM - Fundo de Desenvolvimento de C                                        000000000000000000000000000000000000 000000000000  0000000000
0010001300331P 010000510000002827271 30597400000017165   111110552022/16/18  1811202300000000004737100000 02N260520222000000000000000000001000000000000000000000000000000000000000000000000000000000552022/16               00020000900198471441
0010001300332Q 011000008651800754MARCUS VINICIUS FERREIRA MARTINS FILHO  RUA RENATO VASCONCELOS,66               PQ VARANDA D   28022810CAMPOS DOS GOYTRJ0000000000000000                                        00030597400000017165   12345678
0010001300333R 01000000000000000000000000000000000000000000000000219112023000000000000200          FUNDECAM - Fundo de Desenvolvimento de C                                        000000000000000000000000000000000000 000000000000  0000000000
0010001300334P 010000510000002827271 30597400000017091   111110562022/15/01  1806202200000000005033100000 02N260520222000000000000000000001000000000000000000000000000000000000000000000000000000000562022/15               00020000900198471441
0010001300335Q 011000012375037790RAFAELA RANGEL DE SOUZA                 RUA NAZARIO PEREIRA GOMES, 610          PQ. SAO JOSE   28070205CMPS GOYTACAZESRJ0000000000000000                                        00030597400000017091   12345678
0010001300336R 01000000000000000000000000000000000000000000000000219062022000000000000200          FUNDECAM - Fundo de Desenvolvimento de C                                        000000000000000000000000000000000000 000000000000  0000000000
0010001300337P 010000510000002827271 30597400000017092   111110562022/15/02  1807202200000000005033100000 02N260520222000000000000000000001000000000000000000000000000000000000000000000000000000000562022/15               00020000900198471441
0010001300338Q 011000012375037790RAFAELA RANGEL DE SOUZA                 RUA NAZARIO PEREIRA GOMES, 610          PQ. SAO JOSE   28070205CMPS GOYTACAZESRJ0000000000000000                                        00030597400000017092   12345678
0010001300339R 01000000000000000000000000000000000000000000000000219072022000000000000200          FUNDECAM - Fundo de Desenvolvimento de C                                        000000000000000000000000000000000000 000000000000  0000000000
0010001300340P 010000510000002827271 30597400000017093   111110562022/15/03  1808202200000000005033100000 02N260520222000000000000000000001000000000000000000000000000000000000000000000000000000000562022/15               00020000900198471441
0010001300341Q 011000012375037790RAFAELA RANGEL DE SOUZA                 RUA NAZARIO PEREIRA GOMES, 610          PQ. SAO JOSE   28070205CMPS GOYTACAZESRJ0000000000000000                                        00030597400000017093   12345678
0010001300342R 01000000000000000000000000000000000000000000000000219082022000000000000200          FUNDECAM - Fundo de Desenvolvimento de C                                        000000000000000000000000000000000000 000000000000  0000000000
0010001300343P 010000510000002827271 30597400000017094   111110562022/15/04  1809202200000000005033100000 02N260520222000000000000000000001000000000000000000000000000000000000000000000000000000000562022/15               00020000900198471441
0010001300344Q 011000012375037790RAFAELA RANGEL DE SOUZA                 RUA NAZARIO PEREIRA GOMES, 610          PQ. SAO JOSE   28070205CMPS GOYTACAZESRJ0000000000000000                                        00030597400000017094   12345678
0010001300345R 01000000000000000000000000000000000000000000000000219092022000000000000200          FUNDECAM - Fundo de Desenvolvimento de C                                        000000000000000000000000000000000000 000000000000  0000000000
0010001300346P 010000510000002827271 30597400000017095   111110562022/15/05  1810202200000000005033100000 02N260520222000000000000000000001000000000000000000000000000000000000000000000000000000000562022/15               00020000900198471441
0010001300347Q 011000012375037790RAFAELA RANGEL DE SOUZA                 RUA NAZARIO PEREIRA GOMES, 610          PQ. SAO JOSE   28070205CMPS GOYTACAZESRJ0000000000000000                                        00030597400000017095   12345678
0010001300348R 01000000000000000000000000000000000000000000000000219102022000000000000200          FUNDECAM - Fundo de Desenvolvimento de C                                        000000000000000000000000000000000000 000000000000  0000000000
0010001300349P 010000510000002827271 30597400000017096   111110562022/15/06  1811202200000000005033100000 02N260520222000000000000000000001000000000000000000000000000000000000000000000000000000000562022/15               00020000900198471441
0010001300350Q 011000012375037790RAFAELA RANGEL DE SOUZA                 RUA NAZARIO PEREIRA GOMES, 610          PQ. SAO JOSE   28070205CMPS GOYTACAZESRJ0000000000000000                                        00030597400000017096   12345678
0010001300351R 01000000000000000000000000000000000000000000000000219112022000000000000200          FUNDECAM - Fundo de Desenvolvimento de C                                        000000000000000000000000000000000000 000000000000  0000000000
0010001300352P 010000510000002827271 30597400000017097   111110562022/15/07  1812202200000000005033100000 02N260520222000000000000000000001000000000000000000000000000000000000000000000000000000000562022/15               00020000900198471441
0010001300353Q 011000012375037790RAFAELA RANGEL DE SOUZA                 RUA NAZARIO PEREIRA GOMES, 610          PQ. SAO JOSE   28070205CMPS GOYTACAZESRJ0000000000000000                                        00030597400000017097   12345678
0010001300354R 01000000000000000000000000000000000000000000000000219122022000000000000200          FUNDECAM - Fundo de Desenvolvimento de C                                        000000000000000000000000000000000000 000000000000  0000000000
0010001300355P 010000510000002827271 30597400000017098   111110562022/15/08  1801202300000000005033100000 02N260520222000000000000000000001000000000000000000000000000000000000000000000000000000000562022/15               00020000900198471441
0010001300356Q 011000012375037790RAFAELA RANGEL DE SOUZA                 RUA NAZARIO PEREIRA GOMES, 610          PQ. SAO JOSE   28070205CMPS GOYTACAZESRJ0000000000000000                                        00030597400000017098   12345678
0010001300357R 01000000000000000000000000000000000000000000000000219012023000000000000200          FUNDECAM - Fundo de Desenvolvimento de C                                        000000000000000000000000000000000000 000000000000  0000000000
0010001300358P 010000510000002827271 30597400000017099   111110562022/15/09  1802202300000000005033100000 02N260520222000000000000000000001000000000000000000000000000000000000000000000000000000000562022/15               00020000900198471441
0010001300359Q 011000012375037790RAFAELA RANGEL DE SOUZA                 RUA NAZARIO PEREIRA GOMES, 610          PQ. SAO JOSE   28070205CMPS GOYTACAZESRJ0000000000000000                                        00030597400000017099   12345678
0010001300360R 01000000000000000000000000000000000000000000000000219022023000000000000200          FUNDECAM - Fundo de Desenvolvimento de C                                        000000000000000000000000000000000000 000000000000  0000000000
0010001300361P 010000510000002827271 30597400000017100   111110562022/15/10  1803202300000000005033100000 02N260520222000000000000000000001000000000000000000000000000000000000000000000000000000000562022/15               00020000900198471441
0010001300362Q 011000012375037790RAFAELA RANGEL DE SOUZA                 RUA NAZARIO PEREIRA GOMES, 610          PQ. SAO JOSE   28070205CMPS GOYTACAZESRJ0000000000000000                                        00030597400000017100   12345678
0010001300363R 01000000000000000000000000000000000000000000000000219032023000000000000200          FUNDECAM - Fundo de Desenvolvimento de C                                        000000000000000000000000000000000000 000000000000  0000000000
0010001300364P 010000510000002827271 30597400000017101   111110562022/15/11  1804202300000000005033100000 02N260520222000000000000000000001000000000000000000000000000000000000000000000000000000000562022/15               00020000900198471441
0010001300365Q 011000012375037790RAFAELA RANGEL DE SOUZA                 RUA NAZARIO PEREIRA GOMES, 610          PQ. SAO JOSE   28070205CMPS GOYTACAZESRJ0000000000000000                                        00030597400000017101   12345678
0010001300366R 01000000000000000000000000000000000000000000000000219042023000000000000200          FUNDECAM - Fundo de Desenvolvimento de C                                        000000000000000000000000000000000000 000000000000  0000000000
0010001300367P 010000510000002827271 30597400000017102   111110562022/15/12  1805202300000000005033100000 02N260520222000000000000000000001000000000000000000000000000000000000000000000000000000000562022/15               00020000900198471441
0010001300368Q 011000012375037790RAFAELA RANGEL DE SOUZA                 RUA NAZARIO PEREIRA GOMES, 610          PQ. SAO JOSE   28070205CMPS GOYTACAZESRJ0000000000000000                                        00030597400000017102   12345678
0010001300369R 01000000000000000000000000000000000000000000000000219052023000000000000200          FUNDECAM - Fundo de Desenvolvimento de C                                        000000000000000000000000000000000000 000000000000  0000000000
0010001300370P 010000510000002827271 30597400000017103   111110562022/15/13  1806202300000000005033100000 02N260520222000000000000000000001000000000000000000000000000000000000000000000000000000000562022/15               00020000900198471441
0010001300371Q 011000012375037790RAFAELA RANGEL DE SOUZA                 RUA NAZARIO PEREIRA GOMES, 610          PQ. SAO JOSE   28070205CMPS GOYTACAZESRJ0000000000000000                                        00030597400000017103   12345678
0010001300372R 01000000000000000000000000000000000000000000000000219062023000000000000200          FUNDECAM - Fundo de Desenvolvimento de C                                        000000000000000000000000000000000000 000000000000  0000000000
0010001300373P 010000510000002827271 30597400000017104   111110562022/15/14  1807202300000000005033100000 02N260520222000000000000000000001000000000000000000000000000000000000000000000000000000000562022/15               00020000900198471441
0010001300374Q 011000012375037790RAFAELA RANGEL DE SOUZA                 RUA NAZARIO PEREIRA GOMES, 610          PQ. SAO JOSE   28070205CMPS GOYTACAZESRJ0000000000000000                                        00030597400000017104   12345678
0010001300375R 01000000000000000000000000000000000000000000000000219072023000000000000200          FUNDECAM - Fundo de Desenvolvimento de C                                        000000000000000000000000000000000000 000000000000  0000000000
0010001300376P 010000510000002827271 30597400000017105   111110562022/15/15  1808202300000000005033100000 02N260520222000000000000000000001000000000000000000000000000000000000000000000000000000000562022/15               00020000900198471441
0010001300377Q 011000012375037790RAFAELA RANGEL DE SOUZA                 RUA NAZARIO PEREIRA GOMES, 610          PQ. SAO JOSE   28070205CMPS GOYTACAZESRJ0000000000000000                                        00030597400000017105   12345678
0010001300378R 01000000000000000000000000000000000000000000000000219082023000000000000200          FUNDECAM - Fundo de Desenvolvimento de C                                        000000000000000000000000000000000000 000000000000  0000000000
0010001300379P 010000510000002827271 30597400000017106   111110562022/15/16  1809202300000000005033100000 02N260520222000000000000000000001000000000000000000000000000000000000000000000000000000000562022/15               00020000900198471441
0010001300380Q 011000012375037790RAFAELA RANGEL DE SOUZA                 RUA NAZARIO PEREIRA GOMES, 610          PQ. SAO JOSE   28070205CMPS GOYTACAZESRJ0000000000000000                                        00030597400000017106   12345678
0010001300381R 01000000000000000000000000000000000000000000000000219092023000000000000200          FUNDECAM - Fundo de Desenvolvimento de C                                        000000000000000000000000000000000000 000000000000  0000000000
0010001300382P 010000510000002827271 30597400000017107   111110562022/15/17  1810202300000000005033100000 02N260520222000000000000000000001000000000000000000000000000000000000000000000000000000000562022/15               00020000900198471441
0010001300383Q 011000012375037790RAFAELA RANGEL DE SOUZA                 RUA NAZARIO PEREIRA GOMES, 610          PQ. SAO JOSE   28070205CMPS GOYTACAZESRJ0000000000000000                                        00030597400000017107   12345678
0010001300384R 01000000000000000000000000000000000000000000000000219102023000000000000200          FUNDECAM - Fundo de Desenvolvimento de C                                        000000000000000000000000000000000000 000000000000  0000000000
0010001300385P 010000510000002827271 30597400000017108   111110562022/15/18  1811202300000000005033100000 02N260520222000000000000000000001000000000000000000000000000000000000000000000000000000000562022/15               00020000900198471441
0010001300386Q 011000012375037790RAFAELA RANGEL DE SOUZA                 RUA NAZARIO PEREIRA GOMES, 610          PQ. SAO JOSE   28070205CMPS GOYTACAZESRJ0000000000000000                                        00030597400000017108   12345678
0010001300387R 01000000000000000000000000000000000000000000000000219112023000000000000200          FUNDECAM - Fundo de Desenvolvimento de C                                        000000000000000000000000000000000000 000000000000  0000000000
0010001300388P 010000510000002827271 30597400000017016   111110572022/15/01  1806202200000000005921300000 02N260520222000000000000000000001000000000000000000000000000000000000000000000000000000000572022/15               00020000900198471441
0010001300389Q 011000001337774723JANETE LEONARDO DO AMARAL               RUA AUGUSTO DE OLIVEIRA, 595            MATA DA CRUZ   28010000CAMPOS DOS GOYTRJ0000000000000000                                        00030597400000017016   12345678
0010001300390R 01000000000000000000000000000000000000000000000000219062022000000000000200          FUNDECAM - Fundo de Desenvolvimento de C                                        000000000000000000000000000000000000 000000000000  0000000000
0010001300391P 010000510000002827271 30597400000017017   111110572022/15/02  1807202200000000005921300000 02N260520222000000000000000000001000000000000000000000000000000000000000000000000000000000572022/15               00020000900198471441
0010001300392Q 011000001337774723JANETE LEONARDO DO AMARAL               RUA AUGUSTO DE OLIVEIRA, 595            MATA DA CRUZ   28010000CAMPOS DOS GOYTRJ0000000000000000                                        00030597400000017017   12345678
0010001300393R 01000000000000000000000000000000000000000000000000219072022000000000000200          FUNDECAM - Fundo de Desenvolvimento de C                                        000000000000000000000000000000000000 000000000000  0000000000
0010001300394P 010000510000002827271 30597400000017018   111110572022/15/03  1808202200000000005921300000 02N260520222000000000000000000001000000000000000000000000000000000000000000000000000000000572022/15               00020000900198471441
0010001300395Q 011000001337774723JANETE LEONARDO DO AMARAL               RUA AUGUSTO DE OLIVEIRA, 595            MATA DA CRUZ   28010000CAMPOS DOS GOYTRJ0000000000000000                                        00030597400000017018   12345678
0010001300396R 01000000000000000000000000000000000000000000000000219082022000000000000200          FUNDECAM - Fundo de Desenvolvimento de C                                        000000000000000000000000000000000000 000000000000  0000000000
0010001300397P 010000510000002827271 30597400000017019   111110572022/15/04  1809202200000000005921300000 02N260520222000000000000000000001000000000000000000000000000000000000000000000000000000000572022/15               00020000900198471441
0010001300398Q 011000001337774723JANETE LEONARDO DO AMARAL               RUA AUGUSTO DE OLIVEIRA, 595            MATA DA CRUZ   28010000CAMPOS DOS GOYTRJ0000000000000000                                        00030597400000017019   12345678
0010001300399R 01000000000000000000000000000000000000000000000000219092022000000000000200          FUNDECAM - Fundo de Desenvolvimento de C                                        000000000000000000000000000000000000 000000000000  0000000000
0010001300400P 010000510000002827271 30597400000017020   111110572022/15/05  1810202200000000005921300000 02N260520222000000000000000000001000000000000000000000000000000000000000000000000000000000572022/15               00020000900198471441
0010001300401Q 011000001337774723JANETE LEONARDO DO AMARAL               RUA AUGUSTO DE OLIVEIRA, 595            MATA DA CRUZ   28010000CAMPOS DOS GOYTRJ0000000000000000                                        00030597400000017020   12345678
0010001300402R 01000000000000000000000000000000000000000000000000219102022000000000000200          FUNDECAM - Fundo de Desenvolvimento de C                                        000000000000000000000000000000000000 000000000000  0000000000
0010001300403P 010000510000002827271 30597400000017021   111110572022/15/06  1811202200000000005921300000 02N260520222000000000000000000001000000000000000000000000000000000000000000000000000000000572022/15               00020000900198471441
0010001300404Q 011000001337774723JANETE LEONARDO DO AMARAL               RUA AUGUSTO DE OLIVEIRA, 595            MATA DA CRUZ   28010000CAMPOS DOS GOYTRJ0000000000000000                                        00030597400000017021   12345678
0010001300405R 01000000000000000000000000000000000000000000000000219112022000000000000200          FUNDECAM - Fundo de Desenvolvimento de C                                        000000000000000000000000000000000000 000000000000  0000000000
0010001300406P 010000510000002827271 30597400000017022   111110572022/15/07  1812202200000000005921300000 02N260520222000000000000000000001000000000000000000000000000000000000000000000000000000000572022/15               00020000900198471441
0010001300407Q 011000001337774723JANETE LEONARDO DO AMARAL               RUA AUGUSTO DE OLIVEIRA, 595            MATA DA CRUZ   28010000CAMPOS DOS GOYTRJ0000000000000000                                        00030597400000017022   12345678
0010001300408R 01000000000000000000000000000000000000000000000000219122022000000000000200          FUNDECAM - Fundo de Desenvolvimento de C                                        000000000000000000000000000000000000 000000000000  0000000000
0010001300409P 010000510000002827271 30597400000017023   111110572022/15/08  1801202300000000005921300000 02N260520222000000000000000000001000000000000000000000000000000000000000000000000000000000572022/15               00020000900198471441
0010001300410Q 011000001337774723JANETE LEONARDO DO AMARAL               RUA AUGUSTO DE OLIVEIRA, 595            MATA DA CRUZ   28010000CAMPOS DOS GOYTRJ0000000000000000                                        00030597400000017023   12345678
