00100000         221545238000172                    0000510000002827271 FUNDO DE DESENVOLVIMENTO DE CABANCO DO BRASIL S.A.                    10809202214345400000008000000                                                                     
00100011R0100020 2021545238000172003059740001417019  0000510000002827271 FUNDO DE DESENVOLVIMENTO DE CA                                                                                00000302080920220000000000000000003059740        CBR30000
0010001300001P 010000510000002827271 30597400000018943   111110942020/R/01   1009202200000000002370700000 02N080920220000000000000000000000000000000000000000000000000000000000000000000000000000000942020/R                00020000900198471441
0010001300002Q 011000014200318725RAFAEL RANGEL DA SILVA                  ESTRADA DA TOCAIA, 101 FUNDOS           DONANA         28110000CMPS GOYTACAZESRJ0000000000000000                                        00030597400000018943   12345678
0010001300003R 01000000000000000000000000000000000000000000000000000000000000000000000000                                                                                          000000000000000000000000000000000000 000000000000  0000000000
0010001300004P 010000510000002827271 30597400000018944   111110942020/R/02   1010202200000000002370700000 02N080920220000000000000000000000000000000000000000000000000000000000000000000000000000000942020/R                00020000900198471441
0010001300005Q 011000014200318725RAFAEL RANGEL DA SILVA                  ESTRADA DA TOCAIA, 101 FUNDOS           DONANA         28110000CMPS GOYTACAZESRJ0000000000000000                                        00030597400000018944   12345678
0010001300006R 01000000000000000000000000000000000000000000000000000000000000000000000000                                                                                          000000000000000000000000000000000000 000000000000  0000000000
0010001300007P 010000510000002827271 30597400000018945   111110942020/R/03   1011202200000000002370700000 02N080920220000000000000000000000000000000000000000000000000000000000000000000000000000000942020/R                00020000900198471441
0010001300008Q 011000014200318725RAFAEL RANGEL DA SILVA                  ESTRADA DA TOCAIA, 101 FUNDOS           DONANA         28110000CMPS GOYTACAZESRJ0000000000000000                                        00030597400000018945   12345678
0010001300009R 01000000000000000000000000000000000000000000000000000000000000000000000000                                                                                          000000000000000000000000000000000000 000000000000  0000000000
0010001300010P 010000510000002827271 30597400000018946   111110942020/R/04   1012202200000000002370700000 02N080920220000000000000000000000000000000000000000000000000000000000000000000000000000000942020/R                00020000900198471441
0010001300011Q 011000014200318725RAFAEL RANGEL DA SILVA                  ESTRADA DA TOCAIA, 101 FUNDOS           DONANA         28110000CMPS GOYTACAZESRJ0000000000000000                                        00030597400000018946   12345678
0010001300012R 01000000000000000000000000000000000000000000000000000000000000000000000000                                                                                          000000000000000000000000000000000000 000000000000  0000000000
0010001300013P 010000510000002827271 30597400000018947   111110942020/R/05   1001202300000000002370700000 02N080920220000000000000000000000000000000000000000000000000000000000000000000000000000000942020/R                00020000900198471441
0010001300014Q 011000014200318725RAFAEL RANGEL DA SILVA                  ESTRADA DA TOCAIA, 101 FUNDOS           DONANA         28110000CMPS GOYTACAZESRJ0000000000000000                                        00030597400000018947   12345678
0010001300015R 01000000000000000000000000000000000000000000000000000000000000000000000000                                                                                          000000000000000000000000000000000000 000000000000  0000000000
0010001300016P 010000510000002827271 30597400000018948   111110942020/R/06   1002202300000000002370700000 02N080920220000000000000000000000000000000000000000000000000000000000000000000000000000000942020/R                00020000900198471441
0010001300017Q 011000014200318725RAFAEL RANGEL DA SILVA                  ESTRADA DA TOCAIA, 101 FUNDOS           DONANA         28110000CMPS GOYTACAZESRJ0000000000000000                                        00030597400000018948   12345678
0010001300018R 01000000000000000000000000000000000000000000000000000000000000000000000000                                                                                          000000000000000000000000000000000000 000000000000  0000000000
0010001300019P 010000510000002827271 30597400000018949   111110942020/R/07   1003202300000000002370700000 02N080920220000000000000000000000000000000000000000000000000000000000000000000000000000000942020/R                00020000900198471441
0010001300020Q 011000014200318725RAFAEL RANGEL DA SILVA                  ESTRADA DA TOCAIA, 101 FUNDOS           DONANA         28110000CMPS GOYTACAZESRJ0000000000000000                                        00030597400000018949   12345678
0010001300021R 01000000000000000000000000000000000000000000000000000000000000000000000000                                                                                          000000000000000000000000000000000000 000000000000  0000000000
0010001300022P 010000510000002827271 30597400000018950   111110942020/R/08   1004202300000000002370700000 02N080920220000000000000000000000000000000000000000000000000000000000000000000000000000000942020/R                00020000900198471441
0010001300023Q 011000014200318725RAFAEL RANGEL DA SILVA                  ESTRADA DA TOCAIA, 101 FUNDOS           DONANA         28110000CMPS GOYTACAZESRJ0000000000000000                                        00030597400000018950   12345678
0010001300024R 01000000000000000000000000000000000000000000000000000000000000000000000000                                                                                          000000000000000000000000000000000000 000000000000  0000000000
0010001300025P 010000510000002827271 30597400000018951   111110942020/R/09   1005202300000000002370700000 02N080920220000000000000000000000000000000000000000000000000000000000000000000000000000000942020/R                00020000900198471441
0010001300026Q 011000014200318725RAFAEL RANGEL DA SILVA                  ESTRADA DA TOCAIA, 101 FUNDOS           DONANA         28110000CMPS GOYTACAZESRJ0000000000000000                                        00030597400000018951   12345678
0010001300027R 01000000000000000000000000000000000000000000000000000000000000000000000000                                                                                          000000000000000000000000000000000000 000000000000  0000000000
0010001300028P 010000510000002827271 30597400000018952   111110942020/R/10   1006202300000000002370700000 02N080920220000000000000000000000000000000000000000000000000000000000000000000000000000000942020/R                00020000900198471441
0010001300029Q 011000014200318725RAFAEL RANGEL DA SILVA                  ESTRADA DA TOCAIA, 101 FUNDOS           DONANA         28110000CMPS GOYTACAZESRJ0000000000000000                                        00030597400000018952   12345678
0010001300030R 01000000000000000000000000000000000000000000000000000000000000000000000000                                                                                          000000000000000000000000000000000000 000000000000  0000000000
0010001300031P 010000510000002827271 30597400000018953   111110942020/R/11   1007202300000000002370700000 02N080920220000000000000000000000000000000000000000000000000000000000000000000000000000000942020/R                00020000900198471441
0010001300032Q 011000014200318725RAFAEL RANGEL DA SILVA                  ESTRADA DA TOCAIA, 101 FUNDOS           DONANA         28110000CMPS GOYTACAZESRJ0000000000000000                                        00030597400000018953   12345678
0010001300033R 01000000000000000000000000000000000000000000000000000000000000000000000000                                                                                          000000000000000000000000000000000000 000000000000  0000000000
0010001300034P 010000510000002827271 30597400000018954   111110942020/R/12   1008202300000000002370700000 02N080920220000000000000000000000000000000000000000000000000000000000000000000000000000000942020/R                00020000900198471441
0010001300035Q 011000014200318725RAFAEL RANGEL DA SILVA                  ESTRADA DA TOCAIA, 101 FUNDOS           DONANA         28110000CMPS GOYTACAZESRJ0000000000000000                                        00030597400000018954   12345678
0010001300036R 01000000000000000000000000000000000000000000000000000000000000000000000000                                                                                          000000000000000000000000000000000000 000000000000  0000000000
0010001300037P 010000510000002827271 30597400000018955   111110942020/R/13   1009202300000000002370700000 02N080920220000000000000000000000000000000000000000000000000000000000000000000000000000000942020/R                00020000900198471441
0010001300038Q 011000014200318725RAFAEL RANGEL DA SILVA                  ESTRADA DA TOCAIA, 101 FUNDOS           DONANA         28110000CMPS GOYTACAZESRJ0000000000000000                                        00030597400000018955   12345678
0010001300039R 01000000000000000000000000000000000000000000000000000000000000000000000000                                                                                          000000000000000000000000000000000000 000000000000  0000000000
0010001300040P 010000510000002827271 30597400000018956   111110942020/R/14   1010202300000000002370700000 02N080920220000000000000000000000000000000000000000000000000000000000000000000000000000000942020/R                00020000900198471441
0010001300041Q 011000014200318725RAFAEL RANGEL DA SILVA                  ESTRADA DA TOCAIA, 101 FUNDOS           DONANA         28110000CMPS GOYTACAZESRJ0000000000000000                                        00030597400000018956   12345678
0010001300042R 01000000000000000000000000000000000000000000000000000000000000000000000000                                                                                          000000000000000000000000000000000000 000000000000  0000000000
0010001300043P 010000510000002827271 30597400000018957   111110942020/R/15   1011202300000000002370700000 02N080920220000000000000000000000000000000000000000000000000000000000000000000000000000000942020/R                00020000900198471441
0010001300044Q 011000014200318725RAFAEL RANGEL DA SILVA                  ESTRADA DA TOCAIA, 101 FUNDOS           DONANA         28110000CMPS GOYTACAZESRJ0000000000000000                                        00030597400000018957   12345678
0010001300045R 01000000000000000000000000000000000000000000000000000000000000000000000000                                                                                          000000000000000000000000000000000000 000000000000  0000000000
0010001300046P 010000510000002827271 30597400000018958   111110942020/R/16   1012202300000000002370700000 02N080920220000000000000000000000000000000000000000000000000000000000000000000000000000000942020/R                00020000900198471441
0010001300047Q 011000014200318725RAFAEL RANGEL DA SILVA                  ESTRADA DA TOCAIA, 101 FUNDOS           DONANA         28110000CMPS GOYTACAZESRJ0000000000000000                                        00030597400000018958   12345678
0010001300048R 01000000000000000000000000000000000000000000000000000000000000000000000000                                                                                          000000000000000000000000000000000000 000000000000  0000000000
0010001300049P 010000510000002827271 30597400000018959   111110942020/R/17   1001202400000000002370700000 02N080920220000000000000000000000000000000000000000000000000000000000000000000000000000000942020/R                00020000900198471441
0010001300050Q 011000014200318725RAFAEL RANGEL DA SILVA                  ESTRADA DA TOCAIA, 101 FUNDOS           DONANA         28110000CMPS GOYTACAZESRJ0000000000000000                                        00030597400000018959   12345678
0010001300051R 01000000000000000000000000000000000000000000000000000000000000000000000000                                                                                          000000000000000000000000000000000000 000000000000  0000000000
0010001300052P 010000510000002827271 30597400000018960   111110942020/R/18   1002202400000000002370700000 02N080920220000000000000000000000000000000000000000000000000000000000000000000000000000000942020/R                00020000900198471441
0010001300053Q 011000014200318725RAFAEL RANGEL DA SILVA                  ESTRADA DA TOCAIA, 101 FUNDOS           DONANA         28110000CMPS GOYTACAZESRJ0000000000000000                                        00030597400000018960   12345678
0010001300054R 01000000000000000000000000000000000000000000000000000000000000000000000000                                                                                          000000000000000000000000000000000000 000000000000  0000000000
0010001300055P 010000510000002827271 30597400000018961   111110942020/R/19   1003202400000000002370700000 02N080920220000000000000000000000000000000000000000000000000000000000000000000000000000000942020/R                00020000900198471441
0010001300056Q 011000014200318725RAFAEL RANGEL DA SILVA                  ESTRADA DA TOCAIA, 101 FUNDOS           DONANA         28110000CMPS GOYTACAZESRJ0000000000000000                                        00030597400000018961   12345678
0010001300057R 01000000000000000000000000000000000000000000000000000000000000000000000000                                                                                          000000000000000000000000000000000000 000000000000  0000000000
0010001300058P 010000510000002827271 30597400000018962   111110942020/R/20   1004202400000000002370700000 02N080920220000000000000000000000000000000000000000000000000000000000000000000000000000000942020/R                00020000900198471441
0010001300059Q 011000014200318725RAFAEL RANGEL DA SILVA                  ESTRADA DA TOCAIA, 101 FUNDOS           DONANA         28110000CMPS GOYTACAZESRJ0000000000000000                                        00030597400000018962   12345678
0010001300060R 01000000000000000000000000000000000000000000000000000000000000000000000000                                                                                          000000000000000000000000000000000000 000000000000  0000000000
0010001300061P 010000510000002827271 30597400000018963   111110942020/R/21   1005202400000000002370700000 02N080920220000000000000000000000000000000000000000000000000000000000000000000000000000000942020/R                00020000900198471441
0010001300062Q 011000014200318725RAFAEL RANGEL DA SILVA                  ESTRADA DA TOCAIA, 101 FUNDOS           DONANA         28110000CMPS GOYTACAZESRJ0000000000000000                                        00030597400000018963   12345678
0010001300063R 01000000000000000000000000000000000000000000000000000000000000000000000000                                                                                          000000000000000000000000000000000000 000000000000  0000000000
0010001300064P 010000510000002827271 30597400000018889   111111442022/12/01  0110202200000000003552800000 02N080920220000000000000000000000000000000000000000000000000000000000000000000000000000001442022/12               00020000900198471441
0010001300065Q 011000088674436749JOELMA TERRA DA SILVA                   RUA SALDANHA MARINHO, 495               CENTRO         28010271CMPS GOYTACAZESRJ0000000000000000                                        00030597400000018889   12345678
0010001300066R 01000000000000000000000000000000000000000000000000000000000000000000000000                                                                                          000000000000000000000000000000000000 000000000000  0000000000
0010001300067P 010000510000002827271 30597400000018890   111111442022/12/02  0111202200000000003552800000 02N080920220000000000000000000000000000000000000000000000000000000000000000000000000000001442022/12               00020000900198471441
0010001300068Q 011000088674436749JOELMA TERRA DA SILVA                   RUA SALDANHA MARINHO, 495               CENTRO         28010271CMPS GOYTACAZESRJ0000000000000000                                        00030597400000018890   12345678
0010001300069R 01000000000000000000000000000000000000000000000000000000000000000000000000                                                                                          000000000000000000000000000000000000 000000000000  0000000000
0010001300070P 010000510000002827271 30597400000018891   111111442022/12/03  0112202200000000003552800000 02N080920220000000000000000000000000000000000000000000000000000000000000000000000000000001442022/12               00020000900198471441
0010001300071Q 011000088674436749JOELMA TERRA DA SILVA                   RUA SALDANHA MARINHO, 495               CENTRO         28010271CMPS GOYTACAZESRJ0000000000000000                                        00030597400000018891   12345678
0010001300072R 01000000000000000000000000000000000000000000000000000000000000000000000000                                                                                          000000000000000000000000000000000000 000000000000  0000000000
0010001300073P 010000510000002827271 30597400000018892   111111442022/12/04  0101202300000000003552800000 02N080920220000000000000000000000000000000000000000000000000000000000000000000000000000001442022/12               00020000900198471441
0010001300074Q 011000088674436749JOELMA TERRA DA SILVA                   RUA SALDANHA MARINHO, 495               CENTRO         28010271CMPS GOYTACAZESRJ0000000000000000                                        00030597400000018892   12345678
0010001300075R 01000000000000000000000000000000000000000000000000000000000000000000000000                                                                                          000000000000000000000000000000000000 000000000000  0000000000
0010001300076P 010000510000002827271 30597400000018893   111111442022/12/05  0102202300000000003552800000 02N080920220000000000000000000000000000000000000000000000000000000000000000000000000000001442022/12               00020000900198471441
0010001300077Q 011000088674436749JOELMA TERRA DA SILVA                   RUA SALDANHA MARINHO, 495               CENTRO         28010271CMPS GOYTACAZESRJ0000000000000000                                        00030597400000018893   12345678
0010001300078R 01000000000000000000000000000000000000000000000000000000000000000000000000                                                                                          000000000000000000000000000000000000 000000000000  0000000000
0010001300079P 010000510000002827271 30597400000018894   111111442022/12/06  0103202300000000003552800000 02N080920220000000000000000000000000000000000000000000000000000000000000000000000000000001442022/12               00020000900198471441
0010001300080Q 011000088674436749JOELMA TERRA DA SILVA                   RUA SALDANHA MARINHO, 495               CENTRO         28010271CMPS GOYTACAZESRJ0000000000000000                                        00030597400000018894   12345678
0010001300081R 01000000000000000000000000000000000000000000000000000000000000000000000000                                                                                          000000000000000000000000000000000000 000000000000  0000000000
0010001300082P 010000510000002827271 30597400000018895   111111442022/12/07  0104202300000000003552800000 02N080920220000000000000000000000000000000000000000000000000000000000000000000000000000001442022/12               00020000900198471441
0010001300083Q 011000088674436749JOELMA TERRA DA SILVA                   RUA SALDANHA MARINHO, 495               CENTRO         28010271CMPS GOYTACAZESRJ0000000000000000                                        00030597400000018895   12345678
0010001300084R 01000000000000000000000000000000000000000000000000000000000000000000000000                                                                                          000000000000000000000000000000000000 000000000000  0000000000
0010001300085P 010000510000002827271 30597400000018896   111111442022/12/08  0105202300000000003552800000 02N080920220000000000000000000000000000000000000000000000000000000000000000000000000000001442022/12               00020000900198471441
0010001300086Q 011000088674436749JOELMA TERRA DA SILVA                   RUA SALDANHA MARINHO, 495               CENTRO         28010271CMPS GOYTACAZESRJ0000000000000000                                        00030597400000018896   12345678
0010001300087R 01000000000000000000000000000000000000000000000000000000000000000000000000                                                                                          000000000000000000000000000000000000 000000000000  0000000000
0010001300088P 010000510000002827271 30597400000018897   111111442022/12/09  0106202300000000003552800000 02N080920220000000000000000000000000000000000000000000000000000000000000000000000000000001442022/12               00020000900198471441
0010001300089Q 011000088674436749JOELMA TERRA DA SILVA                   RUA SALDANHA MARINHO, 495               CENTRO         28010271CMPS GOYTACAZESRJ0000000000000000                                        00030597400000018897   12345678
0010001300090R 01000000000000000000000000000000000000000000000000000000000000000000000000                                                                                          000000000000000000000000000000000000 000000000000  0000000000
0010001300091P 010000510000002827271 30597400000018898   111111442022/12/10  0107202300000000003552800000 02N080920220000000000000000000000000000000000000000000000000000000000000000000000000000001442022/12               00020000900198471441
0010001300092Q 011000088674436749JOELMA TERRA DA SILVA                   RUA SALDANHA MARINHO, 495               CENTRO         28010271CMPS GOYTACAZESRJ0000000000000000                                        00030597400000018898   12345678
0010001300093R 01000000000000000000000000000000000000000000000000000000000000000000000000                                                                                          000000000000000000000000000000000000 000000000000  0000000000
0010001300094P 010000510000002827271 30597400000018899   111111442022/12/11  0108202300000000003552800000 02N080920220000000000000000000000000000000000000000000000000000000000000000000000000000001442022/12               00020000900198471441
0010001300095Q 011000088674436749JOELMA TERRA DA SILVA                   RUA SALDANHA MARINHO, 495               CENTRO         28010271CMPS GOYTACAZESRJ0000000000000000                                        00030597400000018899   12345678
0010001300096R 01000000000000000000000000000000000000000000000000000000000000000000000000                                                                                          000000000000000000000000000000000000 000000000000  0000000000
0010001300097P 010000510000002827271 30597400000018900   111111442022/12/12  0109202300000000003552800000 02N080920220000000000000000000000000000000000000000000000000000000000000000000000000000001442022/12               00020000900198471441
0010001300098Q 011000088674436749JOELMA TERRA DA SILVA                   RUA SALDANHA MARINHO, 495               CENTRO         28010271CMPS GOYTACAZESRJ0000000000000000                                        00030597400000018900   12345678
0010001300099R 01000000000000000000000000000000000000000000000000000000000000000000000000                                                                                          000000000000000000000000000000000000 000000000000  0000000000
0010001300100P 010000510000002827271 30597400000018901   111111442022/12/13  0110202300000000003552800000 02N080920220000000000000000000000000000000000000000000000000000000000000000000000000000001442022/12               00020000900198471441
0010001300101Q 011000088674436749JOELMA TERRA DA SILVA                   RUA SALDANHA MARINHO, 495               CENTRO         28010271CMPS GOYTACAZESRJ0000000000000000                                        00030597400000018901   12345678
0010001300102R 01000000000000000000000000000000000000000000000000000000000000000000000000                                                                                          000000000000000000000000000000000000 000000000000  0000000000
0010001300103P 010000510000002827271 30597400000018902   111111442022/12/14  0111202300000000003552800000 02N080920220000000000000000000000000000000000000000000000000000000000000000000000000000001442022/12               00020000900198471441
0010001300104Q 011000088674436749JOELMA TERRA DA SILVA                   RUA SALDANHA MARINHO, 495               CENTRO         28010271CMPS GOYTACAZESRJ0000000000000000                                        00030597400000018902   12345678
0010001300105R 01000000000000000000000000000000000000000000000000000000000000000000000000                                                                                          000000000000000000000000000000000000 000000000000  0000000000
0010001300106P 010000510000002827271 30597400000018903   111111442022/12/15  0112202300000000003552800000 02N080920220000000000000000000000000000000000000000000000000000000000000000000000000000001442022/12               00020000900198471441
0010001300107Q 011000088674436749JOELMA TERRA DA SILVA                   RUA SALDANHA MARINHO, 495               CENTRO         28010271CMPS GOYTACAZESRJ0000000000000000                                        00030597400000018903   12345678
0010001300108R 01000000000000000000000000000000000000000000000000000000000000000000000000                                                                                          000000000000000000000000000000000000 000000000000  0000000000
0010001300109P 010000510000002827271 30597400000018904   111111442022/12/16  0101202400000000003552800000 02N080920220000000000000000000000000000000000000000000000000000000000000000000000000000001442022/12               00020000900198471441
0010001300110Q 011000088674436749JOELMA TERRA DA SILVA                   RUA SALDANHA MARINHO, 495               CENTRO         28010271CMPS GOYTACAZESRJ0000000000000000                                        00030597400000018904   12345678
0010001300111R 01000000000000000000000000000000000000000000000000000000000000000000000000                                                                                          000000000000000000000000000000000000 000000000000  0000000000
0010001300112P 010000510000002827271 30597400000018905   111111442022/12/17  0102202400000000003552800000 02N080920220000000000000000000000000000000000000000000000000000000000000000000000000000001442022/12               00020000900198471441
0010001300113Q 011000088674436749JOELMA TERRA DA SILVA                   RUA SALDANHA MARINHO, 495               CENTRO         28010271CMPS GOYTACAZESRJ0000000000000000                                        00030597400000018905   12345678
0010001300114R 01000000000000000000000000000000000000000000000000000000000000000000000000                                                                                          000000000000000000000000000000000000 000000000000  0000000000
0010001300115P 010000510000002827271 30597400000018906   111111442022/12/18  0103202400000000003552800000 02N080920220000000000000000000000000000000000000000000000000000000000000000000000000000001442022/12               00020000900198471441
0010001300116Q 011000088674436749JOELMA TERRA DA SILVA                   RUA SALDANHA MARINHO, 495               CENTRO         28010271CMPS GOYTACAZESRJ0000000000000000                                        00030597400000018906   12345678
0010001300117R 01000000000000000000000000000000000000000000000000000000000000000000000000                                                                                          000000000000000000000000000000000000 000000000000  0000000000
0010001300118P 010000510000002827271 30597400000018964   111111452022/16/01  0110202200000000005921300000 02N080920220000000000000000000000000000000000000000000000000000000000000000000000000000001452022/16               00020000900198471441
0010001300119Q 011000003332654756RODRIGO ANIDO LIRA                      RUA ATILANO CRISOSTOMO, 72              PQ TAMANDARE   28030040CAMPOS DOS GOYTRJ0000000000000000                                        00030597400000018964   12345678
0010001300120R 01000000000000000000000000000000000000000000000000000000000000000000000000                                                                                          000000000000000000000000000000000000 000000000000  0000000000
0010001300121P 010000510000002827271 30597400000018965   111111452022/16/02  0111202200000000005921300000 02N080920220000000000000000000000000000000000000000000000000000000000000000000000000000001452022/16               00020000900198471441
0010001300122Q 011000003332654756RODRIGO ANIDO LIRA                      RUA ATILANO CRISOSTOMO, 72              PQ TAMANDARE   28030040CAMPOS DOS GOYTRJ0000000000000000                                        00030597400000018965   12345678
0010001300123R 01000000000000000000000000000000000000000000000000000000000000000000000000                                                                                          000000000000000000000000000000000000 000000000000  0000000000
0010001300124P 010000510000002827271 30597400000018966   111111452022/16/03  0112202200000000005921300000 02N080920220000000000000000000000000000000000000000000000000000000000000000000000000000001452022/16               00020000900198471441
0010001300125Q 011000003332654756RODRIGO ANIDO LIRA                      RUA ATILANO CRISOSTOMO, 72              PQ TAMANDARE   28030040CAMPOS DOS GOYTRJ0000000000000000                                        00030597400000018966   12345678
0010001300126R 01000000000000000000000000000000000000000000000000000000000000000000000000                                                                                          000000000000000000000000000000000000 000000000000  0000000000
0010001300127P 010000510000002827271 30597400000018967   111111452022/16/04  0101202300000000005921300000 02N080920220000000000000000000000000000000000000000000000000000000000000000000000000000001452022/16               00020000900198471441
0010001300128Q 011000003332654756RODRIGO ANIDO LIRA                      RUA ATILANO CRISOSTOMO, 72              PQ TAMANDARE   28030040CAMPOS DOS GOYTRJ0000000000000000                                        00030597400000018967   12345678
0010001300129R 01000000000000000000000000000000000000000000000000000000000000000000000000                                                                                          000000000000000000000000000000000000 000000000000  0000000000
0010001300130P 010000510000002827271 30597400000018968   111111452022/16/05  0102202300000000005921300000 02N080920220000000000000000000000000000000000000000000000000000000000000000000000000000001452022/16               00020000900198471441
0010001300131Q 011000003332654756RODRIGO ANIDO LIRA                      RUA ATILANO CRISOSTOMO, 72              PQ TAMANDARE   28030040CAMPOS DOS GOYTRJ0000000000000000                                        00030597400000018968   12345678
0010001300132R 01000000000000000000000000000000000000000000000000000000000000000000000000                                                                                          000000000000000000000000000000000000 000000000000  0000000000
0010001300133P 010000510000002827271 30597400000018969   111111452022/16/06  0103202300000000005921300000 02N080920220000000000000000000000000000000000000000000000000000000000000000000000000000001452022/16               00020000900198471441
0010001300134Q 011000003332654756RODRIGO ANIDO LIRA                      RUA ATILANO CRISOSTOMO, 72              PQ TAMANDARE   28030040CAMPOS DOS GOYTRJ0000000000000000                                        00030597400000018969   12345678
0010001300135R 01000000000000000000000000000000000000000000000000000000000000000000000000                                                                                          000000000000000000000000000000000000 000000000000  0000000000
0010001300136P 010000510000002827271 30597400000018970   111111452022/16/07  0104202300000000005921300000 02N080920220000000000000000000000000000000000000000000000000000000000000000000000000000001452022/16               00020000900198471441
0010001300137Q 011000003332654756RODRIGO ANIDO LIRA                      RUA ATILANO CRISOSTOMO, 72              PQ TAMANDARE   28030040CAMPOS DOS GOYTRJ0000000000000000                                        00030597400000018970   12345678
0010001300138R 01000000000000000000000000000000000000000000000000000000000000000000000000                                                                                          000000000000000000000000000000000000 000000000000  0000000000
0010001300139P 010000510000002827271 30597400000018971   111111452022/16/08  0105202300000000005921300000 02N080920220000000000000000000000000000000000000000000000000000000000000000000000000000001452022/16               00020000900198471441
0010001300140Q 011000003332654756RODRIGO ANIDO LIRA                      RUA ATILANO CRISOSTOMO, 72              PQ TAMANDARE   28030040CAMPOS DOS GOYTRJ0000000000000000                                        00030597400000018971   12345678
0010001300141R 01000000000000000000000000000000000000000000000000000000000000000000000000                                                                                          000000000000000000000000000000000000 000000000000  0000000000
0010001300142P 010000510000002827271 30597400000018972   111111452022/16/09  0106202300000000005921300000 02N080920220000000000000000000000000000000000000000000000000000000000000000000000000000001452022/16               00020000900198471441
0010001300143Q 011000003332654756RODRIGO ANIDO LIRA                      RUA ATILANO CRISOSTOMO, 72              PQ TAMANDARE   28030040CAMPOS DOS GOYTRJ0000000000000000                                        00030597400000018972   12345678
0010001300144R 01000000000000000000000000000000000000000000000000000000000000000000000000                                                                                          000000000000000000000000000000000000 000000000000  0000000000
0010001300145P 010000510000002827271 30597400000018973   111111452022/16/10  0107202300000000005921300000 02N080920220000000000000000000000000000000000000000000000000000000000000000000000000000001452022/16               00020000900198471441
0010001300146Q 011000003332654756RODRIGO ANIDO LIRA                      RUA ATILANO CRISOSTOMO, 72              PQ TAMANDARE   28030040CAMPOS DOS GOYTRJ0000000000000000                                        00030597400000018973   12345678
0010001300147R 01000000000000000000000000000000000000000000000000000000000000000000000000                                                                                          000000000000000000000000000000000000 000000000000  0000000000
0010001300148P 010000510000002827271 30597400000018974   111111452022/16/11  0108202300000000005921300000 02N080920220000000000000000000000000000000000000000000000000000000000000000000000000000001452022/16               00020000900198471441
0010001300149Q 011000003332654756RODRIGO ANIDO LIRA                      RUA ATILANO CRISOSTOMO, 72              PQ TAMANDARE   28030040CAMPOS DOS GOYTRJ0000000000000000                                        00030597400000018974   12345678
0010001300150R 01000000000000000000000000000000000000000000000000000000000000000000000000                                                                                          000000000000000000000000000000000000 000000000000  0000000000
0010001300151P 010000510000002827271 30597400000018975   111111452022/16/12  0109202300000000005921300000 02N080920220000000000000000000000000000000000000000000000000000000000000000000000000000001452022/16               00020000900198471441
0010001300152Q 011000003332654756RODRIGO ANIDO LIRA                      RUA ATILANO CRISOSTOMO, 72              PQ TAMANDARE   28030040CAMPOS DOS GOYTRJ0000000000000000                                        00030597400000018975   12345678
0010001300153R 01000000000000000000000000000000000000000000000000000000000000000000000000                                                                                          000000000000000000000000000000000000 000000000000  0000000000
0010001300154P 010000510000002827271 30597400000018976   111111452022/16/13  0110202300000000005921300000 02N080920220000000000000000000000000000000000000000000000000000000000000000000000000000001452022/16               00020000900198471441
0010001300155Q 011000003332654756RODRIGO ANIDO LIRA                      RUA ATILANO CRISOSTOMO, 72              PQ TAMANDARE   28030040CAMPOS DOS GOYTRJ0000000000000000                                        00030597400000018976   12345678
0010001300156R 01000000000000000000000000000000000000000000000000000000000000000000000000                                                                                          000000000000000000000000000000000000 000000000000  0000000000
0010001300157P 010000510000002827271 30597400000018977   111111452022/16/14  0111202300000000005921300000 02N080920220000000000000000000000000000000000000000000000000000000000000000000000000000001452022/16               00020000900198471441
0010001300158Q 011000003332654756RODRIGO ANIDO LIRA                      RUA ATILANO CRISOSTOMO, 72              PQ TAMANDARE   28030040CAMPOS DOS GOYTRJ0000000000000000                                        00030597400000018977   12345678
0010001300159R 01000000000000000000000000000000000000000000000000000000000000000000000000                                                                                          000000000000000000000000000000000000 000000000000  0000000000
0010001300160P 010000510000002827271 30597400000018978   111111452022/16/15  0112202300000000005921300000 02N080920220000000000000000000000000000000000000000000000000000000000000000000000000000001452022/16               00020000900198471441
0010001300161Q 011000003332654756RODRIGO ANIDO LIRA                      RUA ATILANO CRISOSTOMO, 72              PQ TAMANDARE   28030040CAMPOS DOS GOYTRJ0000000000000000                                        00030597400000018978   12345678
0010001300162R 01000000000000000000000000000000000000000000000000000000000000000000000000                                                                                          000000000000000000000000000000000000 000000000000  0000000000
0010001300163P 010000510000002827271 30597400000018979   111111452022/16/16  0101202400000000005921300000 02N080920220000000000000000000000000000000000000000000000000000000000000000000000000000001452022/16               00020000900198471441
0010001300164Q 011000003332654756RODRIGO ANIDO LIRA                      RUA ATILANO CRISOSTOMO, 72              PQ TAMANDARE   28030040CAMPOS DOS GOYTRJ0000000000000000                                        00030597400000018979   12345678
0010001300165R 01000000000000000000000000000000000000000000000000000000000000000000000000                                                                                          000000000000000000000000000000000000 000000000000  0000000000
0010001300166P 010000510000002827271 30597400000018980   111111452022/16/17  0102202400000000005921300000 02N080920220000000000000000000000000000000000000000000000000000000000000000000000000000001452022/16               00020000900198471441
0010001300167Q 011000003332654756RODRIGO ANIDO LIRA                      RUA ATILANO CRISOSTOMO, 72              PQ TAMANDARE   28030040CAMPOS DOS GOYTRJ0000000000000000                                        00030597400000018980   12345678
0010001300168R 01000000000000000000000000000000000000000000000000000000000000000000000000                                                                                          000000000000000000000000000000000000 000000000000  0000000000
0010001300169P 010000510000002827271 30597400000018981   111111452022/16/18  0103202400000000005921300000 02N080920220000000000000000000000000000000000000000000000000000000000000000000000000000001452022/16               00020000900198471441
0010001300170Q 011000003332654756RODRIGO ANIDO LIRA                      RUA ATILANO CRISOSTOMO, 72              PQ TAMANDARE   28030040CAMPOS DOS GOYTRJ0000000000000000                                        00030597400000018981   12345678
0010001300171R 01000000000000000000000000000000000000000000000000000000000000000000000000                                                                                          000000000000000000000000000000000000 000000000000  0000000000
0010001300172P 010000510000002827271 30597400000019000   111111472022/15/01  0110202200000000004613500000 02N080920220000000000000000000000000000000000000000000000000000000000000000000000000000001472022/15               00020000900198471441
0010001300173Q 011000014327356751LUIZ FELIPE VALLADARES RANGEL           RUA HUMBERTO CLAUDIO N.5                TRAVESSAO      28175000CAMPOS         RJ0000000000000000                                        00030597400000019000   12345678
0010001300174R 01000000000000000000000000000000000000000000000000000000000000000000000000                                                                                          000000000000000000000000000000000000 000000000000  0000000000
0010001300175P 010000510000002827271 30597400000019001   111111472022/15/02  0111202200000000004613500000 02N080920220000000000000000000000000000000000000000000000000000000000000000000000000000001472022/15               00020000900198471441
0010001300176Q 011000014327356751LUIZ FELIPE VALLADARES RANGEL           RUA HUMBERTO CLAUDIO N.5                TRAVESSAO      28175000CAMPOS         RJ0000000000000000                                        00030597400000019001   12345678
0010001300177R 01000000000000000000000000000000000000000000000000000000000000000000000000                                                                                          000000000000000000000000000000000000 000000000000  0000000000
0010001300178P 010000510000002827271 30597400000019002   111111472022/15/03  0112202200000000004613500000 02N080920220000000000000000000000000000000000000000000000000000000000000000000000000000001472022/15               00020000900198471441
0010001300179Q 011000014327356751LUIZ FELIPE VALLADARES RANGEL           RUA HUMBERTO CLAUDIO N.5                TRAVESSAO      28175000CAMPOS         RJ0000000000000000                                        00030597400000019002   12345678
0010001300180R 01000000000000000000000000000000000000000000000000000000000000000000000000                                                                                          000000000000000000000000000000000000 000000000000  0000000000
0010001300181P 010000510000002827271 30597400000019003   111111472022/15/04  0101202300000000004613500000 02N080920220000000000000000000000000000000000000000000000000000000000000000000000000000001472022/15               00020000900198471441
0010001300182Q 011000014327356751LUIZ FELIPE VALLADARES RANGEL           RUA HUMBERTO CLAUDIO N.5                TRAVESSAO      28175000CAMPOS         RJ0000000000000000                                        00030597400000019003   12345678
0010001300183R 01000000000000000000000000000000000000000000000000000000000000000000000000                                                                                          000000000000000000000000000000000000 000000000000  0000000000
0010001300184P 010000510000002827271 30597400000019004   111111472022/15/05  0102202300000000004613500000 02N080920220000000000000000000000000000000000000000000000000000000000000000000000000000001472022/15               00020000900198471441
0010001300185Q 011000014327356751LUIZ FELIPE VALLADARES RANGEL           RUA HUMBERTO CLAUDIO N.5                TRAVESSAO      28175000CAMPOS         RJ0000000000000000                                        00030597400000019004   12345678
0010001300186R 01000000000000000000000000000000000000000000000000000000000000000000000000                                                                                          000000000000000000000000000000000000 000000000000  0000000000
0010001300187P 010000510000002827271 30597400000019005   111111472022/15/06  0103202300000000004613500000 02N080920220000000000000000000000000000000000000000000000000000000000000000000000000000001472022/15               00020000900198471441
0010001300188Q 011000014327356751LUIZ FELIPE VALLADARES RANGEL           RUA HUMBERTO CLAUDIO N.5                TRAVESSAO      28175000CAMPOS         RJ0000000000000000                                        00030597400000019005   12345678
0010001300189R 01000000000000000000000000000000000000000000000000000000000000000000000000                                                                                          000000000000000000000000000000000000 000000000000  0000000000
0010001300190P 010000510000002827271 30597400000019006   111111472022/15/07  0104202300000000004613500000 02N080920220000000000000000000000000000000000000000000000000000000000000000000000000000001472022/15               00020000900198471441
0010001300191Q 011000014327356751LUIZ FELIPE VALLADARES RANGEL           RUA HUMBERTO CLAUDIO N.5                TRAVESSAO      28175000CAMPOS         RJ0000000000000000                                        00030597400000019006   12345678
0010001300192R 01000000000000000000000000000000000000000000000000000000000000000000000000                                                                                          000000000000000000000000000000000000 000000000000  0000000000
0010001300193P 010000510000002827271 30597400000019007   111111472022/15/08  0105202300000000004613500000 02N080920220000000000000000000000000000000000000000000000000000000000000000000000000000001472022/15               00020000900198471441
0010001300194Q 011000014327356751LUIZ FELIPE VALLADARES RANGEL           RUA HUMBERTO CLAUDIO N.5                TRAVESSAO      28175000CAMPOS         RJ0000000000000000                                        00030597400000019007   12345678
0010001300195R 01000000000000000000000000000000000000000000000000000000000000000000000000                                                                                          000000000000000000000000000000000000 000000000000  0000000000
0010001300196P 010000510000002827271 30597400000019008   111111472022/15/09  0106202300000000004613500000 02N080920220000000000000000000000000000000000000000000000000000000000000000000000000000001472022/15               00020000900198471441
0010001300197Q 011000014327356751LUIZ FELIPE VALLADARES RANGEL           RUA HUMBERTO CLAUDIO N.5                TRAVESSAO      28175000CAMPOS         RJ0000000000000000                                        00030597400000019008   12345678
0010001300198R 01000000000000000000000000000000000000000000000000000000000000000000000000                                                                                          000000000000000000000000000000000000 000000000000  0000000000
0010001300199P 010000510000002827271 30597400000019009   111111472022/15/10  0107202300000000004613500000 02N080920220000000000000000000000000000000000000000000000000000000000000000000000000000001472022/15               00020000900198471441
0010001300200Q 011000014327356751LUIZ FELIPE VALLADARES RANGEL           RUA HUMBERTO CLAUDIO N.5                TRAVESSAO      28175000CAMPOS         RJ0000000000000000                                        00030597400000019009   12345678
0010001300201R 01000000000000000000000000000000000000000000000000000000000000000000000000                                                                                          000000000000000000000000000000000000 000000000000  0000000000
0010001300202P 010000510000002827271 30597400000019010   111111472022/15/11  0108202300000000004613500000 02N080920220000000000000000000000000000000000000000000000000000000000000000000000000000001472022/15               00020000900198471441
0010001300203Q 011000014327356751LUIZ FELIPE VALLADARES RANGEL           RUA HUMBERTO CLAUDIO N.5                TRAVESSAO      28175000CAMPOS         RJ0000000000000000                                        00030597400000019010   12345678
0010001300204R 01000000000000000000000000000000000000000000000000000000000000000000000000                                                                                          000000000000000000000000000000000000 000000000000  0000000000
0010001300205P 010000510000002827271 30597400000019011   111111472022/15/12  0109202300000000004613500000 02N080920220000000000000000000000000000000000000000000000000000000000000000000000000000001472022/15               00020000900198471441
0010001300206Q 011000014327356751LUIZ FELIPE VALLADARES RANGEL           RUA HUMBERTO CLAUDIO N.5                TRAVESSAO      28175000CAMPOS         RJ0000000000000000                                        00030597400000019011   12345678
0010001300207R 01000000000000000000000000000000000000000000000000000000000000000000000000                                                                                          000000000000000000000000000000000000 000000000000  0000000000
0010001300208P 010000510000002827271 30597400000019012   111111472022/15/13  0110202300000000004613500000 02N080920220000000000000000000000000000000000000000000000000000000000000000000000000000001472022/15               00020000900198471441
0010001300209Q 011000014327356751LUIZ FELIPE VALLADARES RANGEL           RUA HUMBERTO CLAUDIO N.5                TRAVESSAO      28175000CAMPOS         RJ0000000000000000                                        00030597400000019012   12345678
0010001300210R 01000000000000000000000000000000000000000000000000000000000000000000000000                                                                                          000000000000000000000000000000000000 000000000000  0000000000
0010001300211P 010000510000002827271 30597400000019013   111111472022/15/14  0111202300000000004613500000 02N080920220000000000000000000000000000000000000000000000000000000000000000000000000000001472022/15               00020000900198471441
0010001300212Q 011000014327356751LUIZ FELIPE VALLADARES RANGEL           RUA HUMBERTO CLAUDIO N.5                TRAVESSAO      28175000CAMPOS         RJ0000000000000000                                        00030597400000019013   12345678
0010001300213R 01000000000000000000000000000000000000000000000000000000000000000000000000                                                                                          000000000000000000000000000000000000 000000000000  0000000000
0010001300214P 010000510000002827271 30597400000019014   111111472022/15/15  0112202300000000004613500000 02N080920220000000000000000000000000000000000000000000000000000000000000000000000000000001472022/15               00020000900198471441
0010001300215Q 011000014327356751LUIZ FELIPE VALLADARES RANGEL           RUA HUMBERTO CLAUDIO N.5                TRAVESSAO      28175000CAMPOS         RJ0000000000000000                                        00030597400000019014   12345678
0010001300216R 01000000000000000000000000000000000000000000000000000000000000000000000000                                                                                          000000000000000000000000000000000000 000000000000  0000000000
0010001300217P 010000510000002827271 30597400000019015   111111472022/15/16  0101202400000000004613500000 02N080920220000000000000000000000000000000000000000000000000000000000000000000000000000001472022/15               00020000900198471441
0010001300218Q 011000014327356751LUIZ FELIPE VALLADARES RANGEL           RUA HUMBERTO CLAUDIO N.5                TRAVESSAO      28175000CAMPOS         RJ0000000000000000                                        00030597400000019015   12345678
0010001300219R 01000000000000000000000000000000000000000000000000000000000000000000000000                                                                                          000000000000000000000000000000000000 000000000000  0000000000
0010001300220P 010000510000002827271 30597400000019016   111111472022/15/17  0102202400000000004613500000 02N080920220000000000000000000000000000000000000000000000000000000000000000000000000000001472022/15               00020000900198471441
0010001300221Q 011000014327356751LUIZ FELIPE VALLADARES RANGEL           RUA HUMBERTO CLAUDIO N.5                TRAVESSAO      28175000CAMPOS         RJ0000000000000000                                        00030597400000019016   12345678
0010001300222R 01000000000000000000000000000000000000000000000000000000000000000000000000                                                                                          000000000000000000000000000000000000 000000000000  0000000000
0010001300223P 010000510000002827271 30597400000019017   111111472022/15/18  0103202400000000004613500000 02N080920220000000000000000000000000000000000000000000000000000000000000000000000000000001472022/15               00020000900198471441
0010001300224Q 011000014327356751LUIZ FELIPE VALLADARES RANGEL           RUA HUMBERTO CLAUDIO N.5                TRAVESSAO      28175000CAMPOS         RJ0000000000000000                                        00030597400000019017   12345678
0010001300225R 01000000000000000000000000000000000000000000000000000000000000000000000000                                                                                          000000000000000000000000000000000000 000000000000  0000000000
0010001300226P 010000510000002827271 30597400000019018   111111472022/15/19  0104202400000000004613500000 02N080920220000000000000000000000000000000000000000000000000000000000000000000000000000001472022/15               00020000900198471441
0010001300227Q 011000014327356751LUIZ FELIPE VALLADARES RANGEL           RUA HUMBERTO CLAUDIO N.5                TRAVESSAO      28175000CAMPOS         RJ0000000000000000                                        00030597400000019018   12345678
0010001300228R 01000000000000000000000000000000000000000000000000000000000000000000000000                                                                                          000000000000000000000000000000000000 000000000000  0000000000
0010001300229P 010000510000002827271 30597400000019019   111111472022/15/20  0105202400000000004613500000 02N080920220000000000000000000000000000000000000000000000000000000000000000000000000000001472022/15               00020000900198471441
0010001300230Q 011000014327356751LUIZ FELIPE VALLADARES RANGEL           RUA HUMBERTO CLAUDIO N.5                TRAVESSAO      28175000CAMPOS         RJ0000000000000000                                        00030597400000019019   12345678
0010001300231R 01000000000000000000000000000000000000000000000000000000000000000000000000                                                                                          000000000000000000000000000000000000 000000000000  0000000000
0010001300232P 010000510000002827271 30597400000019020   111111472022/15/21  0106202400000000004613500000 02N080920220000000000000000000000000000000000000000000000000000000000000000000000000000001472022/15               00020000900198471441
0010001300233Q 011000014327356751LUIZ FELIPE VALLADARES RANGEL           RUA HUMBERTO CLAUDIO N.5                TRAVESSAO      28175000CAMPOS         RJ0000000000000000                                        00030597400000019020   12345678
0010001300234R 01000000000000000000000000000000000000000000000000000000000000000000000000                                                                                          000000000000000000000000000000000000 000000000000  0000000000
0010001300235P 010000510000002827271 30597400000018853   111111492022/15/01  0110202200000000005921300000 02N080920220000000000000000000000000000000000000000000000000000000000000000000000000000001492022/15               00020000900198471441
0010001300236Q 011000007195103765ELIANE MARIA MANHAES VIANA              AV PINHEIRO MACHADO, 1058               FAROL          28100000CMPS GOYTACAZESRJ0000000000000000                                        00030597400000018853   12345678
0010001300237R 01000000000000000000000000000000000000000000000000000000000000000000000000                                                                                          000000000000000000000000000000000000 000000000000  0000000000
0010001300238P 010000510000002827271 30597400000018854   111111492022/15/02  0111202200000000005921300000 02N080920220000000000000000000000000000000000000000000000000000000000000000000000000000001492022/15               00020000900198471441
0010001300239Q 011000007195103765ELIANE MARIA MANHAES VIANA              AV PINHEIRO MACHADO, 1058               FAROL          28100000CMPS GOYTACAZESRJ0000000000000000                                        00030597400000018854   12345678
0010001300240R 01000000000000000000000000000000000000000000000000000000000000000000000000                                                                                          000000000000000000000000000000000000 000000000000  0000000000
0010001300241P 010000510000002827271 30597400000018855   111111492022/15/03  0112202200000000005921300000 02N080920220000000000000000000000000000000000000000000000000000000000000000000000000000001492022/15               00020000900198471441
0010001300242Q 011000007195103765ELIANE MARIA MANHAES VIANA              AV PINHEIRO MACHADO, 1058               FAROL          28100000CMPS GOYTACAZESRJ0000000000000000                                        00030597400000018855   12345678
0010001300243R 01000000000000000000000000000000000000000000000000000000000000000000000000                                                                                          000000000000000000000000000000000000 000000000000  0000000000
0010001300244P 010000510000002827271 30597400000018856   111111492022/15/04  0101202300000000005921300000 02N080920220000000000000000000000000000000000000000000000000000000000000000000000000000001492022/15               00020000900198471441
0010001300245Q 011000007195103765ELIANE MARIA MANHAES VIANA              AV PINHEIRO MACHADO, 1058               FAROL          28100000CMPS GOYTACAZESRJ0000000000000000                                        00030597400000018856   12345678
0010001300246R 01000000000000000000000000000000000000000000000000000000000000000000000000                                                                                          000000000000000000000000000000000000 000000000000  0000000000
0010001300247P 010000510000002827271 30597400000018857   111111492022/15/05  0102202300000000005921300000 02N080920220000000000000000000000000000000000000000000000000000000000000000000000000000001492022/15               00020000900198471441
0010001300248Q 011000007195103765ELIANE MARIA MANHAES VIANA              AV PINHEIRO MACHADO, 1058               FAROL          28100000CMPS GOYTACAZESRJ0000000000000000                                        00030597400000018857   12345678
0010001300249R 01000000000000000000000000000000000000000000000000000000000000000000000000                                                                                          000000000000000000000000000000000000 000000000000  0000000000
0010001300250P 010000510000002827271 30597400000018858   111111492022/15/06  0103202300000000005921300000 02N080920220000000000000000000000000000000000000000000000000000000000000000000000000000001492022/15               00020000900198471441
0010001300251Q 011000007195103765ELIANE MARIA MANHAES VIANA              AV PINHEIRO MACHADO, 1058               FAROL          28100000CMPS GOYTACAZESRJ0000000000000000                                        00030597400000018858   12345678
0010001300252R 01000000000000000000000000000000000000000000000000000000000000000000000000                                                                                          000000000000000000000000000000000000 000000000000  0000000000
0010001300253P 010000510000002827271 30597400000018859   111111492022/15/07  0104202300000000005921300000 02N080920220000000000000000000000000000000000000000000000000000000000000000000000000000001492022/15               00020000900198471441
0010001300254Q 011000007195103765ELIANE MARIA MANHAES VIANA              AV PINHEIRO MACHADO, 1058               FAROL          28100000CMPS GOYTACAZESRJ0000000000000000                                        00030597400000018859   12345678
0010001300255R 01000000000000000000000000000000000000000000000000000000000000000000000000                                                                                          000000000000000000000000000000000000 000000000000  0000000000
0010001300256P 010000510000002827271 30597400000018860   111111492022/15/08  0105202300000000005921300000 02N080920220000000000000000000000000000000000000000000000000000000000000000000000000000001492022/15               00020000900198471441
0010001300257Q 011000007195103765ELIANE MARIA MANHAES VIANA              AV PINHEIRO MACHADO, 1058               FAROL          28100000CMPS GOYTACAZESRJ0000000000000000                                        00030597400000018860   12345678
0010001300258R 01000000000000000000000000000000000000000000000000000000000000000000000000                                                                                          000000000000000000000000000000000000 000000000000  0000000000
0010001300259P 010000510000002827271 30597400000018861   111111492022/15/09  0106202300000000005921300000 02N080920220000000000000000000000000000000000000000000000000000000000000000000000000000001492022/15               00020000900198471441
0010001300260Q 011000007195103765ELIANE MARIA MANHAES VIANA              AV PINHEIRO MACHADO, 1058               FAROL          28100000CMPS GOYTACAZESRJ0000000000000000                                        00030597400000018861   12345678
0010001300261R 01000000000000000000000000000000000000000000000000000000000000000000000000                                                                                          000000000000000000000000000000000000 000000000000  0000000000
0010001300262P 010000510000002827271 30597400000018862   111111492022/15/10  0107202300000000005921300000 02N080920220000000000000000000000000000000000000000000000000000000000000000000000000000001492022/15               00020000900198471441
0010001300263Q 011000007195103765ELIANE MARIA MANHAES VIANA              AV PINHEIRO MACHADO, 1058               FAROL          28100000CMPS GOYTACAZESRJ0000000000000000                                        00030597400000018862   12345678
0010001300264R 01000000000000000000000000000000000000000000000000000000000000000000000000                                                                                          000000000000000000000000000000000000 000000000000  0000000000
0010001300265P 010000510000002827271 30597400000018863   111111492022/15/11  0108202300000000005921300000 02N080920220000000000000000000000000000000000000000000000000000000000000000000000000000001492022/15               00020000900198471441
0010001300266Q 011000007195103765ELIANE MARIA MANHAES VIANA              AV PINHEIRO MACHADO, 1058               FAROL          28100000CMPS GOYTACAZESRJ0000000000000000                                        00030597400000018863   12345678
0010001300267R 01000000000000000000000000000000000000000000000000000000000000000000000000                                                                                          000000000000000000000000000000000000 000000000000  0000000000
0010001300268P 010000510000002827271 30597400000018864   111111492022/15/12  0109202300000000005921300000 02N080920220000000000000000000000000000000000000000000000000000000000000000000000000000001492022/15               00020000900198471441
0010001300269Q 011000007195103765ELIANE MARIA MANHAES VIANA              AV PINHEIRO MACHADO, 1058               FAROL          28100000CMPS GOYTACAZESRJ0000000000000000                                        00030597400000018864   12345678
0010001300270R 01000000000000000000000000000000000000000000000000000000000000000000000000                                                                                          000000000000000000000000000000000000 000000000000  0000000000
0010001300271P 010000510000002827271 30597400000018865   111111492022/15/13  0110202300000000005921300000 02N080920220000000000000000000000000000000000000000000000000000000000000000000000000000001492022/15               00020000900198471441
0010001300272Q 011000007195103765ELIANE MARIA MANHAES VIANA              AV PINHEIRO MACHADO, 1058               FAROL          28100000CMPS GOYTACAZESRJ0000000000000000                                        00030597400000018865   12345678
0010001300273R 01000000000000000000000000000000000000000000000000000000000000000000000000                                                                                          000000000000000000000000000000000000 000000000000  0000000000
0010001300274P 010000510000002827271 30597400000018866   111111492022/15/14  0111202300000000005921300000 02N080920220000000000000000000000000000000000000000000000000000000000000000000000000000001492022/15               00020000900198471441
0010001300275Q 011000007195103765ELIANE MARIA MANHAES VIANA              AV PINHEIRO MACHADO, 1058               FAROL          28100000CMPS GOYTACAZESRJ0000000000000000                                        00030597400000018866   12345678
0010001300276R 01000000000000000000000000000000000000000000000000000000000000000000000000                                                                                          000000000000000000000000000000000000 000000000000  0000000000
0010001300277P 010000510000002827271 30597400000018867   111111492022/15/15  0112202300000000005921300000 02N080920220000000000000000000000000000000000000000000000000000000000000000000000000000001492022/15               00020000900198471441
0010001300278Q 011000007195103765ELIANE MARIA MANHAES VIANA              AV PINHEIRO MACHADO, 1058               FAROL          28100000CMPS GOYTACAZESRJ0000000000000000                                        00030597400000018867   12345678
0010001300279R 01000000000000000000000000000000000000000000000000000000000000000000000000                                                                                          000000000000000000000000000000000000 000000000000  0000000000
0010001300280P 010000510000002827271 30597400000018868   111111492022/15/16  0101202400000000005921300000 02N080920220000000000000000000000000000000000000000000000000000000000000000000000000000001492022/15               00020000900198471441
0010001300281Q 011000007195103765ELIANE MARIA MANHAES VIANA              AV PINHEIRO MACHADO, 1058               FAROL          28100000CMPS GOYTACAZESRJ0000000000000000                                        00030597400000018868   12345678
0010001300282R 01000000000000000000000000000000000000000000000000000000000000000000000000                                                                                          000000000000000000000000000000000000 000000000000  0000000000
0010001300283P 010000510000002827271 30597400000018869   111111492022/15/17  0102202400000000005921300000 02N080920220000000000000000000000000000000000000000000000000000000000000000000000000000001492022/15               00020000900198471441
0010001300284Q 011000007195103765ELIANE MARIA MANHAES VIANA              AV PINHEIRO MACHADO, 1058               FAROL          28100000CMPS GOYTACAZESRJ0000000000000000                                        00030597400000018869   12345678
0010001300285R 01000000000000000000000000000000000000000000000000000000000000000000000000                                                                                          000000000000000000000000000000000000 000000000000  0000000000
0010001300286P 010000510000002827271 30597400000018870   111111492022/15/18  0103202400000000005921300000 02N080920220000000000000000000000000000000000000000000000000000000000000000000000000000001492022/15               00020000900198471441
0010001300287Q 011000007195103765ELIANE MARIA MANHAES VIANA              AV PINHEIRO MACHADO, 1058               FAROL          28100000CMPS GOYTACAZESRJ0000000000000000                                        00030597400000018870   12345678
0010001300288R 01000000000000000000000000000000000000000000000000000000000000000000000000                                                                                          000000000000000000000000000000000000 000000000000  0000000000
0010001300289P 010000510000002827271 30597400000018982   111111502022/12/01  0110202200000000005033100000 02N080920220000000000000000000000000000000000000000000000000000000000000000000000000000001502022/12               00020000900198471441
0010001300290Q 011000084231971749SILVIA TEIXEIRA DE VIVEIROS MORAES      RUA SILVA PINTO, 212                    TURF CLUB      28027270CAMPOS DOS GOYTRJ0000000000000000                                        00030597400000018982   12345678
0010001300291R 01000000000000000000000000000000000000000000000000000000000000000000000000                                                                                          000000000000000000000000000000000000 000000000000  0000000000
0010001300292P 010000510000002827271 30597400000018983   111111502022/12/02  0111202200000000005033100000 02N080920220000000000000000000000000000000000000000000000000000000000000000000000000000001502022/12               00020000900198471441
0010001300293Q 011000084231971749SILVIA TEIXEIRA DE VIVEIROS MORAES      RUA SILVA PINTO, 212                    TURF CLUB      28027270CAMPOS DOS GOYTRJ0000000000000000                                        00030597400000018983   12345678
0010001300294R 01000000000000000000000000000000000000000000000000000000000000000000000000                                                                                          000000000000000000000000000000000000 000000000000  0000000000
0010001300295P 010000510000002827271 30597400000018984   111111502022/12/03  0112202200000000005033100000 02N080920220000000000000000000000000000000000000000000000000000000000000000000000000000001502022/12               00020000900198471441
0010001300296Q 011000084231971749SILVIA TEIXEIRA DE VIVEIROS MORAES      RUA SILVA PINTO, 212                    TURF CLUB      28027270CAMPOS DOS GOYTRJ0000000000000000                                        00030597400000018984   12345678
0010001300297R 01000000000000000000000000000000000000000000000000000000000000000000000000                                                                                          000000000000000000000000000000000000 000000000000  0000000000
0010001300298P 010000510000002827271 30597400000018985   111111502022/12/04  0101202300000000005033100000 02N080920220000000000000000000000000000000000000000000000000000000000000000000000000000001502022/12               00020000900198471441
0010001300299Q 011000084231971749SILVIA TEIXEIRA DE VIVEIROS MORAES      RUA SILVA PINTO, 212                    TURF CLUB      28027270CAMPOS DOS GOYTRJ0000000000000000                                        00030597400000018985   12345678
0010001300300R 01000000000000000000000000000000000000000000000000000000000000000000000000                                                                                          000000000000000000000000000000000000 000000000000  0000000000
0010001300301P 010000510000002827271 30597400000018986   111111502022/12/05  0102202300000000005033100000 02N080920220000000000000000000000000000000000000000000000000000000000000000000000000000001502022/12               00020000900198471441
0010001300302Q 011000084231971749SILVIA TEIXEIRA DE VIVEIROS MORAES      RUA SILVA PINTO, 212                    TURF CLUB      28027270CAMPOS DOS GOYTRJ0000000000000000                                        00030597400000018986   12345678
0010001300303R 01000000000000000000000000000000000000000000000000000000000000000000000000                                                                                          000000000000000000000000000000000000 000000000000  0000000000
0010001300304P 010000510000002827271 30597400000018987   111111502022/12/06  0103202300000000005033100000 02N080920220000000000000000000000000000000000000000000000000000000000000000000000000000001502022/12               00020000900198471441
0010001300305Q 011000084231971749SILVIA TEIXEIRA DE VIVEIROS MORAES      RUA SILVA PINTO, 212                    TURF CLUB      28027270CAMPOS DOS GOYTRJ0000000000000000                                        00030597400000018987   12345678
0010001300306R 01000000000000000000000000000000000000000000000000000000000000000000000000                                                                                          000000000000000000000000000000000000 000000000000  0000000000
0010001300307P 010000510000002827271 30597400000018988   111111502022/12/07  0104202300000000005033100000 02N080920220000000000000000000000000000000000000000000000000000000000000000000000000000001502022/12               00020000900198471441
0010001300308Q 011000084231971749SILVIA TEIXEIRA DE VIVEIROS MORAES      RUA SILVA PINTO, 212                    TURF CLUB      28027270CAMPOS DOS GOYTRJ0000000000000000                                        00030597400000018988   12345678
0010001300309R 01000000000000000000000000000000000000000000000000000000000000000000000000                                                                                          000000000000000000000000000000000000 000000000000  0000000000
0010001300310P 010000510000002827271 30597400000018989   111111502022/12/08  0105202300000000005033100000 02N080920220000000000000000000000000000000000000000000000000000000000000000000000000000001502022/12               00020000900198471441
0010001300311Q 011000084231971749SILVIA TEIXEIRA DE VIVEIROS MORAES      RUA SILVA PINTO, 212                    TURF CLUB      28027270CAMPOS DOS GOYTRJ0000000000000000                                        00030597400000018989   12345678
0010001300312R 01000000000000000000000000000000000000000000000000000000000000000000000000                                                                                          000000000000000000000000000000000000 000000000000  0000000000
0010001300313P 010000510000002827271 30597400000018990   111111502022/12/09  0106202300000000005033100000 02N080920220000000000000000000000000000000000000000000000000000000000000000000000000000001502022/12               00020000900198471441
0010001300314Q 011000084231971749SILVIA TEIXEIRA DE VIVEIROS MORAES      RUA SILVA PINTO, 212                    TURF CLUB      28027270CAMPOS DOS GOYTRJ0000000000000000                                        00030597400000018990   12345678
0010001300315R 01000000000000000000000000000000000000000000000000000000000000000000000000                                                                                          000000000000000000000000000000000000 000000000000  0000000000
0010001300316P 010000510000002827271 30597400000018991   111111502022/12/10  0107202300000000005033100000 02N080920220000000000000000000000000000000000000000000000000000000000000000000000000000001502022/12               00020000900198471441
0010001300317Q 011000084231971749SILVIA TEIXEIRA DE VIVEIROS MORAES      RUA SILVA PINTO, 212                    TURF CLUB      28027270CAMPOS DOS GOYTRJ0000000000000000                                        00030597400000018991   12345678
0010001300318R 01000000000000000000000000000000000000000000000000000000000000000000000000                                                                                          000000000000000000000000000000000000 000000000000  0000000000
0010001300319P 010000510000002827271 30597400000018992   111111502022/12/11  0108202300000000005033100000 02N080920220000000000000000000000000000000000000000000000000000000000000000000000000000001502022/12               00020000900198471441
0010001300320Q 011000084231971749SILVIA TEIXEIRA DE VIVEIROS MORAES      RUA SILVA PINTO, 212                    TURF CLUB      28027270CAMPOS DOS GOYTRJ0000000000000000                                        00030597400000018992   12345678
0010001300321R 01000000000000000000000000000000000000000000000000000000000000000000000000                                                                                          000000000000000000000000000000000000 000000000000  0000000000
0010001300322P 010000510000002827271 30597400000018993   111111502022/12/12  0109202300000000005033100000 02N080920220000000000000000000000000000000000000000000000000000000000000000000000000000001502022/12               00020000900198471441
0010001300323Q 011000084231971749SILVIA TEIXEIRA DE VIVEIROS MORAES      RUA SILVA PINTO, 212                    TURF CLUB      28027270CAMPOS DOS GOYTRJ0000000000000000                                        00030597400000018993   12345678
0010001300324R 01000000000000000000000000000000000000000000000000000000000000000000000000                                                                                          000000000000000000000000000000000000 000000000000  0000000000
0010001300325P 010000510000002827271 30597400000018994   111111502022/12/13  0110202300000000005033100000 02N080920220000000000000000000000000000000000000000000000000000000000000000000000000000001502022/12               00020000900198471441
0010001300326Q 011000084231971749SILVIA TEIXEIRA DE VIVEIROS MORAES      RUA SILVA PINTO, 212                    TURF CLUB      28027270CAMPOS DOS GOYTRJ0000000000000000                                        00030597400000018994   12345678
0010001300327R 01000000000000000000000000000000000000000000000000000000000000000000000000                                                                                          000000000000000000000000000000000000 000000000000  0000000000
0010001300328P 010000510000002827271 30597400000018995   111111502022/12/14  0111202300000000005033100000 02N080920220000000000000000000000000000000000000000000000000000000000000000000000000000001502022/12               00020000900198471441
0010001300329Q 011000084231971749SILVIA TEIXEIRA DE VIVEIROS MORAES      RUA SILVA PINTO, 212                    TURF CLUB      28027270CAMPOS DOS GOYTRJ0000000000000000                                        00030597400000018995   12345678
0010001300330R 01000000000000000000000000000000000000000000000000000000000000000000000000                                                                                          000000000000000000000000000000000000 000000000000  0000000000
0010001300331P 010000510000002827271 30597400000018996   111111502022/12/15  0112202300000000005033100000 02N080920220000000000000000000000000000000000000000000000000000000000000000000000000000001502022/12               00020000900198471441
0010001300332Q 011000084231971749SILVIA TEIXEIRA DE VIVEIROS MORAES      RUA SILVA PINTO, 212                    TURF CLUB      28027270CAMPOS DOS GOYTRJ0000000000000000                                        00030597400000018996   12345678
0010001300333R 01000000000000000000000000000000000000000000000000000000000000000000000000                                                                                          000000000000000000000000000000000000 000000000000  0000000000
0010001300334P 010000510000002827271 30597400000018997   111111502022/12/16  0101202400000000005033100000 02N080920220000000000000000000000000000000000000000000000000000000000000000000000000000001502022/12               00020000900198471441
0010001300335Q 011000084231971749SILVIA TEIXEIRA DE VIVEIROS MORAES      RUA SILVA PINTO, 212                    TURF CLUB      28027270CAMPOS DOS GOYTRJ0000000000000000                                        00030597400000018997   12345678
0010001300336R 01000000000000000000000000000000000000000000000000000000000000000000000000                                                                                          000000000000000000000000000000000000 000000000000  0000000000
0010001300337P 010000510000002827271 30597400000018998   111111502022/12/17  0102202400000000005033100000 02N080920220000000000000000000000000000000000000000000000000000000000000000000000000000001502022/12               00020000900198471441
0010001300338Q 011000084231971749SILVIA TEIXEIRA DE VIVEIROS MORAES      RUA SILVA PINTO, 212                    TURF CLUB      28027270CAMPOS DOS GOYTRJ0000000000000000                                        00030597400000018998   12345678
0010001300339R 01000000000000000000000000000000000000000000000000000000000000000000000000                                                                                          000000000000000000000000000000000000 000000000000  0000000000
0010001300340P 010000510000002827271 30597400000018999   111111502022/12/18  0103202400000000005033100000 02N080920220000000000000000000000000000000000000000000000000000000000000000000000000000001502022/12               00020000900198471441
0010001300341Q 011000084231971749SILVIA TEIXEIRA DE VIVEIROS MORAES      RUA SILVA PINTO, 212                    TURF CLUB      28027270CAMPOS DOS GOYTRJ0000000000000000                                        00030597400000018999   12345678
0010001300342R 01000000000000000000000000000000000000000000000000000000000000000000000000                                                                                          000000000000000000000000000000000000 000000000000  0000000000
0010001300343P 010000510000002827271 30597400000018817   111111512022/15/01  0110202200000000005921300000 02N080920220000000000000000000000000000000000000000000000000000000000000000000000000000001512022/15               00020000900198471441
0010001300344Q 011000013389021728CAMILA DA SILVA GOMES                   RUA SATELITE , 47                       SANTA MARIA    28024123CAMPOS DOS GOYTRJ0000000000000000                                        00030597400000018817   12345678
0010001300345R 01000000000000000000000000000000000000000000000000000000000000000000000000                                                                                          000000000000000000000000000000000000 000000000000  0000000000
0010001300346P 010000510000002827271 30597400000018818   111111512022/15/02  0111202200000000005921300000 02N080920220000000000000000000000000000000000000000000000000000000000000000000000000000001512022/15               00020000900198471441
0010001300347Q 011000013389021728CAMILA DA SILVA GOMES                   RUA SATELITE , 47                       SANTA MARIA    28024123CAMPOS DOS GOYTRJ0000000000000000                                        00030597400000018818   12345678
0010001300348R 01000000000000000000000000000000000000000000000000000000000000000000000000                                                                                          000000000000000000000000000000000000 000000000000  0000000000
0010001300349P 010000510000002827271 30597400000018819   111111512022/15/03  0112202200000000005921300000 02N080920220000000000000000000000000000000000000000000000000000000000000000000000000000001512022/15               00020000900198471441
0010001300350Q 011000013389021728CAMILA DA SILVA GOMES                   RUA SATELITE , 47                       SANTA MARIA    28024123CAMPOS DOS GOYTRJ0000000000000000                                        00030597400000018819   12345678
0010001300351R 01000000000000000000000000000000000000000000000000000000000000000000000000                                                                                          000000000000000000000000000000000000 000000000000  0000000000
0010001300352P 010000510000002827271 30597400000018820   111111512022/15/04  0101202300000000005921300000 02N080920220000000000000000000000000000000000000000000000000000000000000000000000000000001512022/15               00020000900198471441
0010001300353Q 011000013389021728CAMILA DA SILVA GOMES                   RUA SATELITE , 47                       SANTA MARIA    28024123CAMPOS DOS GOYTRJ0000000000000000                                        00030597400000018820   12345678
0010001300354R 01000000000000000000000000000000000000000000000000000000000000000000000000                                                                                          000000000000000000000000000000000000 000000000000  0000000000
0010001300355P 010000510000002827271 30597400000018821   111111512022/15/05  0102202300000000005921300000 02N080920220000000000000000000000000000000000000000000000000000000000000000000000000000001512022/15               00020000900198471441
0010001300356Q 011000013389021728CAMILA DA SILVA GOMES                   RUA SATELITE , 47                       SANTA MARIA    28024123CAMPOS DOS GOYTRJ0000000000000000                                        00030597400000018821   12345678
0010001300357R 01000000000000000000000000000000000000000000000000000000000000000000000000                                                                                          000000000000000000000000000000000000 000000000000  0000000000
0010001300358P 010000510000002827271 30597400000018822   111111512022/15/06  0103202300000000005921300000 02N080920220000000000000000000000000000000000000000000000000000000000000000000000000000001512022/15               00020000900198471441
0010001300359Q 011000013389021728CAMILA DA SILVA GOMES                   RUA SATELITE , 47                       SANTA MARIA    28024123CAMPOS DOS GOYTRJ0000000000000000                                        00030597400000018822   12345678
0010001300360R 01000000000000000000000000000000000000000000000000000000000000000000000000                                                                                          000000000000000000000000000000000000 000000000000  0000000000
0010001300361P 010000510000002827271 30597400000018823   111111512022/15/07  0104202300000000005921300000 02N080920220000000000000000000000000000000000000000000000000000000000000000000000000000001512022/15               00020000900198471441
0010001300362Q 011000013389021728CAMILA DA SILVA GOMES                   RUA SATELITE , 47                       SANTA MARIA    28024123CAMPOS DOS GOYTRJ0000000000000000                                        00030597400000018823   12345678
0010001300363R 01000000000000000000000000000000000000000000000000000000000000000000000000                                                                                          000000000000000000000000000000000000 000000000000  0000000000
0010001300364P 010000510000002827271 30597400000018824   111111512022/15/08  0105202300000000005921300000 02N080920220000000000000000000000000000000000000000000000000000000000000000000000000000001512022/15               00020000900198471441
0010001300365Q 011000013389021728CAMILA DA SILVA GOMES                   RUA SATELITE , 47                       SANTA MARIA    28024123CAMPOS DOS GOYTRJ0000000000000000                                        00030597400000018824   12345678
0010001300366R 01000000000000000000000000000000000000000000000000000000000000000000000000                                                                                          000000000000000000000000000000000000 000000000000  0000000000
0010001300367P 010000510000002827271 30597400000018825   111111512022/15/09  0106202300000000005921300000 02N080920220000000000000000000000000000000000000000000000000000000000000000000000000000001512022/15               00020000900198471441
0010001300368Q 011000013389021728CAMILA DA SILVA GOMES                   RUA SATELITE , 47                       SANTA MARIA    28024123CAMPOS DOS GOYTRJ0000000000000000                                        00030597400000018825   12345678
0010001300369R 01000000000000000000000000000000000000000000000000000000000000000000000000                                                                                          000000000000000000000000000000000000 000000000000  0000000000
0010001300370P 010000510000002827271 30597400000018826   111111512022/15/10  0107202300000000005921300000 02N080920220000000000000000000000000000000000000000000000000000000000000000000000000000001512022/15               00020000900198471441
0010001300371Q 011000013389021728CAMILA DA SILVA GOMES                   RUA SATELITE , 47                       SANTA MARIA    28024123CAMPOS DOS GOYTRJ0000000000000000                                        00030597400000018826   12345678
0010001300372R 01000000000000000000000000000000000000000000000000000000000000000000000000                                                                                          000000000000000000000000000000000000 000000000000  0000000000
0010001300373P 010000510000002827271 30597400000018827   111111512022/15/11  0108202300000000005921300000 02N080920220000000000000000000000000000000000000000000000000000000000000000000000000000001512022/15               00020000900198471441
0010001300374Q 011000013389021728CAMILA DA SILVA GOMES                   RUA SATELITE , 47                       SANTA MARIA    28024123CAMPOS DOS GOYTRJ0000000000000000                                        00030597400000018827   12345678
0010001300375R 01000000000000000000000000000000000000000000000000000000000000000000000000                                                                                          000000000000000000000000000000000000 000000000000  0000000000
0010001300376P 010000510000002827271 30597400000018828   111111512022/15/12  0109202300000000005921300000 02N080920220000000000000000000000000000000000000000000000000000000000000000000000000000001512022/15               00020000900198471441
0010001300377Q 011000013389021728CAMILA DA SILVA GOMES                   RUA SATELITE , 47                       SANTA MARIA    28024123CAMPOS DOS GOYTRJ0000000000000000                                        00030597400000018828   12345678
0010001300378R 01000000000000000000000000000000000000000000000000000000000000000000000000                                                                                          000000000000000000000000000000000000 000000000000  0000000000
0010001300379P 010000510000002827271 30597400000018829   111111512022/15/13  0110202300000000005921300000 02N080920220000000000000000000000000000000000000000000000000000000000000000000000000000001512022/15               00020000900198471441
0010001300380Q 011000013389021728CAMILA DA SILVA GOMES                   RUA SATELITE , 47                       SANTA MARIA    28024123CAMPOS DOS GOYTRJ0000000000000000                                        00030597400000018829   12345678
0010001300381R 01000000000000000000000000000000000000000000000000000000000000000000000000                                                                                          000000000000000000000000000000000000 000000000000  0000000000
0010001300382P 010000510000002827271 30597400000018830   111111512022/15/14  0111202300000000005921300000 02N080920220000000000000000000000000000000000000000000000000000000000000000000000000000001512022/15               00020000900198471441
0010001300383Q 011000013389021728CAMILA DA SILVA GOMES                   RUA SATELITE , 47                       SANTA MARIA    28024123CAMPOS DOS GOYTRJ0000000000000000                                        00030597400000018830   12345678
0010001300384R 01000000000000000000000000000000000000000000000000000000000000000000000000                                                                                          000000000000000000000000000000000000 000000000000  0000000000
0010001300385P 010000510000002827271 30597400000018831   111111512022/15/15  0112202300000000005921300000 02N080920220000000000000000000000000000000000000000000000000000000000000000000000000000001512022/15               00020000900198471441
0010001300386Q 011000013389021728CAMILA DA SILVA GOMES                   RUA SATELITE , 47                       SANTA MARIA    28024123CAMPOS DOS GOYTRJ0000000000000000                                        00030597400000018831   12345678
0010001300387R 01000000000000000000000000000000000000000000000000000000000000000000000000                                                                                          000000000000000000000000000000000000 000000000000  0000000000
0010001300388P 010000510000002827271 30597400000018832   111111512022/15/16  0101202400000000005921300000 02N080920220000000000000000000000000000000000000000000000000000000000000000000000000000001512022/15               00020000900198471441
0010001300389Q 011000013389021728CAMILA DA SILVA GOMES                   RUA SATELITE , 47                       SANTA MARIA    28024123CAMPOS DOS GOYTRJ0000000000000000                                        00030597400000018832   12345678
0010001300390R 01000000000000000000000000000000000000000000000000000000000000000000000000                                                                                          000000000000000000000000000000000000 000000000000  0000000000
0010001300391P 010000510000002827271 30597400000018833   111111512022/15/17  0102202400000000005921300000 02N080920220000000000000000000000000000000000000000000000000000000000000000000000000000001512022/15               00020000900198471441
0010001300392Q 011000013389021728CAMILA DA SILVA GOMES                   RUA SATELITE , 47                       SANTA MARIA    28024123CAMPOS DOS GOYTRJ0000000000000000                                        00030597400000018833   12345678
0010001300393R 01000000000000000000000000000000000000000000000000000000000000000000000000                                                                                          000000000000000000000000000000000000 000000000000  0000000000
0010001300394P 010000510000002827271 30597400000018834   111111512022/15/18  0103202400000000005921300000 02N080920220000000000000000000000000000000000000000000000000000000000000000000000000000001512022/15               00020000900198471441
0010001300395Q 011000013389021728CAMILA DA SILVA GOMES                   RUA SATELITE , 47                       SANTA MARIA    28024123CAMPOS DOS GOYTRJ0000000000000000                                        00030597400000018834   12345678
0010001300396R 01000000000000000000000000000000000000000000000000000000000000000000000000                                                                                          000000000000000000000000000000000000 000000000000  0000000000
0010001300397P 010000510000002827271 30597400000018907   111111522022/12/01  0110202200000000005921300000 02N080920220000000000000000000000000000000000000000000000000000000000000000000000000000001522022/12               00020000900198471441
0010001300398Q 011000005148908785ROGERIO DOS SANTOS NUNES                RUA DR. MATOS, 148                      PQ CAJU        28051175CAMPOS DOS GOYTRJ0000000000000000                                        00030597400000018907   12345678
0010001300399R 01000000000000000000000000000000000000000000000000000000000000000000000000                                                                                          000000000000000000000000000000000000 000000000000  0000000000
0010001300400P 010000510000002827271 30597400000018908   111111522022/12/02  0111202200000000005921300000 02N080920220000000000000000000000000000000000000000000000000000000000000000000000000000001522022/12               00020000900198471441
0010001300401Q 011000005148908785ROGERIO DOS SANTOS NUNES                RUA DR. MATOS, 148                      PQ CAJU        28051175CAMPOS DOS GOYTRJ0000000000000000                                        00030597400000018908   12345678
0010001300402R 01000000000000000000000000000000000000000000000000000000000000000000000000                                                                                          000000000000000000000000000000000000 000000000000  0000000000
0010001300403P 010000510000002827271 30597400000018909   111111522022/12/03  0112202200000000005921300000 02N080920220000000000000000000000000000000000000000000000000000000000000000000000000000001522022/12               00020000900198471441
0010001300404Q 011000005148908785ROGERIO DOS SANTOS NUNES                RUA DR. MATOS, 148                      PQ CAJU        28051175CAMPOS DOS GOYTRJ0000000000000000                                        00030597400000018909   12345678
0010001300405R 01000000000000000000000000000000000000000000000000000000000000000000000000                                                                                          000000000000000000000000000000000000 000000000000  0000000000
0010001300406P 010000510000002827271 30597400000018910   111111522022/12/04  0101202300000000005921300000 02N080920220000000000000000000000000000000000000000000000000000000000000000000000000000001522022/12               00020000900198471441
0010001300407Q 011000005148908785ROGERIO DOS SANTOS NUNES                RUA DR. MATOS, 148                      PQ CAJU        28051175CAMPOS DOS GOYTRJ0000000000000000                                        00030597400000018910   12345678
0010001300408R 01000000000000000000000000000000000000000000000000000000000000000000000000                                                                                          000000000000000000000000000000000000 000000000000  0000000000
0010001300409P 010000510000002827271 30597400000018911   111111522022/12/05  0102202300000000005921300000 02N080920220000000000000000000000000000000000000000000000000000000000000000000000000000001522022/12               00020000900198471441
0010001300410Q 011000005148908785ROGERIO DOS SANTOS NUNES                RUA DR. MATOS, 148                      PQ CAJU        28051175CAMPOS DOS GOYTRJ0000000000000000                                        00030597400000018911   12345678
0010001300411R 01000000000000000000000000000000000000000000000000000000000000000000000000                                                                                          000000000000000000000000000000000000 000000000000  0000000000
