00100000         2215452380001720030597400014       0000510000002827271 FUNDO DE DESENVOLVIMENTO DE CABANCO DO BRASIL                         22809202101421800190603000000516456668PROCESSAMEN                                                 
00100011T0100020 20215452380001720030597400014       0000510000002827271 FUNDO DE DESENVOLVIMENTO DE CA                                                                                000000002809202100000000  000000000                      
0010001300001T 020000510000002827271 30597400000013149   7897/REFIS/01   30092021000000000105230001000051897/REFIS                0900000000000010500000000000000000000000000000000000000   0000000000000000000000250A9A4      170193059740     
0010001300002U 020000000000000000000000000000000000000000000000000000000000000000000000000000000000000000000000000000000000000000000000002809202100000000            000000000000000                              000                           
0010001300003T 020000510000002827271 30597400000013150   7897/REFIS/02   30102021000000000105230001000051897/REFIS                0900000000000010500000000000000000000000000000000000000   0000000000000000000000250A9A4      170193059740     
0010001300004U 020000000000000000000000000000000000000000000000000000000000000000000000000000000000000000000000000000000000000000000000002809202100000000            000000000000000                              000                           
0010001300005T 020000510000002827271 30597400000013151   7897/REFIS/03   30112021000000000105230001000051897/REFIS                0900000000000010500000000000000000000000000000000000000   0000000000000000000000250A9A4      170193059740     
0010001300006U 020000000000000000000000000000000000000000000000000000000000000000000000000000000000000000000000000000000000000000000000002809202100000000            000000000000000                              000                           
0010001300007T 020000510000002827271 30597400000013152   70162018REFIS/01051020210000000000780240010000510162018REFIS             0900000000000010500000000000000000000000000000000000000   0000000000000000000000250A9A4      170193059740     
0010001300008U 020000000000000000000000000000000000000000000000000000000000000000000000000000000000000000000000000000000000000000000000002809202100000000            000000000000000                              000                           
0010001300009T 020000510000002827271 30597400000013153   70162018REFIS/02051120210000000000780240010000510162018REFIS             0900000000000010500000000000000000000000000000000000000   0000000000000000000000250A9A4      170193059740     
0010001300010U 020000000000000000000000000000000000000000000000000000000000000000000000000000000000000000000000000000000000000000000000002809202100000000            000000000000000                              000                           
0010001300011T 020000510000002827271 30597400000013154   70162018REFIS/03051220210000000000780240010000510162018REFIS             0900000000000010500000000000000000000000000000000000000   0000000000000000000000250A9A4      170193059740     
0010001300012U 020000000000000000000000000000000000000000000000000000000000000000000000000000000000000000000000000000000000000000000000002809202100000000            000000000000000                              000                           
0010001300013T 020000510000002827271 30597400000013155   70162018REFIS/04050120220000000000780240010000510162018REFIS             0900000000000010500000000000000000000000000000000000000   0000000000000000000000250A9A4      170193059740     
0010001300014U 020000000000000000000000000000000000000000000000000000000000000000000000000000000000000000000000000000000000000000000000002809202100000000            000000000000000                              000                           
0010001300015T 020000510000002827271 30597400000013156   70162018REFIS/05050220220000000000780240010000510162018REFIS             0900000000000010500000000000000000000000000000000000000   0000000000000000000000250A9A4      170193059740     
0010001300016U 020000000000000000000000000000000000000000000000000000000000000000000000000000000000000000000000000000000000000000000000002809202100000000            000000000000000                              000                           
0010001300017T 020000510000002827271 30597400000013157   70162018REFIS/06050320220000000000780240010000510162018REFIS             0900000000000010500000000000000000000000000000000000000   0000000000000000000000250A9A4      170193059740     
0010001300018U 020000000000000000000000000000000000000000000000000000000000000000000000000000000000000000000000000000000000000000000000002809202100000000            000000000000000                              000                           
0010001300019T 020000510000002827271 30597400000013158   70162018REFIS/07050420220000000000780240010000510162018REFIS             0900000000000010500000000000000000000000000000000000000   0000000000000000000000250A9A4      170193059740     
0010001300020U 020000000000000000000000000000000000000000000000000000000000000000000000000000000000000000000000000000000000000000000000002809202100000000            000000000000000                              000                           
0010001300021T 020000510000002827271 30597400000013159   70162018REFIS/08050520220000000000780240010000510162018REFIS             0900000000000010500000000000000000000000000000000000000   0000000000000000000000250A9A4      170193059740     
0010001300022U 020000000000000000000000000000000000000000000000000000000000000000000000000000000000000000000000000000000000000000000000002809202100000000            000000000000000                              000                           
0010001300023T 020000510000002827271 30597400000013160   70162018REFIS/09050620220000000000780240010000510162018REFIS             0900000000000010500000000000000000000000000000000000000   0000000000000000000000250A9A4      170193059740     
0010001300024U 020000000000000000000000000000000000000000000000000000000000000000000000000000000000000000000000000000000000000000000000002809202100000000            000000000000000                              000                           
0010001300025T 020000510000002827271 30597400000013161   70162018REFIS/10050720220000000000780240010000510162018REFIS             0900000000000010500000000000000000000000000000000000000   0000000000000000000000250A9A4      170193059740     
0010001300026U 020000000000000000000000000000000000000000000000000000000000000000000000000000000000000000000000000000000000000000000000002809202100000000            000000000000000                              000                           
0010001300027T 020000510000002827271 30597400000013162   70162018REFIS/11050820220000000000780240010000510162018REFIS             0900000000000010500000000000000000000000000000000000000   0000000000000000000000250A9A4      170193059740     
0010001300028U 020000000000000000000000000000000000000000000000000000000000000000000000000000000000000000000000000000000000000000000000002809202100000000            000000000000000                              000                           
0010001300029T 020000510000002827271 30597400000013163   70162018REFIS/12050920220000000000780240010000510162018REFIS             0900000000000010500000000000000000000000000000000000000   0000000000000000000000250A9A4      170193059740     
0010001300030U 020000000000000000000000000000000000000000000000000000000000000000000000000000000000000000000000000000000000000000000000002809202100000000            000000000000000                              000                           
0010001300031T 020000510000002827271 30597400000013164   70162018REFIS/13051020220000000000780240010000510162018REFIS             0900000000000010500000000000000000000000000000000000000   0000000000000000000000250A9A4      170193059740     
0010001300032U 020000000000000000000000000000000000000000000000000000000000000000000000000000000000000000000000000000000000000000000000002809202100000000            000000000000000                              000                           
0010001300033T 020000510000002827271 30597400000013165   70162018REFIS/14051120220000000000780240010000510162018REFIS             0900000000000010500000000000000000000000000000000000000   0000000000000000000000250A9A4      170193059740     
0010001300034U 020000000000000000000000000000000000000000000000000000000000000000000000000000000000000000000000000000000000000000000000002809202100000000            000000000000000                              000                           
0010001300035T 020000510000002827271 30597400000013166   70162018REFIS/15051220220000000000780240010000510162018REFIS             0900000000000010500000000000000000000000000000000000000   0000000000000000000000250A9A4      170193059740     
0010001300036U 020000000000000000000000000000000000000000000000000000000000000000000000000000000000000000000000000000000000000000000000002809202100000000            000000000000000                              000                           
0010001300037T 020000510000002827271 30597400000013167   70162018REFIS/16050120230000000000780240010000510162018REFIS             0900000000000010500000000000000000000000000000000000000   0000000000000000000000250A9A4      170193059740     
0010001300038U 020000000000000000000000000000000000000000000000000000000000000000000000000000000000000000000000000000000000000000000000002809202100000000            000000000000000                              000                           
0010001300039T 020000510000002827271 30597400000013168   70162018REFIS/17050220230000000000780240010000510162018REFIS             0900000000000010500000000000000000000000000000000000000   0000000000000000000000250A9A4      170193059740     
0010001300040U 020000000000000000000000000000000000000000000000000000000000000000000000000000000000000000000000000000000000000000000000002809202100000000            000000000000000                              000                           
0010001300041T 020000510000002827271 30597400000013169   70162018REFIS/18050320230000000000780240010000510162018REFIS             0900000000000010500000000000000000000000000000000000000   0000000000000000000000250A9A4      170193059740     
0010001300042U 020000000000000000000000000000000000000000000000000000000000000000000000000000000000000000000000000000000000000000000000002809202100000000            000000000000000                              000                           
0010001300043T 020000510000002827271 30597400000013170   70162018REFIS/19050420230000000000780240010000510162018REFIS             0900000000000010500000000000000000000000000000000000000   0000000000000000000000250A9A4      170193059740     
0010001300044U 020000000000000000000000000000000000000000000000000000000000000000000000000000000000000000000000000000000000000000000000002809202100000000            000000000000000                              000                           
0010001300045T 020000510000002827271 30597400000013171   70162018REFIS/20050520230000000000780240010000510162018REFIS             0900000000000010500000000000000000000000000000000000000   0000000000000000000000250A9A4      170193059740     
0010001300046U 020000000000000000000000000000000000000000000000000000000000000000000000000000000000000000000000000000000000000000000000002809202100000000            000000000000000                              000                           
0010001300047T 020000510000002827271 30597400000013172   70162018REFIS/21050620230000000000780240010000510162018REFIS             0900000000000010500000000000000000000000000000000000000   0000000000000000000000250A9A4      170193059740     
0010001300048U 020000000000000000000000000000000000000000000000000000000000000000000000000000000000000000000000000000000000000000000000002809202100000000            000000000000000                              000                           
0010001300049T 020000510000002827271 30597400000013173   70162018REFIS/22050720230000000000780240010000510162018REFIS             0900000000000010500000000000000000000000000000000000000   0000000000000000000000250A9A4      170193059740     
0010001300050U 020000000000000000000000000000000000000000000000000000000000000000000000000000000000000000000000000000000000000000000000002809202100000000            000000000000000                              000                           
0010001300051T 020000510000002827271 30597400000013174   70162018REFIS/23050820230000000000780240010000510162018REFIS             0900000000000010500000000000000000000000000000000000000   0000000000000000000000250A9A4      170193059740     
0010001300052U 020000000000000000000000000000000000000000000000000000000000000000000000000000000000000000000000000000000000000000000000002809202100000000            000000000000000                              000                           
0010001300053T 020000510000002827271 30597400000013175   70162018REFIS/24050920230000000000780240010000510162018REFIS             0900000000000010500000000000000000000000000000000000000   0000000000000000000000250A9A4      170193059740     
0010001300054U 020000000000000000000000000000000000000000000000000000000000000000000000000000000000000000000000000000000000000000000000002809202100000000            000000000000000                              000                           
0010001300055T 020000510000002827271 30597400000013176   70162018REFIS/25051020230000000000780240010000510162018REFIS             0900000000000010500000000000000000000000000000000000000   0000000000000000000000250A9A4      170193059740     
0010001300056U 020000000000000000000000000000000000000000000000000000000000000000000000000000000000000000000000000000000000000000000000002809202100000000            000000000000000                              000                           
0010001300057T 020000510000002827271 30597400000013177   70162018REFIS/26051120230000000000780240010000510162018REFIS             0900000000000010500000000000000000000000000000000000000   0000000000000000000000250A9A4      170193059740     
0010001300058U 020000000000000000000000000000000000000000000000000000000000000000000000000000000000000000000000000000000000000000000000002809202100000000            000000000000000                              000                           
0010001300059T 020000510000002827271 30597400000013178   70162018REFIS/27051220230000000000780240010000510162018REFIS             0900000000000010500000000000000000000000000000000000000   0000000000000000000000250A9A4      170193059740     
0010001300060U 020000000000000000000000000000000000000000000000000000000000000000000000000000000000000000000000000000000000000000000000002809202100000000            000000000000000                              000                           
0010001300061T 020000510000002827271 30597400000013179   70162018REFIS/28050120240000000000780240010000510162018REFIS             0900000000000010500000000000000000000000000000000000000   0000000000000000000000250A9A4      170193059740     
0010001300062U 020000000000000000000000000000000000000000000000000000000000000000000000000000000000000000000000000000000000000000000000002809202100000000            000000000000000                              000                           
0010001300063T 020000510000002827271 30597400000013180   70162018REFIS/29050220240000000000780240010000510162018REFIS             0900000000000010500000000000000000000000000000000000000   0000000000000000000000250A9A4      170193059740     
0010001300064U 020000000000000000000000000000000000000000000000000000000000000000000000000000000000000000000000000000000000000000000000002809202100000000            000000000000000                              000                           
0010001300065T 020000510000002827271 30597400000013181   70162018REFIS/30050320240000000000780240010000510162018REFIS             0900000000000010500000000000000000000000000000000000000   0000000000000000000000250A9A4      170193059740     
0010001300066U 020000000000000000000000000000000000000000000000000000000000000000000000000000000000000000000000000000000000000000000000002809202100000000            000000000000000                              000                           
0010001300067T 020000510000002827271 30597400000013182   70162018REFIS/31050420240000000000780240010000510162018REFIS             0900000000000010500000000000000000000000000000000000000   0000000000000000000000250A9A4      170193059740     
0010001300068U 020000000000000000000000000000000000000000000000000000000000000000000000000000000000000000000000000000000000000000000000002809202100000000            000000000000000                              000                           
0010001300069T 020000510000002827271 30597400000013183   70162018REFIS/32050520240000000000780240010000510162018REFIS             0900000000000010500000000000000000000000000000000000000   0000000000000000000000250A9A4      170193059740     
0010001300070U 020000000000000000000000000000000000000000000000000000000000000000000000000000000000000000000000000000000000000000000000002809202100000000            000000000000000                              000                           
0010001300071T 020000510000002827271 30597400000013184   70162018REFIS/33050620240000000000780240010000510162018REFIS             0900000000000010500000000000000000000000000000000000000   0000000000000000000000250A9A4      170193059740     
0010001300072U 020000000000000000000000000000000000000000000000000000000000000000000000000000000000000000000000000000000000000000000000002809202100000000            000000000000000                              000                           
0010001300073T 020000510000002827271 30597400000013185   70162018REFIS/34050720240000000000780240010000510162018REFIS             0900000000000010500000000000000000000000000000000000000   0000000000000000000000250A9A4      170193059740     
0010001300074U 020000000000000000000000000000000000000000000000000000000000000000000000000000000000000000000000000000000000000000000000002809202100000000            000000000000000                              000                           
0010001300075T 020000510000002827271 30597400000013186   70162018REFIS/35050820240000000000780240010000510162018REFIS             0900000000000010500000000000000000000000000000000000000   0000000000000000000000250A9A4      170193059740     
0010001300076U 020000000000000000000000000000000000000000000000000000000000000000000000000000000000000000000000000000000000000000000000002809202100000000            000000000000000                              000                           
0010001300077T 020000510000002827271 30597400000013187   70162018REFIS/36050920240000000000780240010000510162018REFIS             0900000000000010500000000000000000000000000000000000000   0000000000000000000000250A9A4      170193059740     
0010001300078U 020000000000000000000000000000000000000000000000000000000000000000000000000000000000000000000000000000000000000000000000002809202100000000            000000000000000                              000                           
0010001300079T 020000510000002827271 30597400000013188   77142019REFIS/01300920210000000000278720010000517142019REFIS             0900000000000010000000000000000000000000000000000000000   0000000000000000000000250A9        170193059740     
0010001300080U 020000000000000000000000000000000000000000000000000000000000000000000000000000000000000000000000000000000000000000000000002809202100000000            000000000000000                              000                           
0010001300081T 020000510000002827271 30597400000013189   77142019REFIS/02301020210000000000278720010000517142019REFIS             0900000000000010000000000000000000000000000000000000000   0000000000000000000000250A9        170193059740     
0010001300082U 020000000000000000000000000000000000000000000000000000000000000000000000000000000000000000000000000000000000000000000000002809202100000000            000000000000000                              000                           
0010001300083T 020000510000002827271 30597400000013190   77142019REFIS/03301120210000000000278720010000517142019REFIS             0900000000000010000000000000000000000000000000000000000   0000000000000000000000250A9        170193059740     
0010001300084U 020000000000000000000000000000000000000000000000000000000000000000000000000000000000000000000000000000000000000000000000002809202100000000            000000000000000                              000                           
0010001300085T 020000510000002827271 30597400000013191   77142019REFIS/04301220210000000000278720010000517142019REFIS             0900000000000010000000000000000000000000000000000000000   0000000000000000000000250A9        170193059740     
0010001300086U 020000000000000000000000000000000000000000000000000000000000000000000000000000000000000000000000000000000000000000000000002809202100000000            000000000000000                              000                           
0010001300087T 020000510000002827271 30597400000013192   77142019REFIS/05300120220000000000278720010000517142019REFIS             0900000000000010000000000000000000000000000000000000000   0000000000000000000000250A9        170193059740     
0010001300088U 020000000000000000000000000000000000000000000000000000000000000000000000000000000000000000000000000000000000000000000000002809202100000000            000000000000000                              000                           
0010001300089T 020000510000002827271 30597400000013193   77142019REFIS/06280220220000000000278720010000517142019REFIS             0900000000000010000000000000000000000000000000000000000   0000000000000000000000250A9        170193059740     
0010001300090U 020000000000000000000000000000000000000000000000000000000000000000000000000000000000000000000000000000000000000000000000002809202100000000            000000000000000                              000                           
0010001300091T 020000510000002827271 30597400000013194   77142019REFIS/07300320220000000000278720010000517142019REFIS             0900000000000010000000000000000000000000000000000000000   0000000000000000000000250A9        170193059740     
0010001300092U 020000000000000000000000000000000000000000000000000000000000000000000000000000000000000000000000000000000000000000000000002809202100000000            000000000000000                              000                           
0010001300093T 020000510000002827271 30597400000013195   77142019REFIS/08300420220000000000278720010000517142019REFIS             0900000000000010000000000000000000000000000000000000000   0000000000000000000000250A9        170193059740     
0010001300094U 020000000000000000000000000000000000000000000000000000000000000000000000000000000000000000000000000000000000000000000000002809202100000000            000000000000000                              000                           
0010001300095T 020000510000002827271 30597400000013196   77142019REFIS/09300520220000000000278720010000517142019REFIS             0900000000000010000000000000000000000000000000000000000   0000000000000000000000250A9        170193059740     
0010001300096U 020000000000000000000000000000000000000000000000000000000000000000000000000000000000000000000000000000000000000000000000002809202100000000            000000000000000                              000                           
0010001300097T 020000510000002827271 30597400000013197   77142019REFIS/10300620220000000000278720010000517142019REFIS             0900000000000010000000000000000000000000000000000000000   0000000000000000000000250A9        170193059740     
0010001300098U 020000000000000000000000000000000000000000000000000000000000000000000000000000000000000000000000000000000000000000000000002809202100000000            000000000000000                              000                           
0010001300099T 020000510000002827271 30597400000013198   77142019REFIS/11300720220000000000278720010000517142019REFIS             0900000000000010000000000000000000000000000000000000000   0000000000000000000000250A9        170193059740     
0010001300100U 020000000000000000000000000000000000000000000000000000000000000000000000000000000000000000000000000000000000000000000000002809202100000000            000000000000000                              000                           
0010001300101T 020000510000002827271 30597400000013199   77142019REFIS/12300820220000000000278720010000517142019REFIS             0900000000000010000000000000000000000000000000000000000   0000000000000000000000250A9        170193059740     
0010001300102U 020000000000000000000000000000000000000000000000000000000000000000000000000000000000000000000000000000000000000000000000002809202100000000            000000000000000                              000                           
0010001300103T 020000510000002827271 30597400000013200   79272019REFIS/01081020210000000000233630010007449272019REFIS             0900000000000010000000000000000000000000000000000000000   0000000000000000000000250A9        170193059740     
0010001300104U 020000000000000000000000000000000000000000000000000000000000000000000000000000000000000000000000000000000000000000000000002809202100000000            000000000000000                              000                           
0010001300105T 020000510000002827271 30597400000013201   79272019REFIS/02081120210000000000233630010007449272019REFIS             0900000000000010000000000000000000000000000000000000000   0000000000000000000000250A9        170193059740     
0010001300106U 020000000000000000000000000000000000000000000000000000000000000000000000000000000000000000000000000000000000000000000000002809202100000000            000000000000000                              000                           
0010001300107T 020000510000002827271 30597400000013202   79272019REFIS/03081220210000000000233630010007449272019REFIS             0900000000000010000000000000000000000000000000000000000   0000000000000000000000250A9        170193059740     
0010001300108U 020000000000000000000000000000000000000000000000000000000000000000000000000000000000000000000000000000000000000000000000002809202100000000            000000000000000                              000                           
0010001300109T 020000510000002827271 30597400000013203   79272019REFIS/04080120220000000000233630010007449272019REFIS             0900000000000010000000000000000000000000000000000000000   0000000000000000000000250A9        170193059740     
0010001300110U 020000000000000000000000000000000000000000000000000000000000000000000000000000000000000000000000000000000000000000000000002809202100000000            000000000000000                              000                           
0010001300111T 020000510000002827271 30597400000013204   79272019REFIS/05080220220000000000233630010007449272019REFIS             0900000000000010000000000000000000000000000000000000000   0000000000000000000000250A9        170193059740     
0010001300112U 020000000000000000000000000000000000000000000000000000000000000000000000000000000000000000000000000000000000000000000000002809202100000000            000000000000000                              000                           
0010001300113T 020000510000002827271 30597400000013205   79272019REFIS/06080320220000000000233630010007449272019REFIS             0900000000000010000000000000000000000000000000000000000   0000000000000000000000250A9        170193059740     
0010001300114U 020000000000000000000000000000000000000000000000000000000000000000000000000000000000000000000000000000000000000000000000002809202100000000            000000000000000                              000                           
0010001300115T 020000510000002827271 30597400000013206   79272019REFIS/07080420220000000000233630010007449272019REFIS             0900000000000010000000000000000000000000000000000000000   0000000000000000000000250A9        170193059740     
0010001300116U 020000000000000000000000000000000000000000000000000000000000000000000000000000000000000000000000000000000000000000000000002809202100000000            000000000000000                              000                           
0010001300117T 020000510000002827271 30597400000013207   79272019REFIS/08080520220000000000233630010007449272019REFIS             0900000000000010000000000000000000000000000000000000000   0000000000000000000000250A9        170193059740     
0010001300118U 020000000000000000000000000000000000000000000000000000000000000000000000000000000000000000000000000000000000000000000000002809202100000000            000000000000000                              000                           
0010001300119T 020000510000002827271 30597400000013208   79272019REFIS/09080620220000000000233630010007449272019REFIS             0900000000000010000000000000000000000000000000000000000   0000000000000000000000250A9        170193059740     
0010001300120U 020000000000000000000000000000000000000000000000000000000000000000000000000000000000000000000000000000000000000000000000002809202100000000            000000000000000                              000                           
0010001300121T 020000510000002827271 30597400000013209   79272019REFIS/10080720220000000000233630010007449272019REFIS             0900000000000010000000000000000000000000000000000000000   0000000000000000000000250A9        170193059740     
0010001300122U 020000000000000000000000000000000000000000000000000000000000000000000000000000000000000000000000000000000000000000000000002809202100000000            000000000000000                              000                           
0010001300123T 020000510000002827271 30597400000013210   79272019REFIS/11080820220000000000233630010007449272019REFIS             0900000000000010000000000000000000000000000000000000000   0000000000000000000000250A9        170193059740     
0010001300124U 020000000000000000000000000000000000000000000000000000000000000000000000000000000000000000000000000000000000000000000000002809202100000000            000000000000000                              000                           
0010001300125T 020000510000002827271 30597400000013211   79272019REFIS/12080920220000000000233630010007449272019REFIS             0900000000000010000000000000000000000000000000000000000   0000000000000000000000250A9        170193059740     
0010001300126U 020000000000000000000000000000000000000000000000000000000000000000000000000000000000000000000000000000000000000000000000002809202100000000            000000000000000                              000                           
0010001300127T 020000510000002827271 30597400000013212   79272019REFIS/13081020220000000000233630010007449272019REFIS             0900000000000010000000000000000000000000000000000000000   0000000000000000000000250A9        170193059740     
0010001300128U 020000000000000000000000000000000000000000000000000000000000000000000000000000000000000000000000000000000000000000000000002809202100000000            000000000000000                              000                           
0010001300129T 020000510000002827271 30597400000013213   79272019REFIS/14081120220000000000233630010007449272019REFIS             0900000000000010000000000000000000000000000000000000000   0000000000000000000000250A9        170193059740     
0010001300130U 020000000000000000000000000000000000000000000000000000000000000000000000000000000000000000000000000000000000000000000000002809202100000000            000000000000000                              000                           
0010001300131T 020000510000002827271 30597400000013214   79272019REFIS/15081220220000000000233630010007449272019REFIS             0900000000000010000000000000000000000000000000000000000   0000000000000000000000250A9        170193059740     
0010001300132U 020000000000000000000000000000000000000000000000000000000000000000000000000000000000000000000000000000000000000000000000002809202100000000            000000000000000                              000                           
0010001300133T 020000510000002827271 30597400000013215   79272019REFIS/16080120230000000000233630010007449272019REFIS             0900000000000010000000000000000000000000000000000000000   0000000000000000000000250A9        170193059740     
0010001300134U 020000000000000000000000000000000000000000000000000000000000000000000000000000000000000000000000000000000000000000000000002809202100000000            000000000000000                              000                           
0010001300135T 020000510000002827271 30597400000013216   79272019REFIS/17080220230000000000233630010007449272019REFIS             0900000000000010000000000000000000000000000000000000000   0000000000000000000000250A9        170193059740     
0010001300136U 020000000000000000000000000000000000000000000000000000000000000000000000000000000000000000000000000000000000000000000000002809202100000000            000000000000000                              000                           
0010001300137T 020000510000002827271 30597400000013217   79272019REFIS/18080320230000000000233630010007449272019REFIS             0900000000000010000000000000000000000000000000000000000   0000000000000000000000250A9        170193059740     
0010001300138U 020000000000000000000000000000000000000000000000000000000000000000000000000000000000000000000000000000000000000000000000002809202100000000            000000000000000                              000                           
0010001300139T 020000510000002827271 30597400000013218   79272019REFIS/19080420230000000000233630010007449272019REFIS             0900000000000010000000000000000000000000000000000000000   0000000000000000000000250A9        170193059740     
0010001300140U 020000000000000000000000000000000000000000000000000000000000000000000000000000000000000000000000000000000000000000000000002809202100000000            000000000000000                              000                           
0010001300141T 020000510000002827271 30597400000013219   79272019REFIS/20080520230000000000233630010007449272019REFIS             0900000000000010000000000000000000000000000000000000000   0000000000000000000000250A9        170193059740     
0010001300142U 020000000000000000000000000000000000000000000000000000000000000000000000000000000000000000000000000000000000000000000000002809202100000000            000000000000000                              000                           
0010001300143T 020000510000002827271 30597400000013220   79272019REFIS/21080620230000000000233630010007449272019REFIS             0900000000000010000000000000000000000000000000000000000   0000000000000000000000250A9        170193059740     
0010001300144U 020000000000000000000000000000000000000000000000000000000000000000000000000000000000000000000000000000000000000000000000002809202100000000            000000000000000                              000                           
0010001300145T 020000510000002827271 30597400000013221   79272019REFIS/22080720230000000000233630010007449272019REFIS             0900000000000010000000000000000000000000000000000000000   0000000000000000000000250A9        170193059740     
0010001300146U 020000000000000000000000000000000000000000000000000000000000000000000000000000000000000000000000000000000000000000000000002809202100000000            000000000000000                              000                           
0010001300147T 020000510000002827271 30597400000013222   79272019REFIS/23080820230000000000233630010007449272019REFIS             0900000000000010000000000000000000000000000000000000000   0000000000000000000000250A9        170193059740     
0010001300148U 020000000000000000000000000000000000000000000000000000000000000000000000000000000000000000000000000000000000000000000000002809202100000000            000000000000000                              000                           
0010001300149T 020000510000002827271 30597400000013223   79272019REFIS/24080920230000000000233630010007449272019REFIS             0900000000000010000000000000000000000000000000000000000   0000000000000000000000250A9        170193059740     
0010001300150U 020000000000000000000000000000000000000000000000000000000000000000000000000000000000000000000000000000000000000000000000002809202100000000            000000000000000                              000                           
0010001300151T 020000510000002827271 30597400000013224   79272019REFIS/25081020230000000000233630010007449272019REFIS             0900000000000010000000000000000000000000000000000000000   0000000000000000000000250A9        170193059740     
0010001300152U 020000000000000000000000000000000000000000000000000000000000000000000000000000000000000000000000000000000000000000000000002809202100000000            000000000000000                              000                           
0010001300153T 020000510000002827271 30597400000013225   79272019REFIS/26081120230000000000233630010007449272019REFIS             0900000000000010000000000000000000000000000000000000000   0000000000000000000000250A9        170193059740     
0010001300154U 020000000000000000000000000000000000000000000000000000000000000000000000000000000000000000000000000000000000000000000000002809202100000000            000000000000000                              000                           
0010001300155T 020000510000002827271 30597400000013226   79272019REFIS/27081220230000000000233630010007449272019REFIS             0900000000000010000000000000000000000000000000000000000   0000000000000000000000250A9        170193059740     
0010001300156U 020000000000000000000000000000000000000000000000000000000000000000000000000000000000000000000000000000000000000000000000002809202100000000            000000000000000                              000                           
0010001300157T 020000510000002827271 30597400000013227   79272019REFIS/28080120240000000000233630010007449272019REFIS             0900000000000010000000000000000000000000000000000000000   0000000000000000000000250A9        170193059740     
0010001300158U 020000000000000000000000000000000000000000000000000000000000000000000000000000000000000000000000000000000000000000000000002809202100000000            000000000000000                              000                           
0010001300159T 020000510000002827271 30597400000013228   79272019REFIS/29080220240000000000233630010007449272019REFIS             0900000000000010000000000000000000000000000000000000000   0000000000000000000000250A9        170193059740     
0010001300160U 020000000000000000000000000000000000000000000000000000000000000000000000000000000000000000000000000000000000000000000000002809202100000000            000000000000000                              000                           
0010001300161T 020000510000002827271 30597400000013229   79272019REFIS/30080320240000000000233630010007449272019REFIS             0900000000000010000000000000000000000000000000000000000   0000000000000000000000250A9        170193059740     
0010001300162U 020000000000000000000000000000000000000000000000000000000000000000000000000000000000000000000000000000000000000000000000002809202100000000            000000000000000                              000                           
0010001300163T 020000510000002827271 30597400000013230   79272019REFIS/31080420240000000000233630010007449272019REFIS             0900000000000010000000000000000000000000000000000000000   0000000000000000000000250A9        170193059740     
0010001300164U 020000000000000000000000000000000000000000000000000000000000000000000000000000000000000000000000000000000000000000000000002809202100000000            000000000000000                              000                           
0010001300165T 020000510000002827271 30597400000013231   79272019REFIS/32080520240000000000233630010007449272019REFIS             0900000000000010000000000000000000000000000000000000000   0000000000000000000000250A9        170193059740     
0010001300166U 020000000000000000000000000000000000000000000000000000000000000000000000000000000000000000000000000000000000000000000000002809202100000000            000000000000000                              000                           
0010001300167T 020000510000002827271 30597400000013232   79272019REFIS/33080620240000000000233630010007449272019REFIS             0900000000000010000000000000000000000000000000000000000   0000000000000000000000250A9        170193059740     
0010001300168U 020000000000000000000000000000000000000000000000000000000000000000000000000000000000000000000000000000000000000000000000002809202100000000            000000000000000                              000                           
0010001300169T 020000510000002827271 30597400000013233   79272019REFIS/34080720240000000000233630010007449272019REFIS             0900000000000010000000000000000000000000000000000000000   0000000000000000000000250A9        170193059740     
0010001300170U 020000000000000000000000000000000000000000000000000000000000000000000000000000000000000000000000000000000000000000000000002809202100000000            000000000000000                              000                           
0010001300171T 020000510000002827271 30597400000013234   79272019REFIS/35080820240000000000233630010007449272019REFIS             0900000000000010000000000000000000000000000000000000000   0000000000000000000000250A9        170193059740     
0010001300172U 020000000000000000000000000000000000000000000000000000000000000000000000000000000000000000000000000000000000000000000000002809202100000000            000000000000000                              000                           
0010001300173T 020000510000002827271 30597400000013235   79272019REFIS/36080920240000000000233700010007449272019REFIS             0900000000000010000000000000000000000000000000000000000   0000000000000000000000250A9        170193059740     
0010001300174U 020000000000000000000000000000000000000000000000000000000000000000000000000000000000000000000000000000000000000000000000002809202100000000            000000000000000                              000                           
0010001300175T 020000510000002827271 30597400000013236   72042021/12/01  221020210000000000387910010000512042021/12               0900000000000010500000000000000000000000000000000000000   0000000000000000000000250A9A4      170193059740     
0010001300176U 020000000000000000000000000000000000000000000000000000000000000000000000000000000000000000000000000000000000000000000000002809202100000000            000000000000000                              000                           
0010001300177T 020000510000002827271 30597400000013237   72042021/12/02  221120210000000000387910010000512042021/12               0900000000000010500000000000000000000000000000000000000   0000000000000000000000250A9A4      170193059740     
0010001300178U 020000000000000000000000000000000000000000000000000000000000000000000000000000000000000000000000000000000000000000000000002809202100000000            000000000000000                              000                           
0010001300179T 020000510000002827271 30597400000013238   72042021/12/03  221220210000000000387910010000512042021/12               0900000000000010500000000000000000000000000000000000000   0000000000000000000000250A9A4      170193059740     
0010001300180U 020000000000000000000000000000000000000000000000000000000000000000000000000000000000000000000000000000000000000000000000002809202100000000            000000000000000                              000                           
0010001300181T 020000510000002827271 30597400000013239   72042021/12/04  220120220000000000387910010000512042021/12               0900000000000010500000000000000000000000000000000000000   0000000000000000000000250A9A4      170193059740     
0010001300182U 020000000000000000000000000000000000000000000000000000000000000000000000000000000000000000000000000000000000000000000000002809202100000000            000000000000000                              000                           
0010001300183T 020000510000002827271 30597400000013240   72042021/12/05  220220220000000000387910010000512042021/12               0900000000000010500000000000000000000000000000000000000   0000000000000000000000250A9A4      170193059740     
0010001300184U 020000000000000000000000000000000000000000000000000000000000000000000000000000000000000000000000000000000000000000000000002809202100000000            000000000000000                              000                           
0010001300185T 020000510000002827271 30597400000013241   72042021/12/06  220320220000000000387910010000512042021/12               0900000000000010500000000000000000000000000000000000000   0000000000000000000000250A9A4      170193059740     
0010001300186U 020000000000000000000000000000000000000000000000000000000000000000000000000000000000000000000000000000000000000000000000002809202100000000            000000000000000                              000                           
0010001300187T 020000510000002827271 30597400000013242   72042021/12/07  220420220000000000387910010000512042021/12               0900000000000010500000000000000000000000000000000000000   0000000000000000000000250A9A4      170193059740     
0010001300188U 020000000000000000000000000000000000000000000000000000000000000000000000000000000000000000000000000000000000000000000000002809202100000000            000000000000000                              000                           
0010001300189T 020000510000002827271 30597400000013243   72042021/12/08  220520220000000000387910010000512042021/12               0900000000000010500000000000000000000000000000000000000   0000000000000000000000250A9A4      170193059740     
0010001300190U 020000000000000000000000000000000000000000000000000000000000000000000000000000000000000000000000000000000000000000000000002809202100000000            000000000000000                              000                           
0010001300191T 020000510000002827271 30597400000013244   72042021/12/09  220620220000000000387910010000512042021/12               0900000000000010500000000000000000000000000000000000000   0000000000000000000000250A9A4      170193059740     
0010001300192U 020000000000000000000000000000000000000000000000000000000000000000000000000000000000000000000000000000000000000000000000002809202100000000            000000000000000                              000                           
0010001300193T 020000510000002827271 30597400000013245   72042021/12/10  220720220000000000387910010000512042021/12               0900000000000010500000000000000000000000000000000000000   0000000000000000000000250A9A4      170193059740     
0010001300194U 020000000000000000000000000000000000000000000000000000000000000000000000000000000000000000000000000000000000000000000000002809202100000000            000000000000000                              000                           
0010001300195T 020000510000002827271 30597400000013246   72042021/12/11  220820220000000000387910010000512042021/12               0900000000000010500000000000000000000000000000000000000   0000000000000000000000250A9A4      170193059740     
0010001300196U 020000000000000000000000000000000000000000000000000000000000000000000000000000000000000000000000000000000000000000000000002809202100000000            000000000000000                              000                           
0010001300197T 020000510000002827271 30597400000013247   72042021/12/12  220920220000000000387910010000512042021/12               0900000000000010500000000000000000000000000000000000000   0000000000000000000000250A9A4      170193059740     
0010001300198U 020000000000000000000000000000000000000000000000000000000000000000000000000000000000000000000000000000000000000000000000002809202100000000            000000000000000                              000                           
0010001300199T 020000510000002827271 30597400000013248   72042021/12/13  221020220000000000387910010000512042021/12               0900000000000010500000000000000000000000000000000000000   0000000000000000000000250A9A4      170193059740     
0010001300200U 020000000000000000000000000000000000000000000000000000000000000000000000000000000000000000000000000000000000000000000000002809202100000000            000000000000000                              000                           
0010001300201T 020000510000002827271 30597400000013249   72042021/12/14  221120220000000000387910010000512042021/12               0900000000000010500000000000000000000000000000000000000   0000000000000000000000250A9A4      170193059740     
0010001300202U 020000000000000000000000000000000000000000000000000000000000000000000000000000000000000000000000000000000000000000000000002809202100000000            000000000000000                              000                           
0010001300203T 020000510000002827271 30597400000013250   72042021/12/15  221220220000000000387910010000512042021/12               0900000000000010500000000000000000000000000000000000000   0000000000000000000000250A9A4      170193059740     
0010001300204U 020000000000000000000000000000000000000000000000000000000000000000000000000000000000000000000000000000000000000000000000002809202100000000            000000000000000                              000                           
0010001300205T 020000510000002827271 30597400000013251   72042021/12/16  220120230000000000387910010000512042021/12               0900000000000010500000000000000000000000000000000000000   0000000000000000000000250A9A4      170193059740     
0010001300206U 020000000000000000000000000000000000000000000000000000000000000000000000000000000000000000000000000000000000000000000000002809202100000000            000000000000000                              000                           
0010001300207T 020000510000002827271 30597400000013252   72042021/12/17  220220230000000000387910010000512042021/12               0900000000000010500000000000000000000000000000000000000   0000000000000000000000250A9A4      170193059740     
0010001300208U 020000000000000000000000000000000000000000000000000000000000000000000000000000000000000000000000000000000000000000000000002809202100000000            000000000000000                              000                           
0010001300209T 020000510000002827271 30597400000013253   72042021/12/18  220320230000000000387910010000512042021/12               0900000000000010500000000000000000000000000000000000000   0000000000000000000000250A9A4      170193059740     
0010001300210U 020000000000000000000000000000000000000000000000000000000000000000000000000000000000000000000000000000000000000000000000002809202100000000            000000000000000                              000                           
0010001300211T 020000510000002827271 30597400000013254   72042021/12/19  220420230000000000387910010000512042021/12               0900000000000010500000000000000000000000000000000000000   0000000000000000000000250A9A4      170193059740     
0010001300212U 020000000000000000000000000000000000000000000000000000000000000000000000000000000000000000000000000000000000000000000000002809202100000000            000000000000000                              000                           
0010001300213T 020000510000002827271 30597400000013255   72042021/12/20  220520230000000000387910010000512042021/12               0900000000000010500000000000000000000000000000000000000   0000000000000000000000250A9A4      170193059740     
0010001300214U 020000000000000000000000000000000000000000000000000000000000000000000000000000000000000000000000000000000000000000000000002809202100000000            000000000000000                              000                           
0010001300215T 020000510000002827271 30597400000013256   72042021/12/21  220620230000000000387910010000512042021/12               0900000000000010500000000000000000000000000000000000000   0000000000000000000000250A9A4      170193059740     
0010001300216U 020000000000000000000000000000000000000000000000000000000000000000000000000000000000000000000000000000000000000000000000002809202100000000            000000000000000                              000                           
0010001300217T 020000510000002827271 30597400000013257   71962021/12/01  221020210000000000338590010000511962021/12               0900000000000010000000000000000000000000000000000000000   0000000000000000000000250A9        170193059740     
0010001300218U 020000000000000000000000000000000000000000000000000000000000000000000000000000000000000000000000000000000000000000000000002809202100000000            000000000000000                              000                           
0010001300219T 020000510000002827271 30597400000013258   71962021/12/02  221120210000000000338590010000511962021/12               0900000000000010000000000000000000000000000000000000000   0000000000000000000000250A9        170193059740     
0010001300220U 020000000000000000000000000000000000000000000000000000000000000000000000000000000000000000000000000000000000000000000000002809202100000000            000000000000000                              000                           
0010001300221T 020000510000002827271 30597400000013259   71962021/12/03  221220210000000000338590010000511962021/12               0900000000000010000000000000000000000000000000000000000   0000000000000000000000250A9        170193059740     
0010001300222U 020000000000000000000000000000000000000000000000000000000000000000000000000000000000000000000000000000000000000000000000002809202100000000            000000000000000                              000                           
0010001300223T 020000510000002827271 30597400000013260   71962021/12/04  220120220000000000338590010000511962021/12               0900000000000010000000000000000000000000000000000000000   0000000000000000000000250A9        170193059740     
0010001300224U 020000000000000000000000000000000000000000000000000000000000000000000000000000000000000000000000000000000000000000000000002809202100000000            000000000000000                              000                           
0010001300225T 020000510000002827271 30597400000013261   71962021/12/05  220220220000000000338590010000511962021/12               0900000000000010000000000000000000000000000000000000000   0000000000000000000000250A9        170193059740     
0010001300226U 020000000000000000000000000000000000000000000000000000000000000000000000000000000000000000000000000000000000000000000000002809202100000000            000000000000000                              000                           
0010001300227T 020000510000002827271 30597400000013262   71962021/12/06  220320220000000000338590010000511962021/12               0900000000000010000000000000000000000000000000000000000   0000000000000000000000250A9        170193059740     
0010001300228U 020000000000000000000000000000000000000000000000000000000000000000000000000000000000000000000000000000000000000000000000002809202100000000            000000000000000                              000                           
0010001300229T 020000510000002827271 30597400000013263   71962021/12/07  220420220000000000338590010000511962021/12               0900000000000010000000000000000000000000000000000000000   0000000000000000000000250A9        170193059740     
0010001300230U 020000000000000000000000000000000000000000000000000000000000000000000000000000000000000000000000000000000000000000000000002809202100000000            000000000000000                              000                           
0010001300231T 020000510000002827271 30597400000013264   71962021/12/08  220520220000000000338590010000511962021/12               0900000000000010000000000000000000000000000000000000000   0000000000000000000000250A9        170193059740     
0010001300232U 020000000000000000000000000000000000000000000000000000000000000000000000000000000000000000000000000000000000000000000000002809202100000000            000000000000000                              000                           
0010001300233T 020000510000002827271 30597400000013265   71962021/12/09  220620220000000000338590010000511962021/12               0900000000000010000000000000000000000000000000000000000   0000000000000000000000250A9        170193059740     
0010001300234U 020000000000000000000000000000000000000000000000000000000000000000000000000000000000000000000000000000000000000000000000002809202100000000            000000000000000                              000                           
0010001300235T 020000510000002827271 30597400000013266   71962021/12/10  220720220000000000338590010000511962021/12               0900000000000010000000000000000000000000000000000000000   0000000000000000000000250A9        170193059740     
0010001300236U 020000000000000000000000000000000000000000000000000000000000000000000000000000000000000000000000000000000000000000000000002809202100000000            000000000000000                              000                           
0010001300237T 020000510000002827271 30597400000013267   71962021/12/11  220820220000000000338590010000511962021/12               0900000000000010000000000000000000000000000000000000000   0000000000000000000000250A9        170193059740     
0010001300238U 020000000000000000000000000000000000000000000000000000000000000000000000000000000000000000000000000000000000000000000000002809202100000000            000000000000000                              000                           
0010001300239T 020000510000002827271 30597400000013268   71962021/12/12  220920220000000000338590010000511962021/12               0900000000000010000000000000000000000000000000000000000   0000000000000000000000250A9        170193059740     
0010001300240U 020000000000000000000000000000000000000000000000000000000000000000000000000000000000000000000000000000000000000000000000002809202100000000            000000000000000                              000                           
0010001300241T 020000510000002827271 30597400000013269   71962021/12/13  221020220000000000338590010000511962021/12               0900000000000010000000000000000000000000000000000000000   0000000000000000000000250A9        170193059740     
0010001300242U 020000000000000000000000000000000000000000000000000000000000000000000000000000000000000000000000000000000000000000000000002809202100000000            000000000000000                              000                           
0010001300243T 020000510000002827271 30597400000013270   71962021/12/14  221120220000000000338590010000511962021/12               0900000000000010000000000000000000000000000000000000000   0000000000000000000000250A9        170193059740     
0010001300244U 020000000000000000000000000000000000000000000000000000000000000000000000000000000000000000000000000000000000000000000000002809202100000000            000000000000000                              000                           
0010001300245T 020000510000002827271 30597400000013271   71962021/12/15  221220220000000000338590010000511962021/12               0900000000000010000000000000000000000000000000000000000   0000000000000000000000250A9        170193059740     
0010001300246U 020000000000000000000000000000000000000000000000000000000000000000000000000000000000000000000000000000000000000000000000002809202100000000            000000000000000                              000                           
0010001300247T 020000510000002827271 30597400000013272   71962021/12/16  220120230000000000338590010000511962021/12               0900000000000010000000000000000000000000000000000000000   0000000000000000000000250A9        170193059740     
0010001300248U 020000000000000000000000000000000000000000000000000000000000000000000000000000000000000000000000000000000000000000000000002809202100000000            000000000000000                              000                           
0010001300249T 020000510000002827271 30597400000013273   71962021/12/17  220220230000000000338590010000511962021/12               0900000000000010000000000000000000000000000000000000000   0000000000000000000000250A9        170193059740     
0010001300250U 020000000000000000000000000000000000000000000000000000000000000000000000000000000000000000000000000000000000000000000000002809202100000000            000000000000000                              000                           
0010001300251T 020000510000002827271 30597400000013274   71962021/12/18  220320230000000000338590010000511962021/12               0900000000000010000000000000000000000000000000000000000   0000000000000000000000250A9        170193059740     
0010001300252U 020000000000000000000000000000000000000000000000000000000000000000000000000000000000000000000000000000000000000000000000002809202100000000            000000000000000                              000                           
0010001300253T 020000510000002827271 30597400000013275   72022021/5/01   221020210000000000338590010000512022021/5                0900000000000010000000000000000000000000000000000000000   0000000000000000000000250A9        170193059740     
0010001300254U 020000000000000000000000000000000000000000000000000000000000000000000000000000000000000000000000000000000000000000000000002809202100000000            000000000000000                              000                           
0010001300255T 020000510000002827271 30597400000013276   72022021/5/02   221120210000000000338590010000512022021/5                0900000000000010000000000000000000000000000000000000000   0000000000000000000000250A9        170193059740     
0010001300256U 020000000000000000000000000000000000000000000000000000000000000000000000000000000000000000000000000000000000000000000000002809202100000000            000000000000000                              000                           
0010001300257T 020000510000002827271 30597400000013277   72022021/5/03   221220210000000000338590010000512022021/5                0900000000000010000000000000000000000000000000000000000   0000000000000000000000250A9        170193059740     
0010001300258U 020000000000000000000000000000000000000000000000000000000000000000000000000000000000000000000000000000000000000000000000002809202100000000            000000000000000                              000                           
0010001300259T 020000510000002827271 30597400000013278   72022021/5/04   220120220000000000338590010000512022021/5                0900000000000010000000000000000000000000000000000000000   0000000000000000000000250A9        170193059740     
0010001300260U 020000000000000000000000000000000000000000000000000000000000000000000000000000000000000000000000000000000000000000000000002809202100000000            000000000000000                              000                           
0010001300261T 020000510000002827271 30597400000013279   72022021/5/05   220220220000000000338590010000512022021/5                0900000000000010000000000000000000000000000000000000000   0000000000000000000000250A9        170193059740     
0010001300262U 020000000000000000000000000000000000000000000000000000000000000000000000000000000000000000000000000000000000000000000000002809202100000000            000000000000000                              000                           
0010001300263T 020000510000002827271 30597400000013280   72022021/5/06   220320220000000000338590010000512022021/5                0900000000000010000000000000000000000000000000000000000   0000000000000000000000250A9        170193059740     
0010001300264U 020000000000000000000000000000000000000000000000000000000000000000000000000000000000000000000000000000000000000000000000002809202100000000            000000000000000                              000                           
0010001300265T 020000510000002827271 30597400000013281   72022021/5/07   220420220000000000338590010000512022021/5                0900000000000010000000000000000000000000000000000000000   0000000000000000000000250A9        170193059740     
0010001300266U 020000000000000000000000000000000000000000000000000000000000000000000000000000000000000000000000000000000000000000000000002809202100000000            000000000000000                              000                           
0010001300267T 020000510000002827271 30597400000013282   72022021/5/08   220520220000000000338590010000512022021/5                0900000000000010000000000000000000000000000000000000000   0000000000000000000000250A9        170193059740     
0010001300268U 020000000000000000000000000000000000000000000000000000000000000000000000000000000000000000000000000000000000000000000000002809202100000000            000000000000000                              000                           
0010001300269T 020000510000002827271 30597400000013283   72022021/5/09   220620220000000000338590010000512022021/5                0900000000000010000000000000000000000000000000000000000   0000000000000000000000250A9        170193059740     
0010001300270U 020000000000000000000000000000000000000000000000000000000000000000000000000000000000000000000000000000000000000000000000002809202100000000            000000000000000                              000                           
0010001300271T 020000510000002827271 30597400000013284   72022021/5/10   220720220000000000338590010000512022021/5                0900000000000010000000000000000000000000000000000000000   0000000000000000000000250A9        170193059740     
0010001300272U 020000000000000000000000000000000000000000000000000000000000000000000000000000000000000000000000000000000000000000000000002809202100000000            000000000000000                              000                           
0010001300273T 020000510000002827271 30597400000013285   72022021/5/11   220820220000000000338590010000512022021/5                0900000000000010000000000000000000000000000000000000000   0000000000000000000000250A9        170193059740     
0010001300274U 020000000000000000000000000000000000000000000000000000000000000000000000000000000000000000000000000000000000000000000000002809202100000000            000000000000000                              000                           
0010001300275T 020000510000002827271 30597400000013286   72022021/5/12   220920220000000000338590010000512022021/5                0900000000000010000000000000000000000000000000000000000   0000000000000000000000250A9        170193059740     
0010001300276U 020000000000000000000000000000000000000000000000000000000000000000000000000000000000000000000000000000000000000000000000002809202100000000            000000000000000                              000                           
0010001300277T 020000510000002827271 30597400000013287   72022021/5/13   221020220000000000338590010000512022021/5                0900000000000010000000000000000000000000000000000000000   0000000000000000000000250A9        170193059740     
0010001300278U 020000000000000000000000000000000000000000000000000000000000000000000000000000000000000000000000000000000000000000000000002809202100000000            000000000000000                              000                           
0010001300279T 020000510000002827271 30597400000013288   72022021/5/14   221120220000000000338590010000512022021/5                0900000000000010000000000000000000000000000000000000000   0000000000000000000000250A9        170193059740     
0010001300280U 020000000000000000000000000000000000000000000000000000000000000000000000000000000000000000000000000000000000000000000000002809202100000000            000000000000000                              000                           
0010001300281T 020000510000002827271 30597400000013289   72022021/5/15   221220220000000000338590010000512022021/5                0900000000000010000000000000000000000000000000000000000   0000000000000000000000250A9        170193059740     
0010001300282U 020000000000000000000000000000000000000000000000000000000000000000000000000000000000000000000000000000000000000000000000002809202100000000            000000000000000                              000                           
0010001300283T 020000510000002827271 30597400000013290   72022021/5/16   220120230000000000338590010000512022021/5                0900000000000010000000000000000000000000000000000000000   0000000000000000000000250A9        170193059740     
0010001300284U 020000000000000000000000000000000000000000000000000000000000000000000000000000000000000000000000000000000000000000000000002809202100000000            000000000000000                              000                           
0010001300285T 020000510000002827271 30597400000013291   72022021/5/17   220220230000000000338590010000512022021/5                0900000000000010000000000000000000000000000000000000000   0000000000000000000000250A9        170193059740     
0010001300286U 020000000000000000000000000000000000000000000000000000000000000000000000000000000000000000000000000000000000000000000000002809202100000000            000000000000000                              000                           
0010001300287T 020000510000002827271 30597400000013292   72022021/5/18   220320230000000000338590010000512022021/5                0900000000000010000000000000000000000000000000000000000   0000000000000000000000250A9        170193059740     
0010001300288U 020000000000000000000000000000000000000000000000000000000000000000000000000000000000000000000000000000000000000000000000002809202100000000            000000000000000                              000                           
0010001300289T 020000510000002827271 30597400000013293   72062021/15/01  221020210000000000507880010000512062021/15               0900000000000010000000000000000000000000000000000000000   0000000000000000000000250A9        170193059740     
0010001300290U 020000000000000000000000000000000000000000000000000000000000000000000000000000000000000000000000000000000000000000000000002809202100000000            000000000000000                              000                           
0010001300291T 020000510000002827271 30597400000013294   72062021/15/02  221120210000000000507880010000512062021/15               0900000000000010000000000000000000000000000000000000000   0000000000000000000000250A9        170193059740     
0010001300292U 020000000000000000000000000000000000000000000000000000000000000000000000000000000000000000000000000000000000000000000000002809202100000000            000000000000000                              000                           
0010001300293T 020000510000002827271 30597400000013295   72062021/15/03  221220210000000000507880010000512062021/15               0900000000000010000000000000000000000000000000000000000   0000000000000000000000250A9        170193059740     
0010001300294U 020000000000000000000000000000000000000000000000000000000000000000000000000000000000000000000000000000000000000000000000002809202100000000            000000000000000                              000                           
0010001300295T 020000510000002827271 30597400000013296   72062021/15/04  220120220000000000507880010000512062021/15               0900000000000010000000000000000000000000000000000000000   0000000000000000000000250A9        170193059740     
0010001300296U 020000000000000000000000000000000000000000000000000000000000000000000000000000000000000000000000000000000000000000000000002809202100000000            000000000000000                              000                           
0010001300297T 020000510000002827271 30597400000013297   72062021/15/05  220220220000000000507880010000512062021/15               0900000000000010000000000000000000000000000000000000000   0000000000000000000000250A9        170193059740     
0010001300298U 020000000000000000000000000000000000000000000000000000000000000000000000000000000000000000000000000000000000000000000000002809202100000000            000000000000000                              000                           
0010001300299T 020000510000002827271 30597400000013298   72062021/15/06  220320220000000000507880010000512062021/15               0900000000000010000000000000000000000000000000000000000   0000000000000000000000250A9        170193059740     
0010001300300U 020000000000000000000000000000000000000000000000000000000000000000000000000000000000000000000000000000000000000000000000002809202100000000            000000000000000                              000                           
0010001300301T 020000510000002827271 30597400000013299   72062021/15/07  220420220000000000507880010000512062021/15               0900000000000010000000000000000000000000000000000000000   0000000000000000000000250A9        170193059740     
0010001300302U 020000000000000000000000000000000000000000000000000000000000000000000000000000000000000000000000000000000000000000000000002809202100000000            000000000000000                              000                           
0010001300303T 020000510000002827271 30597400000013300   72062021/15/08  220520220000000000507880010000512062021/15               0900000000000010000000000000000000000000000000000000000   0000000000000000000000250A9        170193059740     
0010001300304U 020000000000000000000000000000000000000000000000000000000000000000000000000000000000000000000000000000000000000000000000002809202100000000            000000000000000                              000                           
0010001300305T 020000510000002827271 30597400000013301   72062021/15/09  220620220000000000507880010000512062021/15               0900000000000010000000000000000000000000000000000000000   0000000000000000000000250A9        170193059740     
0010001300306U 020000000000000000000000000000000000000000000000000000000000000000000000000000000000000000000000000000000000000000000000002809202100000000            000000000000000                              000                           
0010001300307T 020000510000002827271 30597400000013302   72062021/15/10  220720220000000000507880010000512062021/15               0900000000000010000000000000000000000000000000000000000   0000000000000000000000250A9        170193059740     
0010001300308U 020000000000000000000000000000000000000000000000000000000000000000000000000000000000000000000000000000000000000000000000002809202100000000            000000000000000                              000                           
0010001300309T 020000510000002827271 30597400000013303   72062021/15/11  220820220000000000507880010000512062021/15               0900000000000010000000000000000000000000000000000000000   0000000000000000000000250A9        170193059740     
0010001300310U 020000000000000000000000000000000000000000000000000000000000000000000000000000000000000000000000000000000000000000000000002809202100000000            000000000000000                              000                           
0010001300311T 020000510000002827271 30597400000013304   72062021/15/12  220920220000000000507880010000512062021/15               0900000000000010000000000000000000000000000000000000000   0000000000000000000000250A9        170193059740     
0010001300312U 020000000000000000000000000000000000000000000000000000000000000000000000000000000000000000000000000000000000000000000000002809202100000000            000000000000000                              000                           
0010001300313T 020000510000002827271 30597400000013305   72062021/15/13  221020220000000000507880010000512062021/15               0900000000000010000000000000000000000000000000000000000   0000000000000000000000250A9        170193059740     
0010001300314U 020000000000000000000000000000000000000000000000000000000000000000000000000000000000000000000000000000000000000000000000002809202100000000            000000000000000                              000                           
0010001300315T 020000510000002827271 30597400000013306   72062021/15/14  221120220000000000507880010000512062021/15               0900000000000010000000000000000000000000000000000000000   0000000000000000000000250A9        170193059740     
0010001300316U 020000000000000000000000000000000000000000000000000000000000000000000000000000000000000000000000000000000000000000000000002809202100000000            000000000000000                              000                           
0010001300317T 020000510000002827271 30597400000013307   72062021/15/15  221220220000000000507880010000512062021/15               0900000000000010000000000000000000000000000000000000000   0000000000000000000000250A9        170193059740     
0010001300318U 020000000000000000000000000000000000000000000000000000000000000000000000000000000000000000000000000000000000000000000000002809202100000000            000000000000000                              000                           
0010001300319T 020000510000002827271 30597400000013308   72062021/15/16  220120230000000000507880010000512062021/15               0900000000000010000000000000000000000000000000000000000   0000000000000000000000250A9        170193059740     
0010001300320U 020000000000000000000000000000000000000000000000000000000000000000000000000000000000000000000000000000000000000000000000002809202100000000            000000000000000                              000                           
0010001300321T 020000510000002827271 30597400000013309   72062021/15/17  220220230000000000507880010000512062021/15               0900000000000010000000000000000000000000000000000000000   0000000000000000000000250A9        170193059740     
0010001300322U 020000000000000000000000000000000000000000000000000000000000000000000000000000000000000000000000000000000000000000000000002809202100000000            000000000000000                              000                           
0010001300323T 020000510000002827271 30597400000013310   72062021/15/18  220320230000000000507880010000512062021/15               0900000000000010000000000000000000000000000000000000000   0000000000000000000000250A9        170193059740     
0010001300324U 020000000000000000000000000000000000000000000000000000000000000000000000000000000000000000000000000000000000000000000000002809202100000000            000000000000000                              000                           
0010001300325T 020000510000002827271 30597400000013311   71892021/16/01  221020210000000000338590010000511892021/16               0900000000000010500000000000000000000000000000000000000   0000000000000000000000250A9A4      170193059740     
0010001300326U 020000000000000000000000000000000000000000000000000000000000000000000000000000000000000000000000000000000000000000000000002809202100000000            000000000000000                              000                           
0010001300327T 020000510000002827271 30597400000013312   71892021/16/02  221120210000000000338590010000511892021/16               0900000000000010500000000000000000000000000000000000000   0000000000000000000000250A9A4      170193059740     
0010001300328U 020000000000000000000000000000000000000000000000000000000000000000000000000000000000000000000000000000000000000000000000002809202100000000            000000000000000                              000                           
0010001300329T 020000510000002827271 30597400000013313   71892021/16/03  221220210000000000338590010000511892021/16               0900000000000010500000000000000000000000000000000000000   0000000000000000000000250A9A4      170193059740     
0010001300330U 020000000000000000000000000000000000000000000000000000000000000000000000000000000000000000000000000000000000000000000000002809202100000000            000000000000000                              000                           
0010001300331T 020000510000002827271 30597400000013314   71892021/16/04  220120220000000000338590010000511892021/16               0900000000000010500000000000000000000000000000000000000   0000000000000000000000250A9A4      170193059740     
0010001300332U 020000000000000000000000000000000000000000000000000000000000000000000000000000000000000000000000000000000000000000000000002809202100000000            000000000000000                              000                           
0010001300333T 020000510000002827271 30597400000013315   71892021/16/05  220220220000000000338590010000511892021/16               0900000000000010500000000000000000000000000000000000000   0000000000000000000000250A9A4      170193059740     
0010001300334U 020000000000000000000000000000000000000000000000000000000000000000000000000000000000000000000000000000000000000000000000002809202100000000            000000000000000                              000                           
0010001300335T 020000510000002827271 30597400000013316   71892021/16/06  220320220000000000338590010000511892021/16               0900000000000010500000000000000000000000000000000000000   0000000000000000000000250A9A4      170193059740     
0010001300336U 020000000000000000000000000000000000000000000000000000000000000000000000000000000000000000000000000000000000000000000000002809202100000000            000000000000000                              000                           
0010001300337T 020000510000002827271 30597400000013317   71892021/16/07  220420220000000000338590010000511892021/16               0900000000000010500000000000000000000000000000000000000   0000000000000000000000250A9A4      170193059740     
0010001300338U 020000000000000000000000000000000000000000000000000000000000000000000000000000000000000000000000000000000000000000000000002809202100000000            000000000000000                              000                           
0010001300339T 020000510000002827271 30597400000013318   71892021/16/08  220520220000000000338590010000511892021/16               0900000000000010500000000000000000000000000000000000000   0000000000000000000000250A9A4      170193059740     
0010001300340U 020000000000000000000000000000000000000000000000000000000000000000000000000000000000000000000000000000000000000000000000002809202100000000            000000000000000                              000                           
0010001300341T 020000510000002827271 30597400000013319   71892021/16/09  220620220000000000338590010000511892021/16               0900000000000010500000000000000000000000000000000000000   0000000000000000000000250A9A4      170193059740     
0010001300342U 020000000000000000000000000000000000000000000000000000000000000000000000000000000000000000000000000000000000000000000000002809202100000000            000000000000000                              000                           
0010001300343T 020000510000002827271 30597400000013320   71892021/16/10  220720220000000000338590010000511892021/16               0900000000000010500000000000000000000000000000000000000   0000000000000000000000250A9A4      170193059740     
0010001300344U 020000000000000000000000000000000000000000000000000000000000000000000000000000000000000000000000000000000000000000000000002809202100000000            000000000000000                              000                           
0010001300345T 020000510000002827271 30597400000013321   71892021/16/11  220820220000000000338590010000511892021/16               0900000000000010500000000000000000000000000000000000000   0000000000000000000000250A9A4      170193059740     
0010001300346U 020000000000000000000000000000000000000000000000000000000000000000000000000000000000000000000000000000000000000000000000002809202100000000            000000000000000                              000                           
0010001300347T 020000510000002827271 30597400000013322   71892021/16/12  220920220000000000338590010000511892021/16               0900000000000010500000000000000000000000000000000000000   0000000000000000000000250A9A4      170193059740     
0010001300348U 020000000000000000000000000000000000000000000000000000000000000000000000000000000000000000000000000000000000000000000000002809202100000000            000000000000000                              000                           
0010001300349T 020000510000002827271 30597400000013323   71892021/16/13  221020220000000000338590010000511892021/16               0900000000000010500000000000000000000000000000000000000   0000000000000000000000250A9A4      170193059740     
0010001300350U 020000000000000000000000000000000000000000000000000000000000000000000000000000000000000000000000000000000000000000000000002809202100000000            000000000000000                              000                           
0010001300351T 020000510000002827271 30597400000013324   71892021/16/14  221120220000000000338590010000511892021/16               0900000000000010500000000000000000000000000000000000000   0000000000000000000000250A9A4      170193059740     
0010001300352U 020000000000000000000000000000000000000000000000000000000000000000000000000000000000000000000000000000000000000000000000002809202100000000            000000000000000                              000                           
0010001300353T 020000510000002827271 30597400000013325   71892021/16/15  221220220000000000338590010000511892021/16               0900000000000010500000000000000000000000000000000000000   0000000000000000000000250A9A4      170193059740     
0010001300354U 020000000000000000000000000000000000000000000000000000000000000000000000000000000000000000000000000000000000000000000000002809202100000000            000000000000000                              000                           
0010001300355T 020000510000002827271 30597400000013326   71892021/16/16  220120230000000000338590010000511892021/16               0900000000000010500000000000000000000000000000000000000   0000000000000000000000250A9A4      170193059740     
0010001300356U 020000000000000000000000000000000000000000000000000000000000000000000000000000000000000000000000000000000000000000000000002809202100000000            000000000000000                              000                           
0010001300357T 020000510000002827271 30597400000013327   71892021/16/17  220220230000000000338590010000511892021/16               0900000000000010500000000000000000000000000000000000000   0000000000000000000000250A9A4      170193059740     
0010001300358U 020000000000000000000000000000000000000000000000000000000000000000000000000000000000000000000000000000000000000000000000002809202100000000            000000000000000                              000                           
0010001300359T 020000510000002827271 30597400000013328   71892021/16/18  220320230000000000338590010000511892021/16               0900000000000010500000000000000000000000000000000000000   0000000000000000000000250A9A4      170193059740     
0010001300360U 020000000000000000000000000000000000000000000000000000000000000000000000000000000000000000000000000000000000000000000000002809202100000000            000000000000000                              000                           
0010001300361T 020000510000002827271 30597400000013329   72012021/15/01  221020210000000000338590010000512012021/15               0900000000000010000000000000000000000000000000000000000   0000000000000000000000250A9        170193059740     
0010001300362U 020000000000000000000000000000000000000000000000000000000000000000000000000000000000000000000000000000000000000000000000002809202100000000            000000000000000                              000                           
0010001300363T 020000510000002827271 30597400000013330   72012021/15/02  221120210000000000338590010000512012021/15               0900000000000010000000000000000000000000000000000000000   0000000000000000000000250A9        170193059740     
0010001300364U 020000000000000000000000000000000000000000000000000000000000000000000000000000000000000000000000000000000000000000000000002809202100000000            000000000000000                              000                           
0010001300365T 020000510000002827271 30597400000013331   72012021/15/03  221220210000000000338590010000512012021/15               0900000000000010000000000000000000000000000000000000000   0000000000000000000000250A9        170193059740     
0010001300366U 020000000000000000000000000000000000000000000000000000000000000000000000000000000000000000000000000000000000000000000000002809202100000000            000000000000000                              000                           
0010001300367T 020000510000002827271 30597400000013332   72012021/15/04  220120220000000000338590010000512012021/15               0900000000000010000000000000000000000000000000000000000   0000000000000000000000250A9        170193059740     
0010001300368U 020000000000000000000000000000000000000000000000000000000000000000000000000000000000000000000000000000000000000000000000002809202100000000            000000000000000                              000                           
0010001300369T 020000510000002827271 30597400000013333   72012021/15/05  220220220000000000338590010000512012021/15               0900000000000010000000000000000000000000000000000000000   0000000000000000000000250A9        170193059740     
0010001300370U 020000000000000000000000000000000000000000000000000000000000000000000000000000000000000000000000000000000000000000000000002809202100000000            000000000000000                              000                           
0010001300371T 020000510000002827271 30597400000013334   72012021/15/06  220320220000000000338590010000512012021/15               0900000000000010000000000000000000000000000000000000000   0000000000000000000000250A9        170193059740     
0010001300372U 020000000000000000000000000000000000000000000000000000000000000000000000000000000000000000000000000000000000000000000000002809202100000000            000000000000000                              000                           
0010001300373T 020000510000002827271 30597400000013335   72012021/15/07  220420220000000000338590010000512012021/15               0900000000000010000000000000000000000000000000000000000   0000000000000000000000250A9        170193059740     
0010001300374U 020000000000000000000000000000000000000000000000000000000000000000000000000000000000000000000000000000000000000000000000002809202100000000            000000000000000                              000                           
0010001300375T 020000510000002827271 30597400000013336   72012021/15/08  220520220000000000338590010000512012021/15               0900000000000010000000000000000000000000000000000000000   0000000000000000000000250A9        170193059740     
0010001300376U 020000000000000000000000000000000000000000000000000000000000000000000000000000000000000000000000000000000000000000000000002809202100000000            000000000000000                              000                           
0010001300377T 020000510000002827271 30597400000013337   72012021/15/09  220620220000000000338590010000512012021/15               0900000000000010000000000000000000000000000000000000000   0000000000000000000000250A9        170193059740     
0010001300378U 020000000000000000000000000000000000000000000000000000000000000000000000000000000000000000000000000000000000000000000000002809202100000000            000000000000000                              000                           
0010001300379T 020000510000002827271 30597400000013338   72012021/15/10  220720220000000000338590010000512012021/15               0900000000000010000000000000000000000000000000000000000   0000000000000000000000250A9        170193059740     
0010001300380U 020000000000000000000000000000000000000000000000000000000000000000000000000000000000000000000000000000000000000000000000002809202100000000            000000000000000                              000                           
0010001300381T 020000510000002827271 30597400000013339   72012021/15/11  220820220000000000338590010000512012021/15               0900000000000010000000000000000000000000000000000000000   0000000000000000000000250A9        170193059740     
0010001300382U 020000000000000000000000000000000000000000000000000000000000000000000000000000000000000000000000000000000000000000000000002809202100000000            000000000000000                              000                           
0010001300383T 020000510000002827271 30597400000013340   72012021/15/12  220920220000000000338590010000512012021/15               0900000000000010000000000000000000000000000000000000000   0000000000000000000000250A9        170193059740     
0010001300384U 020000000000000000000000000000000000000000000000000000000000000000000000000000000000000000000000000000000000000000000000002809202100000000            000000000000000                              000                           
0010001300385T 020000510000002827271 30597400000013341   72012021/15/13  221020220000000000338590010000512012021/15               0900000000000010000000000000000000000000000000000000000   0000000000000000000000250A9        170193059740     
0010001300386U 020000000000000000000000000000000000000000000000000000000000000000000000000000000000000000000000000000000000000000000000002809202100000000            000000000000000                              000                           
0010001300387T 020000510000002827271 30597400000013342   72012021/15/14  221120220000000000338590010000512012021/15               0900000000000010000000000000000000000000000000000000000   0000000000000000000000250A9        170193059740     
0010001300388U 020000000000000000000000000000000000000000000000000000000000000000000000000000000000000000000000000000000000000000000000002809202100000000            000000000000000                              000                           
0010001300389T 020000510000002827271 30597400000013343   72012021/15/15  221220220000000000338590010000512012021/15               0900000000000010000000000000000000000000000000000000000   0000000000000000000000250A9        170193059740     
0010001300390U 020000000000000000000000000000000000000000000000000000000000000000000000000000000000000000000000000000000000000000000000002809202100000000            000000000000000                              000                           
0010001300391T 020000510000002827271 30597400000013344   72012021/15/16  220120230000000000338590010000512012021/15               0900000000000010000000000000000000000000000000000000000   0000000000000000000000250A9        170193059740     
0010001300392U 020000000000000000000000000000000000000000000000000000000000000000000000000000000000000000000000000000000000000000000000002809202100000000            000000000000000                              000                           
0010001300393T 020000510000002827271 30597400000013345   72012021/15/17  220220230000000000338590010000512012021/15               0900000000000010000000000000000000000000000000000000000   0000000000000000000000250A9        170193059740     
0010001300394U 020000000000000000000000000000000000000000000000000000000000000000000000000000000000000000000000000000000000000000000000002809202100000000            000000000000000                              000                           
0010001300395T 020000510000002827271 30597400000013346   72012021/15/18  220320230000000000338590010000512012021/15               0900000000000010000000000000000000000000000000000000000   0000000000000000000000250A9        170193059740     
0010001300396U 020000000000000000000000000000000000000000000000000000000000000000000000000000000000000000000000000000000000000000000000002809202100000000            000000000000000                              000                           
0010001300397T 020000510000002827271 30597400000013347   71512021/16/01  221020210000000000338590010000511512021/16               0900000000000010000000000000000000000000000000000000000   0000000000000000000000250A9        170193059740     
0010001300398U 020000000000000000000000000000000000000000000000000000000000000000000000000000000000000000000000000000000000000000000000002809202100000000            000000000000000                              000                           
0010001300399T 020000510000002827271 30597400000013348   71512021/16/02  221120210000000000338590010000511512021/16               0900000000000010000000000000000000000000000000000000000   0000000000000000000000250A9        170193059740     
0010001300400U 020000000000000000000000000000000000000000000000000000000000000000000000000000000000000000000000000000000000000000000000002809202100000000            000000000000000                              000                           
0010001300401T 020000510000002827271 30597400000013349   71512021/16/03  221220210000000000338590010000511512021/16               0900000000000010000000000000000000000000000000000000000   0000000000000000000000250A9        170193059740     
0010001300402U 020000000000000000000000000000000000000000000000000000000000000000000000000000000000000000000000000000000000000000000000002809202100000000            000000000000000                              000                           
0010001300403T 020000510000002827271 30597400000013350   71512021/16/04  220120220000000000338590010000511512021/16               0900000000000010000000000000000000000000000000000000000   0000000000000000000000250A9        170193059740     
0010001300404U 020000000000000000000000000000000000000000000000000000000000000000000000000000000000000000000000000000000000000000000000002809202100000000            000000000000000                              000                           
0010001300405T 020000510000002827271 30597400000013351   71512021/16/05  220220220000000000338590010000511512021/16               0900000000000010000000000000000000000000000000000000000   0000000000000000000000250A9        170193059740     
0010001300406U 020000000000000000000000000000000000000000000000000000000000000000000000000000000000000000000000000000000000000000000000002809202100000000            000000000000000                              000                           
0010001300407T 020000510000002827271 30597400000013352   71512021/16/06  220320220000000000338590010000511512021/16               0900000000000010000000000000000000000000000000000000000   0000000000000000000000250A9        170193059740     
0010001300408U 020000000000000000000000000000000000000000000000000000000000000000000000000000000000000000000000000000000000000000000000002809202100000000            000000000000000                              000                           
0010001300409T 020000510000002827271 30597400000013353   71512021/16/07  220420220000000000338590010000511512021/16               0900000000000010000000000000000000000000000000000000000   0000000000000000000000250A9        170193059740     
0010001300410U 020000000000000000000000000000000000000000000000000000000000000000000000000000000000000000000000000000000000000000000000002809202100000000            000000000000000                              000                           
0010001300411T 020000510000002827271 30597400000013354   71512021/16/08  220520220000000000338590010000511512021/16               0900000000000010000000000000000000000000000000000000000   0000000000000000000000250A9        170193059740     
